{
  "contractName": "AddressImpl",
  "abi": [
    {
      "anonymous": false,
      "inputs": [
        {
          "indexed": false,
          "internalType": "string",
          "name": "data",
          "type": "string"
        }
      ],
      "name": "CallReturnValue",
      "type": "event"
    },
    {
      "inputs": [],
      "name": "sharedAnswer",
      "outputs": [
        {
          "internalType": "string",
          "name": "",
          "type": "string"
        }
      ],
      "stateMutability": "view",
      "type": "function"
    },
    {
      "stateMutability": "payable",
      "type": "receive"
    },
    {
      "inputs": [
        {
          "internalType": "address",
          "name": "account",
          "type": "address"
        }
      ],
      "name": "isContract",
      "outputs": [
        {
          "internalType": "bool",
          "name": "",
          "type": "bool"
        }
      ],
      "stateMutability": "view",
      "type": "function"
    },
    {
      "inputs": [
        {
          "internalType": "address payable",
          "name": "receiver",
          "type": "address"
        },
        {
          "internalType": "uint256",
          "name": "amount",
          "type": "uint256"
        }
      ],
      "name": "sendValue",
      "outputs": [],
      "stateMutability": "nonpayable",
      "type": "function"
    },
    {
      "inputs": [
        {
          "internalType": "address",
          "name": "target",
          "type": "address"
        },
        {
          "internalType": "bytes",
          "name": "data",
          "type": "bytes"
        }
      ],
      "name": "functionCall",
      "outputs": [],
      "stateMutability": "nonpayable",
      "type": "function"
    },
    {
      "inputs": [
        {
          "internalType": "address",
          "name": "target",
          "type": "address"
        },
        {
          "internalType": "bytes",
          "name": "data",
          "type": "bytes"
        },
        {
          "internalType": "uint256",
          "name": "value",
          "type": "uint256"
        }
      ],
      "name": "functionCallWithValue",
      "outputs": [],
      "stateMutability": "payable",
      "type": "function"
    },
    {
      "inputs": [
        {
          "internalType": "address",
          "name": "target",
          "type": "address"
        },
        {
          "internalType": "bytes",
          "name": "data",
          "type": "bytes"
        }
      ],
      "name": "functionStaticCall",
      "outputs": [],
      "stateMutability": "nonpayable",
      "type": "function"
    },
    {
      "inputs": [
        {
          "internalType": "address",
          "name": "target",
          "type": "address"
        },
        {
          "internalType": "bytes",
          "name": "data",
          "type": "bytes"
        }
      ],
      "name": "functionDelegateCall",
      "outputs": [],
      "stateMutability": "nonpayable",
      "type": "function"
    }
  ],
  "bytecode": "0x608060405234801561001057600080fd5b50611341806100206000396000f3fe6080604052600436106100745760003560e01c8063a0b5ffb01161004e578063a0b5ffb014610102578063c21d36f31461012b578063ee33b7e214610154578063fc40cf731461017d5761007b565b8063162790551461008057806324a084df146100bd5780632a011594146100e65761007b565b3661007b57005b600080fd5b34801561008c57600080fd5b506100a760048036038101906100a29190610ad8565b6101a8565b6040516100b49190610ddc565b60405180910390f35b3480156100c957600080fd5b506100e460048036038101906100df9190610b01565b6101ba565b005b61010060048036038101906100fb9190610b95565b6101c8565b005b34801561010e57600080fd5b5061012960048036038101906101249190610b3d565b61026c565b005b34801561013757600080fd5b50610152600480360381019061014d9190610b3d565b61030e565b005b34801561016057600080fd5b5061017b60048036038101906101769190610b3d565b6103b0565b005b34801561018957600080fd5b50610192610452565b60405161019f9190610df7565b60405180910390f35b60006101b3826104e0565b9050919050565b6101c482826104f3565b5050565b60006102198585858080601f016020809104026020016040519081016040528093929190818152602001838380828437600081840152601f19601f82011690508083019250505050505050846105e7565b90507fe518073da644d0626295bee74d5d5c51447a33857c62913bb30f35e2fba3db7c818060200190518101906102509190610c01565b60405161025d9190610df7565b60405180910390a15050505050565b60006102bc8484848080601f016020809104026020016040519081016040528093929190818152602001838380828437600081840152601f19601f82011690508083019250505050505050610616565b90507fe518073da644d0626295bee74d5d5c51447a33857c62913bb30f35e2fba3db7c818060200190518101906102f39190610c01565b6040516103009190610df7565b60405180910390a150505050565b600061035e8484848080601f016020809104026020016040519081016040528093929190818152602001838380828437600081840152601f19601f82011690508083019250505050505050610660565b90507fe518073da644d0626295bee74d5d5c51447a33857c62913bb30f35e2fba3db7c818060200190518101906103959190610c01565b6040516103a29190610df7565b60405180910390a150505050565b60006104008484848080601f016020809104026020016040519081016040528093929190818152602001838380828437600081840152601f19601f8201169050808301925050505050505061068d565b90507fe518073da644d0626295bee74d5d5c51447a33857c62913bb30f35e2fba3db7c818060200190518101906104379190610c01565b6040516104449190610df7565b60405180910390a150505050565b6000805461045f90610fee565b80601f016020809104026020016040519081016040528092919081815260200182805461048b90610fee565b80156104d85780601f106104ad576101008083540402835291602001916104d8565b820191906000526020600020905b8154815290600101906020018083116104bb57829003601f168201915b505050505081565b600080823b905060008111915050919050565b80471015610536576040517f08c379a000000000000000000000000000000000000000000000000000000000815260040161052d90610e39565b60405180910390fd5b60008273ffffffffffffffffffffffffffffffffffffffff168260405161055c90610dc7565b60006040518083038185875af1925050503d8060008114610599576040519150601f19603f3d011682016040523d82523d6000602084013e61059e565b606091505b50509050806105e2576040517f08c379a00000000000000000000000000000000000000000000000000000000081526004016105d990610e19565b60405180910390fd5b505050565b606061060d848484604051806060016040528060298152602001611297602991396106ba565b90509392505050565b606061065883836040518060400160405280601e81526020017f416464726573733a206c6f772d6c6576656c2063616c6c206661696c656400008152506107ce565b905092915050565b606061068583836040518060600160405280602581526020016112c0602591396107e6565b905092915050565b60606106b283836040518060600160405280602781526020016112e5602791396108b3565b905092915050565b6060824710156106ff576040517f08c379a00000000000000000000000000000000000000000000000000000000081526004016106f690610e59565b60405180910390fd5b610708856104e0565b610747576040517f08c379a000000000000000000000000000000000000000000000000000000000815260040161073e90610eb9565b60405180910390fd5b6000808673ffffffffffffffffffffffffffffffffffffffff1685876040516107709190610db0565b60006040518083038185875af1925050503d80600081146107ad576040519150601f19603f3d011682016040523d82523d6000602084013e6107b2565b606091505b50915091506107c2828286610980565b92505050949350505050565b60606107dd84846000856106ba565b90509392505050565b60606107f1846104e0565b610830576040517f08c379a000000000000000000000000000000000000000000000000000000000815260040161082790610e99565b60405180910390fd5b6000808573ffffffffffffffffffffffffffffffffffffffff16856040516108589190610db0565b600060405180830381855afa9150503d8060008114610893576040519150601f19603f3d011682016040523d82523d6000602084013e610898565b606091505b50915091506108a8828286610980565b925050509392505050565b60606108be846104e0565b6108fd576040517f08c379a00000000000000000000000000000000000000000000000000000000081526004016108f490610e79565b60405180910390fd5b6000808573ffffffffffffffffffffffffffffffffffffffff16856040516109259190610db0565b600060405180830381855af49150503d8060008114610960576040519150601f19603f3d011682016040523d82523d6000602084013e610965565b606091505b5091509150610975828286610980565b925050509392505050565b60608315610990578290506109e0565b6000835111156109a35782518084602001fd5b816040517f08c379a00000000000000000000000000000000000000000000000000000000081526004016109d79190610df7565b60405180910390fd5b9392505050565b60006109fa6109f584610efe565b610ed9565b905082815260208101848484011115610a1257600080fd5b610a1d848285610fbb565b509392505050565b600081359050610a3481611251565b92915050565b600081359050610a4981611268565b92915050565b60008083601f840112610a6157600080fd5b8235905067ffffffffffffffff811115610a7a57600080fd5b602083019150836001820283011115610a9257600080fd5b9250929050565b600082601f830112610aaa57600080fd5b8151610aba8482602086016109e7565b91505092915050565b600081359050610ad28161127f565b92915050565b600060208284031215610aea57600080fd5b6000610af884828501610a25565b91505092915050565b60008060408385031215610b1457600080fd5b6000610b2285828601610a3a565b9250506020610b3385828601610ac3565b9150509250929050565b600080600060408486031215610b5257600080fd5b6000610b6086828701610a25565b935050602084013567ffffffffffffffff811115610b7d57600080fd5b610b8986828701610a4f565b92509250509250925092565b60008060008060608587031215610bab57600080fd5b6000610bb987828801610a25565b945050602085013567ffffffffffffffff811115610bd657600080fd5b610be287828801610a4f565b93509350506040610bf587828801610ac3565b91505092959194509250565b600060208284031215610c1357600080fd5b600082015167ffffffffffffffff811115610c2d57600080fd5b610c3984828501610a99565b91505092915050565b610c4b81610f85565b82525050565b6000610c5c82610f2f565b610c668185610f45565b9350610c76818560208601610fbb565b80840191505092915050565b6000610c8d82610f3a565b610c978185610f50565b9350610ca7818560208601610fbb565b610cb0816110af565b840191505092915050565b6000610cc8603a83610f50565b9150610cd3826110c0565b604082019050919050565b6000610ceb601d83610f50565b9150610cf68261110f565b602082019050919050565b6000610d0e602683610f50565b9150610d1982611138565b604082019050919050565b6000610d31602683610f50565b9150610d3c82611187565b604082019050919050565b6000610d54600083610f45565b9150610d5f826111d6565b600082019050919050565b6000610d77602483610f50565b9150610d82826111d9565b604082019050919050565b6000610d9a601d83610f50565b9150610da582611228565b602082019050919050565b6000610dbc8284610c51565b915081905092915050565b6000610dd282610d47565b9150819050919050565b6000602082019050610df16000830184610c42565b92915050565b60006020820190508181036000830152610e118184610c82565b905092915050565b60006020820190508181036000830152610e3281610cbb565b9050919050565b60006020820190508181036000830152610e5281610cde565b9050919050565b60006020820190508181036000830152610e7281610d01565b9050919050565b60006020820190508181036000830152610e9281610d24565b9050919050565b60006020820190508181036000830152610eb281610d6a565b9050919050565b60006020820190508181036000830152610ed281610d8d565b9050919050565b6000610ee3610ef4565b9050610eef8282611020565b919050565b6000604051905090565b600067ffffffffffffffff821115610f1957610f18611080565b5b610f22826110af565b9050602081019050919050565b600081519050919050565b600081519050919050565b600081905092915050565b600082825260208201905092915050565b6000610f6c82610f91565b9050919050565b6000610f7e82610f91565b9050919050565b60008115159050919050565b600073ffffffffffffffffffffffffffffffffffffffff82169050919050565b6000819050919050565b60005b83811015610fd9578082015181840152602081019050610fbe565b83811115610fe8576000848401525b50505050565b6000600282049050600182168061100657607f821691505b6020821081141561101a57611019611051565b5b50919050565b611029826110af565b810181811067ffffffffffffffff8211171561104857611047611080565b5b80604052505050565b7f4e487b7100000000000000000000000000000000000000000000000000000000600052602260045260246000fd5b7f4e487b7100000000000000000000000000000000000000000000000000000000600052604160045260246000fd5b6000601f19601f8301169050919050565b7f416464726573733a20756e61626c6520746f2073656e642076616c75652c207260008201527f6563697069656e74206d61792068617665207265766572746564000000000000602082015250565b7f416464726573733a20696e73756666696369656e742062616c616e6365000000600082015250565b7f416464726573733a20696e73756666696369656e742062616c616e636520666f60008201527f722063616c6c0000000000000000000000000000000000000000000000000000602082015250565b7f416464726573733a2064656c65676174652063616c6c20746f206e6f6e2d636f60008201527f6e74726163740000000000000000000000000000000000000000000000000000602082015250565b50565b7f416464726573733a207374617469632063616c6c20746f206e6f6e2d636f6e7460008201527f7261637400000000000000000000000000000000000000000000000000000000602082015250565b7f416464726573733a2063616c6c20746f206e6f6e2d636f6e7472616374000000600082015250565b61125a81610f61565b811461126557600080fd5b50565b61127181610f73565b811461127c57600080fd5b50565b61128881610fb1565b811461129357600080fd5b5056fe416464726573733a206c6f772d6c6576656c2063616c6c20776974682076616c7565206661696c6564416464726573733a206c6f772d6c6576656c207374617469632063616c6c206661696c6564416464726573733a206c6f772d6c6576656c2064656c65676174652063616c6c206661696c6564a26469706673582212208aefd42b7eca5e47b1f26b72d6955365c7edf0cf44518c1aeb286d8ece27aec764736f6c63430008040033",
  "immutableReferences": {},
  "source": "// SPDX-License-Identifier: MIT\n\npragma solidity ^0.8.0;\n\nimport \"../utils/Address.sol\";\n\ncontract AddressImpl {\n    string public sharedAnswer;\n\n    event CallReturnValue(string data);\n\n    function isContract(address account) external view returns (bool) {\n        return Address.isContract(account);\n    }\n\n    function sendValue(address payable receiver, uint256 amount) external {\n        Address.sendValue(receiver, amount);\n    }\n\n    function functionCall(address target, bytes calldata data) external {\n        bytes memory returnData = Address.functionCall(target, data);\n        emit CallReturnValue(abi.decode(returnData, (string)));\n    }\n\n    function functionCallWithValue(\n        address target,\n        bytes calldata data,\n        uint256 value\n    ) external payable {\n        bytes memory returnData = Address.functionCallWithValue(target, data, value);\n        emit CallReturnValue(abi.decode(returnData, (string)));\n    }\n\n    function functionStaticCall(address target, bytes calldata data) external {\n        bytes memory returnData = Address.functionStaticCall(target, data);\n        emit CallReturnValue(abi.decode(returnData, (string)));\n    }\n\n    function functionDelegateCall(address target, bytes calldata data) external {\n        bytes memory returnData = Address.functionDelegateCall(target, data);\n        emit CallReturnValue(abi.decode(returnData, (string)));\n    }\n\n    // sendValue's tests require the contract to hold Ether\n    receive() external payable {}\n}\n",
  "sourcePath": "/Users/alexanderpetrovskiy/work/neon/neon-uat/openzeppelin-contracts/contracts/mocks/AddressImpl.sol",
  "compiler": {
    "name": "solc",
    "version": "0.8.4+commit.c7e474f2.Emscripten.clang"
  },
  "schemaVersion": "3.4.3",
  "updatedAt": "2021-10-12T15:22:38.634Z",
  "devdoc": {
    "kind": "dev",
    "methods": {},
    "version": 1
  },
  "userdoc": {
    "kind": "user",
    "methods": {},
    "version": 1
  }
}