{
  "contractName": "Create2Impl",
  "abi": [
    {
      "stateMutability": "payable",
      "type": "receive"
    },
    {
      "inputs": [
        {
          "internalType": "uint256",
          "name": "value",
          "type": "uint256"
        },
        {
          "internalType": "bytes32",
          "name": "salt",
          "type": "bytes32"
        },
        {
          "internalType": "bytes",
          "name": "code",
          "type": "bytes"
        }
      ],
      "name": "deploy",
      "outputs": [],
      "stateMutability": "nonpayable",
      "type": "function"
    },
    {
      "inputs": [
        {
          "internalType": "uint256",
          "name": "value",
          "type": "uint256"
        },
        {
          "internalType": "bytes32",
          "name": "salt",
          "type": "bytes32"
        }
      ],
      "name": "deployERC1820Implementer",
      "outputs": [],
      "stateMutability": "nonpayable",
      "type": "function"
    },
    {
      "inputs": [
        {
          "internalType": "bytes32",
          "name": "salt",
          "type": "bytes32"
        },
        {
          "internalType": "bytes32",
          "name": "codeHash",
          "type": "bytes32"
        }
      ],
      "name": "computeAddress",
      "outputs": [
        {
          "internalType": "address",
          "name": "",
          "type": "address"
        }
      ],
      "stateMutability": "view",
      "type": "function"
    },
    {
      "inputs": [
        {
          "internalType": "bytes32",
          "name": "salt",
          "type": "bytes32"
        },
        {
          "internalType": "bytes32",
          "name": "codeHash",
          "type": "bytes32"
        },
        {
          "internalType": "address",
          "name": "deployer",
          "type": "address"
        }
      ],
      "name": "computeAddressWithDeployer",
      "outputs": [
        {
          "internalType": "address",
          "name": "",
          "type": "address"
        }
      ],
      "stateMutability": "pure",
      "type": "function"
    }
  ],
  "bytecode": "0x608060405234801561001057600080fd5b50610b35806100206000396000f3fe6080604052600436106100435760003560e01c8063076c37b21461004f578063481286e61461007857806356299481146100b557806366cfa057146100f25761004a565b3661004a57005b600080fd5b34801561005b57600080fd5b5061007660048036038101906100719190610432565b61011b565b005b34801561008457600080fd5b5061009f600480360381019061009a91906103a7565b61014e565b6040516100ac91906105e0565b60405180910390f35b3480156100c157600080fd5b506100dc60048036038101906100d791906103e3565b610162565b6040516100e991906105e0565b60405180910390f35b3480156100fe57600080fd5b506101196004803603810190610114919061046e565b610178565b005b610149828260405180602001610130906102f3565b6020820181038252601f19601f82011660405250610189565b505050565b600061015a838361029a565b905092915050565b600061016f8484846102af565b90509392505050565b610183838383610189565b50505050565b600080844710156101cf576040517f08c379a00000000000000000000000000000000000000000000000000000000081526004016101c69061063b565b60405180910390fd5b600083511415610214576040517f08c379a000000000000000000000000000000000000000000000000000000000815260040161020b906105fb565b60405180910390fd5b8383516020850187f59050600073ffffffffffffffffffffffffffffffffffffffff168173ffffffffffffffffffffffffffffffffffffffff16141561028f576040517f08c379a00000000000000000000000000000000000000000000000000000000081526004016102869061061b565b60405180910390fd5b809150509392505050565b60006102a78383306102af565b905092915050565b60008060ff60f81b8386866040516020016102cd9493929190610592565b6040516020818303038152906040528051906020012090508060001c9150509392505050565b610246806108ba83390190565b600061031361030e84610680565b61065b565b90508281526020810184848401111561032b57600080fd5b610336848285610734565b509392505050565b60008135905061034d81610874565b92915050565b6000813590506103628161088b565b92915050565b600082601f83011261037957600080fd5b8135610389848260208601610300565b91505092915050565b6000813590506103a1816108a2565b92915050565b600080604083850312156103ba57600080fd5b60006103c885828601610353565b92505060206103d985828601610353565b9150509250929050565b6000806000606084860312156103f857600080fd5b600061040686828701610353565b935050602061041786828701610353565b92505060406104288682870161033e565b9150509250925092565b6000806040838503121561044557600080fd5b600061045385828601610392565b925050602061046485828601610353565b9150509250929050565b60008060006060848603121561048357600080fd5b600061049186828701610392565b93505060206104a286828701610353565b925050604084013567ffffffffffffffff8111156104bf57600080fd5b6104cb86828701610368565b9150509250925092565b6104de816106c2565b82525050565b6104f56104f0826106c2565b610774565b82525050565b61050c610507826106d4565b610786565b82525050565b61052361051e82610700565b610790565b82525050565b60006105366020836106b1565b9150610541826107f9565b602082019050919050565b60006105596019836106b1565b915061056482610822565b602082019050919050565b600061057c601d836106b1565b91506105878261084b565b602082019050919050565b600061059e82876104fb565b6001820191506105ae82866104e4565b6014820191506105be8285610512565b6020820191506105ce8284610512565b60208201915081905095945050505050565b60006020820190506105f560008301846104d5565b92915050565b6000602082019050818103600083015261061481610529565b9050919050565b600060208201905081810360008301526106348161054c565b9050919050565b600060208201905081810360008301526106548161056f565b9050919050565b6000610665610676565b90506106718282610743565b919050565b6000604051905090565b600067ffffffffffffffff82111561069b5761069a6107ac565b5b6106a4826107db565b9050602081019050919050565b600082825260208201905092915050565b60006106cd8261070a565b9050919050565b60007fff0000000000000000000000000000000000000000000000000000000000000082169050919050565b6000819050919050565b600073ffffffffffffffffffffffffffffffffffffffff82169050919050565b6000819050919050565b82818337600083830152505050565b61074c826107db565b810181811067ffffffffffffffff8211171561076b5761076a6107ac565b5b80604052505050565b600061077f8261079a565b9050919050565b6000819050919050565b6000819050919050565b60006107a5826107ec565b9050919050565b7f4e487b7100000000000000000000000000000000000000000000000000000000600052604160045260246000fd5b6000601f19601f8301169050919050565b60008160601b9050919050565b7f437265617465323a2062797465636f6465206c656e677468206973207a65726f600082015250565b7f437265617465323a204661696c6564206f6e206465706c6f7900000000000000600082015250565b7f437265617465323a20696e73756666696369656e742062616c616e6365000000600082015250565b61087d816106c2565b811461088857600080fd5b50565b61089481610700565b811461089f57600080fd5b50565b6108ab8161072a565b81146108b657600080fd5b5056fe608060405234801561001057600080fd5b50610226806100206000396000f3fe608060405234801561001057600080fd5b506004361061002b5760003560e01c8063249cb3fa14610030575b600080fd5b61004a60048036038101906100459190610120565b610060565b604051610057919061016b565b60405180910390f35b600080600084815260200190815260200160002060008373ffffffffffffffffffffffffffffffffffffffff1673ffffffffffffffffffffffffffffffffffffffff16815260200190815260200160002060009054906101000a900460ff166100cc576000801b6100ee565b7fa2ef4600d742022d532d4747cb3547474667d6f13804902513b2ec01c848f4b45b905092915050565b600081359050610105816101c2565b92915050565b60008135905061011a816101d9565b92915050565b6000806040838503121561013357600080fd5b60006101418582860161010b565b9250506020610152858286016100f6565b9150509250929050565b61016581610198565b82525050565b6000602082019050610180600083018461015c565b92915050565b6000610191826101a2565b9050919050565b6000819050919050565b600073ffffffffffffffffffffffffffffffffffffffff82169050919050565b6101cb81610186565b81146101d657600080fd5b50565b6101e281610198565b81146101ed57600080fd5b5056fea26469706673582212207e75ca033a8aec5c5b451eeec78eda8d81dddde9651dbfdf44385a1f6b8ef23f64736f6c63430008040033a26469706673582212206b40ecd8e08d9d47449292528a013bc26c7b5b13acaa21f6f4c14ac8c5bdb4ed64736f6c63430008040033",
  "immutableReferences": {},
  "source": "// SPDX-License-Identifier: MIT\n\npragma solidity ^0.8.0;\n\nimport \"../utils/Create2.sol\";\nimport \"../utils/introspection/ERC1820Implementer.sol\";\n\ncontract Create2Impl {\n    function deploy(\n        uint256 value,\n        bytes32 salt,\n        bytes memory code\n    ) public {\n        Create2.deploy(value, salt, code);\n    }\n\n    function deployERC1820Implementer(uint256 value, bytes32 salt) public {\n        Create2.deploy(value, salt, type(ERC1820Implementer).creationCode);\n    }\n\n    function computeAddress(bytes32 salt, bytes32 codeHash) public view returns (address) {\n        return Create2.computeAddress(salt, codeHash);\n    }\n\n    function computeAddressWithDeployer(\n        bytes32 salt,\n        bytes32 codeHash,\n        address deployer\n    ) public pure returns (address) {\n        return Create2.computeAddress(salt, codeHash, deployer);\n    }\n\n    receive() external payable {}\n}\n",
  "sourcePath": "/Users/alexanderpetrovskiy/work/neon/neon-uat/openzeppelin-contracts/contracts/mocks/Create2Impl.sol",
  "compiler": {
    "name": "solc",
    "version": "0.8.4+commit.c7e474f2.Emscripten.clang"
  },
  "schemaVersion": "3.4.3",
  "updatedAt": "2021-10-12T15:22:38.653Z",
  "devdoc": {
    "kind": "dev",
    "methods": {},
    "version": 1
  },
  "userdoc": {
    "kind": "user",
    "methods": {},
    "version": 1
  }
}