{
  "contractName": "EIP712External",
  "abi": [
    {
      "inputs": [
        {
          "internalType": "string",
          "name": "name",
          "type": "string"
        },
        {
          "internalType": "string",
          "name": "version",
          "type": "string"
        }
      ],
      "stateMutability": "nonpayable",
      "type": "constructor"
    },
    {
      "inputs": [],
      "name": "domainSeparator",
      "outputs": [
        {
          "internalType": "bytes32",
          "name": "",
          "type": "bytes32"
        }
      ],
      "stateMutability": "view",
      "type": "function"
    },
    {
      "inputs": [
        {
          "internalType": "bytes",
          "name": "signature",
          "type": "bytes"
        },
        {
          "internalType": "address",
          "name": "signer",
          "type": "address"
        },
        {
          "internalType": "address",
          "name": "mailTo",
          "type": "address"
        },
        {
          "internalType": "string",
          "name": "mailContents",
          "type": "string"
        }
      ],
      "name": "verify",
      "outputs": [],
      "stateMutability": "view",
      "type": "function"
    },
    {
      "inputs": [],
      "name": "getChainId",
      "outputs": [
        {
          "internalType": "uint256",
          "name": "",
          "type": "uint256"
        }
      ],
      "stateMutability": "view",
      "type": "function"
    }
  ],
  "bytecode": "0x6101206040523480156200001257600080fd5b50604051620013253803806200132583398181016040528101906200003891906200016d565b818160008280519060200120905060008280519060200120905060007f8b73c3c69bb8fe3d512ecc4cf759cc79239f7b179b0ffacaa9a75d522b39400f90508260c081815250508160e081815250504660a08181525050620000a2818484620000bf60201b60201c565b6080818152505080610100818152505050505050505050620003c3565b60008383834630604051602001620000dc95949392919062000213565b6040516020818303038152906040528051906020012090509392505050565b6000620001126200010c8462000299565b62000270565b9050828152602081018484840111156200012b57600080fd5b6200013884828562000317565b509392505050565b600082601f8301126200015257600080fd5b815162000164848260208601620000fb565b91505092915050565b600080604083850312156200018157600080fd5b600083015167ffffffffffffffff8111156200019c57600080fd5b620001aa8582860162000140565b925050602083015167ffffffffffffffff811115620001c857600080fd5b620001d68582860162000140565b9150509250929050565b620001eb81620002cf565b82525050565b620001fc81620002e3565b82525050565b6200020d816200030d565b82525050565b600060a0820190506200022a6000830188620001f1565b620002396020830187620001f1565b620002486040830186620001f1565b62000257606083018562000202565b620002666080830184620001e0565b9695505050505050565b60006200027c6200028f565b90506200028a82826200034d565b919050565b6000604051905090565b600067ffffffffffffffff821115620002b757620002b662000383565b5b620002c282620003b2565b9050602081019050919050565b6000620002dc82620002ed565b9050919050565b6000819050919050565b600073ffffffffffffffffffffffffffffffffffffffff82169050919050565b6000819050919050565b60005b83811015620003375780820151818401526020810190506200031a565b8381111562000347576000848401525b50505050565b6200035882620003b2565b810181811067ffffffffffffffff821117156200037a576200037962000383565b5b80604052505050565b7f4e487b7100000000000000000000000000000000000000000000000000000000600052604160045260246000fd5b6000601f19601f8301169050919050565b60805160a05160c05160e05161010051610f1d6200040860003960006101f90152600061023b0152600061021a015260006101a6015260006101ce0152610f1d6000f3fe608060405234801561001057600080fd5b50600436106100415760003560e01c806308c6e079146100465780633408e47014610062578063f698da2514610080575b600080fd5b610060600480360381019061005b91906108e6565b61009e565b005b61006a61014a565b6040516100779190610c1c565b60405180910390f35b610088610152565b6040516100959190610ab2565b60405180910390f35b60006100fa7f847fc9da8ec3c72cae85ca691245eaeb0a4a1e74f77c3a919c43afda231d39ba8484805190602001206040516020016100df93929190610acd565b60405160208183030381529060405280519060200120610161565b90506000610108828761017b565b90508473ffffffffffffffffffffffffffffffffffffffff168173ffffffffffffffffffffffffffffffffffffffff161461014257600080fd5b505050505050565b600046905090565b600061015c6101a2565b905090565b600061017461016e6101a2565b83610265565b9050919050565b600080600061018a8585610298565b915091506101978161031b565b819250505092915050565b60007f00000000000000000000000000000000000000000000000000000000000000004614156101f4577f00000000000000000000000000000000000000000000000000000000000000009050610262565b61025f7f00000000000000000000000000000000000000000000000000000000000000007f00000000000000000000000000000000000000000000000000000000000000007f000000000000000000000000000000000000000000000000000000000000000061066c565b90505b90565b6000828260405160200161027a929190610a7b565b60405160208183030381529060405280519060200120905092915050565b6000806041835114156102da5760008060006020860151925060408601519150606086015160001a90506102ce878285856106a6565b94509450505050610314565b60408351141561030b5760008060208501519150604085015190506103008683836107b3565b935093505050610314565b60006002915091505b9250929050565b60006004811115610355577f4e487b7100000000000000000000000000000000000000000000000000000000600052602160045260246000fd5b81600481111561038e577f4e487b7100000000000000000000000000000000000000000000000000000000600052602160045260246000fd5b141561039957610669565b600160048111156103d3577f4e487b7100000000000000000000000000000000000000000000000000000000600052602160045260246000fd5b81600481111561040c577f4e487b7100000000000000000000000000000000000000000000000000000000600052602160045260246000fd5b141561044d576040517f08c379a000000000000000000000000000000000000000000000000000000000815260040161044490610b9c565b60405180910390fd5b60026004811115610487577f4e487b7100000000000000000000000000000000000000000000000000000000600052602160045260246000fd5b8160048111156104c0577f4e487b7100000000000000000000000000000000000000000000000000000000600052602160045260246000fd5b1415610501576040517f08c379a00000000000000000000000000000000000000000000000000000000081526004016104f890610bbc565b60405180910390fd5b6003600481111561053b577f4e487b7100000000000000000000000000000000000000000000000000000000600052602160045260246000fd5b816004811115610574577f4e487b7100000000000000000000000000000000000000000000000000000000600052602160045260246000fd5b14156105b5576040517f08c379a00000000000000000000000000000000000000000000000000000000081526004016105ac90610bdc565b60405180910390fd5b6004808111156105ee577f4e487b7100000000000000000000000000000000000000000000000000000000600052602160045260246000fd5b816004811115610627577f4e487b7100000000000000000000000000000000000000000000000000000000600052602160045260246000fd5b1415610668576040517f08c379a000000000000000000000000000000000000000000000000000000000815260040161065f90610bfc565b60405180910390fd5b5b50565b60008383834630604051602001610687959493929190610b04565b6040516020818303038152906040528051906020012090509392505050565b6000807f7fffffffffffffffffffffffffffffff5d576e7357a4501ddfe92f46681b20a08360001c11156106e15760006003915091506107aa565b601b8560ff16141580156106f95750601c8560ff1614155b1561070b5760006004915091506107aa565b6000600187878787604051600081526020016040526040516107309493929190610b57565b6020604051602081039080840390855afa158015610752573d6000803e3d6000fd5b505050602060405103519050600073ffffffffffffffffffffffffffffffffffffffff168173ffffffffffffffffffffffffffffffffffffffff1614156107a1576000600192509250506107aa565b80600092509250505b94509492505050565b6000806000807f7fffffffffffffffffffffffffffffffffffffffffffffffffffffffffffffff85169150601b8560ff1c0190506107f3878288856106a6565b935093505050935093915050565b600061081461080f84610c5c565b610c37565b90508281526020810184848401111561082c57600080fd5b610837848285610d2d565b509392505050565b600061085261084d84610c8d565b610c37565b90508281526020810184848401111561086a57600080fd5b610875848285610d2d565b509392505050565b60008135905061088c81610ed0565b92915050565b600082601f8301126108a357600080fd5b81356108b3848260208601610801565b91505092915050565b600082601f8301126108cd57600080fd5b81356108dd84826020860161083f565b91505092915050565b600080600080608085870312156108fc57600080fd5b600085013567ffffffffffffffff81111561091657600080fd5b61092287828801610892565b94505060206109338782880161087d565b93505060406109448782880161087d565b925050606085013567ffffffffffffffff81111561096157600080fd5b61096d878288016108bc565b91505092959194509250565b61098281610cda565b82525050565b61099181610cec565b82525050565b6109a86109a382610cec565b610d6d565b82525050565b60006109bb601883610cbe565b91506109c682610db7565b602082019050919050565b60006109de601f83610cbe565b91506109e982610de0565b602082019050919050565b6000610a01600283610ccf565b9150610a0c82610e09565b600282019050919050565b6000610a24602283610cbe565b9150610a2f82610e32565b604082019050919050565b6000610a47602283610cbe565b9150610a5282610e81565b604082019050919050565b610a6681610d16565b82525050565b610a7581610d20565b82525050565b6000610a86826109f4565b9150610a928285610997565b602082019150610aa28284610997565b6020820191508190509392505050565b6000602082019050610ac76000830184610988565b92915050565b6000606082019050610ae26000830186610988565b610aef6020830185610979565b610afc6040830184610988565b949350505050565b600060a082019050610b196000830188610988565b610b266020830187610988565b610b336040830186610988565b610b406060830185610a5d565b610b4d6080830184610979565b9695505050505050565b6000608082019050610b6c6000830187610988565b610b796020830186610a6c565b610b866040830185610988565b610b936060830184610988565b95945050505050565b60006020820190508181036000830152610bb5816109ae565b9050919050565b60006020820190508181036000830152610bd5816109d1565b9050919050565b60006020820190508181036000830152610bf581610a17565b9050919050565b60006020820190508181036000830152610c1581610a3a565b9050919050565b6000602082019050610c316000830184610a5d565b92915050565b6000610c41610c52565b9050610c4d8282610d3c565b919050565b6000604051905090565b600067ffffffffffffffff821115610c7757610c76610d77565b5b610c8082610da6565b9050602081019050919050565b600067ffffffffffffffff821115610ca857610ca7610d77565b5b610cb182610da6565b9050602081019050919050565b600082825260208201905092915050565b600081905092915050565b6000610ce582610cf6565b9050919050565b6000819050919050565b600073ffffffffffffffffffffffffffffffffffffffff82169050919050565b6000819050919050565b600060ff82169050919050565b82818337600083830152505050565b610d4582610da6565b810181811067ffffffffffffffff82111715610d6457610d63610d77565b5b80604052505050565b6000819050919050565b7f4e487b7100000000000000000000000000000000000000000000000000000000600052604160045260246000fd5b6000601f19601f8301169050919050565b7f45434453413a20696e76616c6964207369676e61747572650000000000000000600082015250565b7f45434453413a20696e76616c6964207369676e6174757265206c656e67746800600082015250565b7f1901000000000000000000000000000000000000000000000000000000000000600082015250565b7f45434453413a20696e76616c6964207369676e6174757265202773272076616c60008201527f7565000000000000000000000000000000000000000000000000000000000000602082015250565b7f45434453413a20696e76616c6964207369676e6174757265202776272076616c60008201527f7565000000000000000000000000000000000000000000000000000000000000602082015250565b610ed981610cda565b8114610ee457600080fd5b5056fea264697066735822122062ed24838eee649751ac3974d3863b38db15206b8ebaf1cabc22a1d3a7f191dc64736f6c63430008040033",
  "immutableReferences": {
    "24269": [
      {
        "length": 32,
        "start": 462
      }
    ],
    "24271": [
      {
        "length": 32,
        "start": 422
      }
    ],
    "24273": [
      {
        "length": 32,
        "start": 538
      }
    ],
    "24275": [
      {
        "length": 32,
        "start": 571
      }
    ],
    "24277": [
      {
        "length": 32,
        "start": 505
      }
    ]
  },
  "source": "// SPDX-License-Identifier: MIT\n\npragma solidity ^0.8.0;\n\nimport \"../utils/cryptography/draft-EIP712.sol\";\nimport \"../utils/cryptography/ECDSA.sol\";\n\ncontract EIP712External is EIP712 {\n    constructor(string memory name, string memory version) EIP712(name, version) {}\n\n    function domainSeparator() external view returns (bytes32) {\n        return _domainSeparatorV4();\n    }\n\n    function verify(\n        bytes memory signature,\n        address signer,\n        address mailTo,\n        string memory mailContents\n    ) external view {\n        bytes32 digest = _hashTypedDataV4(\n            keccak256(abi.encode(keccak256(\"Mail(address to,string contents)\"), mailTo, keccak256(bytes(mailContents))))\n        );\n        address recoveredSigner = ECDSA.recover(digest, signature);\n        require(recoveredSigner == signer);\n    }\n\n    function getChainId() external view returns (uint256) {\n        return block.chainid;\n    }\n}\n",
  "sourcePath": "/Users/alexanderpetrovskiy/work/neon/neon-uat/openzeppelin-contracts/contracts/mocks/EIP712External.sol",
  "compiler": {
    "name": "solc",
    "version": "0.8.4+commit.c7e474f2.Emscripten.clang"
  },
  "schemaVersion": "3.4.3",
  "updatedAt": "2021-10-12T15:22:38.671Z",
  "devdoc": {
    "kind": "dev",
    "methods": {},
    "version": 1
  },
  "userdoc": {
    "kind": "user",
    "methods": {},
    "version": 1
  }
}