{
  "contractName": "ERC1155PresetMinterPauser",
  "abi": [
    {
      "inputs": [
        {
          "internalType": "string",
          "name": "uri",
          "type": "string"
        }
      ],
      "stateMutability": "nonpayable",
      "type": "constructor"
    },
    {
      "anonymous": false,
      "inputs": [
        {
          "indexed": true,
          "internalType": "address",
          "name": "account",
          "type": "address"
        },
        {
          "indexed": true,
          "internalType": "address",
          "name": "operator",
          "type": "address"
        },
        {
          "indexed": false,
          "internalType": "bool",
          "name": "approved",
          "type": "bool"
        }
      ],
      "name": "ApprovalForAll",
      "type": "event"
    },
    {
      "anonymous": false,
      "inputs": [
        {
          "indexed": false,
          "internalType": "address",
          "name": "account",
          "type": "address"
        }
      ],
      "name": "Paused",
      "type": "event"
    },
    {
      "anonymous": false,
      "inputs": [
        {
          "indexed": true,
          "internalType": "bytes32",
          "name": "role",
          "type": "bytes32"
        },
        {
          "indexed": true,
          "internalType": "bytes32",
          "name": "previousAdminRole",
          "type": "bytes32"
        },
        {
          "indexed": true,
          "internalType": "bytes32",
          "name": "newAdminRole",
          "type": "bytes32"
        }
      ],
      "name": "RoleAdminChanged",
      "type": "event"
    },
    {
      "anonymous": false,
      "inputs": [
        {
          "indexed": true,
          "internalType": "bytes32",
          "name": "role",
          "type": "bytes32"
        },
        {
          "indexed": true,
          "internalType": "address",
          "name": "account",
          "type": "address"
        },
        {
          "indexed": true,
          "internalType": "address",
          "name": "sender",
          "type": "address"
        }
      ],
      "name": "RoleGranted",
      "type": "event"
    },
    {
      "anonymous": false,
      "inputs": [
        {
          "indexed": true,
          "internalType": "bytes32",
          "name": "role",
          "type": "bytes32"
        },
        {
          "indexed": true,
          "internalType": "address",
          "name": "account",
          "type": "address"
        },
        {
          "indexed": true,
          "internalType": "address",
          "name": "sender",
          "type": "address"
        }
      ],
      "name": "RoleRevoked",
      "type": "event"
    },
    {
      "anonymous": false,
      "inputs": [
        {
          "indexed": true,
          "internalType": "address",
          "name": "operator",
          "type": "address"
        },
        {
          "indexed": true,
          "internalType": "address",
          "name": "from",
          "type": "address"
        },
        {
          "indexed": true,
          "internalType": "address",
          "name": "to",
          "type": "address"
        },
        {
          "indexed": false,
          "internalType": "uint256[]",
          "name": "ids",
          "type": "uint256[]"
        },
        {
          "indexed": false,
          "internalType": "uint256[]",
          "name": "values",
          "type": "uint256[]"
        }
      ],
      "name": "TransferBatch",
      "type": "event"
    },
    {
      "anonymous": false,
      "inputs": [
        {
          "indexed": true,
          "internalType": "address",
          "name": "operator",
          "type": "address"
        },
        {
          "indexed": true,
          "internalType": "address",
          "name": "from",
          "type": "address"
        },
        {
          "indexed": true,
          "internalType": "address",
          "name": "to",
          "type": "address"
        },
        {
          "indexed": false,
          "internalType": "uint256",
          "name": "id",
          "type": "uint256"
        },
        {
          "indexed": false,
          "internalType": "uint256",
          "name": "value",
          "type": "uint256"
        }
      ],
      "name": "TransferSingle",
      "type": "event"
    },
    {
      "anonymous": false,
      "inputs": [
        {
          "indexed": false,
          "internalType": "string",
          "name": "value",
          "type": "string"
        },
        {
          "indexed": true,
          "internalType": "uint256",
          "name": "id",
          "type": "uint256"
        }
      ],
      "name": "URI",
      "type": "event"
    },
    {
      "anonymous": false,
      "inputs": [
        {
          "indexed": false,
          "internalType": "address",
          "name": "account",
          "type": "address"
        }
      ],
      "name": "Unpaused",
      "type": "event"
    },
    {
      "inputs": [],
      "name": "DEFAULT_ADMIN_ROLE",
      "outputs": [
        {
          "internalType": "bytes32",
          "name": "",
          "type": "bytes32"
        }
      ],
      "stateMutability": "view",
      "type": "function"
    },
    {
      "inputs": [],
      "name": "MINTER_ROLE",
      "outputs": [
        {
          "internalType": "bytes32",
          "name": "",
          "type": "bytes32"
        }
      ],
      "stateMutability": "view",
      "type": "function"
    },
    {
      "inputs": [],
      "name": "PAUSER_ROLE",
      "outputs": [
        {
          "internalType": "bytes32",
          "name": "",
          "type": "bytes32"
        }
      ],
      "stateMutability": "view",
      "type": "function"
    },
    {
      "inputs": [
        {
          "internalType": "address",
          "name": "account",
          "type": "address"
        },
        {
          "internalType": "uint256",
          "name": "id",
          "type": "uint256"
        }
      ],
      "name": "balanceOf",
      "outputs": [
        {
          "internalType": "uint256",
          "name": "",
          "type": "uint256"
        }
      ],
      "stateMutability": "view",
      "type": "function"
    },
    {
      "inputs": [
        {
          "internalType": "address[]",
          "name": "accounts",
          "type": "address[]"
        },
        {
          "internalType": "uint256[]",
          "name": "ids",
          "type": "uint256[]"
        }
      ],
      "name": "balanceOfBatch",
      "outputs": [
        {
          "internalType": "uint256[]",
          "name": "",
          "type": "uint256[]"
        }
      ],
      "stateMutability": "view",
      "type": "function"
    },
    {
      "inputs": [
        {
          "internalType": "address",
          "name": "account",
          "type": "address"
        },
        {
          "internalType": "uint256",
          "name": "id",
          "type": "uint256"
        },
        {
          "internalType": "uint256",
          "name": "value",
          "type": "uint256"
        }
      ],
      "name": "burn",
      "outputs": [],
      "stateMutability": "nonpayable",
      "type": "function"
    },
    {
      "inputs": [
        {
          "internalType": "address",
          "name": "account",
          "type": "address"
        },
        {
          "internalType": "uint256[]",
          "name": "ids",
          "type": "uint256[]"
        },
        {
          "internalType": "uint256[]",
          "name": "values",
          "type": "uint256[]"
        }
      ],
      "name": "burnBatch",
      "outputs": [],
      "stateMutability": "nonpayable",
      "type": "function"
    },
    {
      "inputs": [
        {
          "internalType": "bytes32",
          "name": "role",
          "type": "bytes32"
        }
      ],
      "name": "getRoleAdmin",
      "outputs": [
        {
          "internalType": "bytes32",
          "name": "",
          "type": "bytes32"
        }
      ],
      "stateMutability": "view",
      "type": "function"
    },
    {
      "inputs": [
        {
          "internalType": "bytes32",
          "name": "role",
          "type": "bytes32"
        },
        {
          "internalType": "uint256",
          "name": "index",
          "type": "uint256"
        }
      ],
      "name": "getRoleMember",
      "outputs": [
        {
          "internalType": "address",
          "name": "",
          "type": "address"
        }
      ],
      "stateMutability": "view",
      "type": "function"
    },
    {
      "inputs": [
        {
          "internalType": "bytes32",
          "name": "role",
          "type": "bytes32"
        }
      ],
      "name": "getRoleMemberCount",
      "outputs": [
        {
          "internalType": "uint256",
          "name": "",
          "type": "uint256"
        }
      ],
      "stateMutability": "view",
      "type": "function"
    },
    {
      "inputs": [
        {
          "internalType": "bytes32",
          "name": "role",
          "type": "bytes32"
        },
        {
          "internalType": "address",
          "name": "account",
          "type": "address"
        }
      ],
      "name": "grantRole",
      "outputs": [],
      "stateMutability": "nonpayable",
      "type": "function"
    },
    {
      "inputs": [
        {
          "internalType": "bytes32",
          "name": "role",
          "type": "bytes32"
        },
        {
          "internalType": "address",
          "name": "account",
          "type": "address"
        }
      ],
      "name": "hasRole",
      "outputs": [
        {
          "internalType": "bool",
          "name": "",
          "type": "bool"
        }
      ],
      "stateMutability": "view",
      "type": "function"
    },
    {
      "inputs": [
        {
          "internalType": "address",
          "name": "account",
          "type": "address"
        },
        {
          "internalType": "address",
          "name": "operator",
          "type": "address"
        }
      ],
      "name": "isApprovedForAll",
      "outputs": [
        {
          "internalType": "bool",
          "name": "",
          "type": "bool"
        }
      ],
      "stateMutability": "view",
      "type": "function"
    },
    {
      "inputs": [],
      "name": "paused",
      "outputs": [
        {
          "internalType": "bool",
          "name": "",
          "type": "bool"
        }
      ],
      "stateMutability": "view",
      "type": "function"
    },
    {
      "inputs": [
        {
          "internalType": "bytes32",
          "name": "role",
          "type": "bytes32"
        },
        {
          "internalType": "address",
          "name": "account",
          "type": "address"
        }
      ],
      "name": "renounceRole",
      "outputs": [],
      "stateMutability": "nonpayable",
      "type": "function"
    },
    {
      "inputs": [
        {
          "internalType": "bytes32",
          "name": "role",
          "type": "bytes32"
        },
        {
          "internalType": "address",
          "name": "account",
          "type": "address"
        }
      ],
      "name": "revokeRole",
      "outputs": [],
      "stateMutability": "nonpayable",
      "type": "function"
    },
    {
      "inputs": [
        {
          "internalType": "address",
          "name": "from",
          "type": "address"
        },
        {
          "internalType": "address",
          "name": "to",
          "type": "address"
        },
        {
          "internalType": "uint256[]",
          "name": "ids",
          "type": "uint256[]"
        },
        {
          "internalType": "uint256[]",
          "name": "amounts",
          "type": "uint256[]"
        },
        {
          "internalType": "bytes",
          "name": "data",
          "type": "bytes"
        }
      ],
      "name": "safeBatchTransferFrom",
      "outputs": [],
      "stateMutability": "nonpayable",
      "type": "function"
    },
    {
      "inputs": [
        {
          "internalType": "address",
          "name": "from",
          "type": "address"
        },
        {
          "internalType": "address",
          "name": "to",
          "type": "address"
        },
        {
          "internalType": "uint256",
          "name": "id",
          "type": "uint256"
        },
        {
          "internalType": "uint256",
          "name": "amount",
          "type": "uint256"
        },
        {
          "internalType": "bytes",
          "name": "data",
          "type": "bytes"
        }
      ],
      "name": "safeTransferFrom",
      "outputs": [],
      "stateMutability": "nonpayable",
      "type": "function"
    },
    {
      "inputs": [
        {
          "internalType": "address",
          "name": "operator",
          "type": "address"
        },
        {
          "internalType": "bool",
          "name": "approved",
          "type": "bool"
        }
      ],
      "name": "setApprovalForAll",
      "outputs": [],
      "stateMutability": "nonpayable",
      "type": "function"
    },
    {
      "inputs": [
        {
          "internalType": "uint256",
          "name": "",
          "type": "uint256"
        }
      ],
      "name": "uri",
      "outputs": [
        {
          "internalType": "string",
          "name": "",
          "type": "string"
        }
      ],
      "stateMutability": "view",
      "type": "function"
    },
    {
      "inputs": [
        {
          "internalType": "address",
          "name": "to",
          "type": "address"
        },
        {
          "internalType": "uint256",
          "name": "id",
          "type": "uint256"
        },
        {
          "internalType": "uint256",
          "name": "amount",
          "type": "uint256"
        },
        {
          "internalType": "bytes",
          "name": "data",
          "type": "bytes"
        }
      ],
      "name": "mint",
      "outputs": [],
      "stateMutability": "nonpayable",
      "type": "function"
    },
    {
      "inputs": [
        {
          "internalType": "address",
          "name": "to",
          "type": "address"
        },
        {
          "internalType": "uint256[]",
          "name": "ids",
          "type": "uint256[]"
        },
        {
          "internalType": "uint256[]",
          "name": "amounts",
          "type": "uint256[]"
        },
        {
          "internalType": "bytes",
          "name": "data",
          "type": "bytes"
        }
      ],
      "name": "mintBatch",
      "outputs": [],
      "stateMutability": "nonpayable",
      "type": "function"
    },
    {
      "inputs": [],
      "name": "pause",
      "outputs": [],
      "stateMutability": "nonpayable",
      "type": "function"
    },
    {
      "inputs": [],
      "name": "unpause",
      "outputs": [],
      "stateMutability": "nonpayable",
      "type": "function"
    },
    {
      "inputs": [
        {
          "internalType": "bytes4",
          "name": "interfaceId",
          "type": "bytes4"
        }
      ],
      "name": "supportsInterface",
      "outputs": [
        {
          "internalType": "bool",
          "name": "",
          "type": "bool"
        }
      ],
      "stateMutability": "view",
      "type": "function"
    }
  ],
  "bytecode": "0x60806040523480156200001157600080fd5b50604051620054cb380380620054cb8339818101604052810190620000379190620004e6565b8062000049816200011260201b60201c565b506000600560006101000a81548160ff021916908315150217905550620000896000801b6200007d6200012e60201b60201c565b6200013660201b60201c565b620000ca7f9f2df0fed2c77648de5860a4cc508cd0818c85b8b8a1ab4ceeef8d981c8956a6620000be6200012e60201b60201c565b6200013660201b60201c565b6200010b7f65d7a28e3265b37a6474929f336521b332c1681b933f6cb9f3376673440d862a620000ff6200012e60201b60201c565b6200013660201b60201c565b506200069b565b80600490805190602001906200012a929190620003c4565b5050565b600033905090565b6200014d82826200017e60201b620010531760201c565b6200017981600160008581526020019081526020016000206200019460201b620010611790919060201c565b505050565b620001908282620001cc60201b60201c565b5050565b6000620001c4836000018373ffffffffffffffffffffffffffffffffffffffff1660001b620002bd60201b60201c565b905092915050565b620001de82826200033760201b60201c565b620002b957600160008084815260200190815260200160002060000160008373ffffffffffffffffffffffffffffffffffffffff1673ffffffffffffffffffffffffffffffffffffffff16815260200190815260200160002060006101000a81548160ff0219169083151502179055506200025e6200012e60201b60201c565b73ffffffffffffffffffffffffffffffffffffffff168173ffffffffffffffffffffffffffffffffffffffff16837f2f8788117e7eff1d82e926ec794901d17c78024a50270940304540a733656f0d60405160405180910390a45b5050565b6000620002d18383620003a160201b60201c565b6200032c57826000018290806001815401808255809150506001900390600052602060002001600090919091909150558260000180549050836001016000848152602001908152602001600020819055506001905062000331565b600090505b92915050565b600080600084815260200190815260200160002060000160008373ffffffffffffffffffffffffffffffffffffffff1673ffffffffffffffffffffffffffffffffffffffff16815260200190815260200160002060009054906101000a900460ff16905092915050565b600080836001016000848152602001908152602001600020541415905092915050565b828054620003d290620005c0565b90600052602060002090601f016020900481019282620003f6576000855562000442565b82601f106200041157805160ff191683800117855562000442565b8280016001018555821562000442579182015b828111156200044157825182559160200191906001019062000424565b5b50905062000451919062000455565b5090565b5b808211156200047057600081600090555060010162000456565b5090565b60006200048b620004858462000554565b6200052b565b905082815260208101848484011115620004a457600080fd5b620004b18482856200058a565b509392505050565b600082601f830112620004cb57600080fd5b8151620004dd84826020860162000474565b91505092915050565b600060208284031215620004f957600080fd5b600082015167ffffffffffffffff8111156200051457600080fd5b6200052284828501620004b9565b91505092915050565b6000620005376200054a565b9050620005458282620005f6565b919050565b6000604051905090565b600067ffffffffffffffff8211156200057257620005716200065b565b5b6200057d826200068a565b9050602081019050919050565b60005b83811015620005aa5780820151818401526020810190506200058d565b83811115620005ba576000848401525b50505050565b60006002820490506001821680620005d957607f821691505b60208210811415620005f057620005ef6200062c565b5b50919050565b62000601826200068a565b810181811067ffffffffffffffff821117156200062357620006226200065b565b5b80604052505050565b7f4e487b7100000000000000000000000000000000000000000000000000000000600052602260045260246000fd5b7f4e487b7100000000000000000000000000000000000000000000000000000000600052604160045260246000fd5b6000601f19601f8301169050919050565b614e2080620006ab6000396000f3fe608060405234801561001057600080fd5b50600436106101725760003560e01c8063731133e9116100de578063ca15c87311610097578063e63ab1e911610071578063e63ab1e914610445578063e985e9c514610463578063f242432a14610493578063f5298aca146104af57610172565b8063ca15c873146103db578063d53913931461040b578063d547741f1461042957610172565b8063731133e91461031b5780638456cb59146103375780639010d07c1461034157806391d1485414610371578063a217fddf146103a1578063a22cb465146103bf57610172565b80632f2ff15d116101305780632f2ff15d1461026f57806336568abe1461028b5780633f4ba83a146102a75780634e1273f4146102b15780635c975abb146102e15780636b20c454146102ff57610172565b8062fdd58e1461017757806301ffc9a7146101a75780630e89341c146101d75780631f7fdffa14610207578063248a9ca3146102235780632eb2c2d614610253575b600080fd5b610191600480360381019061018c9190613652565b6104cb565b60405161019e91906141d1565b60405180910390f35b6101c160048036038101906101bc9190613865565b610595565b6040516101ce9190613ed9565b60405180910390f35b6101f160048036038101906101ec91906138b7565b6105a7565b6040516101fe9190613f0f565b60405180910390f35b610221600480360381019061021c919061356b565b61063b565b005b61023d600480360381019061023891906137c4565b6106bd565b60405161024a9190613ef4565b60405180910390f35b61026d6004803603810190610268919061339e565b6106dc565b005b610289600480360381019061028491906137ed565b61077d565b005b6102a560048036038101906102a091906137ed565b6107b1565b005b6102af6107e5565b005b6102cb60048036038101906102c69190613758565b61085f565b6040516102d89190613e80565b60405180910390f35b6102e9610a10565b6040516102f69190613ed9565b60405180910390f35b610319600480360381019061031491906134ec565b610a27565b005b610335600480360381019061033091906136dd565b610ac4565b005b61033f610b46565b005b61035b60048036038101906103569190613829565b610bc0565b6040516103689190613da3565b60405180910390f35b61038b600480360381019061038691906137ed565b610bef565b6040516103989190613ed9565b60405180910390f35b6103a9610c59565b6040516103b69190613ef4565b60405180910390f35b6103d960048036038101906103d49190613616565b610c60565b005b6103f560048036038101906103f091906137c4565b610de1565b60405161040291906141d1565b60405180910390f35b610413610e05565b6040516104209190613ef4565b60405180910390f35b610443600480360381019061043e91906137ed565b610e29565b005b61044d610e5d565b60405161045a9190613ef4565b60405180910390f35b61047d60048036038101906104789190613362565b610e81565b60405161048a9190613ed9565b60405180910390f35b6104ad60048036038101906104a8919061345d565b610f15565b005b6104c960048036038101906104c4919061368e565b610fb6565b005b60008073ffffffffffffffffffffffffffffffffffffffff168373ffffffffffffffffffffffffffffffffffffffff16141561053c576040517f08c379a000000000000000000000000000000000000000000000000000000000815260040161053390613fb1565b60405180910390fd5b6002600083815260200190815260200160002060008473ffffffffffffffffffffffffffffffffffffffff1673ffffffffffffffffffffffffffffffffffffffff16815260200190815260200160002054905092915050565b60006105a082611091565b9050919050565b6060600480546105b69061450d565b80601f01602080910402602001604051908101604052809291908181526020018280546105e29061450d565b801561062f5780601f106106045761010080835404028352916020019161062f565b820191906000526020600020905b81548152906001019060200180831161061257829003601f168201915b50505050509050919050565b61066c7f9f2df0fed2c77648de5860a4cc508cd0818c85b8b8a1ab4ceeef8d981c8956a6610667611173565b610bef565b6106ab576040517f08c379a00000000000000000000000000000000000000000000000000000000081526004016106a2906140b1565b60405180910390fd5b6106b78484848461117b565b50505050565b6000806000838152602001908152602001600020600101549050919050565b6106e4611173565b73ffffffffffffffffffffffffffffffffffffffff168573ffffffffffffffffffffffffffffffffffffffff16148061072a575061072985610724611173565b610e81565b5b610769576040517f08c379a000000000000000000000000000000000000000000000000000000000815260040161076090614071565b60405180910390fd5b61077685858585856113e6565b5050505050565b6107878282611749565b6107ac816001600085815260200190815260200160002061106190919063ffffffff16565b505050565b6107bb8282611772565b6107e081600160008581526020019081526020016000206117f590919063ffffffff16565b505050565b6108167f65d7a28e3265b37a6474929f336521b332c1681b933f6cb9f3376673440d862a610811611173565b610bef565b610855576040517f08c379a000000000000000000000000000000000000000000000000000000000815260040161084c906140f1565b60405180910390fd5b61085d611825565b565b606081518351146108a5576040517f08c379a000000000000000000000000000000000000000000000000000000000815260040161089c90614151565b60405180910390fd5b6000835167ffffffffffffffff8111156108e8577f4e487b7100000000000000000000000000000000000000000000000000000000600052604160045260246000fd5b6040519080825280602002602001820160405280156109165781602001602082028036833780820191505090505b50905060005b8451811015610a05576109af858281518110610961577f4e487b7100000000000000000000000000000000000000000000000000000000600052603260045260246000fd5b60200260200101518583815181106109a2577f4e487b7100000000000000000000000000000000000000000000000000000000600052603260045260246000fd5b60200260200101516104cb565b8282815181106109e8577f4e487b7100000000000000000000000000000000000000000000000000000000600052603260045260246000fd5b602002602001018181525050806109fe90614570565b905061091c565b508091505092915050565b6000600560009054906101000a900460ff16905090565b610a2f611173565b73ffffffffffffffffffffffffffffffffffffffff168373ffffffffffffffffffffffffffffffffffffffff161480610a755750610a7483610a6f611173565b610e81565b5b610ab4576040517f08c379a0000000000000000000000000000000000000000000000000000000008152600401610aab90614011565b60405180910390fd5b610abf8383836118c7565b505050565b610af57f9f2df0fed2c77648de5860a4cc508cd0818c85b8b8a1ab4ceeef8d981c8956a6610af0611173565b610bef565b610b34576040517f08c379a0000000000000000000000000000000000000000000000000000000008152600401610b2b906140b1565b60405180910390fd5b610b4084848484611bc6565b50505050565b610b777f65d7a28e3265b37a6474929f336521b332c1681b933f6cb9f3376673440d862a610b72611173565b610bef565b610bb6576040517f08c379a0000000000000000000000000000000000000000000000000000000008152600401610bad90614111565b60405180910390fd5b610bbe611d5d565b565b6000610be78260016000868152602001908152602001600020611e0090919063ffffffff16565b905092915050565b600080600084815260200190815260200160002060000160008373ffffffffffffffffffffffffffffffffffffffff1673ffffffffffffffffffffffffffffffffffffffff16815260200190815260200160002060009054906101000a900460ff16905092915050565b6000801b81565b8173ffffffffffffffffffffffffffffffffffffffff16610c7f611173565b73ffffffffffffffffffffffffffffffffffffffff161415610cd6576040517f08c379a0000000000000000000000000000000000000000000000000000000008152600401610ccd90614131565b60405180910390fd5b8060036000610ce3611173565b73ffffffffffffffffffffffffffffffffffffffff1673ffffffffffffffffffffffffffffffffffffffff16815260200190815260200160002060008473ffffffffffffffffffffffffffffffffffffffff1673ffffffffffffffffffffffffffffffffffffffff16815260200190815260200160002060006101000a81548160ff0219169083151502179055508173ffffffffffffffffffffffffffffffffffffffff16610d90611173565b73ffffffffffffffffffffffffffffffffffffffff167f17307eab39ab6107e8899845ad3d59bd9653f200f220920489ca2b5937696c3183604051610dd59190613ed9565b60405180910390a35050565b6000610dfe60016000848152602001908152602001600020611e1a565b9050919050565b7f9f2df0fed2c77648de5860a4cc508cd0818c85b8b8a1ab4ceeef8d981c8956a681565b610e338282611e2f565b610e5881600160008581526020019081526020016000206117f590919063ffffffff16565b505050565b7f65d7a28e3265b37a6474929f336521b332c1681b933f6cb9f3376673440d862a81565b6000600360008473ffffffffffffffffffffffffffffffffffffffff1673ffffffffffffffffffffffffffffffffffffffff16815260200190815260200160002060008373ffffffffffffffffffffffffffffffffffffffff1673ffffffffffffffffffffffffffffffffffffffff16815260200190815260200160002060009054906101000a900460ff16905092915050565b610f1d611173565b73ffffffffffffffffffffffffffffffffffffffff168573ffffffffffffffffffffffffffffffffffffffff161480610f635750610f6285610f5d611173565b610e81565b5b610fa2576040517f08c379a0000000000000000000000000000000000000000000000000000000008152600401610f9990614011565b60405180910390fd5b610faf8585858585611e58565b5050505050565b610fbe611173565b73ffffffffffffffffffffffffffffffffffffffff168373ffffffffffffffffffffffffffffffffffffffff161480611004575061100383610ffe611173565b610e81565b5b611043576040517f08c379a000000000000000000000000000000000000000000000000000000000815260040161103a90614011565b60405180910390fd5b61104e8383836120dd565b505050565b61105d82826122fc565b5050565b6000611089836000018373ffffffffffffffffffffffffffffffffffffffff1660001b6123dc565b905092915050565b60007fd9b67a26000000000000000000000000000000000000000000000000000000007bffffffffffffffffffffffffffffffffffffffffffffffffffffffff1916827bffffffffffffffffffffffffffffffffffffffffffffffffffffffff1916148061115c57507f0e89341c000000000000000000000000000000000000000000000000000000007bffffffffffffffffffffffffffffffffffffffffffffffffffffffff1916827bffffffffffffffffffffffffffffffffffffffffffffffffffffffff1916145b8061116c575061116b8261244c565b5b9050919050565b600033905090565b600073ffffffffffffffffffffffffffffffffffffffff168473ffffffffffffffffffffffffffffffffffffffff1614156111eb576040517f08c379a00000000000000000000000000000000000000000000000000000000081526004016111e290614191565b60405180910390fd5b815183511461122f576040517f08c379a000000000000000000000000000000000000000000000000000000000815260040161122690614171565b60405180910390fd5b6000611239611173565b905061124a816000878787876124c6565b60005b84518110156113505783818151811061128f577f4e487b7100000000000000000000000000000000000000000000000000000000600052603260045260246000fd5b6020026020010151600260008784815181106112d4577f4e487b7100000000000000000000000000000000000000000000000000000000600052603260045260246000fd5b6020026020010151815260200190815260200160002060008873ffffffffffffffffffffffffffffffffffffffff1673ffffffffffffffffffffffffffffffffffffffff1681526020019081526020016000206000828254611336919061433f565b92505081905550808061134890614570565b91505061124d565b508473ffffffffffffffffffffffffffffffffffffffff16600073ffffffffffffffffffffffffffffffffffffffff168273ffffffffffffffffffffffffffffffffffffffff167f4a39dc06d4c0dbc64b70af90fd698a233a518aa5d07e595d983b8c0526c8f7fb87876040516113c8929190613ea2565b60405180910390a46113df816000878787876124dc565b5050505050565b815183511461142a576040517f08c379a000000000000000000000000000000000000000000000000000000000815260040161142190614171565b60405180910390fd5b600073ffffffffffffffffffffffffffffffffffffffff168473ffffffffffffffffffffffffffffffffffffffff16141561149a576040517f08c379a000000000000000000000000000000000000000000000000000000000815260040161149190614051565b60405180910390fd5b60006114a4611173565b90506114b48187878787876124c6565b60005b84518110156116b45760008582815181106114fb577f4e487b7100000000000000000000000000000000000000000000000000000000600052603260045260246000fd5b602002602001015190506000858381518110611540577f4e487b7100000000000000000000000000000000000000000000000000000000600052603260045260246000fd5b6020026020010151905060006002600084815260200190815260200160002060008b73ffffffffffffffffffffffffffffffffffffffff1673ffffffffffffffffffffffffffffffffffffffff168152602001908152602001600020549050818110156115e2576040517f08c379a00000000000000000000000000000000000000000000000000000000081526004016115d9906140d1565b60405180910390fd5b8181036002600085815260200190815260200160002060008c73ffffffffffffffffffffffffffffffffffffffff1673ffffffffffffffffffffffffffffffffffffffff16815260200190815260200160002081905550816002600085815260200190815260200160002060008b73ffffffffffffffffffffffffffffffffffffffff1673ffffffffffffffffffffffffffffffffffffffff1681526020019081526020016000206000828254611699919061433f565b92505081905550505050806116ad90614570565b90506114b7565b508473ffffffffffffffffffffffffffffffffffffffff168673ffffffffffffffffffffffffffffffffffffffff168273ffffffffffffffffffffffffffffffffffffffff167f4a39dc06d4c0dbc64b70af90fd698a233a518aa5d07e595d983b8c0526c8f7fb878760405161172b929190613ea2565b60405180910390a46117418187878787876124dc565b505050505050565b611752826106bd565b6117638161175e611173565b6126c3565b61176d83836122fc565b505050565b61177a611173565b73ffffffffffffffffffffffffffffffffffffffff168173ffffffffffffffffffffffffffffffffffffffff16146117e7576040517f08c379a00000000000000000000000000000000000000000000000000000000081526004016117de906141b1565b60405180910390fd5b6117f18282612760565b5050565b600061181d836000018373ffffffffffffffffffffffffffffffffffffffff1660001b612841565b905092915050565b61182d610a10565b61186c576040517f08c379a000000000000000000000000000000000000000000000000000000000815260040161186390613f91565b60405180910390fd5b6000600560006101000a81548160ff0219169083151502179055507f5db9ee0a495bf2e6ff9c91a7834c1ba4fdd244a5e8aa4e537bd38aeae4b073aa6118b0611173565b6040516118bd9190613da3565b60405180910390a1565b600073ffffffffffffffffffffffffffffffffffffffff168373ffffffffffffffffffffffffffffffffffffffff161415611937576040517f08c379a000000000000000000000000000000000000000000000000000000000815260040161192e90614091565b60405180910390fd5b805182511461197b576040517f08c379a000000000000000000000000000000000000000000000000000000000815260040161197290614171565b60405180910390fd5b6000611985611173565b90506119a5818560008686604051806020016040528060008152506124c6565b60005b8351811015611b405760008482815181106119ec577f4e487b7100000000000000000000000000000000000000000000000000000000600052603260045260246000fd5b602002602001015190506000848381518110611a31577f4e487b7100000000000000000000000000000000000000000000000000000000600052603260045260246000fd5b6020026020010151905060006002600084815260200190815260200160002060008973ffffffffffffffffffffffffffffffffffffffff1673ffffffffffffffffffffffffffffffffffffffff16815260200190815260200160002054905081811015611ad3576040517f08c379a0000000000000000000000000000000000000000000000000000000008152600401611aca90613fd1565b60405180910390fd5b8181036002600085815260200190815260200160002060008a73ffffffffffffffffffffffffffffffffffffffff1673ffffffffffffffffffffffffffffffffffffffff168152602001908152602001600020819055505050508080611b3890614570565b9150506119a8565b50600073ffffffffffffffffffffffffffffffffffffffff168473ffffffffffffffffffffffffffffffffffffffff168273ffffffffffffffffffffffffffffffffffffffff167f4a39dc06d4c0dbc64b70af90fd698a233a518aa5d07e595d983b8c0526c8f7fb8686604051611bb8929190613ea2565b60405180910390a450505050565b600073ffffffffffffffffffffffffffffffffffffffff168473ffffffffffffffffffffffffffffffffffffffff161415611c36576040517f08c379a0000000000000000000000000000000000000000000000000000000008152600401611c2d90614191565b60405180910390fd5b6000611c40611173565b9050611c6181600087611c52886129c7565b611c5b886129c7565b876124c6565b826002600086815260200190815260200160002060008773ffffffffffffffffffffffffffffffffffffffff1673ffffffffffffffffffffffffffffffffffffffff1681526020019081526020016000206000828254611cc1919061433f565b925050819055508473ffffffffffffffffffffffffffffffffffffffff16600073ffffffffffffffffffffffffffffffffffffffff168273ffffffffffffffffffffffffffffffffffffffff167fc3d58168c5ae7397731d063d5bbf3d657854427343f4c083240f7aacaa2d0f628787604051611d3f9291906141ec565b60405180910390a4611d5681600087878787612a8d565b5050505050565b611d65610a10565b15611da5576040517f08c379a0000000000000000000000000000000000000000000000000000000008152600401611d9c90614031565b60405180910390fd5b6001600560006101000a81548160ff0219169083151502179055507f62e78cea01bee320cd4e420270b5ea74000d11b0c9f74754ebdbfc544b05a258611de9611173565b604051611df69190613da3565b60405180910390a1565b6000611e0f8360000183612c74565b60001c905092915050565b6000611e2882600001612cc5565b9050919050565b611e38826106bd565b611e4981611e44611173565b6126c3565b611e538383612760565b505050565b600073ffffffffffffffffffffffffffffffffffffffff168473ffffffffffffffffffffffffffffffffffffffff161415611ec8576040517f08c379a0000000000000000000000000000000000000000000000000000000008152600401611ebf90614051565b60405180910390fd5b6000611ed2611173565b9050611ef2818787611ee3886129c7565b611eec886129c7565b876124c6565b60006002600086815260200190815260200160002060008873ffffffffffffffffffffffffffffffffffffffff1673ffffffffffffffffffffffffffffffffffffffff16815260200190815260200160002054905083811015611f8a576040517f08c379a0000000000000000000000000000000000000000000000000000000008152600401611f81906140d1565b60405180910390fd5b8381036002600087815260200190815260200160002060008973ffffffffffffffffffffffffffffffffffffffff1673ffffffffffffffffffffffffffffffffffffffff16815260200190815260200160002081905550836002600087815260200190815260200160002060008873ffffffffffffffffffffffffffffffffffffffff1673ffffffffffffffffffffffffffffffffffffffff1681526020019081526020016000206000828254612041919061433f565b925050819055508573ffffffffffffffffffffffffffffffffffffffff168773ffffffffffffffffffffffffffffffffffffffff168373ffffffffffffffffffffffffffffffffffffffff167fc3d58168c5ae7397731d063d5bbf3d657854427343f4c083240f7aacaa2d0f6288886040516120be9291906141ec565b60405180910390a46120d4828888888888612a8d565b50505050505050565b600073ffffffffffffffffffffffffffffffffffffffff168373ffffffffffffffffffffffffffffffffffffffff16141561214d576040517f08c379a000000000000000000000000000000000000000000000000000000000815260040161214490614091565b60405180910390fd5b6000612157611173565b905061218781856000612169876129c7565b612172876129c7565b604051806020016040528060008152506124c6565b60006002600085815260200190815260200160002060008673ffffffffffffffffffffffffffffffffffffffff1673ffffffffffffffffffffffffffffffffffffffff1681526020019081526020016000205490508281101561221f576040517f08c379a000000000000000000000000000000000000000000000000000000000815260040161221690613fd1565b60405180910390fd5b8281036002600086815260200190815260200160002060008773ffffffffffffffffffffffffffffffffffffffff1673ffffffffffffffffffffffffffffffffffffffff16815260200190815260200160002081905550600073ffffffffffffffffffffffffffffffffffffffff168573ffffffffffffffffffffffffffffffffffffffff168373ffffffffffffffffffffffffffffffffffffffff167fc3d58168c5ae7397731d063d5bbf3d657854427343f4c083240f7aacaa2d0f6287876040516122ed9291906141ec565b60405180910390a45050505050565b6123068282610bef565b6123d857600160008084815260200190815260200160002060000160008373ffffffffffffffffffffffffffffffffffffffff1673ffffffffffffffffffffffffffffffffffffffff16815260200190815260200160002060006101000a81548160ff02191690831515021790555061237d611173565b73ffffffffffffffffffffffffffffffffffffffff168173ffffffffffffffffffffffffffffffffffffffff16837f2f8788117e7eff1d82e926ec794901d17c78024a50270940304540a733656f0d60405160405180910390a45b5050565b60006123e88383612cd6565b612441578260000182908060018154018082558091505060019003906000526020600020016000909190919091505582600001805490508360010160008481526020019081526020016000208190555060019050612446565b600090505b92915050565b60007f5a05180f000000000000000000000000000000000000000000000000000000007bffffffffffffffffffffffffffffffffffffffffffffffffffffffff1916827bffffffffffffffffffffffffffffffffffffffffffffffffffffffff191614806124bf57506124be82612cf9565b5b9050919050565b6124d4868686868686612d73565b505050505050565b6124fb8473ffffffffffffffffffffffffffffffffffffffff16612dd1565b156126bb578373ffffffffffffffffffffffffffffffffffffffff1663bc197c8187878686866040518663ffffffff1660e01b8152600401612541959493929190613dbe565b602060405180830381600087803b15801561255b57600080fd5b505af192505050801561258c57506040513d601f19601f82011682018060405250810190612589919061388e565b60015b61263257612598614646565b806308c379a014156125f557506125ad614ce1565b806125b857506125f7565b806040517f08c379a00000000000000000000000000000000000000000000000000000000081526004016125ec9190613f0f565b60405180910390fd5b505b6040517f08c379a000000000000000000000000000000000000000000000000000000000815260040161262990613f31565b60405180910390fd5b63bc197c8160e01b7bffffffffffffffffffffffffffffffffffffffffffffffffffffffff1916817bffffffffffffffffffffffffffffffffffffffffffffffffffffffff1916146126b9576040517f08c379a00000000000000000000000000000000000000000000000000000000081526004016126b090613f71565b60405180910390fd5b505b505050505050565b6126cd8282610bef565b61275c576126f28173ffffffffffffffffffffffffffffffffffffffff166014612de4565b6127008360001c6020612de4565b604051602001612711929190613d69565b6040516020818303038152906040526040517f08c379a00000000000000000000000000000000000000000000000000000000081526004016127539190613f0f565b60405180910390fd5b5050565b61276a8282610bef565b1561283d57600080600084815260200190815260200160002060000160008373ffffffffffffffffffffffffffffffffffffffff1673ffffffffffffffffffffffffffffffffffffffff16815260200190815260200160002060006101000a81548160ff0219169083151502179055506127e2611173565b73ffffffffffffffffffffffffffffffffffffffff168173ffffffffffffffffffffffffffffffffffffffff16837ff6391f5c32d9c69d2a47ea670b442974b53935d1edc7fd64eb21e047a839171b60405160405180910390a45b5050565b600080836001016000848152602001908152602001600020549050600081146129bb57600060018261287391906143ef565b905060006001866000018054905061288b91906143ef565b90508181146129465760008660000182815481106128d2577f4e487b7100000000000000000000000000000000000000000000000000000000600052603260045260246000fd5b906000526020600020015490508087600001848154811061291c577f4e487b7100000000000000000000000000000000000000000000000000000000600052603260045260246000fd5b90600052602060002001819055508387600101600083815260200190815260200160002081905550505b85600001805480612980577f4e487b7100000000000000000000000000000000000000000000000000000000600052603160045260246000fd5b6001900381819060005260206000200160009055905585600101600086815260200190815260200160002060009055600193505050506129c1565b60009150505b92915050565b60606000600167ffffffffffffffff811115612a0c577f4e487b7100000000000000000000000000000000000000000000000000000000600052604160045260246000fd5b604051908082528060200260200182016040528015612a3a5781602001602082028036833780820191505090505b5090508281600081518110612a78577f4e487b7100000000000000000000000000000000000000000000000000000000600052603260045260246000fd5b60200260200101818152505080915050919050565b612aac8473ffffffffffffffffffffffffffffffffffffffff16612dd1565b15612c6c578373ffffffffffffffffffffffffffffffffffffffff1663f23a6e6187878686866040518663ffffffff1660e01b8152600401612af2959493929190613e26565b602060405180830381600087803b158015612b0c57600080fd5b505af1925050508015612b3d57506040513d601f19601f82011682018060405250810190612b3a919061388e565b60015b612be357612b49614646565b806308c379a01415612ba65750612b5e614ce1565b80612b695750612ba8565b806040517f08c379a0000000000000000000000000000000000000000000000000000000008152600401612b9d9190613f0f565b60405180910390fd5b505b6040517f08c379a0000000000000000000000000000000000000000000000000000000008152600401612bda90613f31565b60405180910390fd5b63f23a6e6160e01b7bffffffffffffffffffffffffffffffffffffffffffffffffffffffff1916817bffffffffffffffffffffffffffffffffffffffffffffffffffffffff191614612c6a576040517f08c379a0000000000000000000000000000000000000000000000000000000008152600401612c6190613f71565b60405180910390fd5b505b505050505050565b6000826000018281548110612cb2577f4e487b7100000000000000000000000000000000000000000000000000000000600052603260045260246000fd5b9060005260206000200154905092915050565b600081600001805490509050919050565b600080836001016000848152602001908152602001600020541415905092915050565b60007f7965db0b000000000000000000000000000000000000000000000000000000007bffffffffffffffffffffffffffffffffffffffffffffffffffffffff1916827bffffffffffffffffffffffffffffffffffffffffffffffffffffffff19161480612d6c5750612d6b826130de565b5b9050919050565b612d81868686868686613148565b612d89610a10565b15612dc9576040517f08c379a0000000000000000000000000000000000000000000000000000000008152600401612dc090613ff1565b60405180910390fd5b505050505050565b600080823b905060008111915050919050565b606060006002836002612df79190614395565b612e01919061433f565b67ffffffffffffffff811115612e40577f4e487b7100000000000000000000000000000000000000000000000000000000600052604160045260246000fd5b6040519080825280601f01601f191660200182016040528015612e725781602001600182028036833780820191505090505b5090507f300000000000000000000000000000000000000000000000000000000000000081600081518110612ed0577f4e487b7100000000000000000000000000000000000000000000000000000000600052603260045260246000fd5b60200101907effffffffffffffffffffffffffffffffffffffffffffffffffffffffffffff1916908160001a9053507f780000000000000000000000000000000000000000000000000000000000000081600181518110612f5a577f4e487b7100000000000000000000000000000000000000000000000000000000600052603260045260246000fd5b60200101907effffffffffffffffffffffffffffffffffffffffffffffffffffffffffffff1916908160001a90535060006001846002612f9a9190614395565b612fa4919061433f565b90505b6001811115613090577f3031323334353637383961626364656600000000000000000000000000000000600f86166010811061300c577f4e487b7100000000000000000000000000000000000000000000000000000000600052603260045260246000fd5b1a60f81b828281518110613049577f4e487b7100000000000000000000000000000000000000000000000000000000600052603260045260246000fd5b60200101907effffffffffffffffffffffffffffffffffffffffffffffffffffffffffffff1916908160001a905350600485901c945080613089906144e3565b9050612fa7565b50600084146130d4576040517f08c379a00000000000000000000000000000000000000000000000000000000081526004016130cb90613f51565b60405180910390fd5b8091505092915050565b60007f01ffc9a7000000000000000000000000000000000000000000000000000000007bffffffffffffffffffffffffffffffffffffffffffffffffffffffff1916827bffffffffffffffffffffffffffffffffffffffffffffffffffffffff1916149050919050565b505050505050565b600061316361315e8461423a565b614215565b9050808382526020820190508285602086028201111561318257600080fd5b60005b858110156131b257816131988882613266565b845260208401935060208301925050600181019050613185565b5050509392505050565b60006131cf6131ca84614266565b614215565b905080838252602082019050828560208602820111156131ee57600080fd5b60005b8581101561321e5781613204888261334d565b8452602084019350602083019250506001810190506131f1565b5050509392505050565b600061323b61323684614292565b614215565b90508281526020810184848401111561325357600080fd5b61325e8482856144a1565b509392505050565b60008135905061327581614d77565b92915050565b600082601f83011261328c57600080fd5b813561329c848260208601613150565b91505092915050565b600082601f8301126132b657600080fd5b81356132c68482602086016131bc565b91505092915050565b6000813590506132de81614d8e565b92915050565b6000813590506132f381614da5565b92915050565b60008135905061330881614dbc565b92915050565b60008151905061331d81614dbc565b92915050565b600082601f83011261333457600080fd5b8135613344848260208601613228565b91505092915050565b60008135905061335c81614dd3565b92915050565b6000806040838503121561337557600080fd5b600061338385828601613266565b925050602061339485828601613266565b9150509250929050565b600080600080600060a086880312156133b657600080fd5b60006133c488828901613266565b95505060206133d588828901613266565b945050604086013567ffffffffffffffff8111156133f257600080fd5b6133fe888289016132a5565b935050606086013567ffffffffffffffff81111561341b57600080fd5b613427888289016132a5565b925050608086013567ffffffffffffffff81111561344457600080fd5b61345088828901613323565b9150509295509295909350565b600080600080600060a0868803121561347557600080fd5b600061348388828901613266565b955050602061349488828901613266565b94505060406134a58882890161334d565b93505060606134b68882890161334d565b925050608086013567ffffffffffffffff8111156134d357600080fd5b6134df88828901613323565b9150509295509295909350565b60008060006060848603121561350157600080fd5b600061350f86828701613266565b935050602084013567ffffffffffffffff81111561352c57600080fd5b613538868287016132a5565b925050604084013567ffffffffffffffff81111561355557600080fd5b613561868287016132a5565b9150509250925092565b6000806000806080858703121561358157600080fd5b600061358f87828801613266565b945050602085013567ffffffffffffffff8111156135ac57600080fd5b6135b8878288016132a5565b935050604085013567ffffffffffffffff8111156135d557600080fd5b6135e1878288016132a5565b925050606085013567ffffffffffffffff8111156135fe57600080fd5b61360a87828801613323565b91505092959194509250565b6000806040838503121561362957600080fd5b600061363785828601613266565b9250506020613648858286016132cf565b9150509250929050565b6000806040838503121561366557600080fd5b600061367385828601613266565b92505060206136848582860161334d565b9150509250929050565b6000806000606084860312156136a357600080fd5b60006136b186828701613266565b93505060206136c28682870161334d565b92505060406136d38682870161334d565b9150509250925092565b600080600080608085870312156136f357600080fd5b600061370187828801613266565b94505060206137128782880161334d565b93505060406137238782880161334d565b925050606085013567ffffffffffffffff81111561374057600080fd5b61374c87828801613323565b91505092959194509250565b6000806040838503121561376b57600080fd5b600083013567ffffffffffffffff81111561378557600080fd5b6137918582860161327b565b925050602083013567ffffffffffffffff8111156137ae57600080fd5b6137ba858286016132a5565b9150509250929050565b6000602082840312156137d657600080fd5b60006137e4848285016132e4565b91505092915050565b6000806040838503121561380057600080fd5b600061380e858286016132e4565b925050602061381f85828601613266565b9150509250929050565b6000806040838503121561383c57600080fd5b600061384a858286016132e4565b925050602061385b8582860161334d565b9150509250929050565b60006020828403121561387757600080fd5b6000613885848285016132f9565b91505092915050565b6000602082840312156138a057600080fd5b60006138ae8482850161330e565b91505092915050565b6000602082840312156138c957600080fd5b60006138d78482850161334d565b91505092915050565b60006138ec8383613d4b565b60208301905092915050565b61390181614423565b82525050565b6000613912826142d3565b61391c8185614301565b9350613927836142c3565b8060005b8381101561395857815161393f88826138e0565b975061394a836142f4565b92505060018101905061392b565b5085935050505092915050565b61396e81614435565b82525050565b61397d81614441565b82525050565b600061398e826142de565b6139988185614312565b93506139a88185602086016144b0565b6139b181614668565b840191505092915050565b60006139c7826142e9565b6139d18185614323565b93506139e18185602086016144b0565b6139ea81614668565b840191505092915050565b6000613a00826142e9565b613a0a8185614334565b9350613a1a8185602086016144b0565b80840191505092915050565b6000613a33603483614323565b9150613a3e82614686565b604082019050919050565b6000613a56602083614323565b9150613a61826146d5565b602082019050919050565b6000613a79602883614323565b9150613a84826146fe565b604082019050919050565b6000613a9c601483614323565b9150613aa78261474d565b602082019050919050565b6000613abf602b83614323565b9150613aca82614776565b604082019050919050565b6000613ae2602483614323565b9150613aed826147c5565b604082019050919050565b6000613b05602c83614323565b9150613b1082614814565b604082019050919050565b6000613b28602983614323565b9150613b3382614863565b604082019050919050565b6000613b4b601083614323565b9150613b56826148b2565b602082019050919050565b6000613b6e602583614323565b9150613b79826148db565b604082019050919050565b6000613b91603283614323565b9150613b9c8261492a565b604082019050919050565b6000613bb4602383614323565b9150613bbf82614979565b604082019050919050565b6000613bd7603883614323565b9150613be2826149c8565b604082019050919050565b6000613bfa602a83614323565b9150613c0582614a17565b604082019050919050565b6000613c1d603b83614323565b9150613c2882614a66565b604082019050919050565b6000613c40603983614323565b9150613c4b82614ab5565b604082019050919050565b6000613c63601783614334565b9150613c6e82614b04565b601782019050919050565b6000613c86602983614323565b9150613c9182614b2d565b604082019050919050565b6000613ca9602983614323565b9150613cb482614b7c565b604082019050919050565b6000613ccc602883614323565b9150613cd782614bcb565b604082019050919050565b6000613cef602183614323565b9150613cfa82614c1a565b604082019050919050565b6000613d12601183614334565b9150613d1d82614c69565b601182019050919050565b6000613d35602f83614323565b9150613d4082614c92565b604082019050919050565b613d5481614497565b82525050565b613d6381614497565b82525050565b6000613d7482613c56565b9150613d8082856139f5565b9150613d8b82613d05565b9150613d9782846139f5565b91508190509392505050565b6000602082019050613db860008301846138f8565b92915050565b600060a082019050613dd360008301886138f8565b613de060208301876138f8565b8181036040830152613df28186613907565b90508181036060830152613e068185613907565b90508181036080830152613e1a8184613983565b90509695505050505050565b600060a082019050613e3b60008301886138f8565b613e4860208301876138f8565b613e556040830186613d5a565b613e626060830185613d5a565b8181036080830152613e748184613983565b90509695505050505050565b60006020820190508181036000830152613e9a8184613907565b905092915050565b60006040820190508181036000830152613ebc8185613907565b90508181036020830152613ed08184613907565b90509392505050565b6000602082019050613eee6000830184613965565b92915050565b6000602082019050613f096000830184613974565b92915050565b60006020820190508181036000830152613f2981846139bc565b905092915050565b60006020820190508181036000830152613f4a81613a26565b9050919050565b60006020820190508181036000830152613f6a81613a49565b9050919050565b60006020820190508181036000830152613f8a81613a6c565b9050919050565b60006020820190508181036000830152613faa81613a8f565b9050919050565b60006020820190508181036000830152613fca81613ab2565b9050919050565b60006020820190508181036000830152613fea81613ad5565b9050919050565b6000602082019050818103600083015261400a81613af8565b9050919050565b6000602082019050818103600083015261402a81613b1b565b9050919050565b6000602082019050818103600083015261404a81613b3e565b9050919050565b6000602082019050818103600083015261406a81613b61565b9050919050565b6000602082019050818103600083015261408a81613b84565b9050919050565b600060208201905081810360008301526140aa81613ba7565b9050919050565b600060208201905081810360008301526140ca81613bca565b9050919050565b600060208201905081810360008301526140ea81613bed565b9050919050565b6000602082019050818103600083015261410a81613c10565b9050919050565b6000602082019050818103600083015261412a81613c33565b9050919050565b6000602082019050818103600083015261414a81613c79565b9050919050565b6000602082019050818103600083015261416a81613c9c565b9050919050565b6000602082019050818103600083015261418a81613cbf565b9050919050565b600060208201905081810360008301526141aa81613ce2565b9050919050565b600060208201905081810360008301526141ca81613d28565b9050919050565b60006020820190506141e66000830184613d5a565b92915050565b60006040820190506142016000830185613d5a565b61420e6020830184613d5a565b9392505050565b600061421f614230565b905061422b828261453f565b919050565b6000604051905090565b600067ffffffffffffffff82111561425557614254614617565b5b602082029050602081019050919050565b600067ffffffffffffffff82111561428157614280614617565b5b602082029050602081019050919050565b600067ffffffffffffffff8211156142ad576142ac614617565b5b6142b682614668565b9050602081019050919050565b6000819050602082019050919050565b600081519050919050565b600081519050919050565b600081519050919050565b6000602082019050919050565b600082825260208201905092915050565b600082825260208201905092915050565b600082825260208201905092915050565b600081905092915050565b600061434a82614497565b915061435583614497565b9250827fffffffffffffffffffffffffffffffffffffffffffffffffffffffffffffffff0382111561438a576143896145b9565b5b828201905092915050565b60006143a082614497565b91506143ab83614497565b9250817fffffffffffffffffffffffffffffffffffffffffffffffffffffffffffffffff04831182151516156143e4576143e36145b9565b5b828202905092915050565b60006143fa82614497565b915061440583614497565b925082821015614418576144176145b9565b5b828203905092915050565b600061442e82614477565b9050919050565b60008115159050919050565b6000819050919050565b60007fffffffff0000000000000000000000000000000000000000000000000000000082169050919050565b600073ffffffffffffffffffffffffffffffffffffffff82169050919050565b6000819050919050565b82818337600083830152505050565b60005b838110156144ce5780820151818401526020810190506144b3565b838111156144dd576000848401525b50505050565b60006144ee82614497565b91506000821415614502576145016145b9565b5b600182039050919050565b6000600282049050600182168061452557607f821691505b60208210811415614539576145386145e8565b5b50919050565b61454882614668565b810181811067ffffffffffffffff8211171561456757614566614617565b5b80604052505050565b600061457b82614497565b91507fffffffffffffffffffffffffffffffffffffffffffffffffffffffffffffffff8214156145ae576145ad6145b9565b5b600182019050919050565b7f4e487b7100000000000000000000000000000000000000000000000000000000600052601160045260246000fd5b7f4e487b7100000000000000000000000000000000000000000000000000000000600052602260045260246000fd5b7f4e487b7100000000000000000000000000000000000000000000000000000000600052604160045260246000fd5b600060033d11156146655760046000803e614662600051614679565b90505b90565b6000601f19601f8301169050919050565b60008160e01c9050919050565b7f455243313135353a207472616e7366657220746f206e6f6e204552433131353560008201527f526563656976657220696d706c656d656e746572000000000000000000000000602082015250565b7f537472696e67733a20686578206c656e67746820696e73756666696369656e74600082015250565b7f455243313135353a204552433131353552656365697665722072656a6563746560008201527f6420746f6b656e73000000000000000000000000000000000000000000000000602082015250565b7f5061757361626c653a206e6f7420706175736564000000000000000000000000600082015250565b7f455243313135353a2062616c616e636520717565727920666f7220746865207a60008201527f65726f2061646472657373000000000000000000000000000000000000000000602082015250565b7f455243313135353a206275726e20616d6f756e7420657863656564732062616c60008201527f616e636500000000000000000000000000000000000000000000000000000000602082015250565b7f455243313135355061757361626c653a20746f6b656e207472616e736665722060008201527f7768696c65207061757365640000000000000000000000000000000000000000602082015250565b7f455243313135353a2063616c6c6572206973206e6f74206f776e6572206e6f7260008201527f20617070726f7665640000000000000000000000000000000000000000000000602082015250565b7f5061757361626c653a2070617573656400000000000000000000000000000000600082015250565b7f455243313135353a207472616e7366657220746f20746865207a65726f20616460008201527f6472657373000000000000000000000000000000000000000000000000000000602082015250565b7f455243313135353a207472616e736665722063616c6c6572206973206e6f742060008201527f6f776e6572206e6f7220617070726f7665640000000000000000000000000000602082015250565b7f455243313135353a206275726e2066726f6d20746865207a65726f206164647260008201527f6573730000000000000000000000000000000000000000000000000000000000602082015250565b7f455243313135355072657365744d696e7465725061757365723a206d7573742060008201527f68617665206d696e74657220726f6c6520746f206d696e740000000000000000602082015250565b7f455243313135353a20696e73756666696369656e742062616c616e636520666f60008201527f72207472616e7366657200000000000000000000000000000000000000000000602082015250565b7f455243313135355072657365744d696e7465725061757365723a206d7573742060008201527f686176652070617573657220726f6c6520746f20756e70617573650000000000602082015250565b7f455243313135355072657365744d696e7465725061757365723a206d7573742060008201527f686176652070617573657220726f6c6520746f20706175736500000000000000602082015250565b7f416363657373436f6e74726f6c3a206163636f756e7420000000000000000000600082015250565b7f455243313135353a2073657474696e6720617070726f76616c2073746174757360008201527f20666f722073656c660000000000000000000000000000000000000000000000602082015250565b7f455243313135353a206163636f756e747320616e6420696473206c656e67746860008201527f206d69736d617463680000000000000000000000000000000000000000000000602082015250565b7f455243313135353a2069647320616e6420616d6f756e7473206c656e6774682060008201527f6d69736d61746368000000000000000000000000000000000000000000000000602082015250565b7f455243313135353a206d696e7420746f20746865207a65726f2061646472657360008201527f7300000000000000000000000000000000000000000000000000000000000000602082015250565b7f206973206d697373696e6720726f6c6520000000000000000000000000000000600082015250565b7f416363657373436f6e74726f6c3a2063616e206f6e6c792072656e6f756e636560008201527f20726f6c657320666f722073656c660000000000000000000000000000000000602082015250565b600060443d1015614cf157614d74565b614cf9614230565b60043d036004823e80513d602482011167ffffffffffffffff82111715614d21575050614d74565b808201805167ffffffffffffffff811115614d3f5750505050614d74565b80602083010160043d038501811115614d5c575050505050614d74565b614d6b8260200185018661453f565b82955050505050505b90565b614d8081614423565b8114614d8b57600080fd5b50565b614d9781614435565b8114614da257600080fd5b50565b614dae81614441565b8114614db957600080fd5b50565b614dc58161444b565b8114614dd057600080fd5b50565b614ddc81614497565b8114614de757600080fd5b5056fea2646970667358221220d2c3b12c5618ee911bdc4f8965089338c486a024556b171ef0631e97fa0c876464736f6c63430008040033",
  "immutableReferences": {},
  "source": "// SPDX-License-Identifier: MIT\n\npragma solidity ^0.8.0;\n\nimport \"../ERC1155.sol\";\nimport \"../extensions/ERC1155Burnable.sol\";\nimport \"../extensions/ERC1155Pausable.sol\";\nimport \"../../../access/AccessControlEnumerable.sol\";\nimport \"../../../utils/Context.sol\";\n\n/**\n * @dev {ERC1155} token, including:\n *\n *  - ability for holders to burn (destroy) their tokens\n *  - a minter role that allows for token minting (creation)\n *  - a pauser role that allows to stop all token transfers\n *\n * This contract uses {AccessControl} to lock permissioned functions using the\n * different roles - head to its documentation for details.\n *\n * The account that deploys the contract will be granted the minter and pauser\n * roles, as well as the default admin role, which will let it grant both minter\n * and pauser roles to other accounts.\n */\ncontract ERC1155PresetMinterPauser is Context, AccessControlEnumerable, ERC1155Burnable, ERC1155Pausable {\n    bytes32 public constant MINTER_ROLE = keccak256(\"MINTER_ROLE\");\n    bytes32 public constant PAUSER_ROLE = keccak256(\"PAUSER_ROLE\");\n\n    /**\n     * @dev Grants `DEFAULT_ADMIN_ROLE`, `MINTER_ROLE`, and `PAUSER_ROLE` to the account that\n     * deploys the contract.\n     */\n    constructor(string memory uri) ERC1155(uri) {\n        _setupRole(DEFAULT_ADMIN_ROLE, _msgSender());\n\n        _setupRole(MINTER_ROLE, _msgSender());\n        _setupRole(PAUSER_ROLE, _msgSender());\n    }\n\n    /**\n     * @dev Creates `amount` new tokens for `to`, of token type `id`.\n     *\n     * See {ERC1155-_mint}.\n     *\n     * Requirements:\n     *\n     * - the caller must have the `MINTER_ROLE`.\n     */\n    function mint(\n        address to,\n        uint256 id,\n        uint256 amount,\n        bytes memory data\n    ) public virtual {\n        require(hasRole(MINTER_ROLE, _msgSender()), \"ERC1155PresetMinterPauser: must have minter role to mint\");\n\n        _mint(to, id, amount, data);\n    }\n\n    /**\n     * @dev xref:ROOT:erc1155.adoc#batch-operations[Batched] variant of {mint}.\n     */\n    function mintBatch(\n        address to,\n        uint256[] memory ids,\n        uint256[] memory amounts,\n        bytes memory data\n    ) public virtual {\n        require(hasRole(MINTER_ROLE, _msgSender()), \"ERC1155PresetMinterPauser: must have minter role to mint\");\n\n        _mintBatch(to, ids, amounts, data);\n    }\n\n    /**\n     * @dev Pauses all token transfers.\n     *\n     * See {ERC1155Pausable} and {Pausable-_pause}.\n     *\n     * Requirements:\n     *\n     * - the caller must have the `PAUSER_ROLE`.\n     */\n    function pause() public virtual {\n        require(hasRole(PAUSER_ROLE, _msgSender()), \"ERC1155PresetMinterPauser: must have pauser role to pause\");\n        _pause();\n    }\n\n    /**\n     * @dev Unpauses all token transfers.\n     *\n     * See {ERC1155Pausable} and {Pausable-_unpause}.\n     *\n     * Requirements:\n     *\n     * - the caller must have the `PAUSER_ROLE`.\n     */\n    function unpause() public virtual {\n        require(hasRole(PAUSER_ROLE, _msgSender()), \"ERC1155PresetMinterPauser: must have pauser role to unpause\");\n        _unpause();\n    }\n\n    /**\n     * @dev See {IERC165-supportsInterface}.\n     */\n    function supportsInterface(bytes4 interfaceId)\n        public\n        view\n        virtual\n        override(AccessControlEnumerable, ERC1155)\n        returns (bool)\n    {\n        return super.supportsInterface(interfaceId);\n    }\n\n    function _beforeTokenTransfer(\n        address operator,\n        address from,\n        address to,\n        uint256[] memory ids,\n        uint256[] memory amounts,\n        bytes memory data\n    ) internal virtual override(ERC1155, ERC1155Pausable) {\n        super._beforeTokenTransfer(operator, from, to, ids, amounts, data);\n    }\n}\n",
  "sourcePath": "/Users/alexanderpetrovskiy/work/neon/neon-uat/openzeppelin-contracts/contracts/token/ERC1155/presets/ERC1155PresetMinterPauser.sol",
  "compiler": {
    "name": "solc",
    "version": "0.8.4+commit.c7e474f2.Emscripten.clang"
  },
  "schemaVersion": "3.4.3",
  "updatedAt": "2023-10-14T11:18:38.837Z",
  "devdoc": {
    "details": "{ERC1155} token, including:  - ability for holders to burn (destroy) their tokens  - a minter role that allows for token minting (creation)  - a pauser role that allows to stop all token transfers This contract uses {AccessControl} to lock permissioned functions using the different roles - head to its documentation for details. The account that deploys the contract will be granted the minter and pauser roles, as well as the default admin role, which will let it grant both minter and pauser roles to other accounts.",
    "kind": "dev",
    "methods": {
      "balanceOf(address,uint256)": {
        "details": "See {IERC1155-balanceOf}. Requirements: - `account` cannot be the zero address."
      },
      "balanceOfBatch(address[],uint256[])": {
        "details": "See {IERC1155-balanceOfBatch}. Requirements: - `accounts` and `ids` must have the same length."
      },
      "constructor": {
        "details": "Grants `DEFAULT_ADMIN_ROLE`, `MINTER_ROLE`, and `PAUSER_ROLE` to the account that deploys the contract."
      },
      "getRoleAdmin(bytes32)": {
        "details": "Returns the admin role that controls `role`. See {grantRole} and {revokeRole}. To change a role's admin, use {_setRoleAdmin}."
      },
      "getRoleMember(bytes32,uint256)": {
        "details": "Returns one of the accounts that have `role`. `index` must be a value between 0 and {getRoleMemberCount}, non-inclusive. Role bearers are not sorted in any particular way, and their ordering may change at any point. WARNING: When using {getRoleMember} and {getRoleMemberCount}, make sure you perform all queries on the same block. See the following https://forum.openzeppelin.com/t/iterating-over-elements-on-enumerableset-in-openzeppelin-contracts/2296[forum post] for more information."
      },
      "getRoleMemberCount(bytes32)": {
        "details": "Returns the number of accounts that have `role`. Can be used together with {getRoleMember} to enumerate all bearers of a role."
      },
      "grantRole(bytes32,address)": {
        "details": "Overload {grantRole} to track enumerable memberships"
      },
      "hasRole(bytes32,address)": {
        "details": "Returns `true` if `account` has been granted `role`."
      },
      "isApprovedForAll(address,address)": {
        "details": "See {IERC1155-isApprovedForAll}."
      },
      "mint(address,uint256,uint256,bytes)": {
        "details": "Creates `amount` new tokens for `to`, of token type `id`. See {ERC1155-_mint}. Requirements: - the caller must have the `MINTER_ROLE`."
      },
      "mintBatch(address,uint256[],uint256[],bytes)": {
        "details": "xref:ROOT:erc1155.adoc#batch-operations[Batched] variant of {mint}."
      },
      "pause()": {
        "details": "Pauses all token transfers. See {ERC1155Pausable} and {Pausable-_pause}. Requirements: - the caller must have the `PAUSER_ROLE`."
      },
      "paused()": {
        "details": "Returns true if the contract is paused, and false otherwise."
      },
      "renounceRole(bytes32,address)": {
        "details": "Overload {renounceRole} to track enumerable memberships"
      },
      "revokeRole(bytes32,address)": {
        "details": "Overload {revokeRole} to track enumerable memberships"
      },
      "safeBatchTransferFrom(address,address,uint256[],uint256[],bytes)": {
        "details": "See {IERC1155-safeBatchTransferFrom}."
      },
      "safeTransferFrom(address,address,uint256,uint256,bytes)": {
        "details": "See {IERC1155-safeTransferFrom}."
      },
      "setApprovalForAll(address,bool)": {
        "details": "See {IERC1155-setApprovalForAll}."
      },
      "supportsInterface(bytes4)": {
        "details": "See {IERC165-supportsInterface}."
      },
      "unpause()": {
        "details": "Unpauses all token transfers. See {ERC1155Pausable} and {Pausable-_unpause}. Requirements: - the caller must have the `PAUSER_ROLE`."
      },
      "uri(uint256)": {
        "details": "See {IERC1155MetadataURI-uri}. This implementation returns the same URI for *all* token types. It relies on the token type ID substitution mechanism https://eips.ethereum.org/EIPS/eip-1155#metadata[defined in the EIP]. Clients calling this function must replace the `\\{id\\}` substring with the actual token type ID."
      }
    },
    "version": 1
  },
  "userdoc": {
    "kind": "user",
    "methods": {},
    "version": 1
  }
}