{
  "contractName": "ERC1155Mock",
  "abi": [
    {
      "inputs": [
        {
          "internalType": "string",
          "name": "uri",
          "type": "string"
        }
      ],
      "stateMutability": "nonpayable",
      "type": "constructor"
    },
    {
      "anonymous": false,
      "inputs": [
        {
          "indexed": true,
          "internalType": "address",
          "name": "account",
          "type": "address"
        },
        {
          "indexed": true,
          "internalType": "address",
          "name": "operator",
          "type": "address"
        },
        {
          "indexed": false,
          "internalType": "bool",
          "name": "approved",
          "type": "bool"
        }
      ],
      "name": "ApprovalForAll",
      "type": "event"
    },
    {
      "anonymous": false,
      "inputs": [
        {
          "indexed": true,
          "internalType": "address",
          "name": "operator",
          "type": "address"
        },
        {
          "indexed": true,
          "internalType": "address",
          "name": "from",
          "type": "address"
        },
        {
          "indexed": true,
          "internalType": "address",
          "name": "to",
          "type": "address"
        },
        {
          "indexed": false,
          "internalType": "uint256[]",
          "name": "ids",
          "type": "uint256[]"
        },
        {
          "indexed": false,
          "internalType": "uint256[]",
          "name": "values",
          "type": "uint256[]"
        }
      ],
      "name": "TransferBatch",
      "type": "event"
    },
    {
      "anonymous": false,
      "inputs": [
        {
          "indexed": true,
          "internalType": "address",
          "name": "operator",
          "type": "address"
        },
        {
          "indexed": true,
          "internalType": "address",
          "name": "from",
          "type": "address"
        },
        {
          "indexed": true,
          "internalType": "address",
          "name": "to",
          "type": "address"
        },
        {
          "indexed": false,
          "internalType": "uint256",
          "name": "id",
          "type": "uint256"
        },
        {
          "indexed": false,
          "internalType": "uint256",
          "name": "value",
          "type": "uint256"
        }
      ],
      "name": "TransferSingle",
      "type": "event"
    },
    {
      "anonymous": false,
      "inputs": [
        {
          "indexed": false,
          "internalType": "string",
          "name": "value",
          "type": "string"
        },
        {
          "indexed": true,
          "internalType": "uint256",
          "name": "id",
          "type": "uint256"
        }
      ],
      "name": "URI",
      "type": "event"
    },
    {
      "inputs": [
        {
          "internalType": "address",
          "name": "account",
          "type": "address"
        },
        {
          "internalType": "uint256",
          "name": "id",
          "type": "uint256"
        }
      ],
      "name": "balanceOf",
      "outputs": [
        {
          "internalType": "uint256",
          "name": "",
          "type": "uint256"
        }
      ],
      "stateMutability": "view",
      "type": "function"
    },
    {
      "inputs": [
        {
          "internalType": "address[]",
          "name": "accounts",
          "type": "address[]"
        },
        {
          "internalType": "uint256[]",
          "name": "ids",
          "type": "uint256[]"
        }
      ],
      "name": "balanceOfBatch",
      "outputs": [
        {
          "internalType": "uint256[]",
          "name": "",
          "type": "uint256[]"
        }
      ],
      "stateMutability": "view",
      "type": "function"
    },
    {
      "inputs": [
        {
          "internalType": "address",
          "name": "account",
          "type": "address"
        },
        {
          "internalType": "address",
          "name": "operator",
          "type": "address"
        }
      ],
      "name": "isApprovedForAll",
      "outputs": [
        {
          "internalType": "bool",
          "name": "",
          "type": "bool"
        }
      ],
      "stateMutability": "view",
      "type": "function"
    },
    {
      "inputs": [
        {
          "internalType": "address",
          "name": "from",
          "type": "address"
        },
        {
          "internalType": "address",
          "name": "to",
          "type": "address"
        },
        {
          "internalType": "uint256[]",
          "name": "ids",
          "type": "uint256[]"
        },
        {
          "internalType": "uint256[]",
          "name": "amounts",
          "type": "uint256[]"
        },
        {
          "internalType": "bytes",
          "name": "data",
          "type": "bytes"
        }
      ],
      "name": "safeBatchTransferFrom",
      "outputs": [],
      "stateMutability": "nonpayable",
      "type": "function"
    },
    {
      "inputs": [
        {
          "internalType": "address",
          "name": "from",
          "type": "address"
        },
        {
          "internalType": "address",
          "name": "to",
          "type": "address"
        },
        {
          "internalType": "uint256",
          "name": "id",
          "type": "uint256"
        },
        {
          "internalType": "uint256",
          "name": "amount",
          "type": "uint256"
        },
        {
          "internalType": "bytes",
          "name": "data",
          "type": "bytes"
        }
      ],
      "name": "safeTransferFrom",
      "outputs": [],
      "stateMutability": "nonpayable",
      "type": "function"
    },
    {
      "inputs": [
        {
          "internalType": "address",
          "name": "operator",
          "type": "address"
        },
        {
          "internalType": "bool",
          "name": "approved",
          "type": "bool"
        }
      ],
      "name": "setApprovalForAll",
      "outputs": [],
      "stateMutability": "nonpayable",
      "type": "function"
    },
    {
      "inputs": [
        {
          "internalType": "bytes4",
          "name": "interfaceId",
          "type": "bytes4"
        }
      ],
      "name": "supportsInterface",
      "outputs": [
        {
          "internalType": "bool",
          "name": "",
          "type": "bool"
        }
      ],
      "stateMutability": "view",
      "type": "function"
    },
    {
      "inputs": [
        {
          "internalType": "uint256",
          "name": "",
          "type": "uint256"
        }
      ],
      "name": "uri",
      "outputs": [
        {
          "internalType": "string",
          "name": "",
          "type": "string"
        }
      ],
      "stateMutability": "view",
      "type": "function"
    },
    {
      "inputs": [
        {
          "internalType": "string",
          "name": "newuri",
          "type": "string"
        }
      ],
      "name": "setURI",
      "outputs": [],
      "stateMutability": "nonpayable",
      "type": "function"
    },
    {
      "inputs": [
        {
          "internalType": "address",
          "name": "to",
          "type": "address"
        },
        {
          "internalType": "uint256",
          "name": "id",
          "type": "uint256"
        },
        {
          "internalType": "uint256",
          "name": "value",
          "type": "uint256"
        },
        {
          "internalType": "bytes",
          "name": "data",
          "type": "bytes"
        }
      ],
      "name": "mint",
      "outputs": [],
      "stateMutability": "nonpayable",
      "type": "function"
    },
    {
      "inputs": [
        {
          "internalType": "address",
          "name": "to",
          "type": "address"
        },
        {
          "internalType": "uint256[]",
          "name": "ids",
          "type": "uint256[]"
        },
        {
          "internalType": "uint256[]",
          "name": "values",
          "type": "uint256[]"
        },
        {
          "internalType": "bytes",
          "name": "data",
          "type": "bytes"
        }
      ],
      "name": "mintBatch",
      "outputs": [],
      "stateMutability": "nonpayable",
      "type": "function"
    },
    {
      "inputs": [
        {
          "internalType": "address",
          "name": "owner",
          "type": "address"
        },
        {
          "internalType": "uint256",
          "name": "id",
          "type": "uint256"
        },
        {
          "internalType": "uint256",
          "name": "value",
          "type": "uint256"
        }
      ],
      "name": "burn",
      "outputs": [],
      "stateMutability": "nonpayable",
      "type": "function"
    },
    {
      "inputs": [
        {
          "internalType": "address",
          "name": "owner",
          "type": "address"
        },
        {
          "internalType": "uint256[]",
          "name": "ids",
          "type": "uint256[]"
        },
        {
          "internalType": "uint256[]",
          "name": "values",
          "type": "uint256[]"
        }
      ],
      "name": "burnBatch",
      "outputs": [],
      "stateMutability": "nonpayable",
      "type": "function"
    }
  ],
  "bytecode": "0x60806040523480156200001157600080fd5b50604051620039123803806200391283398181016040528101906200003791906200018f565b8062000049816200005160201b60201c565b505062000344565b8060029080519060200190620000699291906200006d565b5050565b8280546200007b9062000269565b90600052602060002090601f0160209004810192826200009f5760008555620000eb565b82601f10620000ba57805160ff1916838001178555620000eb565b82800160010185558215620000eb579182015b82811115620000ea578251825591602001919060010190620000cd565b5b509050620000fa9190620000fe565b5090565b5b8082111562000119576000816000905550600101620000ff565b5090565b6000620001346200012e84620001fd565b620001d4565b9050828152602081018484840111156200014d57600080fd5b6200015a84828562000233565b509392505050565b600082601f8301126200017457600080fd5b8151620001868482602086016200011d565b91505092915050565b600060208284031215620001a257600080fd5b600082015167ffffffffffffffff811115620001bd57600080fd5b620001cb8482850162000162565b91505092915050565b6000620001e0620001f3565b9050620001ee82826200029f565b919050565b6000604051905090565b600067ffffffffffffffff8211156200021b576200021a62000304565b5b620002268262000333565b9050602081019050919050565b60005b838110156200025357808201518184015260208101905062000236565b8381111562000263576000848401525b50505050565b600060028204905060018216806200028257607f821691505b60208210811415620002995762000298620002d5565b5b50919050565b620002aa8262000333565b810181811067ffffffffffffffff82111715620002cc57620002cb62000304565b5b80604052505050565b7f4e487b7100000000000000000000000000000000000000000000000000000000600052602260045260246000fd5b7f4e487b7100000000000000000000000000000000000000000000000000000000600052604160045260246000fd5b6000601f19601f8301169050919050565b6135be80620003546000396000f3fe608060405234801561001057600080fd5b50600436106100ce5760003560e01c80634e1273f41161008c578063a22cb46511610066578063a22cb4651461021f578063e985e9c51461023b578063f242432a1461026b578063f5298aca14610287576100ce565b80634e1273f4146101b75780636b20c454146101e7578063731133e914610203576100ce565b8062fdd58e146100d357806301ffc9a71461010357806302fe5305146101335780630e89341c1461014f5780631f7fdffa1461017f5780632eb2c2d61461019b575b600080fd5b6100ed60048036038101906100e89190612469565b6102a3565b6040516100fa9190612c7a565b60405180910390f35b61011d600480360381019061011891906125db565b61036c565b60405161012a9190612a9d565b60405180910390f35b61014d6004803603810190610148919061262d565b61044e565b005b6101696004803603810190610164919061266e565b61045a565b6040516101769190612ab8565b60405180910390f35b61019960048036038101906101949190612382565b6104ee565b005b6101b560048036038101906101b091906121b5565b610500565b005b6101d160048036038101906101cc919061256f565b6105a1565b6040516101de9190612a44565b60405180910390f35b61020160048036038101906101fc9190612303565b610752565b005b61021d600480360381019061021891906124f4565b610762565b005b6102396004803603810190610234919061242d565b610774565b005b61025560048036038101906102509190612179565b6108f5565b6040516102629190612a9d565b60405180910390f35b61028560048036038101906102809190612274565b610989565b005b6102a1600480360381019061029c91906124a5565b610a2a565b005b60008073ffffffffffffffffffffffffffffffffffffffff168373ffffffffffffffffffffffffffffffffffffffff161415610314576040517f08c379a000000000000000000000000000000000000000000000000000000000815260040161030b90612b1a565b60405180910390fd5b60008083815260200190815260200160002060008473ffffffffffffffffffffffffffffffffffffffff1673ffffffffffffffffffffffffffffffffffffffff16815260200190815260200160002054905092915050565b60007fd9b67a26000000000000000000000000000000000000000000000000000000007bffffffffffffffffffffffffffffffffffffffffffffffffffffffff1916827bffffffffffffffffffffffffffffffffffffffffffffffffffffffff1916148061043757507f0e89341c000000000000000000000000000000000000000000000000000000007bffffffffffffffffffffffffffffffffffffffffffffffffffffffff1916827bffffffffffffffffffffffffffffffffffffffffffffffffffffffff1916145b80610447575061044682610a3a565b5b9050919050565b61045781610aa4565b50565b60606002805461046990612f1a565b80601f016020809104026020016040519081016040528092919081815260200182805461049590612f1a565b80156104e25780601f106104b7576101008083540402835291602001916104e2565b820191906000526020600020905b8154815290600101906020018083116104c557829003601f168201915b50505050509050919050565b6104fa84848484610abe565b50505050565b610508610d28565b73ffffffffffffffffffffffffffffffffffffffff168573ffffffffffffffffffffffffffffffffffffffff16148061054e575061054d85610548610d28565b6108f5565b5b61058d576040517f08c379a000000000000000000000000000000000000000000000000000000000815260040161058490612b9a565b60405180910390fd5b61059a8585858585610d30565b5050505050565b606081518351146105e7576040517f08c379a00000000000000000000000000000000000000000000000000000000081526004016105de90612c1a565b60405180910390fd5b6000835167ffffffffffffffff81111561062a577f4e487b7100000000000000000000000000000000000000000000000000000000600052604160045260246000fd5b6040519080825280602002602001820160405280156106585781602001602082028036833780820191505090505b50905060005b8451811015610747576106f18582815181106106a3577f4e487b7100000000000000000000000000000000000000000000000000000000600052603260045260246000fd5b60200260200101518583815181106106e4577f4e487b7100000000000000000000000000000000000000000000000000000000600052603260045260246000fd5b60200260200101516102a3565b82828151811061072a577f4e487b7100000000000000000000000000000000000000000000000000000000600052603260045260246000fd5b6020026020010181815250508061074090612f7d565b905061065e565b508091505092915050565b61075d838383611090565b505050565b61076e8484848461138d565b50505050565b8173ffffffffffffffffffffffffffffffffffffffff16610793610d28565b73ffffffffffffffffffffffffffffffffffffffff1614156107ea576040517f08c379a00000000000000000000000000000000000000000000000000000000081526004016107e190612bfa565b60405180910390fd5b80600160006107f7610d28565b73ffffffffffffffffffffffffffffffffffffffff1673ffffffffffffffffffffffffffffffffffffffff16815260200190815260200160002060008473ffffffffffffffffffffffffffffffffffffffff1673ffffffffffffffffffffffffffffffffffffffff16815260200190815260200160002060006101000a81548160ff0219169083151502179055508173ffffffffffffffffffffffffffffffffffffffff166108a4610d28565b73ffffffffffffffffffffffffffffffffffffffff167f17307eab39ab6107e8899845ad3d59bd9653f200f220920489ca2b5937696c31836040516108e99190612a9d565b60405180910390a35050565b6000600160008473ffffffffffffffffffffffffffffffffffffffff1673ffffffffffffffffffffffffffffffffffffffff16815260200190815260200160002060008373ffffffffffffffffffffffffffffffffffffffff1673ffffffffffffffffffffffffffffffffffffffff16815260200190815260200160002060009054906101000a900460ff16905092915050565b610991610d28565b73ffffffffffffffffffffffffffffffffffffffff168573ffffffffffffffffffffffffffffffffffffffff1614806109d757506109d6856109d1610d28565b6108f5565b5b610a16576040517f08c379a0000000000000000000000000000000000000000000000000000000008152600401610a0d90612b5a565b60405180910390fd5b610a238585858585611523565b5050505050565b610a358383836117a5565b505050565b60007f01ffc9a7000000000000000000000000000000000000000000000000000000007bffffffffffffffffffffffffffffffffffffffffffffffffffffffff1916827bffffffffffffffffffffffffffffffffffffffffffffffffffffffff1916149050919050565b8060029080519060200190610aba929190611e71565b5050565b600073ffffffffffffffffffffffffffffffffffffffff168473ffffffffffffffffffffffffffffffffffffffff161415610b2e576040517f08c379a0000000000000000000000000000000000000000000000000000000008152600401610b2590612c5a565b60405180910390fd5b8151835114610b72576040517f08c379a0000000000000000000000000000000000000000000000000000000008152600401610b6990612c3a565b60405180910390fd5b6000610b7c610d28565b9050610b8d816000878787876119c2565b60005b8451811015610c9257838181518110610bd2577f4e487b7100000000000000000000000000000000000000000000000000000000600052603260045260246000fd5b6020026020010151600080878481518110610c16577f4e487b7100000000000000000000000000000000000000000000000000000000600052603260045260246000fd5b6020026020010151815260200190815260200160002060008873ffffffffffffffffffffffffffffffffffffffff1673ffffffffffffffffffffffffffffffffffffffff1681526020019081526020016000206000828254610c789190612e0e565b925050819055508080610c8a90612f7d565b915050610b90565b508473ffffffffffffffffffffffffffffffffffffffff16600073ffffffffffffffffffffffffffffffffffffffff168273ffffffffffffffffffffffffffffffffffffffff167f4a39dc06d4c0dbc64b70af90fd698a233a518aa5d07e595d983b8c0526c8f7fb8787604051610d0a929190612a66565b60405180910390a4610d21816000878787876119ca565b5050505050565b600033905090565b8151835114610d74576040517f08c379a0000000000000000000000000000000000000000000000000000000008152600401610d6b90612c3a565b60405180910390fd5b600073ffffffffffffffffffffffffffffffffffffffff168473ffffffffffffffffffffffffffffffffffffffff161415610de4576040517f08c379a0000000000000000000000000000000000000000000000000000000008152600401610ddb90612b7a565b60405180910390fd5b6000610dee610d28565b9050610dfe8187878787876119c2565b60005b8451811015610ffb576000858281518110610e45577f4e487b7100000000000000000000000000000000000000000000000000000000600052603260045260246000fd5b602002602001015190506000858381518110610e8a577f4e487b7100000000000000000000000000000000000000000000000000000000600052603260045260246000fd5b60200260200101519050600080600084815260200190815260200160002060008b73ffffffffffffffffffffffffffffffffffffffff1673ffffffffffffffffffffffffffffffffffffffff16815260200190815260200160002054905081811015610f2b576040517f08c379a0000000000000000000000000000000000000000000000000000000008152600401610f2290612bda565b60405180910390fd5b81810360008085815260200190815260200160002060008c73ffffffffffffffffffffffffffffffffffffffff1673ffffffffffffffffffffffffffffffffffffffff168152602001908152602001600020819055508160008085815260200190815260200160002060008b73ffffffffffffffffffffffffffffffffffffffff1673ffffffffffffffffffffffffffffffffffffffff1681526020019081526020016000206000828254610fe09190612e0e565b9250508190555050505080610ff490612f7d565b9050610e01565b508473ffffffffffffffffffffffffffffffffffffffff168673ffffffffffffffffffffffffffffffffffffffff168273ffffffffffffffffffffffffffffffffffffffff167f4a39dc06d4c0dbc64b70af90fd698a233a518aa5d07e595d983b8c0526c8f7fb8787604051611072929190612a66565b60405180910390a46110888187878787876119ca565b505050505050565b600073ffffffffffffffffffffffffffffffffffffffff168373ffffffffffffffffffffffffffffffffffffffff161415611100576040517f08c379a00000000000000000000000000000000000000000000000000000000081526004016110f790612bba565b60405180910390fd5b8051825114611144576040517f08c379a000000000000000000000000000000000000000000000000000000000815260040161113b90612c3a565b60405180910390fd5b600061114e610d28565b905061116e818560008686604051806020016040528060008152506119c2565b60005b83518110156113075760008482815181106111b5577f4e487b7100000000000000000000000000000000000000000000000000000000600052603260045260246000fd5b6020026020010151905060008483815181106111fa577f4e487b7100000000000000000000000000000000000000000000000000000000600052603260045260246000fd5b60200260200101519050600080600084815260200190815260200160002060008973ffffffffffffffffffffffffffffffffffffffff1673ffffffffffffffffffffffffffffffffffffffff1681526020019081526020016000205490508181101561129b576040517f08c379a000000000000000000000000000000000000000000000000000000000815260040161129290612b3a565b60405180910390fd5b81810360008085815260200190815260200160002060008a73ffffffffffffffffffffffffffffffffffffffff1673ffffffffffffffffffffffffffffffffffffffff1681526020019081526020016000208190555050505080806112ff90612f7d565b915050611171565b50600073ffffffffffffffffffffffffffffffffffffffff168473ffffffffffffffffffffffffffffffffffffffff168273ffffffffffffffffffffffffffffffffffffffff167f4a39dc06d4c0dbc64b70af90fd698a233a518aa5d07e595d983b8c0526c8f7fb868660405161137f929190612a66565b60405180910390a450505050565b600073ffffffffffffffffffffffffffffffffffffffff168473ffffffffffffffffffffffffffffffffffffffff1614156113fd576040517f08c379a00000000000000000000000000000000000000000000000000000000081526004016113f490612c5a565b60405180910390fd5b6000611407610d28565b90506114288160008761141988611bb1565b61142288611bb1565b876119c2565b8260008086815260200190815260200160002060008773ffffffffffffffffffffffffffffffffffffffff1673ffffffffffffffffffffffffffffffffffffffff16815260200190815260200160002060008282546114879190612e0e565b925050819055508473ffffffffffffffffffffffffffffffffffffffff16600073ffffffffffffffffffffffffffffffffffffffff168273ffffffffffffffffffffffffffffffffffffffff167fc3d58168c5ae7397731d063d5bbf3d657854427343f4c083240f7aacaa2d0f628787604051611505929190612c95565b60405180910390a461151c81600087878787611c77565b5050505050565b600073ffffffffffffffffffffffffffffffffffffffff168473ffffffffffffffffffffffffffffffffffffffff161415611593576040517f08c379a000000000000000000000000000000000000000000000000000000000815260040161158a90612b7a565b60405180910390fd5b600061159d610d28565b90506115bd8187876115ae88611bb1565b6115b788611bb1565b876119c2565b600080600086815260200190815260200160002060008873ffffffffffffffffffffffffffffffffffffffff1673ffffffffffffffffffffffffffffffffffffffff16815260200190815260200160002054905083811015611654576040517f08c379a000000000000000000000000000000000000000000000000000000000815260040161164b90612bda565b60405180910390fd5b83810360008087815260200190815260200160002060008973ffffffffffffffffffffffffffffffffffffffff1673ffffffffffffffffffffffffffffffffffffffff168152602001908152602001600020819055508360008087815260200190815260200160002060008873ffffffffffffffffffffffffffffffffffffffff1673ffffffffffffffffffffffffffffffffffffffff16815260200190815260200160002060008282546117099190612e0e565b925050819055508573ffffffffffffffffffffffffffffffffffffffff168773ffffffffffffffffffffffffffffffffffffffff168373ffffffffffffffffffffffffffffffffffffffff167fc3d58168c5ae7397731d063d5bbf3d657854427343f4c083240f7aacaa2d0f628888604051611786929190612c95565b60405180910390a461179c828888888888611c77565b50505050505050565b600073ffffffffffffffffffffffffffffffffffffffff168373ffffffffffffffffffffffffffffffffffffffff161415611815576040517f08c379a000000000000000000000000000000000000000000000000000000000815260040161180c90612bba565b60405180910390fd5b600061181f610d28565b905061184f8185600061183187611bb1565b61183a87611bb1565b604051806020016040528060008152506119c2565b600080600085815260200190815260200160002060008673ffffffffffffffffffffffffffffffffffffffff1673ffffffffffffffffffffffffffffffffffffffff168152602001908152602001600020549050828110156118e6576040517f08c379a00000000000000000000000000000000000000000000000000000000081526004016118dd90612b3a565b60405180910390fd5b82810360008086815260200190815260200160002060008773ffffffffffffffffffffffffffffffffffffffff1673ffffffffffffffffffffffffffffffffffffffff16815260200190815260200160002081905550600073ffffffffffffffffffffffffffffffffffffffff168573ffffffffffffffffffffffffffffffffffffffff168373ffffffffffffffffffffffffffffffffffffffff167fc3d58168c5ae7397731d063d5bbf3d657854427343f4c083240f7aacaa2d0f6287876040516119b3929190612c95565b60405180910390a45050505050565b505050505050565b6119e98473ffffffffffffffffffffffffffffffffffffffff16611e5e565b15611ba9578373ffffffffffffffffffffffffffffffffffffffff1663bc197c8187878686866040518663ffffffff1660e01b8152600401611a2f959493929190612982565b602060405180830381600087803b158015611a4957600080fd5b505af1925050508015611a7a57506040513d601f19601f82011682018060405250810190611a779190612604565b60015b611b2057611a86613053565b806308c379a01415611ae35750611a9b613496565b80611aa65750611ae5565b806040517f08c379a0000000000000000000000000000000000000000000000000000000008152600401611ada9190612ab8565b60405180910390fd5b505b6040517f08c379a0000000000000000000000000000000000000000000000000000000008152600401611b1790612ada565b60405180910390fd5b63bc197c8160e01b7bffffffffffffffffffffffffffffffffffffffffffffffffffffffff1916817bffffffffffffffffffffffffffffffffffffffffffffffffffffffff191614611ba7576040517f08c379a0000000000000000000000000000000000000000000000000000000008152600401611b9e90612afa565b60405180910390fd5b505b505050505050565b60606000600167ffffffffffffffff811115611bf6577f4e487b7100000000000000000000000000000000000000000000000000000000600052604160045260246000fd5b604051908082528060200260200182016040528015611c245781602001602082028036833780820191505090505b5090508281600081518110611c62577f4e487b7100000000000000000000000000000000000000000000000000000000600052603260045260246000fd5b60200260200101818152505080915050919050565b611c968473ffffffffffffffffffffffffffffffffffffffff16611e5e565b15611e56578373ffffffffffffffffffffffffffffffffffffffff1663f23a6e6187878686866040518663ffffffff1660e01b8152600401611cdc9594939291906129ea565b602060405180830381600087803b158015611cf657600080fd5b505af1925050508015611d2757506040513d601f19601f82011682018060405250810190611d249190612604565b60015b611dcd57611d33613053565b806308c379a01415611d905750611d48613496565b80611d535750611d92565b806040517f08c379a0000000000000000000000000000000000000000000000000000000008152600401611d879190612ab8565b60405180910390fd5b505b6040517f08c379a0000000000000000000000000000000000000000000000000000000008152600401611dc490612ada565b60405180910390fd5b63f23a6e6160e01b7bffffffffffffffffffffffffffffffffffffffffffffffffffffffff1916817bffffffffffffffffffffffffffffffffffffffffffffffffffffffff191614611e54576040517f08c379a0000000000000000000000000000000000000000000000000000000008152600401611e4b90612afa565b60405180910390fd5b505b505050505050565b600080823b905060008111915050919050565b828054611e7d90612f1a565b90600052602060002090601f016020900481019282611e9f5760008555611ee6565b82601f10611eb857805160ff1916838001178555611ee6565b82800160010185558215611ee6579182015b82811115611ee5578251825591602001919060010190611eca565b5b509050611ef39190611ef7565b5090565b5b80821115611f10576000816000905550600101611ef8565b5090565b6000611f27611f2284612ce3565b612cbe565b90508083825260208201905082856020860282011115611f4657600080fd5b60005b85811015611f765781611f5c8882612068565b845260208401935060208301925050600181019050611f49565b5050509392505050565b6000611f93611f8e84612d0f565b612cbe565b90508083825260208201905082856020860282011115611fb257600080fd5b60005b85811015611fe25781611fc88882612164565b845260208401935060208301925050600181019050611fb5565b5050509392505050565b6000611fff611ffa84612d3b565b612cbe565b90508281526020810184848401111561201757600080fd5b612022848285612ed8565b509392505050565b600061203d61203884612d6c565b612cbe565b90508281526020810184848401111561205557600080fd5b612060848285612ed8565b509392505050565b6000813590506120778161352c565b92915050565b600082601f83011261208e57600080fd5b813561209e848260208601611f14565b91505092915050565b600082601f8301126120b857600080fd5b81356120c8848260208601611f80565b91505092915050565b6000813590506120e081613543565b92915050565b6000813590506120f58161355a565b92915050565b60008151905061210a8161355a565b92915050565b600082601f83011261212157600080fd5b8135612131848260208601611fec565b91505092915050565b600082601f83011261214b57600080fd5b813561215b84826020860161202a565b91505092915050565b60008135905061217381613571565b92915050565b6000806040838503121561218c57600080fd5b600061219a85828601612068565b92505060206121ab85828601612068565b9150509250929050565b600080600080600060a086880312156121cd57600080fd5b60006121db88828901612068565b95505060206121ec88828901612068565b945050604086013567ffffffffffffffff81111561220957600080fd5b612215888289016120a7565b935050606086013567ffffffffffffffff81111561223257600080fd5b61223e888289016120a7565b925050608086013567ffffffffffffffff81111561225b57600080fd5b61226788828901612110565b9150509295509295909350565b600080600080600060a0868803121561228c57600080fd5b600061229a88828901612068565b95505060206122ab88828901612068565b94505060406122bc88828901612164565b93505060606122cd88828901612164565b925050608086013567ffffffffffffffff8111156122ea57600080fd5b6122f688828901612110565b9150509295509295909350565b60008060006060848603121561231857600080fd5b600061232686828701612068565b935050602084013567ffffffffffffffff81111561234357600080fd5b61234f868287016120a7565b925050604084013567ffffffffffffffff81111561236c57600080fd5b612378868287016120a7565b9150509250925092565b6000806000806080858703121561239857600080fd5b60006123a687828801612068565b945050602085013567ffffffffffffffff8111156123c357600080fd5b6123cf878288016120a7565b935050604085013567ffffffffffffffff8111156123ec57600080fd5b6123f8878288016120a7565b925050606085013567ffffffffffffffff81111561241557600080fd5b61242187828801612110565b91505092959194509250565b6000806040838503121561244057600080fd5b600061244e85828601612068565b925050602061245f858286016120d1565b9150509250929050565b6000806040838503121561247c57600080fd5b600061248a85828601612068565b925050602061249b85828601612164565b9150509250929050565b6000806000606084860312156124ba57600080fd5b60006124c886828701612068565b93505060206124d986828701612164565b92505060406124ea86828701612164565b9150509250925092565b6000806000806080858703121561250a57600080fd5b600061251887828801612068565b945050602061252987828801612164565b935050604061253a87828801612164565b925050606085013567ffffffffffffffff81111561255757600080fd5b61256387828801612110565b91505092959194509250565b6000806040838503121561258257600080fd5b600083013567ffffffffffffffff81111561259c57600080fd5b6125a88582860161207d565b925050602083013567ffffffffffffffff8111156125c557600080fd5b6125d1858286016120a7565b9150509250929050565b6000602082840312156125ed57600080fd5b60006125fb848285016120e6565b91505092915050565b60006020828403121561261657600080fd5b6000612624848285016120fb565b91505092915050565b60006020828403121561263f57600080fd5b600082013567ffffffffffffffff81111561265957600080fd5b6126658482850161213a565b91505092915050565b60006020828403121561268057600080fd5b600061268e84828501612164565b91505092915050565b60006126a38383612964565b60208301905092915050565b6126b881612e64565b82525050565b60006126c982612dad565b6126d38185612ddb565b93506126de83612d9d565b8060005b8381101561270f5781516126f68882612697565b975061270183612dce565b9250506001810190506126e2565b5085935050505092915050565b61272581612e76565b82525050565b600061273682612db8565b6127408185612dec565b9350612750818560208601612ee7565b61275981613075565b840191505092915050565b600061276f82612dc3565b6127798185612dfd565b9350612789818560208601612ee7565b61279281613075565b840191505092915050565b60006127aa603483612dfd565b91506127b582613093565b604082019050919050565b60006127cd602883612dfd565b91506127d8826130e2565b604082019050919050565b60006127f0602b83612dfd565b91506127fb82613131565b604082019050919050565b6000612813602483612dfd565b915061281e82613180565b604082019050919050565b6000612836602983612dfd565b9150612841826131cf565b604082019050919050565b6000612859602583612dfd565b91506128648261321e565b604082019050919050565b600061287c603283612dfd565b91506128878261326d565b604082019050919050565b600061289f602383612dfd565b91506128aa826132bc565b604082019050919050565b60006128c2602a83612dfd565b91506128cd8261330b565b604082019050919050565b60006128e5602983612dfd565b91506128f08261335a565b604082019050919050565b6000612908602983612dfd565b9150612913826133a9565b604082019050919050565b600061292b602883612dfd565b9150612936826133f8565b604082019050919050565b600061294e602183612dfd565b915061295982613447565b604082019050919050565b61296d81612ece565b82525050565b61297c81612ece565b82525050565b600060a08201905061299760008301886126af565b6129a460208301876126af565b81810360408301526129b681866126be565b905081810360608301526129ca81856126be565b905081810360808301526129de818461272b565b90509695505050505050565b600060a0820190506129ff60008301886126af565b612a0c60208301876126af565b612a196040830186612973565b612a266060830185612973565b8181036080830152612a38818461272b565b90509695505050505050565b60006020820190508181036000830152612a5e81846126be565b905092915050565b60006040820190508181036000830152612a8081856126be565b90508181036020830152612a9481846126be565b90509392505050565b6000602082019050612ab2600083018461271c565b92915050565b60006020820190508181036000830152612ad28184612764565b905092915050565b60006020820190508181036000830152612af38161279d565b9050919050565b60006020820190508181036000830152612b13816127c0565b9050919050565b60006020820190508181036000830152612b33816127e3565b9050919050565b60006020820190508181036000830152612b5381612806565b9050919050565b60006020820190508181036000830152612b7381612829565b9050919050565b60006020820190508181036000830152612b938161284c565b9050919050565b60006020820190508181036000830152612bb38161286f565b9050919050565b60006020820190508181036000830152612bd381612892565b9050919050565b60006020820190508181036000830152612bf3816128b5565b9050919050565b60006020820190508181036000830152612c13816128d8565b9050919050565b60006020820190508181036000830152612c33816128fb565b9050919050565b60006020820190508181036000830152612c538161291e565b9050919050565b60006020820190508181036000830152612c7381612941565b9050919050565b6000602082019050612c8f6000830184612973565b92915050565b6000604082019050612caa6000830185612973565b612cb76020830184612973565b9392505050565b6000612cc8612cd9565b9050612cd48282612f4c565b919050565b6000604051905090565b600067ffffffffffffffff821115612cfe57612cfd613024565b5b602082029050602081019050919050565b600067ffffffffffffffff821115612d2a57612d29613024565b5b602082029050602081019050919050565b600067ffffffffffffffff821115612d5657612d55613024565b5b612d5f82613075565b9050602081019050919050565b600067ffffffffffffffff821115612d8757612d86613024565b5b612d9082613075565b9050602081019050919050565b6000819050602082019050919050565b600081519050919050565b600081519050919050565b600081519050919050565b6000602082019050919050565b600082825260208201905092915050565b600082825260208201905092915050565b600082825260208201905092915050565b6000612e1982612ece565b9150612e2483612ece565b9250827fffffffffffffffffffffffffffffffffffffffffffffffffffffffffffffffff03821115612e5957612e58612fc6565b5b828201905092915050565b6000612e6f82612eae565b9050919050565b60008115159050919050565b60007fffffffff0000000000000000000000000000000000000000000000000000000082169050919050565b600073ffffffffffffffffffffffffffffffffffffffff82169050919050565b6000819050919050565b82818337600083830152505050565b60005b83811015612f05578082015181840152602081019050612eea565b83811115612f14576000848401525b50505050565b60006002820490506001821680612f3257607f821691505b60208210811415612f4657612f45612ff5565b5b50919050565b612f5582613075565b810181811067ffffffffffffffff82111715612f7457612f73613024565b5b80604052505050565b6000612f8882612ece565b91507fffffffffffffffffffffffffffffffffffffffffffffffffffffffffffffffff821415612fbb57612fba612fc6565b5b600182019050919050565b7f4e487b7100000000000000000000000000000000000000000000000000000000600052601160045260246000fd5b7f4e487b7100000000000000000000000000000000000000000000000000000000600052602260045260246000fd5b7f4e487b7100000000000000000000000000000000000000000000000000000000600052604160045260246000fd5b600060033d11156130725760046000803e61306f600051613086565b90505b90565b6000601f19601f8301169050919050565b60008160e01c9050919050565b7f455243313135353a207472616e7366657220746f206e6f6e204552433131353560008201527f526563656976657220696d706c656d656e746572000000000000000000000000602082015250565b7f455243313135353a204552433131353552656365697665722072656a6563746560008201527f6420746f6b656e73000000000000000000000000000000000000000000000000602082015250565b7f455243313135353a2062616c616e636520717565727920666f7220746865207a60008201527f65726f2061646472657373000000000000000000000000000000000000000000602082015250565b7f455243313135353a206275726e20616d6f756e7420657863656564732062616c60008201527f616e636500000000000000000000000000000000000000000000000000000000602082015250565b7f455243313135353a2063616c6c6572206973206e6f74206f776e6572206e6f7260008201527f20617070726f7665640000000000000000000000000000000000000000000000602082015250565b7f455243313135353a207472616e7366657220746f20746865207a65726f20616460008201527f6472657373000000000000000000000000000000000000000000000000000000602082015250565b7f455243313135353a207472616e736665722063616c6c6572206973206e6f742060008201527f6f776e6572206e6f7220617070726f7665640000000000000000000000000000602082015250565b7f455243313135353a206275726e2066726f6d20746865207a65726f206164647260008201527f6573730000000000000000000000000000000000000000000000000000000000602082015250565b7f455243313135353a20696e73756666696369656e742062616c616e636520666f60008201527f72207472616e7366657200000000000000000000000000000000000000000000602082015250565b7f455243313135353a2073657474696e6720617070726f76616c2073746174757360008201527f20666f722073656c660000000000000000000000000000000000000000000000602082015250565b7f455243313135353a206163636f756e747320616e6420696473206c656e67746860008201527f206d69736d617463680000000000000000000000000000000000000000000000602082015250565b7f455243313135353a2069647320616e6420616d6f756e7473206c656e6774682060008201527f6d69736d61746368000000000000000000000000000000000000000000000000602082015250565b7f455243313135353a206d696e7420746f20746865207a65726f2061646472657360008201527f7300000000000000000000000000000000000000000000000000000000000000602082015250565b600060443d10156134a657613529565b6134ae612cd9565b60043d036004823e80513d602482011167ffffffffffffffff821117156134d6575050613529565b808201805167ffffffffffffffff8111156134f45750505050613529565b80602083010160043d038501811115613511575050505050613529565b61352082602001850186612f4c565b82955050505050505b90565b61353581612e64565b811461354057600080fd5b50565b61354c81612e76565b811461355757600080fd5b50565b61356381612e82565b811461356e57600080fd5b50565b61357a81612ece565b811461358557600080fd5b5056fea264697066735822122078529f29467228e94b292e475f05c859f7575d3f390e81ac9846bfe8c1f51e6764736f6c63430008040033",
  "immutableReferences": {},
  "source": "// SPDX-License-Identifier: MIT\n\npragma solidity ^0.8.0;\n\nimport \"../token/ERC1155/ERC1155.sol\";\n\n/**\n * @title ERC1155Mock\n * This mock just publicizes internal functions for testing purposes\n */\ncontract ERC1155Mock is ERC1155 {\n    constructor(string memory uri) ERC1155(uri) {}\n\n    function setURI(string memory newuri) public {\n        _setURI(newuri);\n    }\n\n    function mint(\n        address to,\n        uint256 id,\n        uint256 value,\n        bytes memory data\n    ) public {\n        _mint(to, id, value, data);\n    }\n\n    function mintBatch(\n        address to,\n        uint256[] memory ids,\n        uint256[] memory values,\n        bytes memory data\n    ) public {\n        _mintBatch(to, ids, values, data);\n    }\n\n    function burn(\n        address owner,\n        uint256 id,\n        uint256 value\n    ) public {\n        _burn(owner, id, value);\n    }\n\n    function burnBatch(\n        address owner,\n        uint256[] memory ids,\n        uint256[] memory values\n    ) public {\n        _burnBatch(owner, ids, values);\n    }\n}\n",
  "sourcePath": "/Users/alexanderpetrovskiy/work/neon/neon-uat/openzeppelin-contracts/contracts/mocks/ERC1155Mock.sol",
  "compiler": {
    "name": "solc",
    "version": "0.8.4+commit.c7e474f2.Emscripten.clang"
  },
  "schemaVersion": "3.4.3",
  "updatedAt": "2021-10-12T15:22:38.686Z",
  "devdoc": {
    "kind": "dev",
    "methods": {
      "balanceOf(address,uint256)": {
        "details": "See {IERC1155-balanceOf}. Requirements: - `account` cannot be the zero address."
      },
      "balanceOfBatch(address[],uint256[])": {
        "details": "See {IERC1155-balanceOfBatch}. Requirements: - `accounts` and `ids` must have the same length."
      },
      "isApprovedForAll(address,address)": {
        "details": "See {IERC1155-isApprovedForAll}."
      },
      "safeBatchTransferFrom(address,address,uint256[],uint256[],bytes)": {
        "details": "See {IERC1155-safeBatchTransferFrom}."
      },
      "safeTransferFrom(address,address,uint256,uint256,bytes)": {
        "details": "See {IERC1155-safeTransferFrom}."
      },
      "setApprovalForAll(address,bool)": {
        "details": "See {IERC1155-setApprovalForAll}."
      },
      "supportsInterface(bytes4)": {
        "details": "See {IERC165-supportsInterface}."
      },
      "uri(uint256)": {
        "details": "See {IERC1155MetadataURI-uri}. This implementation returns the same URI for *all* token types. It relies on the token type ID substitution mechanism https://eips.ethereum.org/EIPS/eip-1155#metadata[defined in the EIP]. Clients calling this function must replace the `\\{id\\}` substring with the actual token type ID."
      }
    },
    "title": "ERC1155Mock This mock just publicizes internal functions for testing purposes",
    "version": 1
  },
  "userdoc": {
    "kind": "user",
    "methods": {},
    "version": 1
  }
}