{
  "contractName": "ERC20VotesCompMock",
  "abi": [
    {
      "inputs": [
        {
          "internalType": "string",
          "name": "name",
          "type": "string"
        },
        {
          "internalType": "string",
          "name": "symbol",
          "type": "string"
        }
      ],
      "stateMutability": "nonpayable",
      "type": "constructor"
    },
    {
      "anonymous": false,
      "inputs": [
        {
          "indexed": true,
          "internalType": "address",
          "name": "owner",
          "type": "address"
        },
        {
          "indexed": true,
          "internalType": "address",
          "name": "spender",
          "type": "address"
        },
        {
          "indexed": false,
          "internalType": "uint256",
          "name": "value",
          "type": "uint256"
        }
      ],
      "name": "Approval",
      "type": "event"
    },
    {
      "anonymous": false,
      "inputs": [
        {
          "indexed": true,
          "internalType": "address",
          "name": "delegator",
          "type": "address"
        },
        {
          "indexed": true,
          "internalType": "address",
          "name": "fromDelegate",
          "type": "address"
        },
        {
          "indexed": true,
          "internalType": "address",
          "name": "toDelegate",
          "type": "address"
        }
      ],
      "name": "DelegateChanged",
      "type": "event"
    },
    {
      "anonymous": false,
      "inputs": [
        {
          "indexed": true,
          "internalType": "address",
          "name": "delegate",
          "type": "address"
        },
        {
          "indexed": false,
          "internalType": "uint256",
          "name": "previousBalance",
          "type": "uint256"
        },
        {
          "indexed": false,
          "internalType": "uint256",
          "name": "newBalance",
          "type": "uint256"
        }
      ],
      "name": "DelegateVotesChanged",
      "type": "event"
    },
    {
      "anonymous": false,
      "inputs": [
        {
          "indexed": true,
          "internalType": "address",
          "name": "from",
          "type": "address"
        },
        {
          "indexed": true,
          "internalType": "address",
          "name": "to",
          "type": "address"
        },
        {
          "indexed": false,
          "internalType": "uint256",
          "name": "value",
          "type": "uint256"
        }
      ],
      "name": "Transfer",
      "type": "event"
    },
    {
      "inputs": [],
      "name": "DOMAIN_SEPARATOR",
      "outputs": [
        {
          "internalType": "bytes32",
          "name": "",
          "type": "bytes32"
        }
      ],
      "stateMutability": "view",
      "type": "function"
    },
    {
      "inputs": [
        {
          "internalType": "address",
          "name": "owner",
          "type": "address"
        },
        {
          "internalType": "address",
          "name": "spender",
          "type": "address"
        }
      ],
      "name": "allowance",
      "outputs": [
        {
          "internalType": "uint256",
          "name": "",
          "type": "uint256"
        }
      ],
      "stateMutability": "view",
      "type": "function"
    },
    {
      "inputs": [
        {
          "internalType": "address",
          "name": "spender",
          "type": "address"
        },
        {
          "internalType": "uint256",
          "name": "amount",
          "type": "uint256"
        }
      ],
      "name": "approve",
      "outputs": [
        {
          "internalType": "bool",
          "name": "",
          "type": "bool"
        }
      ],
      "stateMutability": "nonpayable",
      "type": "function"
    },
    {
      "inputs": [
        {
          "internalType": "address",
          "name": "account",
          "type": "address"
        }
      ],
      "name": "balanceOf",
      "outputs": [
        {
          "internalType": "uint256",
          "name": "",
          "type": "uint256"
        }
      ],
      "stateMutability": "view",
      "type": "function"
    },
    {
      "inputs": [
        {
          "internalType": "address",
          "name": "account",
          "type": "address"
        },
        {
          "internalType": "uint32",
          "name": "pos",
          "type": "uint32"
        }
      ],
      "name": "checkpoints",
      "outputs": [
        {
          "components": [
            {
              "internalType": "uint32",
              "name": "fromBlock",
              "type": "uint32"
            },
            {
              "internalType": "uint224",
              "name": "votes",
              "type": "uint224"
            }
          ],
          "internalType": "struct ERC20Votes.Checkpoint",
          "name": "",
          "type": "tuple"
        }
      ],
      "stateMutability": "view",
      "type": "function"
    },
    {
      "inputs": [],
      "name": "decimals",
      "outputs": [
        {
          "internalType": "uint8",
          "name": "",
          "type": "uint8"
        }
      ],
      "stateMutability": "view",
      "type": "function"
    },
    {
      "inputs": [
        {
          "internalType": "address",
          "name": "spender",
          "type": "address"
        },
        {
          "internalType": "uint256",
          "name": "subtractedValue",
          "type": "uint256"
        }
      ],
      "name": "decreaseAllowance",
      "outputs": [
        {
          "internalType": "bool",
          "name": "",
          "type": "bool"
        }
      ],
      "stateMutability": "nonpayable",
      "type": "function"
    },
    {
      "inputs": [
        {
          "internalType": "address",
          "name": "delegatee",
          "type": "address"
        }
      ],
      "name": "delegate",
      "outputs": [],
      "stateMutability": "nonpayable",
      "type": "function"
    },
    {
      "inputs": [
        {
          "internalType": "address",
          "name": "delegatee",
          "type": "address"
        },
        {
          "internalType": "uint256",
          "name": "nonce",
          "type": "uint256"
        },
        {
          "internalType": "uint256",
          "name": "expiry",
          "type": "uint256"
        },
        {
          "internalType": "uint8",
          "name": "v",
          "type": "uint8"
        },
        {
          "internalType": "bytes32",
          "name": "r",
          "type": "bytes32"
        },
        {
          "internalType": "bytes32",
          "name": "s",
          "type": "bytes32"
        }
      ],
      "name": "delegateBySig",
      "outputs": [],
      "stateMutability": "nonpayable",
      "type": "function"
    },
    {
      "inputs": [
        {
          "internalType": "address",
          "name": "account",
          "type": "address"
        }
      ],
      "name": "delegates",
      "outputs": [
        {
          "internalType": "address",
          "name": "",
          "type": "address"
        }
      ],
      "stateMutability": "view",
      "type": "function"
    },
    {
      "inputs": [
        {
          "internalType": "address",
          "name": "account",
          "type": "address"
        }
      ],
      "name": "getCurrentVotes",
      "outputs": [
        {
          "internalType": "uint96",
          "name": "",
          "type": "uint96"
        }
      ],
      "stateMutability": "view",
      "type": "function"
    },
    {
      "inputs": [
        {
          "internalType": "uint256",
          "name": "blockNumber",
          "type": "uint256"
        }
      ],
      "name": "getPastTotalSupply",
      "outputs": [
        {
          "internalType": "uint256",
          "name": "",
          "type": "uint256"
        }
      ],
      "stateMutability": "view",
      "type": "function"
    },
    {
      "inputs": [
        {
          "internalType": "address",
          "name": "account",
          "type": "address"
        },
        {
          "internalType": "uint256",
          "name": "blockNumber",
          "type": "uint256"
        }
      ],
      "name": "getPastVotes",
      "outputs": [
        {
          "internalType": "uint256",
          "name": "",
          "type": "uint256"
        }
      ],
      "stateMutability": "view",
      "type": "function"
    },
    {
      "inputs": [
        {
          "internalType": "address",
          "name": "account",
          "type": "address"
        },
        {
          "internalType": "uint256",
          "name": "blockNumber",
          "type": "uint256"
        }
      ],
      "name": "getPriorVotes",
      "outputs": [
        {
          "internalType": "uint96",
          "name": "",
          "type": "uint96"
        }
      ],
      "stateMutability": "view",
      "type": "function"
    },
    {
      "inputs": [
        {
          "internalType": "address",
          "name": "account",
          "type": "address"
        }
      ],
      "name": "getVotes",
      "outputs": [
        {
          "internalType": "uint256",
          "name": "",
          "type": "uint256"
        }
      ],
      "stateMutability": "view",
      "type": "function"
    },
    {
      "inputs": [
        {
          "internalType": "address",
          "name": "spender",
          "type": "address"
        },
        {
          "internalType": "uint256",
          "name": "addedValue",
          "type": "uint256"
        }
      ],
      "name": "increaseAllowance",
      "outputs": [
        {
          "internalType": "bool",
          "name": "",
          "type": "bool"
        }
      ],
      "stateMutability": "nonpayable",
      "type": "function"
    },
    {
      "inputs": [],
      "name": "name",
      "outputs": [
        {
          "internalType": "string",
          "name": "",
          "type": "string"
        }
      ],
      "stateMutability": "view",
      "type": "function"
    },
    {
      "inputs": [
        {
          "internalType": "address",
          "name": "owner",
          "type": "address"
        }
      ],
      "name": "nonces",
      "outputs": [
        {
          "internalType": "uint256",
          "name": "",
          "type": "uint256"
        }
      ],
      "stateMutability": "view",
      "type": "function"
    },
    {
      "inputs": [
        {
          "internalType": "address",
          "name": "account",
          "type": "address"
        }
      ],
      "name": "numCheckpoints",
      "outputs": [
        {
          "internalType": "uint32",
          "name": "",
          "type": "uint32"
        }
      ],
      "stateMutability": "view",
      "type": "function"
    },
    {
      "inputs": [
        {
          "internalType": "address",
          "name": "owner",
          "type": "address"
        },
        {
          "internalType": "address",
          "name": "spender",
          "type": "address"
        },
        {
          "internalType": "uint256",
          "name": "value",
          "type": "uint256"
        },
        {
          "internalType": "uint256",
          "name": "deadline",
          "type": "uint256"
        },
        {
          "internalType": "uint8",
          "name": "v",
          "type": "uint8"
        },
        {
          "internalType": "bytes32",
          "name": "r",
          "type": "bytes32"
        },
        {
          "internalType": "bytes32",
          "name": "s",
          "type": "bytes32"
        }
      ],
      "name": "permit",
      "outputs": [],
      "stateMutability": "nonpayable",
      "type": "function"
    },
    {
      "inputs": [],
      "name": "symbol",
      "outputs": [
        {
          "internalType": "string",
          "name": "",
          "type": "string"
        }
      ],
      "stateMutability": "view",
      "type": "function"
    },
    {
      "inputs": [],
      "name": "totalSupply",
      "outputs": [
        {
          "internalType": "uint256",
          "name": "",
          "type": "uint256"
        }
      ],
      "stateMutability": "view",
      "type": "function"
    },
    {
      "inputs": [
        {
          "internalType": "address",
          "name": "recipient",
          "type": "address"
        },
        {
          "internalType": "uint256",
          "name": "amount",
          "type": "uint256"
        }
      ],
      "name": "transfer",
      "outputs": [
        {
          "internalType": "bool",
          "name": "",
          "type": "bool"
        }
      ],
      "stateMutability": "nonpayable",
      "type": "function"
    },
    {
      "inputs": [
        {
          "internalType": "address",
          "name": "sender",
          "type": "address"
        },
        {
          "internalType": "address",
          "name": "recipient",
          "type": "address"
        },
        {
          "internalType": "uint256",
          "name": "amount",
          "type": "uint256"
        }
      ],
      "name": "transferFrom",
      "outputs": [
        {
          "internalType": "bool",
          "name": "",
          "type": "bool"
        }
      ],
      "stateMutability": "nonpayable",
      "type": "function"
    },
    {
      "inputs": [
        {
          "internalType": "address",
          "name": "account",
          "type": "address"
        },
        {
          "internalType": "uint256",
          "name": "amount",
          "type": "uint256"
        }
      ],
      "name": "mint",
      "outputs": [],
      "stateMutability": "nonpayable",
      "type": "function"
    },
    {
      "inputs": [
        {
          "internalType": "address",
          "name": "account",
          "type": "address"
        },
        {
          "internalType": "uint256",
          "name": "amount",
          "type": "uint256"
        }
      ],
      "name": "burn",
      "outputs": [],
      "stateMutability": "nonpayable",
      "type": "function"
    },
    {
      "inputs": [],
      "name": "getChainId",
      "outputs": [
        {
          "internalType": "uint256",
          "name": "",
          "type": "uint256"
        }
      ],
      "stateMutability": "view",
      "type": "function"
    }
  ],
  "bytecode": "0x6101406040527f6e71edae12b1b97f4d1f60370fef10105fa2faae0126114a169c64845d6126c9610120908152503480156200003a57600080fd5b506040516200457b3803806200457b8339818101604052810190620000609190620002b2565b81806040518060400160405280600181526020017f310000000000000000000000000000000000000000000000000000000000000081525084848160039080519060200190620000b292919062000190565b508060049080519060200190620000cb92919062000190565b50505060008280519060200120905060008280519060200120905060007f8b73c3c69bb8fe3d512ecc4cf759cc79239f7b179b0ffacaa9a75d522b39400f90508260c081815250508160e081815250504660a08181525050620001368184846200015460201b60201c565b6080818152505080610100818152505050505050505050506200056d565b600083838346306040516020016200017195949392919062000358565b6040516020818303038152906040528051906020012090509392505050565b8280546200019e9062000492565b90600052602060002090601f016020900481019282620001c257600085556200020e565b82601f10620001dd57805160ff19168380011785556200020e565b828001600101855582156200020e579182015b828111156200020d578251825591602001919060010190620001f0565b5b5090506200021d919062000221565b5090565b5b808211156200023c57600081600090555060010162000222565b5090565b6000620002576200025184620003de565b620003b5565b9050828152602081018484840111156200027057600080fd5b6200027d8482856200045c565b509392505050565b600082601f8301126200029757600080fd5b8151620002a984826020860162000240565b91505092915050565b60008060408385031215620002c657600080fd5b600083015167ffffffffffffffff811115620002e157600080fd5b620002ef8582860162000285565b925050602083015167ffffffffffffffff8111156200030d57600080fd5b6200031b8582860162000285565b9150509250929050565b620003308162000414565b82525050565b620003418162000428565b82525050565b620003528162000452565b82525050565b600060a0820190506200036f600083018862000336565b6200037e602083018762000336565b6200038d604083018662000336565b6200039c606083018562000347565b620003ab608083018462000325565b9695505050505050565b6000620003c1620003d4565b9050620003cf8282620004c8565b919050565b6000604051905090565b600067ffffffffffffffff821115620003fc57620003fb6200052d565b5b62000407826200055c565b9050602081019050919050565b6000620004218262000432565b9050919050565b6000819050919050565b600073ffffffffffffffffffffffffffffffffffffffff82169050919050565b6000819050919050565b60005b838110156200047c5780820151818401526020810190506200045f565b838111156200048c576000848401525b50505050565b60006002820490506001821680620004ab57607f821691505b60208210811415620004c257620004c1620004fe565b5b50919050565b620004d3826200055c565b810181811067ffffffffffffffff82111715620004f557620004f46200052d565b5b80604052505050565b7f4e487b7100000000000000000000000000000000000000000000000000000000600052602260045260246000fd5b7f4e487b7100000000000000000000000000000000000000000000000000000000600052604160045260246000fd5b6000601f19601f8301169050919050565b60805160a05160c05160e0516101005161012051613fbe620005bd6000396000610f2e01526000611691015260006116d3015260006116b20152600061163e015260006116660152613fbe6000f3fe608060405234801561001057600080fd5b50600436106101a95760003560e01c806370a08231116100f9578063a457c2d711610097578063c3cda52011610071578063c3cda52014610556578063d505accf14610572578063dd62ed3e1461058e578063f1127ed8146105be576101a9565b8063a457c2d7146104c6578063a9059cbb146104f6578063b4b5ea5714610526576101a9565b80638e539e8c116100d35780638e539e8c1461042c57806395d89b411461045c5780639ab24eb01461047a5780639dc29fac146104aa576101a9565b806370a082311461039c578063782d6fe1146103cc5780637ecebe00146103fc576101a9565b80633644e5151161016657806340c10f191161014057806340c10f1914610304578063587cde1e146103205780635c19a95c146103505780636fcfff451461036c576101a9565b80633644e5151461028657806339509351146102a45780633a46b1a8146102d4576101a9565b806306fdde03146101ae578063095ea7b3146101cc57806318160ddd146101fc57806323b872dd1461021a578063313ce5671461024a5780633408e47014610268575b600080fd5b6101b66105ee565b6040516101c391906132b3565b60405180910390f35b6101e660048036038101906101e19190612b75565b610680565b6040516101f3919061313f565b60405180910390f35b61020461069e565b60405161021191906135d0565b60405180910390f35b610234600480360381019061022f9190612a88565b6106a8565b604051610241919061313f565b60405180910390f35b6102526107a0565b60405161025f919061362f565b60405180910390f35b6102706107a9565b60405161027d91906135d0565b60405180910390f35b61028e6107b1565b60405161029b919061315a565b60405180910390f35b6102be60048036038101906102b99190612b75565b6107c0565b6040516102cb919061313f565b60405180910390f35b6102ee60048036038101906102e99190612b75565b61086c565b6040516102fb91906135d0565b60405180910390f35b61031e60048036038101906103199190612b75565b610900565b005b61033a60048036038101906103359190612a23565b61090e565b6040516103479190613124565b60405180910390f35b61036a60048036038101906103659190612a23565b610977565b005b61038660048036038101906103819190612a23565b61098b565b6040516103939190613614565b60405180910390f35b6103b660048036038101906103b19190612a23565b6109df565b6040516103c391906135d0565b60405180910390f35b6103e660048036038101906103e19190612b75565b610a27565b6040516103f3919061364a565b60405180910390f35b61041660048036038101906104119190612a23565b610a43565b60405161042391906135d0565b60405180910390f35b61044660048036038101906104419190612c76565b610a93565b60405161045391906135d0565b60405180910390f35b610464610ae9565b60405161047191906132b3565b60405180910390f35b610494600480360381019061048f9190612a23565b610b7b565b6040516104a191906135d0565b60405180910390f35b6104c460048036038101906104bf9190612b75565b610cb2565b005b6104e060048036038101906104db9190612b75565b610cc0565b6040516104ed919061313f565b60405180910390f35b610510600480360381019061050b9190612b75565b610dab565b60405161051d919061313f565b60405180910390f35b610540600480360381019061053b9190612a23565b610dc9565b60405161054d919061364a565b60405180910390f35b610570600480360381019061056b9190612bb1565b610de3565b005b61058c60048036038101906105879190612ad7565b610ee7565b005b6105a860048036038101906105a39190612a4c565b611029565b6040516105b591906135d0565b60405180910390f35b6105d860048036038101906105d39190612c3a565b6110b0565b6040516105e591906135b5565b60405180910390f35b6060600380546105fd90613829565b80601f016020809104026020016040519081016040528092919081815260200182805461062990613829565b80156106765780601f1061064b57610100808354040283529160200191610676565b820191906000526020600020905b81548152906001019060200180831161065957829003601f168201915b5050505050905090565b600061069461068d6111e6565b84846111ee565b6001905092915050565b6000600254905090565b60006106b58484846113b9565b6000600160008673ffffffffffffffffffffffffffffffffffffffff1673ffffffffffffffffffffffffffffffffffffffff16815260200190815260200160002060006107006111e6565b73ffffffffffffffffffffffffffffffffffffffff1673ffffffffffffffffffffffffffffffffffffffff16815260200190815260200160002054905082811015610780576040517f08c379a000000000000000000000000000000000000000000000000000000000815260040161077790613495565b60405180910390fd5b6107948561078c6111e6565b8584036111ee565b60019150509392505050565b60006012905090565b600046905090565b60006107bb61163a565b905090565b60006108626107cd6111e6565b8484600160006107db6111e6565b73ffffffffffffffffffffffffffffffffffffffff1673ffffffffffffffffffffffffffffffffffffffff16815260200190815260200160002060008873ffffffffffffffffffffffffffffffffffffffff1673ffffffffffffffffffffffffffffffffffffffff1681526020019081526020016000205461085d919061368c565b6111ee565b6001905092915050565b60004382106108b0576040517f08c379a00000000000000000000000000000000000000000000000000000000081526004016108a790613335565b60405180910390fd5b6108f8600760008573ffffffffffffffffffffffffffffffffffffffff1673ffffffffffffffffffffffffffffffffffffffff168152602001908152602001600020836116fd565b905092915050565b61090a8282611855565b5050565b6000600660008373ffffffffffffffffffffffffffffffffffffffff1673ffffffffffffffffffffffffffffffffffffffff16815260200190815260200160002060009054906101000a900473ffffffffffffffffffffffffffffffffffffffff169050919050565b6109886109826111e6565b826118e2565b50565b60006109d8600760008473ffffffffffffffffffffffffffffffffffffffff1673ffffffffffffffffffffffffffffffffffffffff168152602001908152602001600020805490506119fc565b9050919050565b60008060008373ffffffffffffffffffffffffffffffffffffffff1673ffffffffffffffffffffffffffffffffffffffff168152602001908152602001600020549050919050565b6000610a3b610a36848461086c565b611a4f565b905092915050565b6000610a8c600560008473ffffffffffffffffffffffffffffffffffffffff1673ffffffffffffffffffffffffffffffffffffffff168152602001908152602001600020611aaa565b9050919050565b6000438210610ad7576040517f08c379a0000000000000000000000000000000000000000000000000000000008152600401610ace90613335565b60405180910390fd5b610ae26008836116fd565b9050919050565b606060048054610af890613829565b80601f0160208091040260200160405190810160405280929190818152602001828054610b2490613829565b8015610b715780601f10610b4657610100808354040283529160200191610b71565b820191906000526020600020905b815481529060010190602001808311610b5457829003601f168201915b5050505050905090565b600080600760008473ffffffffffffffffffffffffffffffffffffffff1673ffffffffffffffffffffffffffffffffffffffff16815260200190815260200160002080549050905060008114610c8957600760008473ffffffffffffffffffffffffffffffffffffffff1673ffffffffffffffffffffffffffffffffffffffff168152602001908152602001600020600182610c179190613713565b81548110610c4e577f4e487b7100000000000000000000000000000000000000000000000000000000600052603260045260246000fd5b9060005260206000200160000160049054906101000a90047bffffffffffffffffffffffffffffffffffffffffffffffffffffffff16610c8c565b60005b7bffffffffffffffffffffffffffffffffffffffffffffffffffffffff16915050919050565b610cbc8282611ab8565b5050565b60008060016000610ccf6111e6565b73ffffffffffffffffffffffffffffffffffffffff1673ffffffffffffffffffffffffffffffffffffffff16815260200190815260200160002060008573ffffffffffffffffffffffffffffffffffffffff1673ffffffffffffffffffffffffffffffffffffffff16815260200190815260200160002054905082811015610d8c576040517f08c379a0000000000000000000000000000000000000000000000000000000008152600401610d8390613575565b60405180910390fd5b610da0610d976111e6565b858584036111ee565b600191505092915050565b6000610dbf610db86111e6565b84846113b9565b6001905092915050565b6000610ddc610dd783610b7b565b611a4f565b9050919050565b83421115610e26576040517f08c379a0000000000000000000000000000000000000000000000000000000008152600401610e1d90613355565b60405180910390fd5b6000610e88610e807fe48329057bfd03d55e49b547132e39cffd9c1820ad7b9d4c5307691425d15adf898989604051602001610e6594939291906131d6565b60405160208183030381529060405280519060200120611ad6565b858585611af0565b9050610e9381611b1b565b8614610ed4576040517f08c379a0000000000000000000000000000000000000000000000000000000008152600401610ecb906133b5565b60405180910390fd5b610ede81886118e2565b50505050505050565b83421115610f2a576040517f08c379a0000000000000000000000000000000000000000000000000000000008152600401610f21906133f5565b60405180910390fd5b60007f0000000000000000000000000000000000000000000000000000000000000000888888610f598c611b1b565b89604051602001610f6f96959493929190613175565b6040516020818303038152906040528051906020012090506000610f9282611ad6565b90506000610fa282878787611af0565b90508973ffffffffffffffffffffffffffffffffffffffff168173ffffffffffffffffffffffffffffffffffffffff1614611012576040517f08c379a000000000000000000000000000000000000000000000000000000000815260040161100990613475565b60405180910390fd5b61101d8a8a8a6111ee565b50505050505050505050565b6000600160008473ffffffffffffffffffffffffffffffffffffffff1673ffffffffffffffffffffffffffffffffffffffff16815260200190815260200160002060008373ffffffffffffffffffffffffffffffffffffffff1673ffffffffffffffffffffffffffffffffffffffff16815260200190815260200160002054905092915050565b6110b861297c565b600760008473ffffffffffffffffffffffffffffffffffffffff1673ffffffffffffffffffffffffffffffffffffffff1681526020019081526020016000208263ffffffff1681548110611135577f4e487b7100000000000000000000000000000000000000000000000000000000600052603260045260246000fd5b906000526020600020016040518060400160405290816000820160009054906101000a900463ffffffff1663ffffffff1663ffffffff1681526020016000820160049054906101000a90047bffffffffffffffffffffffffffffffffffffffffffffffffffffffff167bffffffffffffffffffffffffffffffffffffffffffffffffffffffff167bffffffffffffffffffffffffffffffffffffffffffffffffffffffff1681525050905092915050565b600033905090565b600073ffffffffffffffffffffffffffffffffffffffff168373ffffffffffffffffffffffffffffffffffffffff16141561125e576040517f08c379a000000000000000000000000000000000000000000000000000000000815260040161125590613555565b60405180910390fd5b600073ffffffffffffffffffffffffffffffffffffffff168273ffffffffffffffffffffffffffffffffffffffff1614156112ce576040517f08c379a00000000000000000000000000000000000000000000000000000000081526004016112c5906133d5565b60405180910390fd5b80600160008573ffffffffffffffffffffffffffffffffffffffff1673ffffffffffffffffffffffffffffffffffffffff16815260200190815260200160002060008473ffffffffffffffffffffffffffffffffffffffff1673ffffffffffffffffffffffffffffffffffffffff168152602001908152602001600020819055508173ffffffffffffffffffffffffffffffffffffffff168373ffffffffffffffffffffffffffffffffffffffff167f8c5be1e5ebec7d5bd14f71427d1e84f3dd0314c0f7b2291e5b200ac8c7c3b925836040516113ac91906135d0565b60405180910390a3505050565b600073ffffffffffffffffffffffffffffffffffffffff168373ffffffffffffffffffffffffffffffffffffffff161415611429576040517f08c379a000000000000000000000000000000000000000000000000000000000815260040161142090613515565b60405180910390fd5b600073ffffffffffffffffffffffffffffffffffffffff168273ffffffffffffffffffffffffffffffffffffffff161415611499576040517f08c379a0000000000000000000000000000000000000000000000000000000008152600401611490906132f5565b60405180910390fd5b6114a4838383611b79565b60008060008573ffffffffffffffffffffffffffffffffffffffff1673ffffffffffffffffffffffffffffffffffffffff1681526020019081526020016000205490508181101561152a576040517f08c379a000000000000000000000000000000000000000000000000000000000815260040161152190613415565b60405180910390fd5b8181036000808673ffffffffffffffffffffffffffffffffffffffff1673ffffffffffffffffffffffffffffffffffffffff16815260200190815260200160002081905550816000808573ffffffffffffffffffffffffffffffffffffffff1673ffffffffffffffffffffffffffffffffffffffff16815260200190815260200160002060008282546115bd919061368c565b925050819055508273ffffffffffffffffffffffffffffffffffffffff168473ffffffffffffffffffffffffffffffffffffffff167fddf252ad1be2c89b69c2b068fc378daa952ba7f163c4a11628f55a4df523b3ef8460405161162191906135d0565b60405180910390a3611634848484611b7e565b50505050565b60007f000000000000000000000000000000000000000000000000000000000000000046141561168c577f000000000000000000000000000000000000000000000000000000000000000090506116fa565b6116f77f00000000000000000000000000000000000000000000000000000000000000007f00000000000000000000000000000000000000000000000000000000000000007f0000000000000000000000000000000000000000000000000000000000000000611ba9565b90505b90565b6000808380549050905060005b818110156117a257600061171e8284611be3565b90508486828154811061175a577f4e487b7100000000000000000000000000000000000000000000000000000000600052603260045260246000fd5b9060005260206000200160000160009054906101000a900463ffffffff1663ffffffff16111561178c5780925061179c565b600181611799919061368c565b91505b5061170a565b6000821461182a57846001836117b89190613713565b815481106117ef577f4e487b7100000000000000000000000000000000000000000000000000000000600052603260045260246000fd5b9060005260206000200160000160049054906101000a90047bffffffffffffffffffffffffffffffffffffffffffffffffffffffff1661182d565b60005b7bffffffffffffffffffffffffffffffffffffffffffffffffffffffff169250505092915050565b61185f8282611c09565b611867611d69565b7bffffffffffffffffffffffffffffffffffffffffffffffffffffffff1661188d61069e565b11156118ce576040517f08c379a00000000000000000000000000000000000000000000000000000000081526004016118c5906134b5565b60405180910390fd5b6118dc6008611d7f83611d95565b50505050565b60006118ed8361090e565b905060006118fa846109df565b905082600660008673ffffffffffffffffffffffffffffffffffffffff1673ffffffffffffffffffffffffffffffffffffffff16815260200190815260200160002060006101000a81548173ffffffffffffffffffffffffffffffffffffffff021916908373ffffffffffffffffffffffffffffffffffffffff1602179055508273ffffffffffffffffffffffffffffffffffffffff168273ffffffffffffffffffffffffffffffffffffffff168573ffffffffffffffffffffffffffffffffffffffff167f3134e8a2e6d97e929a7e54011ea5485d7d196dd5f0ba4d4ef95803e8e3fc257f60405160405180910390a46119f682848361207f565b50505050565b600063ffffffff8016821115611a47576040517f08c379a0000000000000000000000000000000000000000000000000000000008152600401611a3e90613535565b60405180910390fd5b819050919050565b60006bffffffffffffffffffffffff8016821115611aa2576040517f08c379a0000000000000000000000000000000000000000000000000000000008152600401611a9990613315565b60405180910390fd5b819050919050565b600081600001549050919050565b611ac28282612278565b611ad0600861244f83611d95565b50505050565b6000611ae9611ae361163a565b83612465565b9050919050565b6000806000611b0187878787612498565b91509150611b0e816125a5565b8192505050949350505050565b600080600560008473ffffffffffffffffffffffffffffffffffffffff1673ffffffffffffffffffffffffffffffffffffffff1681526020019081526020016000209050611b6881611aaa565b9150611b73816128f6565b50919050565b505050565b611b8983838361290c565b611ba4611b958461090e565b611b9e8461090e565b8361207f565b505050565b60008383834630604051602001611bc495949392919061321b565b6040516020818303038152906040528051906020012090509392505050565b60006002828418611bf491906136e2565b828416611c01919061368c565b905092915050565b600073ffffffffffffffffffffffffffffffffffffffff168273ffffffffffffffffffffffffffffffffffffffff161415611c79576040517f08c379a0000000000000000000000000000000000000000000000000000000008152600401611c7090613595565b60405180910390fd5b611c8560008383611b79565b8060026000828254611c97919061368c565b92505081905550806000808473ffffffffffffffffffffffffffffffffffffffff1673ffffffffffffffffffffffffffffffffffffffff1681526020019081526020016000206000828254611cec919061368c565b925050819055508173ffffffffffffffffffffffffffffffffffffffff16600073ffffffffffffffffffffffffffffffffffffffff167fddf252ad1be2c89b69c2b068fc378daa952ba7f163c4a11628f55a4df523b3ef83604051611d5191906135d0565b60405180910390a3611d6560008383611b7e565b5050565b60006bffffffffffffffffffffffff8016905090565b60008183611d8d919061368c565b905092915050565b60008060008580549050905060008114611e295785600182611db79190613713565b81548110611dee577f4e487b7100000000000000000000000000000000000000000000000000000000600052603260045260246000fd5b9060005260206000200160000160049054906101000a90047bffffffffffffffffffffffffffffffffffffffffffffffffffffffff16611e2c565b60005b7bffffffffffffffffffffffffffffffffffffffffffffffffffffffff169250611e5a83858763ffffffff16565b9150600081118015611ed357504386600183611e769190613713565b81548110611ead577f4e487b7100000000000000000000000000000000000000000000000000000000600052603260045260246000fd5b9060005260206000200160000160009054906101000a900463ffffffff1663ffffffff16145b15611f8657611ee182612911565b86600183611eef9190613713565b81548110611f26577f4e487b7100000000000000000000000000000000000000000000000000000000600052603260045260246000fd5b9060005260206000200160000160046101000a8154817bffffffffffffffffffffffffffffffffffffffffffffffffffffffff02191690837bffffffffffffffffffffffffffffffffffffffffffffffffffffffff160217905550612076565b856040518060400160405280611f9b436119fc565b63ffffffff168152602001611faf85612911565b7bffffffffffffffffffffffffffffffffffffffffffffffffffffffff168152509080600181540180825580915050600190039060005260206000200160009091909190915060008201518160000160006101000a81548163ffffffff021916908363ffffffff16021790555060208201518160000160046101000a8154817bffffffffffffffffffffffffffffffffffffffffffffffffffffffff02191690837bffffffffffffffffffffffffffffffffffffffffffffffffffffffff16021790555050505b50935093915050565b8173ffffffffffffffffffffffffffffffffffffffff168373ffffffffffffffffffffffffffffffffffffffff16141580156120bb5750600081115b1561227357600073ffffffffffffffffffffffffffffffffffffffff168373ffffffffffffffffffffffffffffffffffffffff161461219957600080612142600760008773ffffffffffffffffffffffffffffffffffffffff1673ffffffffffffffffffffffffffffffffffffffff16815260200190815260200160002061244f85611d95565b915091508473ffffffffffffffffffffffffffffffffffffffff167fdec2bacdd2f05b59de34da9b523dff8be42e5e38e818c82fdb0bae774387a724838360405161218e9291906135eb565b60405180910390a250505b600073ffffffffffffffffffffffffffffffffffffffff168273ffffffffffffffffffffffffffffffffffffffff16146122725760008061221b600760008673ffffffffffffffffffffffffffffffffffffffff1673ffffffffffffffffffffffffffffffffffffffff168152602001908152602001600020611d7f85611d95565b915091508373ffffffffffffffffffffffffffffffffffffffff167fdec2bacdd2f05b59de34da9b523dff8be42e5e38e818c82fdb0bae774387a72483836040516122679291906135eb565b60405180910390a250505b5b505050565b600073ffffffffffffffffffffffffffffffffffffffff168273ffffffffffffffffffffffffffffffffffffffff1614156122e8576040517f08c379a00000000000000000000000000000000000000000000000000000000081526004016122df906134f5565b60405180910390fd5b6122f482600083611b79565b60008060008473ffffffffffffffffffffffffffffffffffffffff1673ffffffffffffffffffffffffffffffffffffffff1681526020019081526020016000205490508181101561237a576040517f08c379a000000000000000000000000000000000000000000000000000000000815260040161237190613375565b60405180910390fd5b8181036000808573ffffffffffffffffffffffffffffffffffffffff1673ffffffffffffffffffffffffffffffffffffffff1681526020019081526020016000208190555081600260008282546123d19190613713565b92505081905550600073ffffffffffffffffffffffffffffffffffffffff168373ffffffffffffffffffffffffffffffffffffffff167fddf252ad1be2c89b69c2b068fc378daa952ba7f163c4a11628f55a4df523b3ef8460405161243691906135d0565b60405180910390a361244a83600084611b7e565b505050565b6000818361245d9190613713565b905092915050565b6000828260405160200161247a9291906130ed565b60405160208183030381529060405280519060200120905092915050565b6000807f7fffffffffffffffffffffffffffffff5d576e7357a4501ddfe92f46681b20a08360001c11156124d357600060039150915061259c565b601b8560ff16141580156124eb5750601c8560ff1614155b156124fd57600060049150915061259c565b600060018787878760405160008152602001604052604051612522949392919061326e565b6020604051602081039080840390855afa158015612544573d6000803e3d6000fd5b505050602060405103519050600073ffffffffffffffffffffffffffffffffffffffff168173ffffffffffffffffffffffffffffffffffffffff1614156125935760006001925092505061259c565b80600092509250505b94509492505050565b600060048111156125df577f4e487b7100000000000000000000000000000000000000000000000000000000600052602160045260246000fd5b816004811115612618577f4e487b7100000000000000000000000000000000000000000000000000000000600052602160045260246000fd5b1415612623576128f3565b6001600481111561265d577f4e487b7100000000000000000000000000000000000000000000000000000000600052602160045260246000fd5b816004811115612696577f4e487b7100000000000000000000000000000000000000000000000000000000600052602160045260246000fd5b14156126d7576040517f08c379a00000000000000000000000000000000000000000000000000000000081526004016126ce906132d5565b60405180910390fd5b60026004811115612711577f4e487b7100000000000000000000000000000000000000000000000000000000600052602160045260246000fd5b81600481111561274a577f4e487b7100000000000000000000000000000000000000000000000000000000600052602160045260246000fd5b141561278b576040517f08c379a000000000000000000000000000000000000000000000000000000000815260040161278290613395565b60405180910390fd5b600360048111156127c5577f4e487b7100000000000000000000000000000000000000000000000000000000600052602160045260246000fd5b8160048111156127fe577f4e487b7100000000000000000000000000000000000000000000000000000000600052602160045260246000fd5b141561283f576040517f08c379a000000000000000000000000000000000000000000000000000000000815260040161283690613435565b60405180910390fd5b600480811115612878577f4e487b7100000000000000000000000000000000000000000000000000000000600052602160045260246000fd5b8160048111156128b1577f4e487b7100000000000000000000000000000000000000000000000000000000600052602160045260246000fd5b14156128f2576040517f08c379a00000000000000000000000000000000000000000000000000000000081526004016128e990613455565b60405180910390fd5b5b50565b6001816000016000828254019250508190555050565b505050565b60007bffffffffffffffffffffffffffffffffffffffffffffffffffffffff8016821115612974576040517f08c379a000000000000000000000000000000000000000000000000000000000815260040161296b906134d5565b60405180910390fd5b819050919050565b6040518060400160405280600063ffffffff16815260200160007bffffffffffffffffffffffffffffffffffffffffffffffffffffffff1681525090565b6000813590506129c981613f15565b92915050565b6000813590506129de81613f2c565b92915050565b6000813590506129f381613f43565b92915050565b600081359050612a0881613f5a565b92915050565b600081359050612a1d81613f71565b92915050565b600060208284031215612a3557600080fd5b6000612a43848285016129ba565b91505092915050565b60008060408385031215612a5f57600080fd5b6000612a6d858286016129ba565b9250506020612a7e858286016129ba565b9150509250929050565b600080600060608486031215612a9d57600080fd5b6000612aab868287016129ba565b9350506020612abc868287016129ba565b9250506040612acd868287016129e4565b9150509250925092565b600080600080600080600060e0888a031215612af257600080fd5b6000612b008a828b016129ba565b9750506020612b118a828b016129ba565b9650506040612b228a828b016129e4565b9550506060612b338a828b016129e4565b9450506080612b448a828b01612a0e565b93505060a0612b558a828b016129cf565b92505060c0612b668a828b016129cf565b91505092959891949750929550565b60008060408385031215612b8857600080fd5b6000612b96858286016129ba565b9250506020612ba7858286016129e4565b9150509250929050565b60008060008060008060c08789031215612bca57600080fd5b6000612bd889828a016129ba565b9650506020612be989828a016129e4565b9550506040612bfa89828a016129e4565b9450506060612c0b89828a01612a0e565b9350506080612c1c89828a016129cf565b92505060a0612c2d89828a016129cf565b9150509295509295509295565b60008060408385031215612c4d57600080fd5b6000612c5b858286016129ba565b9250506020612c6c858286016129f9565b9150509250929050565b600060208284031215612c8857600080fd5b6000612c96848285016129e4565b91505092915050565b612ca881613747565b82525050565b612cb781613759565b82525050565b612cc681613765565b82525050565b612cdd612cd882613765565b61385b565b82525050565b6000612cee82613665565b612cf88185613670565b9350612d088185602086016137f6565b612d11816138f2565b840191505092915050565b6000612d29601883613670565b9150612d3482613903565b602082019050919050565b6000612d4c602383613670565b9150612d578261392c565b604082019050919050565b6000612d6f602683613670565b9150612d7a8261397b565b604082019050919050565b6000612d92601f83613670565b9150612d9d826139ca565b602082019050919050565b6000612db5601d83613670565b9150612dc0826139f3565b602082019050919050565b6000612dd8602283613670565b9150612de382613a1c565b604082019050919050565b6000612dfb601f83613670565b9150612e0682613a6b565b602082019050919050565b6000612e1e601983613670565b9150612e2982613a94565b602082019050919050565b6000612e41602283613670565b9150612e4c82613abd565b604082019050919050565b6000612e64600283613681565b9150612e6f82613b0c565b600282019050919050565b6000612e87601d83613670565b9150612e9282613b35565b602082019050919050565b6000612eaa602683613670565b9150612eb582613b5e565b604082019050919050565b6000612ecd602283613670565b9150612ed882613bad565b604082019050919050565b6000612ef0602283613670565b9150612efb82613bfc565b604082019050919050565b6000612f13601e83613670565b9150612f1e82613c4b565b602082019050919050565b6000612f36602883613670565b9150612f4182613c74565b604082019050919050565b6000612f59603083613670565b9150612f6482613cc3565b604082019050919050565b6000612f7c602783613670565b9150612f8782613d12565b604082019050919050565b6000612f9f602183613670565b9150612faa82613d61565b604082019050919050565b6000612fc2602583613670565b9150612fcd82613db0565b604082019050919050565b6000612fe5602683613670565b9150612ff082613dff565b604082019050919050565b6000613008602483613670565b915061301382613e4e565b604082019050919050565b600061302b602583613670565b915061303682613e9d565b604082019050919050565b600061304e601f83613670565b915061305982613eec565b602082019050919050565b60408201600082015161307a60008501826130b1565b50602082015161308d6020850182613093565b50505050565b61309c8161378f565b82525050565b6130ab816137b7565b82525050565b6130ba816137c1565b82525050565b6130c9816137c1565b82525050565b6130d8816137d1565b82525050565b6130e7816137de565b82525050565b60006130f882612e57565b91506131048285612ccc565b6020820191506131148284612ccc565b6020820191508190509392505050565b60006020820190506131396000830184612c9f565b92915050565b60006020820190506131546000830184612cae565b92915050565b600060208201905061316f6000830184612cbd565b92915050565b600060c08201905061318a6000830189612cbd565b6131976020830188612c9f565b6131a46040830187612c9f565b6131b160608301866130a2565b6131be60808301856130a2565b6131cb60a08301846130a2565b979650505050505050565b60006080820190506131eb6000830187612cbd565b6131f86020830186612c9f565b61320560408301856130a2565b61321260608301846130a2565b95945050505050565b600060a0820190506132306000830188612cbd565b61323d6020830187612cbd565b61324a6040830186612cbd565b61325760608301856130a2565b6132646080830184612c9f565b9695505050505050565b60006080820190506132836000830187612cbd565b61329060208301866130cf565b61329d6040830185612cbd565b6132aa6060830184612cbd565b95945050505050565b600060208201905081810360008301526132cd8184612ce3565b905092915050565b600060208201905081810360008301526132ee81612d1c565b9050919050565b6000602082019050818103600083015261330e81612d3f565b9050919050565b6000602082019050818103600083015261332e81612d62565b9050919050565b6000602082019050818103600083015261334e81612d85565b9050919050565b6000602082019050818103600083015261336e81612da8565b9050919050565b6000602082019050818103600083015261338e81612dcb565b9050919050565b600060208201905081810360008301526133ae81612dee565b9050919050565b600060208201905081810360008301526133ce81612e11565b9050919050565b600060208201905081810360008301526133ee81612e34565b9050919050565b6000602082019050818103600083015261340e81612e7a565b9050919050565b6000602082019050818103600083015261342e81612e9d565b9050919050565b6000602082019050818103600083015261344e81612ec0565b9050919050565b6000602082019050818103600083015261346e81612ee3565b9050919050565b6000602082019050818103600083015261348e81612f06565b9050919050565b600060208201905081810360008301526134ae81612f29565b9050919050565b600060208201905081810360008301526134ce81612f4c565b9050919050565b600060208201905081810360008301526134ee81612f6f565b9050919050565b6000602082019050818103600083015261350e81612f92565b9050919050565b6000602082019050818103600083015261352e81612fb5565b9050919050565b6000602082019050818103600083015261354e81612fd8565b9050919050565b6000602082019050818103600083015261356e81612ffb565b9050919050565b6000602082019050818103600083015261358e8161301e565b9050919050565b600060208201905081810360008301526135ae81613041565b9050919050565b60006040820190506135ca6000830184613064565b92915050565b60006020820190506135e560008301846130a2565b92915050565b600060408201905061360060008301856130a2565b61360d60208301846130a2565b9392505050565b600060208201905061362960008301846130c0565b92915050565b600060208201905061364460008301846130cf565b92915050565b600060208201905061365f60008301846130de565b92915050565b600081519050919050565b600082825260208201905092915050565b600081905092915050565b6000613697826137b7565b91506136a2836137b7565b9250827fffffffffffffffffffffffffffffffffffffffffffffffffffffffffffffffff038211156136d7576136d6613865565b5b828201905092915050565b60006136ed826137b7565b91506136f8836137b7565b92508261370857613707613894565b5b828204905092915050565b600061371e826137b7565b9150613729836137b7565b92508282101561373c5761373b613865565b5b828203905092915050565b60006137528261376f565b9050919050565b60008115159050919050565b6000819050919050565b600073ffffffffffffffffffffffffffffffffffffffff82169050919050565b60007bffffffffffffffffffffffffffffffffffffffffffffffffffffffff82169050919050565b6000819050919050565b600063ffffffff82169050919050565b600060ff82169050919050565b60006bffffffffffffffffffffffff82169050919050565b60005b838110156138145780820151818401526020810190506137f9565b83811115613823576000848401525b50505050565b6000600282049050600182168061384157607f821691505b60208210811415613855576138546138c3565b5b50919050565b6000819050919050565b7f4e487b7100000000000000000000000000000000000000000000000000000000600052601160045260246000fd5b7f4e487b7100000000000000000000000000000000000000000000000000000000600052601260045260246000fd5b7f4e487b7100000000000000000000000000000000000000000000000000000000600052602260045260246000fd5b6000601f19601f8301169050919050565b7f45434453413a20696e76616c6964207369676e61747572650000000000000000600082015250565b7f45524332303a207472616e7366657220746f20746865207a65726f206164647260008201527f6573730000000000000000000000000000000000000000000000000000000000602082015250565b7f53616665436173743a2076616c756520646f65736e27742066697420696e203960008201527f3620626974730000000000000000000000000000000000000000000000000000602082015250565b7f4552433230566f7465733a20626c6f636b206e6f7420796574206d696e656400600082015250565b7f4552433230566f7465733a207369676e61747572652065787069726564000000600082015250565b7f45524332303a206275726e20616d6f756e7420657863656564732062616c616e60008201527f6365000000000000000000000000000000000000000000000000000000000000602082015250565b7f45434453413a20696e76616c6964207369676e6174757265206c656e67746800600082015250565b7f4552433230566f7465733a20696e76616c6964206e6f6e636500000000000000600082015250565b7f45524332303a20617070726f766520746f20746865207a65726f20616464726560008201527f7373000000000000000000000000000000000000000000000000000000000000602082015250565b7f1901000000000000000000000000000000000000000000000000000000000000600082015250565b7f45524332305065726d69743a206578706972656420646561646c696e65000000600082015250565b7f45524332303a207472616e7366657220616d6f756e742065786365656473206260008201527f616c616e63650000000000000000000000000000000000000000000000000000602082015250565b7f45434453413a20696e76616c6964207369676e6174757265202773272076616c60008201527f7565000000000000000000000000000000000000000000000000000000000000602082015250565b7f45434453413a20696e76616c6964207369676e6174757265202776272076616c60008201527f7565000000000000000000000000000000000000000000000000000000000000602082015250565b7f45524332305065726d69743a20696e76616c6964207369676e61747572650000600082015250565b7f45524332303a207472616e7366657220616d6f756e742065786365656473206160008201527f6c6c6f77616e6365000000000000000000000000000000000000000000000000602082015250565b7f4552433230566f7465733a20746f74616c20737570706c79207269736b73206f60008201527f766572666c6f77696e6720766f74657300000000000000000000000000000000602082015250565b7f53616665436173743a2076616c756520646f65736e27742066697420696e203260008201527f3234206269747300000000000000000000000000000000000000000000000000602082015250565b7f45524332303a206275726e2066726f6d20746865207a65726f2061646472657360008201527f7300000000000000000000000000000000000000000000000000000000000000602082015250565b7f45524332303a207472616e736665722066726f6d20746865207a65726f20616460008201527f6472657373000000000000000000000000000000000000000000000000000000602082015250565b7f53616665436173743a2076616c756520646f65736e27742066697420696e203360008201527f3220626974730000000000000000000000000000000000000000000000000000602082015250565b7f45524332303a20617070726f76652066726f6d20746865207a65726f2061646460008201527f7265737300000000000000000000000000000000000000000000000000000000602082015250565b7f45524332303a2064656372656173656420616c6c6f77616e63652062656c6f7760008201527f207a65726f000000000000000000000000000000000000000000000000000000602082015250565b7f45524332303a206d696e7420746f20746865207a65726f206164647265737300600082015250565b613f1e81613747565b8114613f2957600080fd5b50565b613f3581613765565b8114613f4057600080fd5b50565b613f4c816137b7565b8114613f5757600080fd5b50565b613f63816137c1565b8114613f6e57600080fd5b50565b613f7a816137d1565b8114613f8557600080fd5b5056fea26469706673582212208e61b5a30e207a7c1bd647b3b9c5ec4968b70d7de4678b308fa66881126f6ee064736f6c63430008040033",
  "immutableReferences": {
    "18817": [
      {
        "length": 32,
        "start": 3886
      }
    ],
    "24269": [
      {
        "length": 32,
        "start": 5734
      }
    ],
    "24271": [
      {
        "length": 32,
        "start": 5694
      }
    ],
    "24273": [
      {
        "length": 32,
        "start": 5810
      }
    ],
    "24275": [
      {
        "length": 32,
        "start": 5843
      }
    ],
    "24277": [
      {
        "length": 32,
        "start": 5777
      }
    ]
  },
  "source": "// SPDX-License-Identifier: MIT\n\npragma solidity ^0.8.0;\n\nimport \"../token/ERC20/extensions/ERC20VotesComp.sol\";\n\ncontract ERC20VotesCompMock is ERC20VotesComp {\n    constructor(string memory name, string memory symbol) ERC20(name, symbol) ERC20Permit(name) {}\n\n    function mint(address account, uint256 amount) public {\n        _mint(account, amount);\n    }\n\n    function burn(address account, uint256 amount) public {\n        _burn(account, amount);\n    }\n\n    function getChainId() external view returns (uint256) {\n        return block.chainid;\n    }\n}\n",
  "sourcePath": "/Users/alexanderpetrovskiy/work/neon/neon-uat/openzeppelin-contracts/contracts/mocks/ERC20VotesCompMock.sol",
  "compiler": {
    "name": "solc",
    "version": "0.8.4+commit.c7e474f2.Emscripten.clang"
  },
  "schemaVersion": "3.4.3",
  "updatedAt": "2021-10-12T15:22:38.797Z",
  "devdoc": {
    "kind": "dev",
    "methods": {
      "DOMAIN_SEPARATOR()": {
        "details": "See {IERC20Permit-DOMAIN_SEPARATOR}."
      },
      "allowance(address,address)": {
        "details": "See {IERC20-allowance}."
      },
      "approve(address,uint256)": {
        "details": "See {IERC20-approve}. Requirements: - `spender` cannot be the zero address."
      },
      "balanceOf(address)": {
        "details": "See {IERC20-balanceOf}."
      },
      "checkpoints(address,uint32)": {
        "details": "Get the `pos`-th checkpoint for `account`."
      },
      "decimals()": {
        "details": "Returns the number of decimals used to get its user representation. For example, if `decimals` equals `2`, a balance of `505` tokens should be displayed to a user as `5.05` (`505 / 10 ** 2`). Tokens usually opt for a value of 18, imitating the relationship between Ether and Wei. This is the value {ERC20} uses, unless this function is overridden; NOTE: This information is only used for _display_ purposes: it in no way affects any of the arithmetic of the contract, including {IERC20-balanceOf} and {IERC20-transfer}."
      },
      "decreaseAllowance(address,uint256)": {
        "details": "Atomically decreases the allowance granted to `spender` by the caller. This is an alternative to {approve} that can be used as a mitigation for problems described in {IERC20-approve}. Emits an {Approval} event indicating the updated allowance. Requirements: - `spender` cannot be the zero address. - `spender` must have allowance for the caller of at least `subtractedValue`."
      },
      "delegate(address)": {
        "details": "Delegate votes from the sender to `delegatee`."
      },
      "delegateBySig(address,uint256,uint256,uint8,bytes32,bytes32)": {
        "details": "Delegates votes from signer to `delegatee`"
      },
      "delegates(address)": {
        "details": "Get the address `account` is currently delegating to."
      },
      "getCurrentVotes(address)": {
        "details": "Comp version of the {getVotes} accessor, with `uint96` return type."
      },
      "getPastTotalSupply(uint256)": {
        "details": "Retrieve the `totalSupply` at the end of `blockNumber`. Note, this value is the sum of all balances. It is but NOT the sum of all the delegated votes! Requirements: - `blockNumber` must have been already mined"
      },
      "getPastVotes(address,uint256)": {
        "details": "Retrieve the number of votes for `account` at the end of `blockNumber`. Requirements: - `blockNumber` must have been already mined"
      },
      "getPriorVotes(address,uint256)": {
        "details": "Comp version of the {getPastVotes} accessor, with `uint96` return type."
      },
      "getVotes(address)": {
        "details": "Gets the current votes balance for `account`"
      },
      "increaseAllowance(address,uint256)": {
        "details": "Atomically increases the allowance granted to `spender` by the caller. This is an alternative to {approve} that can be used as a mitigation for problems described in {IERC20-approve}. Emits an {Approval} event indicating the updated allowance. Requirements: - `spender` cannot be the zero address."
      },
      "name()": {
        "details": "Returns the name of the token."
      },
      "nonces(address)": {
        "details": "See {IERC20Permit-nonces}."
      },
      "numCheckpoints(address)": {
        "details": "Get number of checkpoints for `account`."
      },
      "permit(address,address,uint256,uint256,uint8,bytes32,bytes32)": {
        "details": "See {IERC20Permit-permit}."
      },
      "symbol()": {
        "details": "Returns the symbol of the token, usually a shorter version of the name."
      },
      "totalSupply()": {
        "details": "See {IERC20-totalSupply}."
      },
      "transfer(address,uint256)": {
        "details": "See {IERC20-transfer}. Requirements: - `recipient` cannot be the zero address. - the caller must have a balance of at least `amount`."
      },
      "transferFrom(address,address,uint256)": {
        "details": "See {IERC20-transferFrom}. Emits an {Approval} event indicating the updated allowance. This is not required by the EIP. See the note at the beginning of {ERC20}. Requirements: - `sender` and `recipient` cannot be the zero address. - `sender` must have a balance of at least `amount`. - the caller must have allowance for ``sender``'s tokens of at least `amount`."
      }
    },
    "version": 1
  },
  "userdoc": {
    "kind": "user",
    "methods": {},
    "version": 1
  }
}