{
  "contractName": "ERC20PermitMock",
  "abi": [
    {
      "inputs": [
        {
          "internalType": "string",
          "name": "name",
          "type": "string"
        },
        {
          "internalType": "string",
          "name": "symbol",
          "type": "string"
        },
        {
          "internalType": "address",
          "name": "initialAccount",
          "type": "address"
        },
        {
          "internalType": "uint256",
          "name": "initialBalance",
          "type": "uint256"
        }
      ],
      "stateMutability": "payable",
      "type": "constructor"
    },
    {
      "anonymous": false,
      "inputs": [
        {
          "indexed": true,
          "internalType": "address",
          "name": "owner",
          "type": "address"
        },
        {
          "indexed": true,
          "internalType": "address",
          "name": "spender",
          "type": "address"
        },
        {
          "indexed": false,
          "internalType": "uint256",
          "name": "value",
          "type": "uint256"
        }
      ],
      "name": "Approval",
      "type": "event"
    },
    {
      "anonymous": false,
      "inputs": [
        {
          "indexed": true,
          "internalType": "address",
          "name": "from",
          "type": "address"
        },
        {
          "indexed": true,
          "internalType": "address",
          "name": "to",
          "type": "address"
        },
        {
          "indexed": false,
          "internalType": "uint256",
          "name": "value",
          "type": "uint256"
        }
      ],
      "name": "Transfer",
      "type": "event"
    },
    {
      "inputs": [],
      "name": "DOMAIN_SEPARATOR",
      "outputs": [
        {
          "internalType": "bytes32",
          "name": "",
          "type": "bytes32"
        }
      ],
      "stateMutability": "view",
      "type": "function"
    },
    {
      "inputs": [
        {
          "internalType": "address",
          "name": "owner",
          "type": "address"
        },
        {
          "internalType": "address",
          "name": "spender",
          "type": "address"
        }
      ],
      "name": "allowance",
      "outputs": [
        {
          "internalType": "uint256",
          "name": "",
          "type": "uint256"
        }
      ],
      "stateMutability": "view",
      "type": "function"
    },
    {
      "inputs": [
        {
          "internalType": "address",
          "name": "spender",
          "type": "address"
        },
        {
          "internalType": "uint256",
          "name": "amount",
          "type": "uint256"
        }
      ],
      "name": "approve",
      "outputs": [
        {
          "internalType": "bool",
          "name": "",
          "type": "bool"
        }
      ],
      "stateMutability": "nonpayable",
      "type": "function"
    },
    {
      "inputs": [
        {
          "internalType": "address",
          "name": "account",
          "type": "address"
        }
      ],
      "name": "balanceOf",
      "outputs": [
        {
          "internalType": "uint256",
          "name": "",
          "type": "uint256"
        }
      ],
      "stateMutability": "view",
      "type": "function"
    },
    {
      "inputs": [],
      "name": "decimals",
      "outputs": [
        {
          "internalType": "uint8",
          "name": "",
          "type": "uint8"
        }
      ],
      "stateMutability": "view",
      "type": "function"
    },
    {
      "inputs": [
        {
          "internalType": "address",
          "name": "spender",
          "type": "address"
        },
        {
          "internalType": "uint256",
          "name": "subtractedValue",
          "type": "uint256"
        }
      ],
      "name": "decreaseAllowance",
      "outputs": [
        {
          "internalType": "bool",
          "name": "",
          "type": "bool"
        }
      ],
      "stateMutability": "nonpayable",
      "type": "function"
    },
    {
      "inputs": [
        {
          "internalType": "address",
          "name": "spender",
          "type": "address"
        },
        {
          "internalType": "uint256",
          "name": "addedValue",
          "type": "uint256"
        }
      ],
      "name": "increaseAllowance",
      "outputs": [
        {
          "internalType": "bool",
          "name": "",
          "type": "bool"
        }
      ],
      "stateMutability": "nonpayable",
      "type": "function"
    },
    {
      "inputs": [],
      "name": "name",
      "outputs": [
        {
          "internalType": "string",
          "name": "",
          "type": "string"
        }
      ],
      "stateMutability": "view",
      "type": "function"
    },
    {
      "inputs": [
        {
          "internalType": "address",
          "name": "owner",
          "type": "address"
        }
      ],
      "name": "nonces",
      "outputs": [
        {
          "internalType": "uint256",
          "name": "",
          "type": "uint256"
        }
      ],
      "stateMutability": "view",
      "type": "function"
    },
    {
      "inputs": [
        {
          "internalType": "address",
          "name": "owner",
          "type": "address"
        },
        {
          "internalType": "address",
          "name": "spender",
          "type": "address"
        },
        {
          "internalType": "uint256",
          "name": "value",
          "type": "uint256"
        },
        {
          "internalType": "uint256",
          "name": "deadline",
          "type": "uint256"
        },
        {
          "internalType": "uint8",
          "name": "v",
          "type": "uint8"
        },
        {
          "internalType": "bytes32",
          "name": "r",
          "type": "bytes32"
        },
        {
          "internalType": "bytes32",
          "name": "s",
          "type": "bytes32"
        }
      ],
      "name": "permit",
      "outputs": [],
      "stateMutability": "nonpayable",
      "type": "function"
    },
    {
      "inputs": [],
      "name": "symbol",
      "outputs": [
        {
          "internalType": "string",
          "name": "",
          "type": "string"
        }
      ],
      "stateMutability": "view",
      "type": "function"
    },
    {
      "inputs": [],
      "name": "totalSupply",
      "outputs": [
        {
          "internalType": "uint256",
          "name": "",
          "type": "uint256"
        }
      ],
      "stateMutability": "view",
      "type": "function"
    },
    {
      "inputs": [
        {
          "internalType": "address",
          "name": "recipient",
          "type": "address"
        },
        {
          "internalType": "uint256",
          "name": "amount",
          "type": "uint256"
        }
      ],
      "name": "transfer",
      "outputs": [
        {
          "internalType": "bool",
          "name": "",
          "type": "bool"
        }
      ],
      "stateMutability": "nonpayable",
      "type": "function"
    },
    {
      "inputs": [
        {
          "internalType": "address",
          "name": "sender",
          "type": "address"
        },
        {
          "internalType": "address",
          "name": "recipient",
          "type": "address"
        },
        {
          "internalType": "uint256",
          "name": "amount",
          "type": "uint256"
        }
      ],
      "name": "transferFrom",
      "outputs": [
        {
          "internalType": "bool",
          "name": "",
          "type": "bool"
        }
      ],
      "stateMutability": "nonpayable",
      "type": "function"
    },
    {
      "inputs": [],
      "name": "getChainId",
      "outputs": [
        {
          "internalType": "uint256",
          "name": "",
          "type": "uint256"
        }
      ],
      "stateMutability": "view",
      "type": "function"
    }
  ],
  "bytecode": "0x6101406040527f6e71edae12b1b97f4d1f60370fef10105fa2faae0126114a169c64845d6126c96101209081525060405162002b1b38038062002b1b833981810160405281019062000052919062000469565b83806040518060400160405280600181526020017f310000000000000000000000000000000000000000000000000000000000000081525086868160039080519060200190620000a492919062000319565b508060049080519060200190620000bd92919062000319565b50505060008280519060200120905060008280519060200120905060007f8b73c3c69bb8fe3d512ecc4cf759cc79239f7b179b0ffacaa9a75d522b39400f90508260c081815250508160e081815250504660a08181525050620001288184846200015a60201b60201c565b608081815250508061010081815250505050505050506200015082826200019660201b60201c565b50505050620008af565b600083838346306040516020016200017795949392919062000561565b6040516020818303038152906040528051906020012090509392505050565b600073ffffffffffffffffffffffffffffffffffffffff168273ffffffffffffffffffffffffffffffffffffffff16141562000209576040517f08c379a00000000000000000000000000000000000000000000000000000000081526004016200020090620005be565b60405180910390fd5b6200021d600083836200030f60201b60201c565b80600260008282546200023191906200066d565b92505081905550806000808473ffffffffffffffffffffffffffffffffffffffff1673ffffffffffffffffffffffffffffffffffffffff16815260200190815260200160002060008282546200028891906200066d565b925050819055508173ffffffffffffffffffffffffffffffffffffffff16600073ffffffffffffffffffffffffffffffffffffffff167fddf252ad1be2c89b69c2b068fc378daa952ba7f163c4a11628f55a4df523b3ef83604051620002ef9190620005e0565b60405180910390a36200030b600083836200031460201b60201c565b5050565b505050565b505050565b828054620003279062000748565b90600052602060002090601f0160209004810192826200034b576000855562000397565b82601f106200036657805160ff191683800117855562000397565b8280016001018555821562000397579182015b828111156200039657825182559160200191906001019062000379565b5b509050620003a69190620003aa565b5090565b5b80821115620003c5576000816000905550600101620003ab565b5090565b6000620003e0620003da8462000626565b620005fd565b905082815260208101848484011115620003f957600080fd5b6200040684828562000712565b509392505050565b6000815190506200041f816200087b565b92915050565b600082601f8301126200043757600080fd5b815162000449848260208601620003c9565b91505092915050565b600081519050620004638162000895565b92915050565b600080600080608085870312156200048057600080fd5b600085015167ffffffffffffffff8111156200049b57600080fd5b620004a98782880162000425565b945050602085015167ffffffffffffffff811115620004c757600080fd5b620004d58782880162000425565b9350506040620004e8878288016200040e565b9250506060620004fb8782880162000452565b91505092959194509250565b6200051281620006ca565b82525050565b6200052381620006de565b82525050565b600062000538601f836200065c565b9150620005458262000852565b602082019050919050565b6200055b8162000708565b82525050565b600060a08201905062000578600083018862000518565b62000587602083018762000518565b62000596604083018662000518565b620005a5606083018562000550565b620005b4608083018462000507565b9695505050505050565b60006020820190508181036000830152620005d98162000529565b9050919050565b6000602082019050620005f7600083018462000550565b92915050565b6000620006096200061c565b90506200061782826200077e565b919050565b6000604051905090565b600067ffffffffffffffff82111562000644576200064362000812565b5b6200064f8262000841565b9050602081019050919050565b600082825260208201905092915050565b60006200067a8262000708565b9150620006878362000708565b9250827fffffffffffffffffffffffffffffffffffffffffffffffffffffffffffffffff03821115620006bf57620006be620007b4565b5b828201905092915050565b6000620006d782620006e8565b9050919050565b6000819050919050565b600073ffffffffffffffffffffffffffffffffffffffff82169050919050565b6000819050919050565b60005b838110156200073257808201518184015260208101905062000715565b8381111562000742576000848401525b50505050565b600060028204905060018216806200076157607f821691505b60208210811415620007785762000777620007e3565b5b50919050565b620007898262000841565b810181811067ffffffffffffffff82111715620007ab57620007aa62000812565b5b80604052505050565b7f4e487b7100000000000000000000000000000000000000000000000000000000600052601160045260246000fd5b7f4e487b7100000000000000000000000000000000000000000000000000000000600052602260045260246000fd5b7f4e487b7100000000000000000000000000000000000000000000000000000000600052604160045260246000fd5b6000601f19601f8301169050919050565b7f45524332303a206d696e7420746f20746865207a65726f206164647265737300600082015250565b6200088681620006ca565b81146200089257600080fd5b50565b620008a08162000708565b8114620008ac57600080fd5b50565b60805160a05160c05160e051610100516101205161221c620008ff600039600061084201526000610e6f01526000610eb101526000610e9001526000610e1c01526000610e44015261221c6000f3fe608060405234801561001057600080fd5b50600436106100f55760003560e01c80633950935111610097578063a457c2d711610066578063a457c2d71461029e578063a9059cbb146102ce578063d505accf146102fe578063dd62ed3e1461031a576100f5565b806339509351146101f057806370a08231146102205780637ecebe001461025057806395d89b4114610280576100f5565b806323b872dd116100d357806323b872dd14610166578063313ce567146101965780633408e470146101b45780633644e515146101d2576100f5565b806306fdde03146100fa578063095ea7b31461011857806318160ddd14610148575b600080fd5b61010261034a565b60405161010f9190611a44565b60405180910390f35b610132600480360381019061012d919061161d565b6103dc565b60405161013f9190611915565b60405180910390f35b6101506103fa565b60405161015d9190611c06565b60405180910390f35b610180600480360381019061017b9190611530565b610404565b60405161018d9190611915565b60405180910390f35b61019e6104fc565b6040516101ab9190611c21565b60405180910390f35b6101bc610505565b6040516101c99190611c06565b60405180910390f35b6101da61050d565b6040516101e79190611930565b60405180910390f35b61020a6004803603810190610205919061161d565b61051c565b6040516102179190611915565b60405180910390f35b61023a600480360381019061023591906114cb565b6105c8565b6040516102479190611c06565b60405180910390f35b61026a600480360381019061026591906114cb565b610610565b6040516102779190611c06565b60405180910390f35b610288610660565b6040516102959190611a44565b60405180910390f35b6102b860048036038101906102b3919061161d565b6106f2565b6040516102c59190611915565b60405180910390f35b6102e860048036038101906102e3919061161d565b6107dd565b6040516102f59190611915565b60405180910390f35b6103186004803603810190610313919061157f565b6107fb565b005b610334600480360381019061032f91906114f4565b61093d565b6040516103419190611c06565b60405180910390f35b60606003805461035990611d4b565b80601f016020809104026020016040519081016040528092919081815260200182805461038590611d4b565b80156103d25780601f106103a7576101008083540402835291602001916103d2565b820191906000526020600020905b8154815290600101906020018083116103b557829003601f168201915b5050505050905090565b60006103f06103e96109c4565b84846109cc565b6001905092915050565b6000600254905090565b6000610411848484610b97565b6000600160008673ffffffffffffffffffffffffffffffffffffffff1673ffffffffffffffffffffffffffffffffffffffff168152602001908152602001600020600061045c6109c4565b73ffffffffffffffffffffffffffffffffffffffff1673ffffffffffffffffffffffffffffffffffffffff168152602001908152602001600020549050828110156104dc576040517f08c379a00000000000000000000000000000000000000000000000000000000081526004016104d390611b86565b60405180910390fd5b6104f0856104e86109c4565b8584036109cc565b60019150509392505050565b60006012905090565b600046905090565b6000610517610e18565b905090565b60006105be6105296109c4565b8484600160006105376109c4565b73ffffffffffffffffffffffffffffffffffffffff1673ffffffffffffffffffffffffffffffffffffffff16815260200190815260200160002060008873ffffffffffffffffffffffffffffffffffffffff1673ffffffffffffffffffffffffffffffffffffffff168152602001908152602001600020546105b99190611c63565b6109cc565b6001905092915050565b60008060008373ffffffffffffffffffffffffffffffffffffffff1673ffffffffffffffffffffffffffffffffffffffff168152602001908152602001600020549050919050565b6000610659600560008473ffffffffffffffffffffffffffffffffffffffff1673ffffffffffffffffffffffffffffffffffffffff168152602001908152602001600020610edb565b9050919050565b60606004805461066f90611d4b565b80601f016020809104026020016040519081016040528092919081815260200182805461069b90611d4b565b80156106e85780601f106106bd576101008083540402835291602001916106e8565b820191906000526020600020905b8154815290600101906020018083116106cb57829003601f168201915b5050505050905090565b600080600160006107016109c4565b73ffffffffffffffffffffffffffffffffffffffff1673ffffffffffffffffffffffffffffffffffffffff16815260200190815260200160002060008573ffffffffffffffffffffffffffffffffffffffff1673ffffffffffffffffffffffffffffffffffffffff168152602001908152602001600020549050828110156107be576040517f08c379a00000000000000000000000000000000000000000000000000000000081526004016107b590611be6565b60405180910390fd5b6107d26107c96109c4565b858584036109cc565b600191505092915050565b60006107f16107ea6109c4565b8484610b97565b6001905092915050565b8342111561083e576040517f08c379a000000000000000000000000000000000000000000000000000000000815260040161083590611ae6565b60405180910390fd5b60007f000000000000000000000000000000000000000000000000000000000000000088888861086d8c610ee9565b896040516020016108839695949392919061194b565b60405160208183030381529060405280519060200120905060006108a682610f47565b905060006108b682878787610f61565b90508973ffffffffffffffffffffffffffffffffffffffff168173ffffffffffffffffffffffffffffffffffffffff1614610926576040517f08c379a000000000000000000000000000000000000000000000000000000000815260040161091d90611b66565b60405180910390fd5b6109318a8a8a6109cc565b50505050505050505050565b6000600160008473ffffffffffffffffffffffffffffffffffffffff1673ffffffffffffffffffffffffffffffffffffffff16815260200190815260200160002060008373ffffffffffffffffffffffffffffffffffffffff1673ffffffffffffffffffffffffffffffffffffffff16815260200190815260200160002054905092915050565b600033905090565b600073ffffffffffffffffffffffffffffffffffffffff168373ffffffffffffffffffffffffffffffffffffffff161415610a3c576040517f08c379a0000000000000000000000000000000000000000000000000000000008152600401610a3390611bc6565b60405180910390fd5b600073ffffffffffffffffffffffffffffffffffffffff168273ffffffffffffffffffffffffffffffffffffffff161415610aac576040517f08c379a0000000000000000000000000000000000000000000000000000000008152600401610aa390611ac6565b60405180910390fd5b80600160008573ffffffffffffffffffffffffffffffffffffffff1673ffffffffffffffffffffffffffffffffffffffff16815260200190815260200160002060008473ffffffffffffffffffffffffffffffffffffffff1673ffffffffffffffffffffffffffffffffffffffff168152602001908152602001600020819055508173ffffffffffffffffffffffffffffffffffffffff168373ffffffffffffffffffffffffffffffffffffffff167f8c5be1e5ebec7d5bd14f71427d1e84f3dd0314c0f7b2291e5b200ac8c7c3b92583604051610b8a9190611c06565b60405180910390a3505050565b600073ffffffffffffffffffffffffffffffffffffffff168373ffffffffffffffffffffffffffffffffffffffff161415610c07576040517f08c379a0000000000000000000000000000000000000000000000000000000008152600401610bfe90611ba6565b60405180910390fd5b600073ffffffffffffffffffffffffffffffffffffffff168273ffffffffffffffffffffffffffffffffffffffff161415610c77576040517f08c379a0000000000000000000000000000000000000000000000000000000008152600401610c6e90611a86565b60405180910390fd5b610c82838383610f8c565b60008060008573ffffffffffffffffffffffffffffffffffffffff1673ffffffffffffffffffffffffffffffffffffffff16815260200190815260200160002054905081811015610d08576040517f08c379a0000000000000000000000000000000000000000000000000000000008152600401610cff90611b06565b60405180910390fd5b8181036000808673ffffffffffffffffffffffffffffffffffffffff1673ffffffffffffffffffffffffffffffffffffffff16815260200190815260200160002081905550816000808573ffffffffffffffffffffffffffffffffffffffff1673ffffffffffffffffffffffffffffffffffffffff1681526020019081526020016000206000828254610d9b9190611c63565b925050819055508273ffffffffffffffffffffffffffffffffffffffff168473ffffffffffffffffffffffffffffffffffffffff167fddf252ad1be2c89b69c2b068fc378daa952ba7f163c4a11628f55a4df523b3ef84604051610dff9190611c06565b60405180910390a3610e12848484610f91565b50505050565b60007f0000000000000000000000000000000000000000000000000000000000000000461415610e6a577f00000000000000000000000000000000000000000000000000000000000000009050610ed8565b610ed57f00000000000000000000000000000000000000000000000000000000000000007f00000000000000000000000000000000000000000000000000000000000000007f0000000000000000000000000000000000000000000000000000000000000000610f96565b90505b90565b600081600001549050919050565b600080600560008473ffffffffffffffffffffffffffffffffffffffff1673ffffffffffffffffffffffffffffffffffffffff1681526020019081526020016000209050610f3681610edb565b9150610f4181610fd0565b50919050565b6000610f5a610f54610e18565b83610fe6565b9050919050565b6000806000610f7287878787611019565b91509150610f7f81611126565b8192505050949350505050565b505050565b505050565b60008383834630604051602001610fb19594939291906119ac565b6040516020818303038152906040528051906020012090509392505050565b6001816000016000828254019250508190555050565b60008282604051602001610ffb9291906118de565b60405160208183030381529060405280519060200120905092915050565b6000807f7fffffffffffffffffffffffffffffff5d576e7357a4501ddfe92f46681b20a08360001c111561105457600060039150915061111d565b601b8560ff161415801561106c5750601c8560ff1614155b1561107e57600060049150915061111d565b6000600187878787604051600081526020016040526040516110a394939291906119ff565b6020604051602081039080840390855afa1580156110c5573d6000803e3d6000fd5b505050602060405103519050600073ffffffffffffffffffffffffffffffffffffffff168173ffffffffffffffffffffffffffffffffffffffff1614156111145760006001925092505061111d565b80600092509250505b94509492505050565b60006004811115611160577f4e487b7100000000000000000000000000000000000000000000000000000000600052602160045260246000fd5b816004811115611199577f4e487b7100000000000000000000000000000000000000000000000000000000600052602160045260246000fd5b14156111a457611474565b600160048111156111de577f4e487b7100000000000000000000000000000000000000000000000000000000600052602160045260246000fd5b816004811115611217577f4e487b7100000000000000000000000000000000000000000000000000000000600052602160045260246000fd5b1415611258576040517f08c379a000000000000000000000000000000000000000000000000000000000815260040161124f90611a66565b60405180910390fd5b60026004811115611292577f4e487b7100000000000000000000000000000000000000000000000000000000600052602160045260246000fd5b8160048111156112cb577f4e487b7100000000000000000000000000000000000000000000000000000000600052602160045260246000fd5b141561130c576040517f08c379a000000000000000000000000000000000000000000000000000000000815260040161130390611aa6565b60405180910390fd5b60036004811115611346577f4e487b7100000000000000000000000000000000000000000000000000000000600052602160045260246000fd5b81600481111561137f577f4e487b7100000000000000000000000000000000000000000000000000000000600052602160045260246000fd5b14156113c0576040517f08c379a00000000000000000000000000000000000000000000000000000000081526004016113b790611b26565b60405180910390fd5b6004808111156113f9577f4e487b7100000000000000000000000000000000000000000000000000000000600052602160045260246000fd5b816004811115611432577f4e487b7100000000000000000000000000000000000000000000000000000000600052602160045260246000fd5b1415611473576040517f08c379a000000000000000000000000000000000000000000000000000000000815260040161146a90611b46565b60405180910390fd5b5b50565b6000813590506114868161218a565b92915050565b60008135905061149b816121a1565b92915050565b6000813590506114b0816121b8565b92915050565b6000813590506114c5816121cf565b92915050565b6000602082840312156114dd57600080fd5b60006114eb84828501611477565b91505092915050565b6000806040838503121561150757600080fd5b600061151585828601611477565b925050602061152685828601611477565b9150509250929050565b60008060006060848603121561154557600080fd5b600061155386828701611477565b935050602061156486828701611477565b9250506040611575868287016114a1565b9150509250925092565b600080600080600080600060e0888a03121561159a57600080fd5b60006115a88a828b01611477565b97505060206115b98a828b01611477565b96505060406115ca8a828b016114a1565b95505060606115db8a828b016114a1565b94505060806115ec8a828b016114b6565b93505060a06115fd8a828b0161148c565b92505060c061160e8a828b0161148c565b91505092959891949750929550565b6000806040838503121561163057600080fd5b600061163e85828601611477565b925050602061164f858286016114a1565b9150509250929050565b61166281611cb9565b82525050565b61167181611ccb565b82525050565b61168081611cd7565b82525050565b61169761169282611cd7565b611d7d565b82525050565b60006116a882611c3c565b6116b28185611c47565b93506116c2818560208601611d18565b6116cb81611de5565b840191505092915050565b60006116e3601883611c47565b91506116ee82611df6565b602082019050919050565b6000611706602383611c47565b915061171182611e1f565b604082019050919050565b6000611729601f83611c47565b915061173482611e6e565b602082019050919050565b600061174c602283611c47565b915061175782611e97565b604082019050919050565b600061176f600283611c58565b915061177a82611ee6565b600282019050919050565b6000611792601d83611c47565b915061179d82611f0f565b602082019050919050565b60006117b5602683611c47565b91506117c082611f38565b604082019050919050565b60006117d8602283611c47565b91506117e382611f87565b604082019050919050565b60006117fb602283611c47565b915061180682611fd6565b604082019050919050565b600061181e601e83611c47565b915061182982612025565b602082019050919050565b6000611841602883611c47565b915061184c8261204e565b604082019050919050565b6000611864602583611c47565b915061186f8261209d565b604082019050919050565b6000611887602483611c47565b9150611892826120ec565b604082019050919050565b60006118aa602583611c47565b91506118b58261213b565b604082019050919050565b6118c981611d01565b82525050565b6118d881611d0b565b82525050565b60006118e982611762565b91506118f58285611686565b6020820191506119058284611686565b6020820191508190509392505050565b600060208201905061192a6000830184611668565b92915050565b60006020820190506119456000830184611677565b92915050565b600060c0820190506119606000830189611677565b61196d6020830188611659565b61197a6040830187611659565b61198760608301866118c0565b61199460808301856118c0565b6119a160a08301846118c0565b979650505050505050565b600060a0820190506119c16000830188611677565b6119ce6020830187611677565b6119db6040830186611677565b6119e860608301856118c0565b6119f56080830184611659565b9695505050505050565b6000608082019050611a146000830187611677565b611a2160208301866118cf565b611a2e6040830185611677565b611a3b6060830184611677565b95945050505050565b60006020820190508181036000830152611a5e818461169d565b905092915050565b60006020820190508181036000830152611a7f816116d6565b9050919050565b60006020820190508181036000830152611a9f816116f9565b9050919050565b60006020820190508181036000830152611abf8161171c565b9050919050565b60006020820190508181036000830152611adf8161173f565b9050919050565b60006020820190508181036000830152611aff81611785565b9050919050565b60006020820190508181036000830152611b1f816117a8565b9050919050565b60006020820190508181036000830152611b3f816117cb565b9050919050565b60006020820190508181036000830152611b5f816117ee565b9050919050565b60006020820190508181036000830152611b7f81611811565b9050919050565b60006020820190508181036000830152611b9f81611834565b9050919050565b60006020820190508181036000830152611bbf81611857565b9050919050565b60006020820190508181036000830152611bdf8161187a565b9050919050565b60006020820190508181036000830152611bff8161189d565b9050919050565b6000602082019050611c1b60008301846118c0565b92915050565b6000602082019050611c3660008301846118cf565b92915050565b600081519050919050565b600082825260208201905092915050565b600081905092915050565b6000611c6e82611d01565b9150611c7983611d01565b9250827fffffffffffffffffffffffffffffffffffffffffffffffffffffffffffffffff03821115611cae57611cad611d87565b5b828201905092915050565b6000611cc482611ce1565b9050919050565b60008115159050919050565b6000819050919050565b600073ffffffffffffffffffffffffffffffffffffffff82169050919050565b6000819050919050565b600060ff82169050919050565b60005b83811015611d36578082015181840152602081019050611d1b565b83811115611d45576000848401525b50505050565b60006002820490506001821680611d6357607f821691505b60208210811415611d7757611d76611db6565b5b50919050565b6000819050919050565b7f4e487b7100000000000000000000000000000000000000000000000000000000600052601160045260246000fd5b7f4e487b7100000000000000000000000000000000000000000000000000000000600052602260045260246000fd5b6000601f19601f8301169050919050565b7f45434453413a20696e76616c6964207369676e61747572650000000000000000600082015250565b7f45524332303a207472616e7366657220746f20746865207a65726f206164647260008201527f6573730000000000000000000000000000000000000000000000000000000000602082015250565b7f45434453413a20696e76616c6964207369676e6174757265206c656e67746800600082015250565b7f45524332303a20617070726f766520746f20746865207a65726f20616464726560008201527f7373000000000000000000000000000000000000000000000000000000000000602082015250565b7f1901000000000000000000000000000000000000000000000000000000000000600082015250565b7f45524332305065726d69743a206578706972656420646561646c696e65000000600082015250565b7f45524332303a207472616e7366657220616d6f756e742065786365656473206260008201527f616c616e63650000000000000000000000000000000000000000000000000000602082015250565b7f45434453413a20696e76616c6964207369676e6174757265202773272076616c60008201527f7565000000000000000000000000000000000000000000000000000000000000602082015250565b7f45434453413a20696e76616c6964207369676e6174757265202776272076616c60008201527f7565000000000000000000000000000000000000000000000000000000000000602082015250565b7f45524332305065726d69743a20696e76616c6964207369676e61747572650000600082015250565b7f45524332303a207472616e7366657220616d6f756e742065786365656473206160008201527f6c6c6f77616e6365000000000000000000000000000000000000000000000000602082015250565b7f45524332303a207472616e736665722066726f6d20746865207a65726f20616460008201527f6472657373000000000000000000000000000000000000000000000000000000602082015250565b7f45524332303a20617070726f76652066726f6d20746865207a65726f2061646460008201527f7265737300000000000000000000000000000000000000000000000000000000602082015250565b7f45524332303a2064656372656173656420616c6c6f77616e63652062656c6f7760008201527f207a65726f000000000000000000000000000000000000000000000000000000602082015250565b61219381611cb9565b811461219e57600080fd5b50565b6121aa81611cd7565b81146121b557600080fd5b50565b6121c181611d01565b81146121cc57600080fd5b50565b6121d881611d0b565b81146121e357600080fd5b5056fea2646970667358221220360de7d2a5b4eb69b6792dfcdf5ae3ca4568a25fa84446c1cfb718299ca8d17c64736f6c63430008040033",
  "immutableReferences": {
    "18817": [
      {
        "length": 32,
        "start": 2114
      }
    ],
    "24269": [
      {
        "length": 32,
        "start": 3652
      }
    ],
    "24271": [
      {
        "length": 32,
        "start": 3612
      }
    ],
    "24273": [
      {
        "length": 32,
        "start": 3728
      }
    ],
    "24275": [
      {
        "length": 32,
        "start": 3761
      }
    ],
    "24277": [
      {
        "length": 32,
        "start": 3695
      }
    ]
  },
  "source": "// SPDX-License-Identifier: MIT\n\npragma solidity ^0.8.0;\n\nimport \"../token/ERC20/extensions/draft-ERC20Permit.sol\";\n\ncontract ERC20PermitMock is ERC20Permit {\n    constructor(\n        string memory name,\n        string memory symbol,\n        address initialAccount,\n        uint256 initialBalance\n    ) payable ERC20(name, symbol) ERC20Permit(name) {\n        _mint(initialAccount, initialBalance);\n    }\n\n    function getChainId() external view returns (uint256) {\n        return block.chainid;\n    }\n}\n",
  "sourcePath": "/Users/alexanderpetrovskiy/work/neon/neon-uat/openzeppelin-contracts/contracts/mocks/ERC20PermitMock.sol",
  "compiler": {
    "name": "solc",
    "version": "0.8.4+commit.c7e474f2.Emscripten.clang"
  },
  "schemaVersion": "3.4.3",
  "updatedAt": "2021-10-12T07:13:47.400Z",
  "devdoc": {
    "kind": "dev",
    "methods": {
      "DOMAIN_SEPARATOR()": {
        "details": "See {IERC20Permit-DOMAIN_SEPARATOR}."
      },
      "allowance(address,address)": {
        "details": "See {IERC20-allowance}."
      },
      "approve(address,uint256)": {
        "details": "See {IERC20-approve}. Requirements: - `spender` cannot be the zero address."
      },
      "balanceOf(address)": {
        "details": "See {IERC20-balanceOf}."
      },
      "decimals()": {
        "details": "Returns the number of decimals used to get its user representation. For example, if `decimals` equals `2`, a balance of `505` tokens should be displayed to a user as `5.05` (`505 / 10 ** 2`). Tokens usually opt for a value of 18, imitating the relationship between Ether and Wei. This is the value {ERC20} uses, unless this function is overridden; NOTE: This information is only used for _display_ purposes: it in no way affects any of the arithmetic of the contract, including {IERC20-balanceOf} and {IERC20-transfer}."
      },
      "decreaseAllowance(address,uint256)": {
        "details": "Atomically decreases the allowance granted to `spender` by the caller. This is an alternative to {approve} that can be used as a mitigation for problems described in {IERC20-approve}. Emits an {Approval} event indicating the updated allowance. Requirements: - `spender` cannot be the zero address. - `spender` must have allowance for the caller of at least `subtractedValue`."
      },
      "increaseAllowance(address,uint256)": {
        "details": "Atomically increases the allowance granted to `spender` by the caller. This is an alternative to {approve} that can be used as a mitigation for problems described in {IERC20-approve}. Emits an {Approval} event indicating the updated allowance. Requirements: - `spender` cannot be the zero address."
      },
      "name()": {
        "details": "Returns the name of the token."
      },
      "nonces(address)": {
        "details": "See {IERC20Permit-nonces}."
      },
      "permit(address,address,uint256,uint256,uint8,bytes32,bytes32)": {
        "details": "See {IERC20Permit-permit}."
      },
      "symbol()": {
        "details": "Returns the symbol of the token, usually a shorter version of the name."
      },
      "totalSupply()": {
        "details": "See {IERC20-totalSupply}."
      },
      "transfer(address,uint256)": {
        "details": "See {IERC20-transfer}. Requirements: - `recipient` cannot be the zero address. - the caller must have a balance of at least `amount`."
      },
      "transferFrom(address,address,uint256)": {
        "details": "See {IERC20-transferFrom}. Emits an {Approval} event indicating the updated allowance. This is not required by the EIP. See the note at the beginning of {ERC20}. Requirements: - `sender` and `recipient` cannot be the zero address. - `sender` must have a balance of at least `amount`. - the caller must have allowance for ``sender``'s tokens of at least `amount`."
      }
    },
    "version": 1
  },
  "userdoc": {
    "kind": "user",
    "methods": {},
    "version": 1
  }
}