{
  "contractName": "ERC20PausableMock",
  "abi": [
    {
      "inputs": [
        {
          "internalType": "string",
          "name": "name",
          "type": "string"
        },
        {
          "internalType": "string",
          "name": "symbol",
          "type": "string"
        },
        {
          "internalType": "address",
          "name": "initialAccount",
          "type": "address"
        },
        {
          "internalType": "uint256",
          "name": "initialBalance",
          "type": "uint256"
        }
      ],
      "stateMutability": "nonpayable",
      "type": "constructor"
    },
    {
      "anonymous": false,
      "inputs": [
        {
          "indexed": true,
          "internalType": "address",
          "name": "owner",
          "type": "address"
        },
        {
          "indexed": true,
          "internalType": "address",
          "name": "spender",
          "type": "address"
        },
        {
          "indexed": false,
          "internalType": "uint256",
          "name": "value",
          "type": "uint256"
        }
      ],
      "name": "Approval",
      "type": "event"
    },
    {
      "anonymous": false,
      "inputs": [
        {
          "indexed": false,
          "internalType": "address",
          "name": "account",
          "type": "address"
        }
      ],
      "name": "Paused",
      "type": "event"
    },
    {
      "anonymous": false,
      "inputs": [
        {
          "indexed": true,
          "internalType": "address",
          "name": "from",
          "type": "address"
        },
        {
          "indexed": true,
          "internalType": "address",
          "name": "to",
          "type": "address"
        },
        {
          "indexed": false,
          "internalType": "uint256",
          "name": "value",
          "type": "uint256"
        }
      ],
      "name": "Transfer",
      "type": "event"
    },
    {
      "anonymous": false,
      "inputs": [
        {
          "indexed": false,
          "internalType": "address",
          "name": "account",
          "type": "address"
        }
      ],
      "name": "Unpaused",
      "type": "event"
    },
    {
      "inputs": [
        {
          "internalType": "address",
          "name": "owner",
          "type": "address"
        },
        {
          "internalType": "address",
          "name": "spender",
          "type": "address"
        }
      ],
      "name": "allowance",
      "outputs": [
        {
          "internalType": "uint256",
          "name": "",
          "type": "uint256"
        }
      ],
      "stateMutability": "view",
      "type": "function"
    },
    {
      "inputs": [
        {
          "internalType": "address",
          "name": "spender",
          "type": "address"
        },
        {
          "internalType": "uint256",
          "name": "amount",
          "type": "uint256"
        }
      ],
      "name": "approve",
      "outputs": [
        {
          "internalType": "bool",
          "name": "",
          "type": "bool"
        }
      ],
      "stateMutability": "nonpayable",
      "type": "function"
    },
    {
      "inputs": [
        {
          "internalType": "address",
          "name": "account",
          "type": "address"
        }
      ],
      "name": "balanceOf",
      "outputs": [
        {
          "internalType": "uint256",
          "name": "",
          "type": "uint256"
        }
      ],
      "stateMutability": "view",
      "type": "function"
    },
    {
      "inputs": [],
      "name": "decimals",
      "outputs": [
        {
          "internalType": "uint8",
          "name": "",
          "type": "uint8"
        }
      ],
      "stateMutability": "view",
      "type": "function"
    },
    {
      "inputs": [
        {
          "internalType": "address",
          "name": "spender",
          "type": "address"
        },
        {
          "internalType": "uint256",
          "name": "subtractedValue",
          "type": "uint256"
        }
      ],
      "name": "decreaseAllowance",
      "outputs": [
        {
          "internalType": "bool",
          "name": "",
          "type": "bool"
        }
      ],
      "stateMutability": "nonpayable",
      "type": "function"
    },
    {
      "inputs": [
        {
          "internalType": "address",
          "name": "spender",
          "type": "address"
        },
        {
          "internalType": "uint256",
          "name": "addedValue",
          "type": "uint256"
        }
      ],
      "name": "increaseAllowance",
      "outputs": [
        {
          "internalType": "bool",
          "name": "",
          "type": "bool"
        }
      ],
      "stateMutability": "nonpayable",
      "type": "function"
    },
    {
      "inputs": [],
      "name": "name",
      "outputs": [
        {
          "internalType": "string",
          "name": "",
          "type": "string"
        }
      ],
      "stateMutability": "view",
      "type": "function"
    },
    {
      "inputs": [],
      "name": "paused",
      "outputs": [
        {
          "internalType": "bool",
          "name": "",
          "type": "bool"
        }
      ],
      "stateMutability": "view",
      "type": "function"
    },
    {
      "inputs": [],
      "name": "symbol",
      "outputs": [
        {
          "internalType": "string",
          "name": "",
          "type": "string"
        }
      ],
      "stateMutability": "view",
      "type": "function"
    },
    {
      "inputs": [],
      "name": "totalSupply",
      "outputs": [
        {
          "internalType": "uint256",
          "name": "",
          "type": "uint256"
        }
      ],
      "stateMutability": "view",
      "type": "function"
    },
    {
      "inputs": [
        {
          "internalType": "address",
          "name": "recipient",
          "type": "address"
        },
        {
          "internalType": "uint256",
          "name": "amount",
          "type": "uint256"
        }
      ],
      "name": "transfer",
      "outputs": [
        {
          "internalType": "bool",
          "name": "",
          "type": "bool"
        }
      ],
      "stateMutability": "nonpayable",
      "type": "function"
    },
    {
      "inputs": [
        {
          "internalType": "address",
          "name": "sender",
          "type": "address"
        },
        {
          "internalType": "address",
          "name": "recipient",
          "type": "address"
        },
        {
          "internalType": "uint256",
          "name": "amount",
          "type": "uint256"
        }
      ],
      "name": "transferFrom",
      "outputs": [
        {
          "internalType": "bool",
          "name": "",
          "type": "bool"
        }
      ],
      "stateMutability": "nonpayable",
      "type": "function"
    },
    {
      "inputs": [],
      "name": "pause",
      "outputs": [],
      "stateMutability": "nonpayable",
      "type": "function"
    },
    {
      "inputs": [],
      "name": "unpause",
      "outputs": [],
      "stateMutability": "nonpayable",
      "type": "function"
    },
    {
      "inputs": [
        {
          "internalType": "address",
          "name": "to",
          "type": "address"
        },
        {
          "internalType": "uint256",
          "name": "amount",
          "type": "uint256"
        }
      ],
      "name": "mint",
      "outputs": [],
      "stateMutability": "nonpayable",
      "type": "function"
    },
    {
      "inputs": [
        {
          "internalType": "address",
          "name": "from",
          "type": "address"
        },
        {
          "internalType": "uint256",
          "name": "amount",
          "type": "uint256"
        }
      ],
      "name": "burn",
      "outputs": [],
      "stateMutability": "nonpayable",
      "type": "function"
    }
  ],
  "bytecode": "0x60806040523480156200001157600080fd5b506040516200252c3803806200252c8339818101604052810190620000379190620003fe565b8383816003908051906020019062000051929190620002ae565b5080600490805190602001906200006a929190620002ae565b5050506000600560006101000a81548160ff0219169083151502179055506200009a8282620000a460201b60201c565b5050505062000853565b600073ffffffffffffffffffffffffffffffffffffffff168273ffffffffffffffffffffffffffffffffffffffff16141562000117576040517f08c379a00000000000000000000000000000000000000000000000000000000081526004016200010e90620004fb565b60405180910390fd5b6200012b600083836200021d60201b60201c565b80600260008282546200013f9190620005cc565b92505081905550806000808473ffffffffffffffffffffffffffffffffffffffff1673ffffffffffffffffffffffffffffffffffffffff1681526020019081526020016000206000828254620001969190620005cc565b925050819055508173ffffffffffffffffffffffffffffffffffffffff16600073ffffffffffffffffffffffffffffffffffffffff167fddf252ad1be2c89b69c2b068fc378daa952ba7f163c4a11628f55a4df523b3ef83604051620001fd91906200053f565b60405180910390a362000219600083836200028d60201b60201c565b5050565b620002358383836200029260201b6200084f1760201c565b620002456200029760201b60201c565b1562000288576040517f08c379a00000000000000000000000000000000000000000000000000000000081526004016200027f906200051d565b60405180910390fd5b505050565b505050565b505050565b6000600560009054906101000a900460ff16905090565b828054620002bc906200069d565b90600052602060002090601f016020900481019282620002e057600085556200032c565b82601f10620002fb57805160ff19168380011785556200032c565b828001600101855582156200032c579182015b828111156200032b5782518255916020019190600101906200030e565b5b5090506200033b91906200033f565b5090565b5b808211156200035a57600081600090555060010162000340565b5090565b6000620003756200036f8462000585565b6200055c565b9050828152602081018484840111156200038e57600080fd5b6200039b84828562000667565b509392505050565b600081519050620003b4816200081f565b92915050565b600082601f830112620003cc57600080fd5b8151620003de8482602086016200035e565b91505092915050565b600081519050620003f88162000839565b92915050565b600080600080608085870312156200041557600080fd5b600085015167ffffffffffffffff8111156200043057600080fd5b6200043e87828801620003ba565b945050602085015167ffffffffffffffff8111156200045c57600080fd5b6200046a87828801620003ba565b93505060406200047d87828801620003a3565b92505060606200049087828801620003e7565b91505092959194509250565b6000620004ab601f83620005bb565b9150620004b882620007a7565b602082019050919050565b6000620004d2602a83620005bb565b9150620004df82620007d0565b604082019050919050565b620004f5816200065d565b82525050565b6000602082019050818103600083015262000516816200049c565b9050919050565b600060208201905081810360008301526200053881620004c3565b9050919050565b6000602082019050620005566000830184620004ea565b92915050565b6000620005686200057b565b9050620005768282620006d3565b919050565b6000604051905090565b600067ffffffffffffffff821115620005a357620005a262000767565b5b620005ae8262000796565b9050602081019050919050565b600082825260208201905092915050565b6000620005d9826200065d565b9150620005e6836200065d565b9250827fffffffffffffffffffffffffffffffffffffffffffffffffffffffffffffffff038211156200061e576200061d62000709565b5b828201905092915050565b600062000636826200063d565b9050919050565b600073ffffffffffffffffffffffffffffffffffffffff82169050919050565b6000819050919050565b60005b83811015620006875780820151818401526020810190506200066a565b8381111562000697576000848401525b50505050565b60006002820490506001821680620006b657607f821691505b60208210811415620006cd57620006cc62000738565b5b50919050565b620006de8262000796565b810181811067ffffffffffffffff821117156200070057620006ff62000767565b5b80604052505050565b7f4e487b7100000000000000000000000000000000000000000000000000000000600052601160045260246000fd5b7f4e487b7100000000000000000000000000000000000000000000000000000000600052602260045260246000fd5b7f4e487b7100000000000000000000000000000000000000000000000000000000600052604160045260246000fd5b6000601f19601f8301169050919050565b7f45524332303a206d696e7420746f20746865207a65726f206164647265737300600082015250565b7f45524332305061757361626c653a20746f6b656e207472616e7366657220776860008201527f696c652070617573656400000000000000000000000000000000000000000000602082015250565b6200082a8162000629565b81146200083657600080fd5b50565b62000844816200065d565b81146200085057600080fd5b50565b611cc980620008636000396000f3fe608060405234801561001057600080fd5b50600436106101005760003560e01c80635c975abb116100975780639dc29fac116100665780639dc29fac1461028b578063a457c2d7146102a7578063a9059cbb146102d7578063dd62ed3e1461030757610100565b80635c975abb1461021557806370a08231146102335780638456cb591461026357806395d89b411461026d57610100565b8063313ce567116100d3578063313ce567146101a157806339509351146101bf5780633f4ba83a146101ef57806340c10f19146101f957610100565b806306fdde0314610105578063095ea7b31461012357806318160ddd1461015357806323b872dd14610171575b600080fd5b61010d610337565b60405161011a919061150d565b60405180910390f35b61013d6004803603810190610138919061125f565b6103c9565b60405161014a91906114f2565b60405180910390f35b61015b6103e7565b60405161016891906116cf565b60405180910390f35b61018b60048036038101906101869190611210565b6103f1565b60405161019891906114f2565b60405180910390f35b6101a96104e9565b6040516101b691906116ea565b60405180910390f35b6101d960048036038101906101d4919061125f565b6104f2565b6040516101e691906114f2565b60405180910390f35b6101f761059e565b005b610213600480360381019061020e919061125f565b6105a8565b005b61021d6105b6565b60405161022a91906114f2565b60405180910390f35b61024d600480360381019061024891906111ab565b6105cd565b60405161025a91906116cf565b60405180910390f35b61026b610615565b005b61027561061f565b604051610282919061150d565b60405180910390f35b6102a560048036038101906102a0919061125f565b6106b1565b005b6102c160048036038101906102bc919061125f565b6106bf565b6040516102ce91906114f2565b60405180910390f35b6102f160048036038101906102ec919061125f565b6107aa565b6040516102fe91906114f2565b60405180910390f35b610321600480360381019061031c91906111d4565b6107c8565b60405161032e91906116cf565b60405180910390f35b60606003805461034690611833565b80601f016020809104026020016040519081016040528092919081815260200182805461037290611833565b80156103bf5780601f10610394576101008083540402835291602001916103bf565b820191906000526020600020905b8154815290600101906020018083116103a257829003601f168201915b5050505050905090565b60006103dd6103d6610854565b848461085c565b6001905092915050565b6000600254905090565b60006103fe848484610a27565b6000600160008673ffffffffffffffffffffffffffffffffffffffff1673ffffffffffffffffffffffffffffffffffffffff1681526020019081526020016000206000610449610854565b73ffffffffffffffffffffffffffffffffffffffff1673ffffffffffffffffffffffffffffffffffffffff168152602001908152602001600020549050828110156104c9576040517f08c379a00000000000000000000000000000000000000000000000000000000081526004016104c0906115ef565b60405180910390fd5b6104dd856104d5610854565b85840361085c565b60019150509392505050565b60006012905090565b60006105946104ff610854565b84846001600061050d610854565b73ffffffffffffffffffffffffffffffffffffffff1673ffffffffffffffffffffffffffffffffffffffff16815260200190815260200160002060008873ffffffffffffffffffffffffffffffffffffffff1673ffffffffffffffffffffffffffffffffffffffff1681526020019081526020016000205461058f9190611721565b61085c565b6001905092915050565b6105a6610ca8565b565b6105b28282610d4a565b5050565b6000600560009054906101000a900460ff16905090565b60008060008373ffffffffffffffffffffffffffffffffffffffff1673ffffffffffffffffffffffffffffffffffffffff168152602001908152602001600020549050919050565b61061d610eaa565b565b60606004805461062e90611833565b80601f016020809104026020016040519081016040528092919081815260200182805461065a90611833565b80156106a75780601f1061067c576101008083540402835291602001916106a7565b820191906000526020600020905b81548152906001019060200180831161068a57829003601f168201915b5050505050905090565b6106bb8282610f4d565b5050565b600080600160006106ce610854565b73ffffffffffffffffffffffffffffffffffffffff1673ffffffffffffffffffffffffffffffffffffffff16815260200190815260200160002060008573ffffffffffffffffffffffffffffffffffffffff1673ffffffffffffffffffffffffffffffffffffffff1681526020019081526020016000205490508281101561078b576040517f08c379a00000000000000000000000000000000000000000000000000000000081526004016107829061166f565b60405180910390fd5b61079f610796610854565b8585840361085c565b600191505092915050565b60006107be6107b7610854565b8484610a27565b6001905092915050565b6000600160008473ffffffffffffffffffffffffffffffffffffffff1673ffffffffffffffffffffffffffffffffffffffff16815260200190815260200160002060008373ffffffffffffffffffffffffffffffffffffffff1673ffffffffffffffffffffffffffffffffffffffff16815260200190815260200160002054905092915050565b505050565b600033905090565b600073ffffffffffffffffffffffffffffffffffffffff168373ffffffffffffffffffffffffffffffffffffffff1614156108cc576040517f08c379a00000000000000000000000000000000000000000000000000000000081526004016108c39061164f565b60405180910390fd5b600073ffffffffffffffffffffffffffffffffffffffff168273ffffffffffffffffffffffffffffffffffffffff16141561093c576040517f08c379a00000000000000000000000000000000000000000000000000000000081526004016109339061158f565b60405180910390fd5b80600160008573ffffffffffffffffffffffffffffffffffffffff1673ffffffffffffffffffffffffffffffffffffffff16815260200190815260200160002060008473ffffffffffffffffffffffffffffffffffffffff1673ffffffffffffffffffffffffffffffffffffffff168152602001908152602001600020819055508173ffffffffffffffffffffffffffffffffffffffff168373ffffffffffffffffffffffffffffffffffffffff167f8c5be1e5ebec7d5bd14f71427d1e84f3dd0314c0f7b2291e5b200ac8c7c3b92583604051610a1a91906116cf565b60405180910390a3505050565b600073ffffffffffffffffffffffffffffffffffffffff168373ffffffffffffffffffffffffffffffffffffffff161415610a97576040517f08c379a0000000000000000000000000000000000000000000000000000000008152600401610a8e9061162f565b60405180910390fd5b600073ffffffffffffffffffffffffffffffffffffffff168273ffffffffffffffffffffffffffffffffffffffff161415610b07576040517f08c379a0000000000000000000000000000000000000000000000000000000008152600401610afe9061152f565b60405180910390fd5b610b12838383611124565b60008060008573ffffffffffffffffffffffffffffffffffffffff1673ffffffffffffffffffffffffffffffffffffffff16815260200190815260200160002054905081811015610b98576040517f08c379a0000000000000000000000000000000000000000000000000000000008152600401610b8f906115af565b60405180910390fd5b8181036000808673ffffffffffffffffffffffffffffffffffffffff1673ffffffffffffffffffffffffffffffffffffffff16815260200190815260200160002081905550816000808573ffffffffffffffffffffffffffffffffffffffff1673ffffffffffffffffffffffffffffffffffffffff1681526020019081526020016000206000828254610c2b9190611721565b925050819055508273ffffffffffffffffffffffffffffffffffffffff168473ffffffffffffffffffffffffffffffffffffffff167fddf252ad1be2c89b69c2b068fc378daa952ba7f163c4a11628f55a4df523b3ef84604051610c8f91906116cf565b60405180910390a3610ca284848461117c565b50505050565b610cb06105b6565b610cef576040517f08c379a0000000000000000000000000000000000000000000000000000000008152600401610ce69061154f565b60405180910390fd5b6000600560006101000a81548160ff0219169083151502179055507f5db9ee0a495bf2e6ff9c91a7834c1ba4fdd244a5e8aa4e537bd38aeae4b073aa610d33610854565b604051610d4091906114d7565b60405180910390a1565b600073ffffffffffffffffffffffffffffffffffffffff168273ffffffffffffffffffffffffffffffffffffffff161415610dba576040517f08c379a0000000000000000000000000000000000000000000000000000000008152600401610db19061168f565b60405180910390fd5b610dc660008383611124565b8060026000828254610dd89190611721565b92505081905550806000808473ffffffffffffffffffffffffffffffffffffffff1673ffffffffffffffffffffffffffffffffffffffff1681526020019081526020016000206000828254610e2d9190611721565b925050819055508173ffffffffffffffffffffffffffffffffffffffff16600073ffffffffffffffffffffffffffffffffffffffff167fddf252ad1be2c89b69c2b068fc378daa952ba7f163c4a11628f55a4df523b3ef83604051610e9291906116cf565b60405180910390a3610ea66000838361117c565b5050565b610eb26105b6565b15610ef2576040517f08c379a0000000000000000000000000000000000000000000000000000000008152600401610ee9906115cf565b60405180910390fd5b6001600560006101000a81548160ff0219169083151502179055507f62e78cea01bee320cd4e420270b5ea74000d11b0c9f74754ebdbfc544b05a258610f36610854565b604051610f4391906114d7565b60405180910390a1565b600073ffffffffffffffffffffffffffffffffffffffff168273ffffffffffffffffffffffffffffffffffffffff161415610fbd576040517f08c379a0000000000000000000000000000000000000000000000000000000008152600401610fb49061160f565b60405180910390fd5b610fc982600083611124565b60008060008473ffffffffffffffffffffffffffffffffffffffff1673ffffffffffffffffffffffffffffffffffffffff1681526020019081526020016000205490508181101561104f576040517f08c379a00000000000000000000000000000000000000000000000000000000081526004016110469061156f565b60405180910390fd5b8181036000808573ffffffffffffffffffffffffffffffffffffffff1673ffffffffffffffffffffffffffffffffffffffff1681526020019081526020016000208190555081600260008282546110a69190611777565b92505081905550600073ffffffffffffffffffffffffffffffffffffffff168373ffffffffffffffffffffffffffffffffffffffff167fddf252ad1be2c89b69c2b068fc378daa952ba7f163c4a11628f55a4df523b3ef8460405161110b91906116cf565b60405180910390a361111f8360008461117c565b505050565b61112f83838361084f565b6111376105b6565b15611177576040517f08c379a000000000000000000000000000000000000000000000000000000000815260040161116e906116af565b60405180910390fd5b505050565b505050565b60008135905061119081611c65565b92915050565b6000813590506111a581611c7c565b92915050565b6000602082840312156111bd57600080fd5b60006111cb84828501611181565b91505092915050565b600080604083850312156111e757600080fd5b60006111f585828601611181565b925050602061120685828601611181565b9150509250929050565b60008060006060848603121561122557600080fd5b600061123386828701611181565b935050602061124486828701611181565b925050604061125586828701611196565b9150509250925092565b6000806040838503121561127257600080fd5b600061128085828601611181565b925050602061129185828601611196565b9150509250929050565b6112a4816117ab565b82525050565b6112b3816117bd565b82525050565b60006112c482611705565b6112ce8185611710565b93506112de818560208601611800565b6112e7816118c3565b840191505092915050565b60006112ff602383611710565b915061130a826118d4565b604082019050919050565b6000611322601483611710565b915061132d82611923565b602082019050919050565b6000611345602283611710565b91506113508261194c565b604082019050919050565b6000611368602283611710565b91506113738261199b565b604082019050919050565b600061138b602683611710565b9150611396826119ea565b604082019050919050565b60006113ae601083611710565b91506113b982611a39565b602082019050919050565b60006113d1602883611710565b91506113dc82611a62565b604082019050919050565b60006113f4602183611710565b91506113ff82611ab1565b604082019050919050565b6000611417602583611710565b915061142282611b00565b604082019050919050565b600061143a602483611710565b915061144582611b4f565b604082019050919050565b600061145d602583611710565b915061146882611b9e565b604082019050919050565b6000611480601f83611710565b915061148b82611bed565b602082019050919050565b60006114a3602a83611710565b91506114ae82611c16565b604082019050919050565b6114c2816117e9565b82525050565b6114d1816117f3565b82525050565b60006020820190506114ec600083018461129b565b92915050565b600060208201905061150760008301846112aa565b92915050565b6000602082019050818103600083015261152781846112b9565b905092915050565b60006020820190508181036000830152611548816112f2565b9050919050565b6000602082019050818103600083015261156881611315565b9050919050565b6000602082019050818103600083015261158881611338565b9050919050565b600060208201905081810360008301526115a88161135b565b9050919050565b600060208201905081810360008301526115c88161137e565b9050919050565b600060208201905081810360008301526115e8816113a1565b9050919050565b60006020820190508181036000830152611608816113c4565b9050919050565b60006020820190508181036000830152611628816113e7565b9050919050565b600060208201905081810360008301526116488161140a565b9050919050565b600060208201905081810360008301526116688161142d565b9050919050565b6000602082019050818103600083015261168881611450565b9050919050565b600060208201905081810360008301526116a881611473565b9050919050565b600060208201905081810360008301526116c881611496565b9050919050565b60006020820190506116e460008301846114b9565b92915050565b60006020820190506116ff60008301846114c8565b92915050565b600081519050919050565b600082825260208201905092915050565b600061172c826117e9565b9150611737836117e9565b9250827fffffffffffffffffffffffffffffffffffffffffffffffffffffffffffffffff0382111561176c5761176b611865565b5b828201905092915050565b6000611782826117e9565b915061178d836117e9565b9250828210156117a05761179f611865565b5b828203905092915050565b60006117b6826117c9565b9050919050565b60008115159050919050565b600073ffffffffffffffffffffffffffffffffffffffff82169050919050565b6000819050919050565b600060ff82169050919050565b60005b8381101561181e578082015181840152602081019050611803565b8381111561182d576000848401525b50505050565b6000600282049050600182168061184b57607f821691505b6020821081141561185f5761185e611894565b5b50919050565b7f4e487b7100000000000000000000000000000000000000000000000000000000600052601160045260246000fd5b7f4e487b7100000000000000000000000000000000000000000000000000000000600052602260045260246000fd5b6000601f19601f8301169050919050565b7f45524332303a207472616e7366657220746f20746865207a65726f206164647260008201527f6573730000000000000000000000000000000000000000000000000000000000602082015250565b7f5061757361626c653a206e6f7420706175736564000000000000000000000000600082015250565b7f45524332303a206275726e20616d6f756e7420657863656564732062616c616e60008201527f6365000000000000000000000000000000000000000000000000000000000000602082015250565b7f45524332303a20617070726f766520746f20746865207a65726f20616464726560008201527f7373000000000000000000000000000000000000000000000000000000000000602082015250565b7f45524332303a207472616e7366657220616d6f756e742065786365656473206260008201527f616c616e63650000000000000000000000000000000000000000000000000000602082015250565b7f5061757361626c653a2070617573656400000000000000000000000000000000600082015250565b7f45524332303a207472616e7366657220616d6f756e742065786365656473206160008201527f6c6c6f77616e6365000000000000000000000000000000000000000000000000602082015250565b7f45524332303a206275726e2066726f6d20746865207a65726f2061646472657360008201527f7300000000000000000000000000000000000000000000000000000000000000602082015250565b7f45524332303a207472616e736665722066726f6d20746865207a65726f20616460008201527f6472657373000000000000000000000000000000000000000000000000000000602082015250565b7f45524332303a20617070726f76652066726f6d20746865207a65726f2061646460008201527f7265737300000000000000000000000000000000000000000000000000000000602082015250565b7f45524332303a2064656372656173656420616c6c6f77616e63652062656c6f7760008201527f207a65726f000000000000000000000000000000000000000000000000000000602082015250565b7f45524332303a206d696e7420746f20746865207a65726f206164647265737300600082015250565b7f45524332305061757361626c653a20746f6b656e207472616e7366657220776860008201527f696c652070617573656400000000000000000000000000000000000000000000602082015250565b611c6e816117ab565b8114611c7957600080fd5b50565b611c85816117e9565b8114611c9057600080fd5b5056fea2646970667358221220e8272a8db3ce6413709a2b43dbb8faf4a5cb07747d9b5fc43f7e44a433129fdb64736f6c63430008040033",
  "immutableReferences": {},
  "source": "// SPDX-License-Identifier: MIT\n\npragma solidity ^0.8.0;\n\nimport \"../token/ERC20/extensions/ERC20Pausable.sol\";\n\n// mock class using ERC20Pausable\ncontract ERC20PausableMock is ERC20Pausable {\n    constructor(\n        string memory name,\n        string memory symbol,\n        address initialAccount,\n        uint256 initialBalance\n    ) ERC20(name, symbol) {\n        _mint(initialAccount, initialBalance);\n    }\n\n    function pause() external {\n        _pause();\n    }\n\n    function unpause() external {\n        _unpause();\n    }\n\n    function mint(address to, uint256 amount) public {\n        _mint(to, amount);\n    }\n\n    function burn(address from, uint256 amount) public {\n        _burn(from, amount);\n    }\n}\n",
  "sourcePath": "/Users/alexanderpetrovskiy/work/neon/neon-uat/openzeppelin-contracts/contracts/mocks/ERC20PausableMock.sol",
  "compiler": {
    "name": "solc",
    "version": "0.8.4+commit.c7e474f2.Emscripten.clang"
  },
  "schemaVersion": "3.4.3",
  "updatedAt": "2023-10-14T11:18:38.234Z",
  "devdoc": {
    "kind": "dev",
    "methods": {
      "allowance(address,address)": {
        "details": "See {IERC20-allowance}."
      },
      "approve(address,uint256)": {
        "details": "See {IERC20-approve}. Requirements: - `spender` cannot be the zero address."
      },
      "balanceOf(address)": {
        "details": "See {IERC20-balanceOf}."
      },
      "decimals()": {
        "details": "Returns the number of decimals used to get its user representation. For example, if `decimals` equals `2`, a balance of `505` tokens should be displayed to a user as `5.05` (`505 / 10 ** 2`). Tokens usually opt for a value of 18, imitating the relationship between Ether and Wei. This is the value {ERC20} uses, unless this function is overridden; NOTE: This information is only used for _display_ purposes: it in no way affects any of the arithmetic of the contract, including {IERC20-balanceOf} and {IERC20-transfer}."
      },
      "decreaseAllowance(address,uint256)": {
        "details": "Atomically decreases the allowance granted to `spender` by the caller. This is an alternative to {approve} that can be used as a mitigation for problems described in {IERC20-approve}. Emits an {Approval} event indicating the updated allowance. Requirements: - `spender` cannot be the zero address. - `spender` must have allowance for the caller of at least `subtractedValue`."
      },
      "increaseAllowance(address,uint256)": {
        "details": "Atomically increases the allowance granted to `spender` by the caller. This is an alternative to {approve} that can be used as a mitigation for problems described in {IERC20-approve}. Emits an {Approval} event indicating the updated allowance. Requirements: - `spender` cannot be the zero address."
      },
      "name()": {
        "details": "Returns the name of the token."
      },
      "paused()": {
        "details": "Returns true if the contract is paused, and false otherwise."
      },
      "symbol()": {
        "details": "Returns the symbol of the token, usually a shorter version of the name."
      },
      "totalSupply()": {
        "details": "See {IERC20-totalSupply}."
      },
      "transfer(address,uint256)": {
        "details": "See {IERC20-transfer}. Requirements: - `recipient` cannot be the zero address. - the caller must have a balance of at least `amount`."
      },
      "transferFrom(address,address,uint256)": {
        "details": "See {IERC20-transferFrom}. Emits an {Approval} event indicating the updated allowance. This is not required by the EIP. See the note at the beginning of {ERC20}. Requirements: - `sender` and `recipient` cannot be the zero address. - `sender` must have a balance of at least `amount`. - the caller must have allowance for ``sender``'s tokens of at least `amount`."
      }
    },
    "version": 1
  },
  "userdoc": {
    "kind": "user",
    "methods": {},
    "version": 1
  }
}