{
  "contractName": "GovernorCompatibilityBravoMock",
  "abi": [
    {
      "inputs": [
        {
          "internalType": "string",
          "name": "name_",
          "type": "string"
        },
        {
          "internalType": "contract ERC20VotesComp",
          "name": "token_",
          "type": "address"
        },
        {
          "internalType": "uint256",
          "name": "votingDelay_",
          "type": "uint256"
        },
        {
          "internalType": "uint256",
          "name": "votingPeriod_",
          "type": "uint256"
        },
        {
          "internalType": "uint256",
          "name": "proposalThreshold_",
          "type": "uint256"
        },
        {
          "internalType": "contract ICompoundTimelock",
          "name": "timelock_",
          "type": "address"
        }
      ],
      "stateMutability": "nonpayable",
      "type": "constructor"
    },
    {
      "anonymous": false,
      "inputs": [
        {
          "indexed": false,
          "internalType": "uint256",
          "name": "proposalId",
          "type": "uint256"
        }
      ],
      "name": "ProposalCanceled",
      "type": "event"
    },
    {
      "anonymous": false,
      "inputs": [
        {
          "indexed": false,
          "internalType": "uint256",
          "name": "proposalId",
          "type": "uint256"
        },
        {
          "indexed": false,
          "internalType": "address",
          "name": "proposer",
          "type": "address"
        },
        {
          "indexed": false,
          "internalType": "address[]",
          "name": "targets",
          "type": "address[]"
        },
        {
          "indexed": false,
          "internalType": "uint256[]",
          "name": "values",
          "type": "uint256[]"
        },
        {
          "indexed": false,
          "internalType": "string[]",
          "name": "signatures",
          "type": "string[]"
        },
        {
          "indexed": false,
          "internalType": "bytes[]",
          "name": "calldatas",
          "type": "bytes[]"
        },
        {
          "indexed": false,
          "internalType": "uint256",
          "name": "startBlock",
          "type": "uint256"
        },
        {
          "indexed": false,
          "internalType": "uint256",
          "name": "endBlock",
          "type": "uint256"
        },
        {
          "indexed": false,
          "internalType": "string",
          "name": "description",
          "type": "string"
        }
      ],
      "name": "ProposalCreated",
      "type": "event"
    },
    {
      "anonymous": false,
      "inputs": [
        {
          "indexed": false,
          "internalType": "uint256",
          "name": "proposalId",
          "type": "uint256"
        }
      ],
      "name": "ProposalExecuted",
      "type": "event"
    },
    {
      "anonymous": false,
      "inputs": [
        {
          "indexed": false,
          "internalType": "uint256",
          "name": "proposalId",
          "type": "uint256"
        },
        {
          "indexed": false,
          "internalType": "uint256",
          "name": "eta",
          "type": "uint256"
        }
      ],
      "name": "ProposalQueued",
      "type": "event"
    },
    {
      "anonymous": false,
      "inputs": [
        {
          "indexed": false,
          "internalType": "address",
          "name": "oldTimelock",
          "type": "address"
        },
        {
          "indexed": false,
          "internalType": "address",
          "name": "newTimelock",
          "type": "address"
        }
      ],
      "name": "TimelockChange",
      "type": "event"
    },
    {
      "anonymous": false,
      "inputs": [
        {
          "indexed": true,
          "internalType": "address",
          "name": "voter",
          "type": "address"
        },
        {
          "indexed": false,
          "internalType": "uint256",
          "name": "proposalId",
          "type": "uint256"
        },
        {
          "indexed": false,
          "internalType": "uint8",
          "name": "support",
          "type": "uint8"
        },
        {
          "indexed": false,
          "internalType": "uint256",
          "name": "weight",
          "type": "uint256"
        },
        {
          "indexed": false,
          "internalType": "string",
          "name": "reason",
          "type": "string"
        }
      ],
      "name": "VoteCast",
      "type": "event"
    },
    {
      "inputs": [],
      "name": "BALLOT_TYPEHASH",
      "outputs": [
        {
          "internalType": "bytes32",
          "name": "",
          "type": "bytes32"
        }
      ],
      "stateMutability": "view",
      "type": "function"
    },
    {
      "inputs": [],
      "name": "COUNTING_MODE",
      "outputs": [
        {
          "internalType": "string",
          "name": "",
          "type": "string"
        }
      ],
      "stateMutability": "pure",
      "type": "function"
    },
    {
      "inputs": [],
      "name": "__acceptAdmin",
      "outputs": [],
      "stateMutability": "nonpayable",
      "type": "function"
    },
    {
      "inputs": [
        {
          "internalType": "uint256",
          "name": "proposalId",
          "type": "uint256"
        },
        {
          "internalType": "uint8",
          "name": "support",
          "type": "uint8"
        }
      ],
      "name": "castVote",
      "outputs": [
        {
          "internalType": "uint256",
          "name": "",
          "type": "uint256"
        }
      ],
      "stateMutability": "nonpayable",
      "type": "function"
    },
    {
      "inputs": [
        {
          "internalType": "uint256",
          "name": "proposalId",
          "type": "uint256"
        },
        {
          "internalType": "uint8",
          "name": "support",
          "type": "uint8"
        },
        {
          "internalType": "uint8",
          "name": "v",
          "type": "uint8"
        },
        {
          "internalType": "bytes32",
          "name": "r",
          "type": "bytes32"
        },
        {
          "internalType": "bytes32",
          "name": "s",
          "type": "bytes32"
        }
      ],
      "name": "castVoteBySig",
      "outputs": [
        {
          "internalType": "uint256",
          "name": "",
          "type": "uint256"
        }
      ],
      "stateMutability": "nonpayable",
      "type": "function"
    },
    {
      "inputs": [
        {
          "internalType": "uint256",
          "name": "proposalId",
          "type": "uint256"
        },
        {
          "internalType": "uint8",
          "name": "support",
          "type": "uint8"
        },
        {
          "internalType": "string",
          "name": "reason",
          "type": "string"
        }
      ],
      "name": "castVoteWithReason",
      "outputs": [
        {
          "internalType": "uint256",
          "name": "",
          "type": "uint256"
        }
      ],
      "stateMutability": "nonpayable",
      "type": "function"
    },
    {
      "inputs": [
        {
          "internalType": "uint256",
          "name": "proposalId",
          "type": "uint256"
        }
      ],
      "name": "getActions",
      "outputs": [
        {
          "internalType": "address[]",
          "name": "targets",
          "type": "address[]"
        },
        {
          "internalType": "uint256[]",
          "name": "values",
          "type": "uint256[]"
        },
        {
          "internalType": "string[]",
          "name": "signatures",
          "type": "string[]"
        },
        {
          "internalType": "bytes[]",
          "name": "calldatas",
          "type": "bytes[]"
        }
      ],
      "stateMutability": "view",
      "type": "function"
    },
    {
      "inputs": [
        {
          "internalType": "uint256",
          "name": "proposalId",
          "type": "uint256"
        },
        {
          "internalType": "address",
          "name": "voter",
          "type": "address"
        }
      ],
      "name": "getReceipt",
      "outputs": [
        {
          "components": [
            {
              "internalType": "bool",
              "name": "hasVoted",
              "type": "bool"
            },
            {
              "internalType": "uint8",
              "name": "support",
              "type": "uint8"
            },
            {
              "internalType": "uint96",
              "name": "votes",
              "type": "uint96"
            }
          ],
          "internalType": "struct IGovernorCompatibilityBravo.Receipt",
          "name": "",
          "type": "tuple"
        }
      ],
      "stateMutability": "view",
      "type": "function"
    },
    {
      "inputs": [
        {
          "internalType": "uint256",
          "name": "proposalId",
          "type": "uint256"
        },
        {
          "internalType": "address",
          "name": "account",
          "type": "address"
        }
      ],
      "name": "hasVoted",
      "outputs": [
        {
          "internalType": "bool",
          "name": "",
          "type": "bool"
        }
      ],
      "stateMutability": "view",
      "type": "function"
    },
    {
      "inputs": [
        {
          "internalType": "address[]",
          "name": "targets",
          "type": "address[]"
        },
        {
          "internalType": "uint256[]",
          "name": "values",
          "type": "uint256[]"
        },
        {
          "internalType": "bytes[]",
          "name": "calldatas",
          "type": "bytes[]"
        },
        {
          "internalType": "bytes32",
          "name": "descriptionHash",
          "type": "bytes32"
        }
      ],
      "name": "hashProposal",
      "outputs": [
        {
          "internalType": "uint256",
          "name": "",
          "type": "uint256"
        }
      ],
      "stateMutability": "pure",
      "type": "function"
    },
    {
      "inputs": [],
      "name": "name",
      "outputs": [
        {
          "internalType": "string",
          "name": "",
          "type": "string"
        }
      ],
      "stateMutability": "view",
      "type": "function"
    },
    {
      "inputs": [
        {
          "internalType": "uint256",
          "name": "proposalId",
          "type": "uint256"
        }
      ],
      "name": "proposalDeadline",
      "outputs": [
        {
          "internalType": "uint256",
          "name": "",
          "type": "uint256"
        }
      ],
      "stateMutability": "view",
      "type": "function"
    },
    {
      "inputs": [
        {
          "internalType": "uint256",
          "name": "proposalId",
          "type": "uint256"
        }
      ],
      "name": "proposalSnapshot",
      "outputs": [
        {
          "internalType": "uint256",
          "name": "",
          "type": "uint256"
        }
      ],
      "stateMutability": "view",
      "type": "function"
    },
    {
      "inputs": [
        {
          "internalType": "uint256",
          "name": "proposalId",
          "type": "uint256"
        }
      ],
      "name": "proposals",
      "outputs": [
        {
          "internalType": "uint256",
          "name": "id",
          "type": "uint256"
        },
        {
          "internalType": "address",
          "name": "proposer",
          "type": "address"
        },
        {
          "internalType": "uint256",
          "name": "eta",
          "type": "uint256"
        },
        {
          "internalType": "uint256",
          "name": "startBlock",
          "type": "uint256"
        },
        {
          "internalType": "uint256",
          "name": "endBlock",
          "type": "uint256"
        },
        {
          "internalType": "uint256",
          "name": "forVotes",
          "type": "uint256"
        },
        {
          "internalType": "uint256",
          "name": "againstVotes",
          "type": "uint256"
        },
        {
          "internalType": "uint256",
          "name": "abstainVotes",
          "type": "uint256"
        },
        {
          "internalType": "bool",
          "name": "canceled",
          "type": "bool"
        },
        {
          "internalType": "bool",
          "name": "executed",
          "type": "bool"
        }
      ],
      "stateMutability": "view",
      "type": "function"
    },
    {
      "inputs": [],
      "name": "quorumVotes",
      "outputs": [
        {
          "internalType": "uint256",
          "name": "",
          "type": "uint256"
        }
      ],
      "stateMutability": "view",
      "type": "function"
    },
    {
      "inputs": [],
      "name": "timelock",
      "outputs": [
        {
          "internalType": "address",
          "name": "",
          "type": "address"
        }
      ],
      "stateMutability": "view",
      "type": "function"
    },
    {
      "inputs": [],
      "name": "token",
      "outputs": [
        {
          "internalType": "contract ERC20VotesComp",
          "name": "",
          "type": "address"
        }
      ],
      "stateMutability": "view",
      "type": "function"
    },
    {
      "inputs": [
        {
          "internalType": "contract ICompoundTimelock",
          "name": "newTimelock",
          "type": "address"
        }
      ],
      "name": "updateTimelock",
      "outputs": [],
      "stateMutability": "nonpayable",
      "type": "function"
    },
    {
      "inputs": [],
      "name": "version",
      "outputs": [
        {
          "internalType": "string",
          "name": "",
          "type": "string"
        }
      ],
      "stateMutability": "view",
      "type": "function"
    },
    {
      "stateMutability": "payable",
      "type": "receive"
    },
    {
      "inputs": [
        {
          "internalType": "bytes4",
          "name": "interfaceId",
          "type": "bytes4"
        }
      ],
      "name": "supportsInterface",
      "outputs": [
        {
          "internalType": "bool",
          "name": "",
          "type": "bool"
        }
      ],
      "stateMutability": "view",
      "type": "function"
    },
    {
      "inputs": [],
      "name": "votingDelay",
      "outputs": [
        {
          "internalType": "uint256",
          "name": "",
          "type": "uint256"
        }
      ],
      "stateMutability": "view",
      "type": "function"
    },
    {
      "inputs": [],
      "name": "votingPeriod",
      "outputs": [
        {
          "internalType": "uint256",
          "name": "",
          "type": "uint256"
        }
      ],
      "stateMutability": "view",
      "type": "function"
    },
    {
      "inputs": [],
      "name": "proposalThreshold",
      "outputs": [
        {
          "internalType": "uint256",
          "name": "",
          "type": "uint256"
        }
      ],
      "stateMutability": "view",
      "type": "function"
    },
    {
      "inputs": [
        {
          "internalType": "uint256",
          "name": "",
          "type": "uint256"
        }
      ],
      "name": "quorum",
      "outputs": [
        {
          "internalType": "uint256",
          "name": "",
          "type": "uint256"
        }
      ],
      "stateMutability": "pure",
      "type": "function"
    },
    {
      "inputs": [
        {
          "internalType": "uint256",
          "name": "proposalId",
          "type": "uint256"
        }
      ],
      "name": "state",
      "outputs": [
        {
          "internalType": "enum IGovernor.ProposalState",
          "name": "",
          "type": "uint8"
        }
      ],
      "stateMutability": "view",
      "type": "function"
    },
    {
      "inputs": [
        {
          "internalType": "uint256",
          "name": "proposalId",
          "type": "uint256"
        }
      ],
      "name": "proposalEta",
      "outputs": [
        {
          "internalType": "uint256",
          "name": "",
          "type": "uint256"
        }
      ],
      "stateMutability": "view",
      "type": "function"
    },
    {
      "inputs": [
        {
          "internalType": "address[]",
          "name": "targets",
          "type": "address[]"
        },
        {
          "internalType": "uint256[]",
          "name": "values",
          "type": "uint256[]"
        },
        {
          "internalType": "bytes[]",
          "name": "calldatas",
          "type": "bytes[]"
        },
        {
          "internalType": "string",
          "name": "description",
          "type": "string"
        }
      ],
      "name": "propose",
      "outputs": [
        {
          "internalType": "uint256",
          "name": "",
          "type": "uint256"
        }
      ],
      "stateMutability": "nonpayable",
      "type": "function"
    },
    {
      "inputs": [
        {
          "internalType": "address[]",
          "name": "targets",
          "type": "address[]"
        },
        {
          "internalType": "uint256[]",
          "name": "values",
          "type": "uint256[]"
        },
        {
          "internalType": "string[]",
          "name": "signatures",
          "type": "string[]"
        },
        {
          "internalType": "bytes[]",
          "name": "calldatas",
          "type": "bytes[]"
        },
        {
          "internalType": "string",
          "name": "description",
          "type": "string"
        }
      ],
      "name": "propose",
      "outputs": [
        {
          "internalType": "uint256",
          "name": "",
          "type": "uint256"
        }
      ],
      "stateMutability": "nonpayable",
      "type": "function"
    },
    {
      "inputs": [
        {
          "internalType": "address[]",
          "name": "targets",
          "type": "address[]"
        },
        {
          "internalType": "uint256[]",
          "name": "values",
          "type": "uint256[]"
        },
        {
          "internalType": "bytes[]",
          "name": "calldatas",
          "type": "bytes[]"
        },
        {
          "internalType": "bytes32",
          "name": "salt",
          "type": "bytes32"
        }
      ],
      "name": "queue",
      "outputs": [
        {
          "internalType": "uint256",
          "name": "",
          "type": "uint256"
        }
      ],
      "stateMutability": "nonpayable",
      "type": "function"
    },
    {
      "inputs": [
        {
          "internalType": "uint256",
          "name": "proposalId",
          "type": "uint256"
        }
      ],
      "name": "queue",
      "outputs": [],
      "stateMutability": "nonpayable",
      "type": "function"
    },
    {
      "inputs": [
        {
          "internalType": "address[]",
          "name": "targets",
          "type": "address[]"
        },
        {
          "internalType": "uint256[]",
          "name": "values",
          "type": "uint256[]"
        },
        {
          "internalType": "bytes[]",
          "name": "calldatas",
          "type": "bytes[]"
        },
        {
          "internalType": "bytes32",
          "name": "salt",
          "type": "bytes32"
        }
      ],
      "name": "execute",
      "outputs": [
        {
          "internalType": "uint256",
          "name": "",
          "type": "uint256"
        }
      ],
      "stateMutability": "payable",
      "type": "function"
    },
    {
      "inputs": [
        {
          "internalType": "uint256",
          "name": "proposalId",
          "type": "uint256"
        }
      ],
      "name": "execute",
      "outputs": [],
      "stateMutability": "payable",
      "type": "function"
    },
    {
      "inputs": [
        {
          "internalType": "uint256",
          "name": "proposalId",
          "type": "uint256"
        }
      ],
      "name": "cancel",
      "outputs": [],
      "stateMutability": "nonpayable",
      "type": "function"
    },
    {
      "inputs": [
        {
          "internalType": "address[]",
          "name": "targets",
          "type": "address[]"
        },
        {
          "internalType": "uint256[]",
          "name": "values",
          "type": "uint256[]"
        },
        {
          "internalType": "bytes[]",
          "name": "calldatas",
          "type": "bytes[]"
        },
        {
          "internalType": "bytes32",
          "name": "salt",
          "type": "bytes32"
        }
      ],
      "name": "cancel",
      "outputs": [
        {
          "internalType": "uint256",
          "name": "proposalId",
          "type": "uint256"
        }
      ],
      "stateMutability": "nonpayable",
      "type": "function"
    },
    {
      "inputs": [
        {
          "internalType": "address",
          "name": "account",
          "type": "address"
        },
        {
          "internalType": "uint256",
          "name": "blockNumber",
          "type": "uint256"
        }
      ],
      "name": "getVotes",
      "outputs": [
        {
          "internalType": "uint256",
          "name": "",
          "type": "uint256"
        }
      ],
      "stateMutability": "view",
      "type": "function"
    }
  ],
  "bytecode": "0x6101a06040523480156200001257600080fd5b5060405162007a3638038062007a368339818101604052810190620000389190620003d6565b848187806200004c6200015560201b60201c565b60008280519060200120905060008280519060200120905060007f8b73c3c69bb8fe3d512ecc4cf759cc79239f7b179b0ffacaa9a75d522b39400f90508260c081815250508160e081815250504660a08181525050620000b48184846200019260201b60201c565b6080818152505080610100818152505050505050508060009080519060200190620000e19291906200026f565b5050620000f481620001ce60201b60201c565b508073ffffffffffffffffffffffffffffffffffffffff166101208173ffffffffffffffffffffffffffffffffffffffff1660601b815250505083610140818152505082610160818152505081610180818152505050505050505062000784565b60606040518060400160405280600181526020017f3100000000000000000000000000000000000000000000000000000000000000815250905090565b60008383834630604051602001620001af959493929190620004e5565b6040516020818303038152906040528051906020012090509392505050565b7f08f74ea46ef7894f65eabfb5e6e695de773a000b47c529ab559178069b226401600360009054906101000a900473ffffffffffffffffffffffffffffffffffffffff168260405162000223929190620004b8565b60405180910390a180600360006101000a81548173ffffffffffffffffffffffffffffffffffffffff021916908373ffffffffffffffffffffffffffffffffffffffff16021790555050565b8280546200027d906200065b565b90600052602060002090601f016020900481019282620002a15760008555620002ed565b82601f10620002bc57805160ff1916838001178555620002ed565b82800160010185558215620002ed579182015b82811115620002ec578251825591602001919060010190620002cf565b5b509050620002fc919062000300565b5090565b5b808211156200031b57600081600090555060010162000301565b5090565b60006200033662000330846200056b565b62000542565b9050828152602081018484840111156200034f57600080fd5b6200035c84828562000625565b509392505050565b600081519050620003758162000736565b92915050565b6000815190506200038c8162000750565b92915050565b600082601f830112620003a457600080fd5b8151620003b68482602086016200031f565b91505092915050565b600081519050620003d0816200076a565b92915050565b60008060008060008060c08789031215620003f057600080fd5b600087015167ffffffffffffffff8111156200040b57600080fd5b6200041989828a0162000392565b96505060206200042c89828a0162000364565b95505060406200043f89828a01620003bf565b94505060606200045289828a01620003bf565b93505060806200046589828a01620003bf565b92505060a06200047889828a016200037b565b9150509295509295509295565b6200049081620005a1565b82525050565b620004a181620005c9565b82525050565b620004b2816200061b565b82525050565b6000604082019050620004cf600083018562000485565b620004de602083018462000485565b9392505050565b600060a082019050620004fc600083018862000496565b6200050b602083018762000496565b6200051a604083018662000496565b620005296060830185620004a7565b62000538608083018462000485565b9695505050505050565b60006200054e62000561565b90506200055c828262000691565b919050565b6000604051905090565b600067ffffffffffffffff821115620005895762000588620006f6565b5b620005948262000725565b9050602081019050919050565b6000620005ae82620005fb565b9050919050565b6000620005c282620005fb565b9050919050565b6000819050919050565b6000620005e082620005a1565b9050919050565b6000620005f482620005b5565b9050919050565b600073ffffffffffffffffffffffffffffffffffffffff82169050919050565b6000819050919050565b60005b838110156200064557808201518184015260208101905062000628565b8381111562000655576000848401525b50505050565b600060028204905060018216806200067457607f821691505b602082108114156200068b576200068a620006c7565b5b50919050565b6200069c8262000725565b810181811067ffffffffffffffff82111715620006be57620006bd620006f6565b5b80604052505050565b7f4e487b7100000000000000000000000000000000000000000000000000000000600052602260045260246000fd5b7f4e487b7100000000000000000000000000000000000000000000000000000000600052604160045260246000fd5b6000601f19601f8301169050919050565b6200074181620005d3565b81146200074d57600080fd5b50565b6200075b81620005e7565b81146200076757600080fd5b50565b62000775816200061b565b81146200078157600080fd5b50565b60805160a05160c05160e051610100516101205160601c610140516101605161018051617237620007ff60003960006115bf01526000610b2401526000610f55015260008181611b890152612ee7015260006131110152600061315301526000613132015260006130be015260006130e601526172376000f3fe6080604052600436106102085760003560e01c80637b3c71d311610118578063da95691a116100a0578063e23a9a521161006f578063e23a9a5214610874578063eb9019d4146108b1578063f8ce560a146108ee578063fc0c546a1461092b578063fe0d94c1146109565761024e565b8063da95691a146107b8578063dd4e2ba5146107f5578063ddf0b00914610820578063deaaa7cc146108495761024e565b8063b58131b0116100e7578063b58131b0146106d1578063b9a61961146106fc578063c01f9e3714610713578063c59057e414610750578063d33219b41461078d5761024e565b80637b3c71d3146105f15780637d5e81e21461062e578063a890c9101461066b578063ab58fb8e146106945761024e565b8063328dd9821161019b57806340e58ee51161016a57806340e58ee5146104e6578063438596321461050f578063452115d61461054c57806354fd4d501461058957806356781388146105b45761024e565b8063328dd982146104015780633932abb1146104415780633bccf4fd1461046c5780633e4f49e6146104a95761024e565b8063160cbed7116101d7578063160cbed71461032c57806324bc1a64146103695780632656227d146103945780632d63f693146103c45761024e565b8063013cf08b1461025357806301ffc9a71461029957806302a251a3146102d657806306fdde03146103015761024e565b3661024e573073ffffffffffffffffffffffffffffffffffffffff1661022c610972565b73ffffffffffffffffffffffffffffffffffffffff161461024c57600080fd5b005b600080fd5b34801561025f57600080fd5b5061027a6004803603810190610275919061531f565b610981565b6040516102909a9998979695949392919061639e565b60405180910390f35b3480156102a557600080fd5b506102c060048036038101906102bb919061528c565b610b0e565b6040516102cd9190615e79565b60405180910390f35b3480156102e257600080fd5b506102eb610b20565b6040516102f891906162d3565b60405180910390f35b34801561030d57600080fd5b50610316610b48565b6040516103239190615fd6565b60405180910390f35b34801561033857600080fd5b50610353600480360381019061034e9190614fdd565b610bda565b60405161036091906162d3565b60405180910390f35b34801561037557600080fd5b5061037e610bf2565b60405161038b91906162d3565b60405180910390f35b6103ae60048036038101906103a99190614fdd565b610c0e565b6040516103bb91906162d3565b60405180910390f35b3480156103d057600080fd5b506103eb60048036038101906103e6919061531f565b610c26565b6040516103f891906162d3565b60405180910390f35b34801561040d57600080fd5b506104286004803603810190610423919061531f565b610c94565b6040516104389493929190615e18565b60405180910390f35b34801561044d57600080fd5b50610456610f51565b60405161046391906162d3565b60405180910390f35b34801561047857600080fd5b50610493600480360381019061048e9190615455565b610f79565b6040516104a091906162d3565b60405180910390f35b3480156104b557600080fd5b506104d060048036038101906104cb919061531f565b611003565b6040516104dd9190615fbb565b60405180910390f35b3480156104f257600080fd5b5061050d6004803603810190610508919061531f565b611015565b005b34801561051b57600080fd5b5061053660048036038101906105319190615371565b6113ad565b6040516105439190615e79565b60405180910390f35b34801561055857600080fd5b50610573600480360381019061056e9190614fdd565b61141b565b60405161058091906162d3565b60405180910390f35b34801561059557600080fd5b5061059e611433565b6040516105ab9190615fd6565b60405180910390f35b3480156105c057600080fd5b506105db60048036038101906105d691906153ad565b611470565b6040516105e891906162d3565b60405180910390f35b3480156105fd57600080fd5b50610618600480360381019061061391906153e9565b6114a1565b60405161062591906162d3565b60405180910390f35b34801561063a57600080fd5b5061065560048036038101906106509190615088565b611509565b60405161066291906162d3565b60405180910390f35b34801561067757600080fd5b50610692600480360381019061068d91906152f6565b611521565b005b3480156106a057600080fd5b506106bb60048036038101906106b6919061531f565b6115a9565b6040516106c891906162d3565b60405180910390f35b3480156106dd57600080fd5b506106e66115bb565b6040516106f391906162d3565b60405180910390f35b34801561070857600080fd5b506107116115e3565b005b34801561071f57600080fd5b5061073a6004803603810190610735919061531f565b611667565b60405161074791906162d3565b60405180910390f35b34801561075c57600080fd5b5061077760048036038101906107729190614fdd565b6116d5565b60405161078491906162d3565b60405180910390f35b34801561079957600080fd5b506107a2611711565b6040516107af9190615cf2565b60405180910390f35b3480156107c457600080fd5b506107df60048036038101906107da919061514b565b61173b565b6040516107ec91906162d3565b60405180910390f35b34801561080157600080fd5b5061080a611772565b6040516108179190615fd6565b60405180910390f35b34801561082c57600080fd5b506108476004803603810190610842919061531f565b6117af565b005b34801561085557600080fd5b5061085e611a64565b60405161086b9190615e94565b60405180910390f35b34801561088057600080fd5b5061089b60048036038101906108969190615371565b611a88565b6040516108a891906162b8565b60405180910390f35b3480156108bd57600080fd5b506108d860048036038101906108d39190614fa1565b611b6c565b6040516108e591906162d3565b60405180910390f35b3480156108fa57600080fd5b506109156004803603810190610910919061531f565b611b80565b60405161092291906162d3565b60405180910390f35b34801561093757600080fd5b50610940611b87565b60405161094d9190615fa0565b60405180910390f35b610970600480360381019061096b919061531f565b611bab565b005b600061097c611e60565b905090565b6000806000806000806000806000808a995061099c8b6115a9565b97506109a78b610c26565b96506109b28b611667565b95506000600260008d815260200190815260200160002090508060000160009054906101000a900473ffffffffffffffffffffffffffffffffffffffff1699508060050154955080600601549450806007015493506000610a128d611003565b905060026007811115610a4e577f4e487b7100000000000000000000000000000000000000000000000000000000600052602160045260246000fd5b816007811115610a87577f4e487b7100000000000000000000000000000000000000000000000000000000600052602160045260246000fd5b149350600780811115610ac3577f4e487b7100000000000000000000000000000000000000000000000000000000600052602160045260246000fd5b816007811115610afc577f4e487b7100000000000000000000000000000000000000000000000000000000600052602160045260246000fd5b14925050509193959799509193959799565b6000610b1982611e8a565b9050919050565b60007f0000000000000000000000000000000000000000000000000000000000000000905090565b606060008054610b579061697a565b80601f0160208091040260200160405190810160405280929190818152602001828054610b839061697a565b8015610bd05780601f10610ba557610100808354040283529160200191610bd0565b820191906000526020600020905b815481529060010190602001808311610bb357829003601f168201915b5050505050905090565b6000610be885858585611f04565b9050949350505050565b6000610c09600143610c0491906167ce565b611b80565b905090565b6000610c1c8585858561245e565b9050949350505050565b6000610c83600160008481526020019081526020016000206000016040518060200160405290816000820160009054906101000a900467ffffffffffffffff1667ffffffffffffffff1667ffffffffffffffff1681525050612629565b67ffffffffffffffff169050919050565b60608060608060006002600087815260200190815260200160002090508060010181600201826003018360040183805480602002602001604051908101604052809291908181526020018280548015610d4257602002820191906000526020600020905b8160009054906101000a900473ffffffffffffffffffffffffffffffffffffffff1673ffffffffffffffffffffffffffffffffffffffff1681526020019060010190808311610cf8575b5050505050935082805480602002602001604051908101604052809291908181526020018280548015610d9457602002820191906000526020600020905b815481526020019060010190808311610d80575b5050505050925081805480602002602001604051908101604052809291908181526020016000905b82821015610e68578382906000526020600020018054610ddb9061697a565b80601f0160208091040260200160405190810160405280929190818152602001828054610e079061697a565b8015610e545780601f10610e2957610100808354040283529160200191610e54565b820191906000526020600020905b815481529060010190602001808311610e3757829003601f168201915b505050505081526020019060010190610dbc565b50505050915080805480602002602001604051908101604052809291908181526020016000905b82821015610f3b578382906000526020600020018054610eae9061697a565b80601f0160208091040260200160405190810160405280929190818152602001828054610eda9061697a565b8015610f275780601f10610efc57610100808354040283529160200191610f27565b820191906000526020600020905b815481529060010190602001808311610f0a57829003601f168201915b505050505081526020019060010190610e8f565b5050505090509450945094509450509193509193565b60007f0000000000000000000000000000000000000000000000000000000000000000905090565b600080610fda610fd27f150214d74d59b7d1e90c73fc22ef3d991dd0a76b046543d4d80ab92d2a50328f8989604051602001610fb793929190615f02565b60405160208183030381529060405280519060200120612637565b868686612651565b9050610ff78782886040518060200160405280600081525061267c565b91505095945050505050565b600061100e8261281c565b9050919050565b60006002600083815260200190815260200160002090508060000160009054906101000a900473ffffffffffffffffffffffffffffffffffffffff1673ffffffffffffffffffffffffffffffffffffffff1661106f612993565b73ffffffffffffffffffffffffffffffffffffffff1614806110d057506110946115bb565b6110ce8260000160009054906101000a900473ffffffffffffffffffffffffffffffffffffffff166001436110c991906167ce565b611b6c565b105b61110f576040517f08c379a000000000000000000000000000000000000000000000000000000000815260040161110690616278565b60405180910390fd5b6113a88160010180548060200260200160405190810160405280929190818152602001828054801561119657602002820191906000526020600020905b8160009054906101000a900473ffffffffffffffffffffffffffffffffffffffff1673ffffffffffffffffffffffffffffffffffffffff168152602001906001019080831161114c575b5050505050826002018054806020026020016040519081016040528092919081815260200182805480156111e957602002820191906000526020600020905b8154815260200190600101908083116111d5575b505050505061139e84600301805480602002602001604051908101604052809291908181526020016000905b828210156112c15783829060005260206000200180546112349061697a565b80601f01602080910402602001604051908101604052809291908181526020018280546112609061697a565b80156112ad5780601f10611282576101008083540402835291602001916112ad565b820191906000526020600020905b81548152906001019060200180831161129057829003601f168201915b505050505081526020019060010190611215565b5050505085600401805480602002602001604051908101604052809291908181526020016000905b828210156113955783829060005260206000200180546113089061697a565b80601f01602080910402602001604051908101604052809291908181526020018280546113349061697a565b80156113815780601f1061135657610100808354040283529160200191611381565b820191906000526020600020905b81548152906001019060200180831161136457829003601f168201915b5050505050815260200190600101906112e9565b5050505061299b565b8460090154612c16565b505050565b60006002600084815260200190815260200160002060080160008373ffffffffffffffffffffffffffffffffffffffff1673ffffffffffffffffffffffffffffffffffffffff16815260200190815260200160002060000160009054906101000a900460ff16905092915050565b600061142985858585612c16565b9050949350505050565b60606040518060400160405280600181526020017f3100000000000000000000000000000000000000000000000000000000000000815250905090565b60008061147b612993565b90506114988482856040518060200160405280600081525061267c565b91505092915050565b6000806114ac612993565b90506114fe86828787878080601f016020809104026020016040519081016040528093929190818152602001838380828437600081840152601f19601f8201169050808301925050505050505061267c565b915050949350505050565b600061151785858585612c2e565b9050949350505050565b611529610972565b73ffffffffffffffffffffffffffffffffffffffff16611547612993565b73ffffffffffffffffffffffffffffffffffffffff161461159d576040517f08c379a000000000000000000000000000000000000000000000000000000000815260040161159490616018565b60405180910390fd5b6115a681612ccf565b50565b60006115b482612d6e565b9050919050565b60007f0000000000000000000000000000000000000000000000000000000000000000905090565b600360009054906101000a900473ffffffffffffffffffffffffffffffffffffffff1673ffffffffffffffffffffffffffffffffffffffff16630e18b6816040518163ffffffff1660e01b8152600401600060405180830381600087803b15801561164d57600080fd5b505af1158015611661573d6000803e3d6000fd5b50505050565b60006116c4600160008481526020019081526020016000206001016040518060200160405290816000820160009054906101000a900467ffffffffffffffff1667ffffffffffffffff1667ffffffffffffffff1681525050612629565b67ffffffffffffffff169050919050565b6000848484846040516020016116ee9493929190615dbe565b6040516020818303038152906040528051906020012060001c9050949350505050565b6000600360009054906101000a900473ffffffffffffffffffffffffffffffffffffffff16905090565b6000611752611748612993565b8787878787612ddc565b6117678686611761878761299b565b85611509565b905095945050505050565b60606040518060400160405280601a81526020017f737570706f72743d627261766f2671756f72756d3d627261766f000000000000815250905090565b6000600260008381526020019081526020016000209050611a5f8160010180548060200260200160405190810160405280929190818152602001828054801561184d57602002820191906000526020600020905b8160009054906101000a900473ffffffffffffffffffffffffffffffffffffffff1673ffffffffffffffffffffffffffffffffffffffff1681526020019060010190808311611803575b5050505050826002018054806020026020016040519081016040528092919081815260200182805480156118a057602002820191906000526020600020905b81548152602001906001019080831161188c575b5050505050611a5584600301805480602002602001604051908101604052809291908181526020016000905b828210156119785783829060005260206000200180546118eb9061697a565b80601f01602080910402602001604051908101604052809291908181526020018280546119179061697a565b80156119645780601f1061193957610100808354040283529160200191611964565b820191906000526020600020905b81548152906001019060200180831161194757829003601f168201915b5050505050815260200190600101906118cc565b5050505085600401805480602002602001604051908101604052809291908181526020016000905b82821015611a4c5783829060005260206000200180546119bf9061697a565b80601f01602080910402602001604051908101604052809291908181526020018280546119eb9061697a565b8015611a385780601f10611a0d57610100808354040283529160200191611a38565b820191906000526020600020905b815481529060010190602001808311611a1b57829003601f168201915b5050505050815260200190600101906119a0565b5050505061299b565b8460090154610bda565b505050565b7f150214d74d59b7d1e90c73fc22ef3d991dd0a76b046543d4d80ab92d2a50328f81565b611a90614705565b6002600084815260200190815260200160002060080160008373ffffffffffffffffffffffffffffffffffffffff1673ffffffffffffffffffffffffffffffffffffffff1681526020019081526020016000206040518060600160405290816000820160009054906101000a900460ff161515151581526020016000820160019054906101000a900460ff1660ff1660ff1681526020016000820160029054906101000a90046bffffffffffffffffffffffff166bffffffffffffffffffffffff166bffffffffffffffffffffffff1681525050905092915050565b6000611b788383612ee3565b905092915050565b6000919050565b7f000000000000000000000000000000000000000000000000000000000000000081565b6000600260008381526020019081526020016000209050611e5b81600101805480602002602001604051908101604052809291908181526020018280548015611c4957602002820191906000526020600020905b8160009054906101000a900473ffffffffffffffffffffffffffffffffffffffff1673ffffffffffffffffffffffffffffffffffffffff1681526020019060010190808311611bff575b505050505082600201805480602002602001604051908101604052809291908181526020018280548015611c9c57602002820191906000526020600020905b815481526020019060010190808311611c88575b5050505050611e5184600301805480602002602001604051908101604052809291908181526020016000905b82821015611d74578382906000526020600020018054611ce79061697a565b80601f0160208091040260200160405190810160405280929190818152602001828054611d139061697a565b8015611d605780601f10611d3557610100808354040283529160200191611d60565b820191906000526020600020905b815481529060010190602001808311611d4357829003601f168201915b505050505081526020019060010190611cc8565b5050505085600401805480602002602001604051908101604052809291908181526020016000905b82821015611e48578382906000526020600020018054611dbb9061697a565b80601f0160208091040260200160405190810160405280929190818152602001828054611de79061697a565b8015611e345780601f10611e0957610100808354040283529160200191611e34565b820191906000526020600020905b815481529060010190602001808311611e1757829003601f168201915b505050505081526020019060010190611d9c565b5050505061299b565b8460090154610c0e565b505050565b6000600360009054906101000a900473ffffffffffffffffffffffffffffffffffffffff16905090565b60007f6e665ced000000000000000000000000000000000000000000000000000000007bffffffffffffffffffffffffffffffffffffffffffffffffffffffff1916827bffffffffffffffffffffffffffffffffffffffffffffffffffffffff19161480611efd5750611efc82612fa6565b5b9050919050565b600080611f13868686866116d5565b905060046007811115611f4f577f4e487b7100000000000000000000000000000000000000000000000000000000600052602160045260246000fd5b611f5882611003565b6007811115611f90577f4e487b7100000000000000000000000000000000000000000000000000000000600052602160045260246000fd5b14611fd0576040517f08c379a0000000000000000000000000000000000000000000000000000000008152600401611fc7906161d8565b60405180910390fd5b6000600360009054906101000a900473ffffffffffffffffffffffffffffffffffffffff1673ffffffffffffffffffffffffffffffffffffffff16636a42b8f86040518163ffffffff1660e01b815260040160206040518083038186803b15801561203a57600080fd5b505afa15801561204e573d6000803e3d6000fd5b505050506040513d601f19601f820116820180604052508101906120729190615348565b4261207d919061673a565b90506120af61208b82613020565b6004600085815260200190815260200160002060000161307790919063ffffffff16565b60005b875181101561241757600360009054906101000a900473ffffffffffffffffffffffffffffffffffffffff1673ffffffffffffffffffffffffffffffffffffffff1663f2b06537898381518110612132577f4e487b7100000000000000000000000000000000000000000000000000000000600052603260045260246000fd5b6020026020010151898481518110612173577f4e487b7100000000000000000000000000000000000000000000000000000000600052603260045260246000fd5b60200260200101518985815181106121b4577f4e487b7100000000000000000000000000000000000000000000000000000000600052603260045260246000fd5b6020026020010151866040516020016121d09493929190615d5f565b604051602081830303815290604052805190602001206040518263ffffffff1660e01b81526004016122029190615e94565b60206040518083038186803b15801561221a57600080fd5b505afa15801561222e573d6000803e3d6000fd5b505050506040513d601f19601f82011682018060405250810190612252919061523a565b15612292576040517f08c379a0000000000000000000000000000000000000000000000000000000008152600401612289906160b8565b60405180910390fd5b600360009054906101000a900473ffffffffffffffffffffffffffffffffffffffff1673ffffffffffffffffffffffffffffffffffffffff16633a66f901898381518110612309577f4e487b7100000000000000000000000000000000000000000000000000000000600052603260045260246000fd5b602002602001015189848151811061234a577f4e487b7100000000000000000000000000000000000000000000000000000000600052603260045260246000fd5b602002602001015189858151811061238b577f4e487b7100000000000000000000000000000000000000000000000000000000600052603260045260246000fd5b6020026020010151866040518563ffffffff1660e01b81526004016123b39493929190615d5f565b602060405180830381600087803b1580156123cd57600080fd5b505af11580156123e1573d6000803e3d6000fd5b505050506040513d601f19601f820116820180604052508101906124059190615263565b5080612410906169dd565b90506120b2565b507f9a2e42fd6722813d69113e7d0079d3d940171428df7373df9c7f7617cfda2892828260405161244992919061643a565b60405180910390a18192505050949350505050565b60008061246d868686866116d5565b9050600061247a82611003565b9050600460078111156124b6577f4e487b7100000000000000000000000000000000000000000000000000000000600052602160045260246000fd5b8160078111156124ef577f4e487b7100000000000000000000000000000000000000000000000000000000600052602160045260246000fd5b148061256b575060056007811115612530577f4e487b7100000000000000000000000000000000000000000000000000000000600052602160045260246000fd5b816007811115612569577f4e487b7100000000000000000000000000000000000000000000000000000000600052602160045260246000fd5b145b6125aa576040517f08c379a00000000000000000000000000000000000000000000000000000000081526004016125a1906161d8565b60405180910390fd5b600180600084815260200190815260200160002060020160006101000a81548160ff0219169083151502179055507f712ae1383f79ac853f8d882153778e0260ef8f03b504e2866e0593e04d2b291f8260405161260791906162d3565b60405180910390a161261c82888888886130a6565b8192505050949350505050565b600081600001519050919050565b600061264a6126446130ba565b8361317d565b9050919050565b6000806000612662878787876131b0565b9150915061266f816132bd565b8192505050949350505050565b600080600160008781526020019081526020016000209050600160078111156126ce577f4e487b7100000000000000000000000000000000000000000000000000000000600052602160045260246000fd5b6126d787611003565b600781111561270f577f4e487b7100000000000000000000000000000000000000000000000000000000600052602160045260246000fd5b1461274f576040517f08c379a000000000000000000000000000000000000000000000000000000000815260040161274690616138565b60405180910390fd5b60006127ad8661279e846000016040518060200160405290816000820160009054906101000a900467ffffffffffffffff1667ffffffffffffffff1667ffffffffffffffff1681525050612629565b67ffffffffffffffff16611b6c565b90506127bb8787878461360e565b8573ffffffffffffffffffffffffffffffffffffffff167fb8e138887d0aa13bab447e82de9d5c1777041ecd21ca36ba824ff1e6c07ddda4888784886040516128079493929190616463565b60405180910390a28092505050949350505050565b600080612828836138aa565b905060046007811115612864577f4e487b7100000000000000000000000000000000000000000000000000000000600052602160045260246000fd5b81600781111561289d577f4e487b7100000000000000000000000000000000000000000000000000000000600052602160045260246000fd5b146128ab578091505061298e565b60006128b6846115a9565b905060008114156128cb57819250505061298e565b600360009054906101000a900473ffffffffffffffffffffffffffffffffffffffff1673ffffffffffffffffffffffffffffffffffffffff1663c1a287e26040518163ffffffff1660e01b815260040160206040518083038186803b15801561293357600080fd5b505afa158015612947573d6000803e3d6000fd5b505050506040513d601f19601f8201168201806040525081019061296b9190615348565b81612976919061673a565b42106129875760069250505061298e565b6005925050505b919050565b600033905090565b60606000825167ffffffffffffffff8111156129e0577f4e487b7100000000000000000000000000000000000000000000000000000000600052604160045260246000fd5b604051908082528060200260200182016040528015612a1357816020015b60608152602001906001900390816129fe5790505b50905060005b8451811015612c0b576000858281518110612a5d577f4e487b7100000000000000000000000000000000000000000000000000000000600052603260045260246000fd5b60200260200101515114612b7457848181518110612aa4577f4e487b7100000000000000000000000000000000000000000000000000000000600052603260045260246000fd5b6020026020010151848281518110612ae5577f4e487b7100000000000000000000000000000000000000000000000000000000600052603260045260246000fd5b6020026020010151604051602401612afd9190615f7e565b60405160208183030381529060405290604051612b1a9190615c8f565b60405180910390207bffffffffffffffffffffffffffffffffffffffffffffffffffffffff19166020820180517bffffffffffffffffffffffffffffffffffffffffffffffffffffffff8381831617835250505050612bb6565b838181518110612bad577f4e487b7100000000000000000000000000000000000000000000000000000000600052603260045260246000fd5b60200260200101515b828281518110612bef577f4e487b7100000000000000000000000000000000000000000000000000000000600052603260045260246000fd5b602002602001018190525080612c04906169dd565b9050612a19565b508091505092915050565b6000612c2485858585613a71565b9050949350505050565b6000612cb9612c3b612993565b8686865167ffffffffffffffff811115612c7e577f4e487b7100000000000000000000000000000000000000000000000000000000600052604160045260246000fd5b604051908082528060200260200182016040528015612cb157816020015b6060815260200190600190039081612c9c5790505b508787612ddc565b612cc585858585613c35565b9050949350505050565b7f08f74ea46ef7894f65eabfb5e6e695de773a000b47c529ab559178069b226401600360009054906101000a900473ffffffffffffffffffffffffffffffffffffffff1682604051612d22929190615d0d565b60405180910390a180600360006101000a81548173ffffffffffffffffffffffffffffffffffffffff021916908373ffffffffffffffffffffffffffffffffffffffff16021790555050565b6000612dcb600460008481526020019081526020016000206000016040518060200160405290816000820160009054906101000a900467ffffffffffffffff1667ffffffffffffffff1667ffffffffffffffff1681525050613cac565b67ffffffffffffffff169050919050565b6000818051906020012090506000612dff8787612df9888861299b565b856116d5565b905060006002600083815260200190815260200160002090506000801b81600901541415612ed857888160000160006101000a81548173ffffffffffffffffffffffffffffffffffffffff021916908373ffffffffffffffffffffffffffffffffffffffff16021790555087816001019080519060200190612e82929190614739565b5086816002019080519060200190612e9b9291906147c3565b5085816003019080519060200190612eb4929190614810565b5084816004019080519060200190612ecd929190614870565b508281600901819055505b505050505050505050565b60007f000000000000000000000000000000000000000000000000000000000000000073ffffffffffffffffffffffffffffffffffffffff1663782d6fe184846040518363ffffffff1660e01b8152600401612f40929190615d36565b60206040518083038186803b158015612f5857600080fd5b505afa158015612f6c573d6000803e3d6000fd5b505050506040513d601f19601f82011682018060405250810190612f9091906154cc565b6bffffffffffffffffffffffff16905092915050565b60007fbf26d897000000000000000000000000000000000000000000000000000000007bffffffffffffffffffffffffffffffffffffffffffffffffffffffff1916827bffffffffffffffffffffffffffffffffffffffffffffffffffffffff19161480613019575061301882613cba565b5b9050919050565b600067ffffffffffffffff801682111561306f576040517f08c379a000000000000000000000000000000000000000000000000000000000815260040161306690616198565b60405180910390fd5b819050919050565b808260000160006101000a81548167ffffffffffffffff021916908367ffffffffffffffff1602179055505050565b6130b38585858585613d24565b5050505050565b60007f000000000000000000000000000000000000000000000000000000000000000046141561310c577f0000000000000000000000000000000000000000000000000000000000000000905061317a565b6131777f00000000000000000000000000000000000000000000000000000000000000007f00000000000000000000000000000000000000000000000000000000000000007f0000000000000000000000000000000000000000000000000000000000000000613f3f565b90505b90565b60008282604051602001613192929190615ca6565b60405160208183030381529060405280519060200120905092915050565b6000807f7fffffffffffffffffffffffffffffff5d576e7357a4501ddfe92f46681b20a08360001c11156131eb5760006003915091506132b4565b601b8560ff16141580156132035750601c8560ff1614155b156132155760006004915091506132b4565b60006001878787876040516000815260200160405260405161323a9493929190615f39565b6020604051602081039080840390855afa15801561325c573d6000803e3d6000fd5b505050602060405103519050600073ffffffffffffffffffffffffffffffffffffffff168173ffffffffffffffffffffffffffffffffffffffff1614156132ab576000600192509250506132b4565b80600092509250505b94509492505050565b600060048111156132f7577f4e487b7100000000000000000000000000000000000000000000000000000000600052602160045260246000fd5b816004811115613330577f4e487b7100000000000000000000000000000000000000000000000000000000600052602160045260246000fd5b141561333b5761360b565b60016004811115613375577f4e487b7100000000000000000000000000000000000000000000000000000000600052602160045260246000fd5b8160048111156133ae577f4e487b7100000000000000000000000000000000000000000000000000000000600052602160045260246000fd5b14156133ef576040517f08c379a00000000000000000000000000000000000000000000000000000000081526004016133e690615ff8565b60405180910390fd5b60026004811115613429577f4e487b7100000000000000000000000000000000000000000000000000000000600052602160045260246000fd5b816004811115613462577f4e487b7100000000000000000000000000000000000000000000000000000000600052602160045260246000fd5b14156134a3576040517f08c379a000000000000000000000000000000000000000000000000000000000815260040161349a90616078565b60405180910390fd5b600360048111156134dd577f4e487b7100000000000000000000000000000000000000000000000000000000600052602160045260246000fd5b816004811115613516577f4e487b7100000000000000000000000000000000000000000000000000000000600052602160045260246000fd5b1415613557576040517f08c379a000000000000000000000000000000000000000000000000000000000815260040161354e906160f8565b60405180910390fd5b600480811115613590577f4e487b7100000000000000000000000000000000000000000000000000000000600052602160045260246000fd5b8160048111156135c9577f4e487b7100000000000000000000000000000000000000000000000000000000600052602160045260246000fd5b141561360a576040517f08c379a000000000000000000000000000000000000000000000000000000000815260040161360190616178565b60405180910390fd5b5b50565b600060026000868152602001908152602001600020905060008160080160008673ffffffffffffffffffffffffffffffffffffffff1673ffffffffffffffffffffffffffffffffffffffff16815260200190815260200160002090508060000160009054906101000a900460ff16156136bc576040517f08c379a00000000000000000000000000000000000000000000000000000000081526004016136b390616298565b60405180910390fd5b60018160000160006101000a81548160ff021916908315150217905550838160000160016101000a81548160ff021916908360ff1602179055506136ff83613f79565b8160000160026101000a8154816bffffffffffffffffffffffff02191690836bffffffffffffffffffffffff1602179055506000600281111561376b577f4e487b7100000000000000000000000000000000000000000000000000000000600052602160045260246000fd5b60ff168460ff161415613798578282600601600082825461378c919061673a565b925050819055506138a2565b600160028111156137d2577f4e487b7100000000000000000000000000000000000000000000000000000000600052602160045260246000fd5b60ff168460ff1614156137ff57828260050160008282546137f3919061673a565b925050819055506138a1565b600280811115613838577f4e487b7100000000000000000000000000000000000000000000000000000000600052602160045260246000fd5b60ff168460ff1614156138655782826007016000828254613859919061673a565b925050819055506138a0565b6040517f08c379a000000000000000000000000000000000000000000000000000000000815260040161389790616218565b60405180910390fd5b5b5b505050505050565b60008060016000848152602001908152602001600020604051806080016040529081600082016040518060200160405290816000820160009054906101000a900467ffffffffffffffff1667ffffffffffffffff1667ffffffffffffffff16815250508152602001600182016040518060200160405290816000820160009054906101000a900467ffffffffffffffff1667ffffffffffffffff1667ffffffffffffffff168152505081526020016002820160009054906101000a900460ff161515151581526020016002820160019054906101000a900460ff16151515158152505090508060400151156139a3576007915050613a6c565b8060600151156139b7576002915050613a6c565b6139c48160000151613fd4565b156139d3576000915050613a6c565b6139e08160200151613fd4565b156139ef576001915050613a6c565b6139fc8160200151613fee565b15613a3157613a0a8361401a565b8015613a1b5750613a1a83614051565b5b613a26576003613a29565b60045b915050613a6c565b6040517f08c379a0000000000000000000000000000000000000000000000000000000008152600401613a6390616238565b60405180910390fd5b919050565b600080613a808686868661407c565b90506000613a8d826115a9565b90506000811115613c285760005b8751811015613c0857600360009054906101000a900473ffffffffffffffffffffffffffffffffffffffff1673ffffffffffffffffffffffffffffffffffffffff1663591fcdfe898381518110613b1b577f4e487b7100000000000000000000000000000000000000000000000000000000600052603260045260246000fd5b6020026020010151898481518110613b5c577f4e487b7100000000000000000000000000000000000000000000000000000000600052603260045260246000fd5b6020026020010151898581518110613b9d577f4e487b7100000000000000000000000000000000000000000000000000000000600052603260045260246000fd5b6020026020010151866040518563ffffffff1660e01b8152600401613bc59493929190615d5f565b600060405180830381600087803b158015613bdf57600080fd5b505af1158015613bf3573d6000803e3d6000fd5b5050505080613c01906169dd565b9050613a9b565b50613c27600460008481526020019081526020016000206000016142b9565b5b8192505050949350505050565b6000613c3f6115bb565b613c5533600143613c5091906167ce565b611b6c565b1015613c96576040517f08c379a0000000000000000000000000000000000000000000000000000000008152600401613c8d90616058565b60405180910390fd5b613ca2858585856142e8565b9050949350505050565b600081600001519050919050565b60007f01ffc9a7000000000000000000000000000000000000000000000000000000007bffffffffffffffffffffffffffffffffffffffffffffffffffffffff1916827bffffffffffffffffffffffffffffffffffffffffffffffffffffffff1916149050919050565b6000613d2f866115a9565b905060008111613d74576040517f08c379a0000000000000000000000000000000000000000000000000000000008152600401613d6b906161f8565b60405180910390fd5b613da0600360009054906101000a900473ffffffffffffffffffffffffffffffffffffffff16346145ae565b60005b8551811015613f3657600360009054906101000a900473ffffffffffffffffffffffffffffffffffffffff1673ffffffffffffffffffffffffffffffffffffffff16630825f38f878381518110613e23577f4e487b7100000000000000000000000000000000000000000000000000000000600052603260045260246000fd5b6020026020010151878481518110613e64577f4e487b7100000000000000000000000000000000000000000000000000000000600052603260045260246000fd5b6020026020010151878581518110613ea5577f4e487b7100000000000000000000000000000000000000000000000000000000600052603260045260246000fd5b6020026020010151866040518563ffffffff1660e01b8152600401613ecd9493929190615d5f565b600060405180830381600087803b158015613ee757600080fd5b505af1158015613efb573d6000803e3d6000fd5b505050506040513d6000823e3d601f19601f82011682018060405250810190613f2491906152b5565b5080613f2f906169dd565b9050613da3565b50505050505050565b60008383834630604051602001613f5a959493929190615eaf565b6040516020818303038152906040528051906020012090509392505050565b60006bffffffffffffffffffffffff8016821115613fcc576040517f08c379a0000000000000000000000000000000000000000000000000000000008152600401613fc390616038565b60405180910390fd5b819050919050565b600043826000015167ffffffffffffffff16119050919050565b6000613ff9826146a2565b8015614013575043826000015167ffffffffffffffff1611155b9050919050565b600080600260008481526020019081526020016000209050806005015461404861404385610c26565b611b80565b10915050919050565b6000806002600084815260200190815260200160002090508060060154816005015411915050919050565b60008061408b868686866116d5565b9050600061409882611003565b9050600260078111156140d4577f4e487b7100000000000000000000000000000000000000000000000000000000600052602160045260246000fd5b81600781111561410d577f4e487b7100000000000000000000000000000000000000000000000000000000600052602160045260246000fd5b1415801561418c575060066007811115614150577f4e487b7100000000000000000000000000000000000000000000000000000000600052602160045260246000fd5b816007811115614189577f4e487b7100000000000000000000000000000000000000000000000000000000600052602160045260246000fd5b14155b801561420857506007808111156141cc577f4e487b7100000000000000000000000000000000000000000000000000000000600052602160045260246000fd5b816007811115614205577f4e487b7100000000000000000000000000000000000000000000000000000000600052602160045260246000fd5b14155b614247576040517f08c379a000000000000000000000000000000000000000000000000000000000815260040161423e906161b8565b60405180910390fd5b600180600084815260200190815260200160002060020160016101000a81548160ff0219169083151502179055507f789cf55be980739dad1d0699b93b58e806b51c9d96619bfa8fe0a28abaa7b30c826040516142a491906162d3565b60405180910390a18192505050949350505050565b60008160000160006101000a81548167ffffffffffffffff021916908367ffffffffffffffff16021790555050565b6000806142fe86868686805190602001206116d5565b90508451865114614344576040517f08c379a000000000000000000000000000000000000000000000000000000000815260040161433b90616098565b60405180910390fd5b8351865114614388576040517f08c379a000000000000000000000000000000000000000000000000000000000815260040161437f90616098565b60405180910390fd5b60008651116143cc576040517f08c379a00000000000000000000000000000000000000000000000000000000081526004016143c390616158565b60405180910390fd5b600060016000838152602001908152602001600020905061442c816000016040518060200160405290816000820160009054906101000a900467ffffffffffffffff1667ffffffffffffffff1667ffffffffffffffff16815250506146bc565b61446b576040517f08c379a000000000000000000000000000000000000000000000000000000000815260040161446290616258565b60405180910390fd5b600061447d614478610f51565b613020565b61448643613020565b6144909190616790565b905060006144a461449f610b20565b613020565b826144af9190616790565b90506144c782846000016146d690919063ffffffff16565b6144dd81846001016146d690919063ffffffff16565b7f7d84a6263ae0d98d3329bd7b46bb4e8d6f98cd35a7adb45c274c8b7fd5ebd5e084614507612993565b8b8b8d5167ffffffffffffffff81111561454a577f4e487b7100000000000000000000000000000000000000000000000000000000600052604160045260246000fd5b60405190808252806020026020018201604052801561457d57816020015b60608152602001906001900390816145685790505b508c88888e604051614597999897969594939291906162ee565b60405180910390a183945050505050949350505050565b804710156145f1576040517f08c379a00000000000000000000000000000000000000000000000000000000081526004016145e890616118565b60405180910390fd5b60008273ffffffffffffffffffffffffffffffffffffffff168260405161461790615cdd565b60006040518083038185875af1925050503d8060008114614654576040519150601f19603f3d011682016040523d82523d6000602084013e614659565b606091505b505090508061469d576040517f08c379a0000000000000000000000000000000000000000000000000000000008152600401614694906160d8565b60405180910390fd5b505050565b600080826000015167ffffffffffffffff16119050919050565b600080826000015167ffffffffffffffff16149050919050565b808260000160006101000a81548167ffffffffffffffff021916908367ffffffffffffffff1602179055505050565b6040518060600160405280600015158152602001600060ff16815260200160006bffffffffffffffffffffffff1681525090565b8280548282559060005260206000209081019282156147b2579160200282015b828111156147b15782518260006101000a81548173ffffffffffffffffffffffffffffffffffffffff021916908373ffffffffffffffffffffffffffffffffffffffff16021790555091602001919060010190614759565b5b5090506147bf91906148d0565b5090565b8280548282559060005260206000209081019282156147ff579160200282015b828111156147fe5782518255916020019190600101906147e3565b5b50905061480c91906148d0565b5090565b82805482825590600052602060002090810192821561485f579160200282015b8281111561485e57825182908051906020019061484e9291906148ed565b5091602001919060010190614830565b5b50905061486c9190614973565b5090565b8280548282559060005260206000209081019282156148bf579160200282015b828111156148be5782518290805190602001906148ae929190614997565b5091602001919060010190614890565b5b5090506148cc9190614a1d565b5090565b5b808211156148e95760008160009055506001016148d1565b5090565b8280546148f99061697a565b90600052602060002090601f01602090048101928261491b5760008555614962565b82601f1061493457805160ff1916838001178555614962565b82800160010185558215614962579182015b82811115614961578251825591602001919060010190614946565b5b50905061496f91906148d0565b5090565b5b80821115614993576000818161498a9190614a41565b50600101614974565b5090565b8280546149a39061697a565b90600052602060002090601f0160209004810192826149c55760008555614a0c565b82601f106149de57805160ff1916838001178555614a0c565b82800160010185558215614a0c579182015b82811115614a0b5782518255916020019190600101906149f0565b5b509050614a1991906148d0565b5090565b5b80821115614a3d5760008181614a349190614a81565b50600101614a1e565b5090565b508054614a4d9061697a565b6000825580601f10614a5f5750614a7e565b601f016020900490600052602060002090810190614a7d91906148d0565b5b50565b508054614a8d9061697a565b6000825580601f10614a9f5750614abe565b601f016020900490600052602060002090810190614abd91906148d0565b5b50565b6000614ad4614acf846164d4565b6164af565b90508083825260208201905082856020860282011115614af357600080fd5b60005b85811015614b235781614b098882614d5f565b845260208401935060208301925050600181019050614af6565b5050509392505050565b6000614b40614b3b84616500565b6164af565b90508083825260208201905082856020860282011115614b5f57600080fd5b60005b85811015614ba957813567ffffffffffffffff811115614b8157600080fd5b808601614b8e8982614e70565b85526020850194506020840193505050600181019050614b62565b5050509392505050565b6000614bc6614bc18461652c565b6164af565b90508083825260208201905082856020860282011115614be557600080fd5b60005b85811015614c2f57813567ffffffffffffffff811115614c0757600080fd5b808601614c148982614f23565b85526020850194506020840193505050600181019050614be8565b5050509392505050565b6000614c4c614c4784616558565b6164af565b90508083825260208201905082856020860282011115614c6b57600080fd5b60005b85811015614c9b5781614c818882614f4d565b845260208401935060208301925050600181019050614c6e565b5050509392505050565b6000614cb8614cb384616584565b6164af565b905082815260208101848484011115614cd057600080fd5b614cdb848285616938565b509392505050565b6000614cf6614cf184616584565b6164af565b905082815260208101848484011115614d0e57600080fd5b614d19848285616947565b509392505050565b6000614d34614d2f846165b5565b6164af565b905082815260208101848484011115614d4c57600080fd5b614d57848285616938565b509392505050565b600081359050614d6e81617149565b92915050565b600082601f830112614d8557600080fd5b8135614d95848260208601614ac1565b91505092915050565b600082601f830112614daf57600080fd5b8135614dbf848260208601614b2d565b91505092915050565b600082601f830112614dd957600080fd5b8135614de9848260208601614bb3565b91505092915050565b600082601f830112614e0357600080fd5b8135614e13848260208601614c39565b91505092915050565b600081519050614e2b81617160565b92915050565b600081359050614e4081617177565b92915050565b600081519050614e5581617177565b92915050565b600081359050614e6a8161718e565b92915050565b600082601f830112614e8157600080fd5b8135614e91848260208601614ca5565b91505092915050565b600082601f830112614eab57600080fd5b8151614ebb848260208601614ce3565b91505092915050565b600081359050614ed3816171a5565b92915050565b60008083601f840112614eeb57600080fd5b8235905067ffffffffffffffff811115614f0457600080fd5b602083019150836001820283011115614f1c57600080fd5b9250929050565b600082601f830112614f3457600080fd5b8135614f44848260208601614d21565b91505092915050565b600081359050614f5c816171bc565b92915050565b600081519050614f71816171bc565b92915050565b600081359050614f86816171d3565b92915050565b600081519050614f9b816171ea565b92915050565b60008060408385031215614fb457600080fd5b6000614fc285828601614d5f565b9250506020614fd385828601614f4d565b9150509250929050565b60008060008060808587031215614ff357600080fd5b600085013567ffffffffffffffff81111561500d57600080fd5b61501987828801614d74565b945050602085013567ffffffffffffffff81111561503657600080fd5b61504287828801614df2565b935050604085013567ffffffffffffffff81111561505f57600080fd5b61506b87828801614d9e565b925050606061507c87828801614e31565b91505092959194509250565b6000806000806080858703121561509e57600080fd5b600085013567ffffffffffffffff8111156150b857600080fd5b6150c487828801614d74565b945050602085013567ffffffffffffffff8111156150e157600080fd5b6150ed87828801614df2565b935050604085013567ffffffffffffffff81111561510a57600080fd5b61511687828801614d9e565b925050606085013567ffffffffffffffff81111561513357600080fd5b61513f87828801614f23565b91505092959194509250565b600080600080600060a0868803121561516357600080fd5b600086013567ffffffffffffffff81111561517d57600080fd5b61518988828901614d74565b955050602086013567ffffffffffffffff8111156151a657600080fd5b6151b288828901614df2565b945050604086013567ffffffffffffffff8111156151cf57600080fd5b6151db88828901614dc8565b935050606086013567ffffffffffffffff8111156151f857600080fd5b61520488828901614d9e565b925050608086013567ffffffffffffffff81111561522157600080fd5b61522d88828901614f23565b9150509295509295909350565b60006020828403121561524c57600080fd5b600061525a84828501614e1c565b91505092915050565b60006020828403121561527557600080fd5b600061528384828501614e46565b91505092915050565b60006020828403121561529e57600080fd5b60006152ac84828501614e5b565b91505092915050565b6000602082840312156152c757600080fd5b600082015167ffffffffffffffff8111156152e157600080fd5b6152ed84828501614e9a565b91505092915050565b60006020828403121561530857600080fd5b600061531684828501614ec4565b91505092915050565b60006020828403121561533157600080fd5b600061533f84828501614f4d565b91505092915050565b60006020828403121561535a57600080fd5b600061536884828501614f62565b91505092915050565b6000806040838503121561538457600080fd5b600061539285828601614f4d565b92505060206153a385828601614d5f565b9150509250929050565b600080604083850312156153c057600080fd5b60006153ce85828601614f4d565b92505060206153df85828601614f77565b9150509250929050565b600080600080606085870312156153ff57600080fd5b600061540d87828801614f4d565b945050602061541e87828801614f77565b935050604085013567ffffffffffffffff81111561543b57600080fd5b61544787828801614ed9565b925092505092959194509250565b600080600080600060a0868803121561546d57600080fd5b600061547b88828901614f4d565b955050602061548c88828901614f77565b945050604061549d88828901614f77565b93505060606154ae88828901614e31565b92505060806154bf88828901614e31565b9150509295509295909350565b6000602082840312156154de57600080fd5b60006154ec84828501614f8c565b91505092915050565b6000615501838361554d565b60208301905092915050565b60006155198383615755565b905092915050565b600061552d83836157e5565b905092915050565b60006155418383615c35565b60208301905092915050565b61555681616802565b82525050565b61556581616802565b82525050565b600061557682616626565b615580818561669c565b935061558b836165e6565b8060005b838110156155bc5781516155a388826154f5565b97506155ae83616668565b92505060018101905061558f565b5085935050505092915050565b60006155d482616631565b6155de81856166ad565b9350836020820285016155f0856165f6565b8060005b8581101561562c578484038952815161560d858261550d565b945061561883616675565b925060208a019950506001810190506155f4565b50829750879550505050505092915050565b60006156498261663c565b61565381856166be565b93508360208202850161566585616606565b8060005b858110156156a157848403895281516156828582615521565b945061568d83616682565b925060208a01995050600181019050615669565b50829750879550505050505092915050565b60006156be82616647565b6156c881856166cf565b93506156d383616616565b8060005b838110156157045781516156eb8882615535565b97506156f68361668f565b9250506001810190506156d7565b5085935050505092915050565b61571a81616826565b82525050565b61572981616826565b82525050565b61573881616832565b82525050565b61574f61574a82616832565b616a26565b82525050565b600061576082616652565b61576a81856166e0565b935061577a818560208601616947565b61578381616aec565b840191505092915050565b600061579982616652565b6157a381856166f1565b93506157b3818560208601616947565b6157bc81616aec565b840191505092915050565b6157d0816168f0565b82525050565b6157df81616914565b82525050565b60006157f08261665d565b6157fa818561670d565b935061580a818560208601616947565b61581381616aec565b840191505092915050565b60006158298261665d565b615833818561671e565b9350615843818560208601616947565b61584c81616aec565b840191505092915050565b60006158628261665d565b61586c818561672f565b935061587c818560208601616947565b80840191505092915050565b600061589560188361671e565b91506158a082616afd565b602082019050919050565b60006158b860188361671e565b91506158c382616b26565b602082019050919050565b60006158db60268361671e565b91506158e682616b4f565b604082019050919050565b60006158fe60438361671e565b915061590982616b9e565b606082019050919050565b6000615921601f8361671e565b915061592c82616c13565b602082019050919050565b600061594460028361672f565b915061594f82616c3c565b600282019050919050565b600061596760218361671e565b915061597282616c65565b604082019050919050565b600061598a60428361671e565b915061599582616cb4565b606082019050919050565b60006159ad603a8361671e565b91506159b882616d29565b604082019050919050565b60006159d060228361671e565b91506159db82616d78565b604082019050919050565b60006159f3601d8361671e565b91506159fe82616dc7565b602082019050919050565b6000615a1660238361671e565b9150615a2182616df0565b604082019050919050565b6000615a3960188361671e565b9150615a4482616e3f565b602082019050919050565b6000615a5c60228361671e565b9150615a6782616e68565b604082019050919050565b6000615a7f60268361671e565b9150615a8a82616eb7565b604082019050919050565b6000615aa2601d8361671e565b9150615aad82616f06565b602082019050919050565b6000615ac560218361671e565b9150615ad082616f2f565b604082019050919050565b6000615ae860318361671e565b9150615af382616f7e565b604082019050919050565b6000615b0b602d8361671e565b9150615b1682616fcd565b604082019050919050565b6000615b2e601d8361671e565b9150615b398261701c565b602082019050919050565b6000615b5160218361671e565b9150615b5c82617045565b604082019050919050565b6000615b74600083616702565b9150615b7f82617094565b600082019050919050565b6000615b9760008361671e565b9150615ba282617094565b600082019050919050565b6000615bba60278361671e565b9150615bc582617097565b604082019050919050565b6000615bdd602d8361671e565b9150615be8826170e6565b604082019050919050565b606082016000820151615c096000850182615711565b506020820151615c1c6020850182615c62565b506040820151615c2f6040850182615c80565b50505050565b615c3e816168ad565b82525050565b615c4d816168ad565b82525050565b615c5c81616926565b82525050565b615c6b816168cb565b82525050565b615c7a816168cb565b82525050565b615c89816168d8565b82525050565b6000615c9b8284615857565b915081905092915050565b6000615cb182615937565b9150615cbd828561573e565b602082019150615ccd828461573e565b6020820191508190509392505050565b6000615ce882615b67565b9150819050919050565b6000602082019050615d07600083018461555c565b92915050565b6000604082019050615d22600083018561555c565b615d2f602083018461555c565b9392505050565b6000604082019050615d4b600083018561555c565b615d586020830184615c44565b9392505050565b600060a082019050615d74600083018761555c565b615d816020830186615c44565b8181036040830152615d9281615b8a565b90508181036060830152615da6818561578e565b9050615db56080830184615c44565b95945050505050565b60006080820190508181036000830152615dd8818761556b565b90508181036020830152615dec81866156b3565b90508181036040830152615e0081856155c9565b9050615e0f606083018461572f565b95945050505050565b60006080820190508181036000830152615e32818761556b565b90508181036020830152615e4681866156b3565b90508181036040830152615e5a818561563e565b90508181036060830152615e6e81846155c9565b905095945050505050565b6000602082019050615e8e6000830184615720565b92915050565b6000602082019050615ea9600083018461572f565b92915050565b600060a082019050615ec4600083018861572f565b615ed1602083018761572f565b615ede604083018661572f565b615eeb6060830185615c44565b615ef8608083018461555c565b9695505050505050565b6000606082019050615f17600083018661572f565b615f246020830185615c44565b615f316040830184615c71565b949350505050565b6000608082019050615f4e600083018761572f565b615f5b6020830186615c71565b615f68604083018561572f565b615f75606083018461572f565b95945050505050565b60006020820190508181036000830152615f98818461578e565b905092915050565b6000602082019050615fb560008301846157c7565b92915050565b6000602082019050615fd060008301846157d6565b92915050565b60006020820190508181036000830152615ff0818461581e565b905092915050565b6000602082019050818103600083015261601181615888565b9050919050565b60006020820190508181036000830152616031816158ab565b9050919050565b60006020820190508181036000830152616051816158ce565b9050919050565b60006020820190508181036000830152616071816158f1565b9050919050565b6000602082019050818103600083015261609181615914565b9050919050565b600060208201905081810360008301526160b18161595a565b9050919050565b600060208201905081810360008301526160d18161597d565b9050919050565b600060208201905081810360008301526160f1816159a0565b9050919050565b60006020820190508181036000830152616111816159c3565b9050919050565b60006020820190508181036000830152616131816159e6565b9050919050565b6000602082019050818103600083015261615181615a09565b9050919050565b6000602082019050818103600083015261617181615a2c565b9050919050565b6000602082019050818103600083015261619181615a4f565b9050919050565b600060208201905081810360008301526161b181615a72565b9050919050565b600060208201905081810360008301526161d181615a95565b9050919050565b600060208201905081810360008301526161f181615ab8565b9050919050565b6000602082019050818103600083015261621181615adb565b9050919050565b6000602082019050818103600083015261623181615afe565b9050919050565b6000602082019050818103600083015261625181615b21565b9050919050565b6000602082019050818103600083015261627181615b44565b9050919050565b6000602082019050818103600083015261629181615bad565b9050919050565b600060208201905081810360008301526162b181615bd0565b9050919050565b60006060820190506162cd6000830184615bf3565b92915050565b60006020820190506162e86000830184615c44565b92915050565b600061012082019050616304600083018c615c44565b616311602083018b61555c565b8181036040830152616323818a61556b565b9050818103606083015261633781896156b3565b9050818103608083015261634b818861563e565b905081810360a083015261635f81876155c9565b905061636e60c0830186615c53565b61637b60e0830185615c53565b81810361010083015261638e818461581e565b90509a9950505050505050505050565b6000610140820190506163b4600083018d615c44565b6163c1602083018c61555c565b6163ce604083018b615c44565b6163db606083018a615c44565b6163e86080830189615c44565b6163f560a0830188615c44565b61640260c0830187615c44565b61640f60e0830186615c44565b61641d610100830185615720565b61642b610120830184615720565b9b9a5050505050505050505050565b600060408201905061644f6000830185615c44565b61645c6020830184615c44565b9392505050565b60006080820190506164786000830187615c44565b6164856020830186615c71565b6164926040830185615c44565b81810360608301526164a4818461581e565b905095945050505050565b60006164b96164ca565b90506164c582826169ac565b919050565b6000604051905090565b600067ffffffffffffffff8211156164ef576164ee616abd565b5b602082029050602081019050919050565b600067ffffffffffffffff82111561651b5761651a616abd565b5b602082029050602081019050919050565b600067ffffffffffffffff82111561654757616546616abd565b5b602082029050602081019050919050565b600067ffffffffffffffff82111561657357616572616abd565b5b602082029050602081019050919050565b600067ffffffffffffffff82111561659f5761659e616abd565b5b6165a882616aec565b9050602081019050919050565b600067ffffffffffffffff8211156165d0576165cf616abd565b5b6165d982616aec565b9050602081019050919050565b6000819050602082019050919050565b6000819050602082019050919050565b6000819050602082019050919050565b6000819050602082019050919050565b600081519050919050565b600081519050919050565b600081519050919050565b600081519050919050565b600081519050919050565b600081519050919050565b6000602082019050919050565b6000602082019050919050565b6000602082019050919050565b6000602082019050919050565b600082825260208201905092915050565b600082825260208201905092915050565b600082825260208201905092915050565b600082825260208201905092915050565b600082825260208201905092915050565b600082825260208201905092915050565b600081905092915050565b600082825260208201905092915050565b600082825260208201905092915050565b600081905092915050565b6000616745826168ad565b9150616750836168ad565b9250827fffffffffffffffffffffffffffffffffffffffffffffffffffffffffffffffff0382111561678557616784616a30565b5b828201905092915050565b600061679b826168b7565b91506167a6836168b7565b92508267ffffffffffffffff038211156167c3576167c2616a30565b5b828201905092915050565b60006167d9826168ad565b91506167e4836168ad565b9250828210156167f7576167f6616a30565b5b828203905092915050565b600061680d8261688d565b9050919050565b600061681f8261688d565b9050919050565b60008115159050919050565b6000819050919050565b60007fffffffff0000000000000000000000000000000000000000000000000000000082169050919050565b600061687382616814565b9050919050565b600081905061688882617135565b919050565b600073ffffffffffffffffffffffffffffffffffffffff82169050919050565b6000819050919050565b600067ffffffffffffffff82169050919050565b600060ff82169050919050565b60006bffffffffffffffffffffffff82169050919050565b60006168fb82616902565b9050919050565b600061690d8261688d565b9050919050565b600061691f8261687a565b9050919050565b6000616931826168b7565b9050919050565b82818337600083830152505050565b60005b8381101561696557808201518184015260208101905061694a565b83811115616974576000848401525b50505050565b6000600282049050600182168061699257607f821691505b602082108114156169a6576169a5616a8e565b5b50919050565b6169b582616aec565b810181811067ffffffffffffffff821117156169d4576169d3616abd565b5b80604052505050565b60006169e8826168ad565b91507fffffffffffffffffffffffffffffffffffffffffffffffffffffffffffffffff821415616a1b57616a1a616a30565b5b600182019050919050565b6000819050919050565b7f4e487b7100000000000000000000000000000000000000000000000000000000600052601160045260246000fd5b7f4e487b7100000000000000000000000000000000000000000000000000000000600052602160045260246000fd5b7f4e487b7100000000000000000000000000000000000000000000000000000000600052602260045260246000fd5b7f4e487b7100000000000000000000000000000000000000000000000000000000600052604160045260246000fd5b6000601f19601f8301169050919050565b7f45434453413a20696e76616c6964207369676e61747572650000000000000000600082015250565b7f476f7665726e6f723a206f6e6c79476f7665726e616e63650000000000000000600082015250565b7f53616665436173743a2076616c756520646f65736e27742066697420696e203960008201527f3620626974730000000000000000000000000000000000000000000000000000602082015250565b7f476f7665726e6f72436f6d7061746962696c697479427261766f3a2070726f7060008201527f6f73657220766f7465732062656c6f772070726f706f73616c2074687265736860208201527f6f6c640000000000000000000000000000000000000000000000000000000000604082015250565b7f45434453413a20696e76616c6964207369676e6174757265206c656e67746800600082015250565b7f1901000000000000000000000000000000000000000000000000000000000000600082015250565b7f476f7665726e6f723a20696e76616c69642070726f706f73616c206c656e677460008201527f6800000000000000000000000000000000000000000000000000000000000000602082015250565b7f476f7665726e6f7254696d656c6f636b436f6d706f756e643a206964656e746960008201527f63616c2070726f706f73616c20616374696f6e20616c7265616479207175657560208201527f6564000000000000000000000000000000000000000000000000000000000000604082015250565b7f416464726573733a20756e61626c6520746f2073656e642076616c75652c207260008201527f6563697069656e74206d61792068617665207265766572746564000000000000602082015250565b7f45434453413a20696e76616c6964207369676e6174757265202773272076616c60008201527f7565000000000000000000000000000000000000000000000000000000000000602082015250565b7f416464726573733a20696e73756666696369656e742062616c616e6365000000600082015250565b7f476f7665726e6f723a20766f7465206e6f742063757272656e746c792061637460008201527f6976650000000000000000000000000000000000000000000000000000000000602082015250565b7f476f7665726e6f723a20656d7074792070726f706f73616c0000000000000000600082015250565b7f45434453413a20696e76616c6964207369676e6174757265202776272076616c60008201527f7565000000000000000000000000000000000000000000000000000000000000602082015250565b7f53616665436173743a2076616c756520646f65736e27742066697420696e203660008201527f3420626974730000000000000000000000000000000000000000000000000000602082015250565b7f476f7665726e6f723a2070726f706f73616c206e6f7420616374697665000000600082015250565b7f476f7665726e6f723a2070726f706f73616c206e6f742073756363657373667560008201527f6c00000000000000000000000000000000000000000000000000000000000000602082015250565b7f476f7665726e6f7254696d656c6f636b436f6d706f756e643a2070726f706f7360008201527f616c206e6f742079657420717565756564000000000000000000000000000000602082015250565b7f476f7665726e6f72436f6d7061746962696c697479427261766f3a20696e766160008201527f6c696420766f7465207479706500000000000000000000000000000000000000602082015250565b7f476f7665726e6f723a20756e6b6e6f776e2070726f706f73616c206964000000600082015250565b7f476f7665726e6f723a2070726f706f73616c20616c726561647920657869737460008201527f7300000000000000000000000000000000000000000000000000000000000000602082015250565b50565b7f476f7665726e6f72427261766f3a2070726f706f7365722061626f766520746860008201527f726573686f6c6400000000000000000000000000000000000000000000000000602082015250565b7f476f7665726e6f72436f6d7061746962696c697479427261766f3a20766f746560008201527f20616c7265616479206361737400000000000000000000000000000000000000602082015250565b6008811061714657617145616a5f565b5b50565b61715281616802565b811461715d57600080fd5b50565b61716981616826565b811461717457600080fd5b50565b61718081616832565b811461718b57600080fd5b50565b6171978161683c565b81146171a257600080fd5b50565b6171ae81616868565b81146171b957600080fd5b50565b6171c5816168ad565b81146171d057600080fd5b50565b6171dc816168cb565b81146171e757600080fd5b50565b6171f3816168d8565b81146171fe57600080fd5b5056fea264697066735822122079c41918fc5065683fc6d4e6e7829a0af928323ff3c40531a12efd8849bd355f64736f6c63430008040033",
  "immutableReferences": {
    "5060": [
      {
        "length": 32,
        "start": 7049
      },
      {
        "length": 32,
        "start": 12007
      }
    ],
    "9844": [
      {
        "length": 32,
        "start": 3925
      }
    ],
    "9846": [
      {
        "length": 32,
        "start": 2852
      }
    ],
    "9848": [
      {
        "length": 32,
        "start": 5567
      }
    ],
    "24269": [
      {
        "length": 32,
        "start": 12518
      }
    ],
    "24271": [
      {
        "length": 32,
        "start": 12478
      }
    ],
    "24273": [
      {
        "length": 32,
        "start": 12594
      }
    ],
    "24275": [
      {
        "length": 32,
        "start": 12627
      }
    ],
    "24277": [
      {
        "length": 32,
        "start": 12561
      }
    ]
  },
  "source": "// SPDX-License-Identifier: MIT\n\npragma solidity ^0.8.0;\n\nimport \"../governance/compatibility/GovernorCompatibilityBravo.sol\";\nimport \"../governance/extensions/GovernorVotesComp.sol\";\nimport \"../governance/extensions/GovernorTimelockCompound.sol\";\n\ncontract GovernorCompatibilityBravoMock is GovernorCompatibilityBravo, GovernorTimelockCompound, GovernorVotesComp {\n    uint256 immutable _votingDelay;\n    uint256 immutable _votingPeriod;\n    uint256 immutable _proposalThreshold;\n\n    constructor(\n        string memory name_,\n        ERC20VotesComp token_,\n        uint256 votingDelay_,\n        uint256 votingPeriod_,\n        uint256 proposalThreshold_,\n        ICompoundTimelock timelock_\n    ) Governor(name_) GovernorVotesComp(token_) GovernorTimelockCompound(timelock_) {\n        _votingDelay = votingDelay_;\n        _votingPeriod = votingPeriod_;\n        _proposalThreshold = proposalThreshold_;\n    }\n\n    function supportsInterface(bytes4 interfaceId)\n        public\n        view\n        virtual\n        override(IERC165, Governor, GovernorTimelockCompound)\n        returns (bool)\n    {\n        return super.supportsInterface(interfaceId);\n    }\n\n    function votingDelay() public view override returns (uint256) {\n        return _votingDelay;\n    }\n\n    function votingPeriod() public view override returns (uint256) {\n        return _votingPeriod;\n    }\n\n    function proposalThreshold() public view virtual override returns (uint256) {\n        return _proposalThreshold;\n    }\n\n    function quorum(uint256) public pure override returns (uint256) {\n        return 0;\n    }\n\n    function state(uint256 proposalId)\n        public\n        view\n        virtual\n        override(IGovernor, Governor, GovernorTimelockCompound)\n        returns (ProposalState)\n    {\n        return super.state(proposalId);\n    }\n\n    function proposalEta(uint256 proposalId)\n        public\n        view\n        virtual\n        override(IGovernorTimelock, GovernorTimelockCompound)\n        returns (uint256)\n    {\n        return super.proposalEta(proposalId);\n    }\n\n    function propose(\n        address[] memory targets,\n        uint256[] memory values,\n        bytes[] memory calldatas,\n        string memory description\n    ) public virtual override(IGovernor, Governor, GovernorCompatibilityBravo) returns (uint256) {\n        return super.propose(targets, values, calldatas, description);\n    }\n\n    function queue(\n        address[] memory targets,\n        uint256[] memory values,\n        bytes[] memory calldatas,\n        bytes32 salt\n    ) public virtual override(IGovernorTimelock, GovernorTimelockCompound) returns (uint256) {\n        return super.queue(targets, values, calldatas, salt);\n    }\n\n    function execute(\n        address[] memory targets,\n        uint256[] memory values,\n        bytes[] memory calldatas,\n        bytes32 salt\n    ) public payable virtual override(IGovernor, Governor) returns (uint256) {\n        return super.execute(targets, values, calldatas, salt);\n    }\n\n    function _execute(\n        uint256 proposalId,\n        address[] memory targets,\n        uint256[] memory values,\n        bytes[] memory calldatas,\n        bytes32 descriptionHash\n    ) internal virtual override(Governor, GovernorTimelockCompound) {\n        super._execute(proposalId, targets, values, calldatas, descriptionHash);\n    }\n\n    /**\n     * @notice WARNING: this is for mock purposes only. Ability to the _cancel function should be restricted for live\n     * deployments.\n     */\n    function cancel(\n        address[] memory targets,\n        uint256[] memory values,\n        bytes[] memory calldatas,\n        bytes32 salt\n    ) public returns (uint256 proposalId) {\n        return _cancel(targets, values, calldatas, salt);\n    }\n\n    function _cancel(\n        address[] memory targets,\n        uint256[] memory values,\n        bytes[] memory calldatas,\n        bytes32 salt\n    ) internal virtual override(Governor, GovernorTimelockCompound) returns (uint256 proposalId) {\n        return super._cancel(targets, values, calldatas, salt);\n    }\n\n    function getVotes(address account, uint256 blockNumber)\n        public\n        view\n        virtual\n        override(IGovernor, GovernorVotesComp)\n        returns (uint256)\n    {\n        return super.getVotes(account, blockNumber);\n    }\n\n    function _executor() internal view virtual override(Governor, GovernorTimelockCompound) returns (address) {\n        return super._executor();\n    }\n}\n",
  "sourcePath": "/Users/alexanderpetrovskiy/work/neon/neon-uat/openzeppelin-contracts/contracts/mocks/GovernorCompatibilityBravoMock.sol",
  "compiler": {
    "name": "solc",
    "version": "0.8.4+commit.c7e474f2.Emscripten.clang"
  },
  "schemaVersion": "3.4.3",
  "updatedAt": "2021-10-12T07:13:47.508Z",
  "devdoc": {
    "kind": "dev",
    "methods": {
      "COUNTING_MODE()": {
        "details": "A description of the possible `support` values for {castVote} and the way these votes are counted, meant to be consumed by UIs to show correct vote options and interpret the results. The string is a URL-encoded sequence of key-value pairs that each describe one aspect, for example `support=bravo&quorum=for,abstain`. There are 2 standard keys: `support` and `quorum`. - `support=bravo` refers to the vote options 0 = For, 1 = Against, 2 = Abstain, as in `GovernorBravo`. - `quorum=bravo` means that only For votes are counted towards quorum. - `quorum=for,abstain` means that both For and Abstain votes are counted towards quorum. NOTE: The string can be decoded by the standard https://developer.mozilla.org/en-US/docs/Web/API/URLSearchParams[`URLSearchParams`] JavaScript class."
      },
      "__acceptAdmin()": {
        "details": "Accept admin right over the timelock."
      },
      "cancel(uint256)": {
        "details": "Cancels a proposal only if sender is the proposer, or proposer delegates dropped below proposal threshold."
      },
      "castVote(uint256,uint8)": {
        "details": "See {IGovernor-castVote}."
      },
      "castVoteBySig(uint256,uint8,uint8,bytes32,bytes32)": {
        "details": "See {IGovernor-castVoteBySig}."
      },
      "castVoteWithReason(uint256,uint8,string)": {
        "details": "See {IGovernor-castVoteWithReason}."
      },
      "execute(uint256)": {
        "details": "See {IGovernorCompatibilityBravo-execute}."
      },
      "getActions(uint256)": {
        "details": "See {IGovernorCompatibilityBravo-getActions}."
      },
      "getReceipt(uint256,address)": {
        "details": "See {IGovernorCompatibilityBravo-getReceipt}."
      },
      "hasVoted(uint256,address)": {
        "details": "See {IGovernor-hasVoted}."
      },
      "hashProposal(address[],uint256[],bytes[],bytes32)": {
        "details": "See {IGovernor-hashProposal}. The proposal id is produced by hashing the RLC encoded `targets` array, the `values` array, the `calldatas` array and the descriptionHash (bytes32 which itself is the keccak256 hash of the description string). This proposal id can be produced from the proposal data which is part of the {ProposalCreated} event. It can even be computed in advance, before the proposal is submitted. Note that the chainId and the governor address are not part of the proposal id computation. Consequently, the same proposal (with same operation and same description) will have the same id if submitted on multiple governors accross multiple networks. This also means that in order to execute the same operation twice (on the same governor) the proposer will have to change the description in order to avoid proposal id conflicts."
      },
      "name()": {
        "details": "See {IGovernor-name}."
      },
      "proposalDeadline(uint256)": {
        "details": "See {IGovernor-proposalDeadline}."
      },
      "proposalSnapshot(uint256)": {
        "details": "See {IGovernor-proposalSnapshot}."
      },
      "proposalThreshold()": {
        "details": "Part of the Governor Bravo's interface: _\"The number of votes required in order for a voter to become a proposer\"_."
      },
      "proposals(uint256)": {
        "details": "See {IGovernorCompatibilityBravo-proposals}."
      },
      "propose(address[],uint256[],string[],bytes[],string)": {
        "details": "See {IGovernorCompatibilityBravo-propose}."
      },
      "queue(uint256)": {
        "details": "See {IGovernorCompatibilityBravo-queue}."
      },
      "quorumVotes()": {
        "details": "See {IGovernorCompatibilityBravo-quorumVotes}."
      },
      "timelock()": {
        "details": "Public accessor to check the address of the timelock"
      },
      "updateTimelock(address)": {
        "details": "Public endpoint to update the underlying timelock instance. Restricted to the timelock itself, so updates must be proposed, scheduled and executed using the {Governor} workflow. For security reason, the timelock must be handed over to another admin before setting up a new one. The two operations (hand over the timelock) and do the update can be batched in a single proposal. Note that if the timelock admin has been handed over in a previous operation, we refuse updates made through the timelock if admin of the timelock has already been accepted and the operation is executed outside the scope of governance."
      },
      "version()": {
        "details": "See {IGovernor-version}."
      },
      "votingDelay()": {
        "details": "delay, in number of block, between the proposal is created and the vote starts. This can be increassed to leave time for users to buy voting power, of delegate it, before the voting of a proposal starts."
      },
      "votingPeriod()": {
        "details": "delay, in number of blocks, between the vote start and vote ends. Note: the {votingDelay} can delay the start of the vote. This must be considered when setting the voting duration compared to the voting delay."
      }
    },
    "version": 1
  },
  "userdoc": {
    "kind": "user",
    "methods": {
      "COUNTING_MODE()": {
        "notice": "module:voting"
      },
      "cancel(address[],uint256[],bytes[],bytes32)": {
        "notice": "WARNING: this is for mock purposes only. Ability to the _cancel function should be restricted for live deployments."
      },
      "votingDelay()": {
        "notice": "module:user-config"
      },
      "votingPeriod()": {
        "notice": "module:user-config"
      }
    },
    "version": 1
  }
}