{
  "contractName": "GovernorCompMock",
  "abi": [
    {
      "inputs": [
        {
          "internalType": "string",
          "name": "name_",
          "type": "string"
        },
        {
          "internalType": "contract ERC20VotesComp",
          "name": "token_",
          "type": "address"
        },
        {
          "internalType": "uint256",
          "name": "votingDelay_",
          "type": "uint256"
        },
        {
          "internalType": "uint256",
          "name": "votingPeriod_",
          "type": "uint256"
        }
      ],
      "stateMutability": "nonpayable",
      "type": "constructor"
    },
    {
      "anonymous": false,
      "inputs": [
        {
          "indexed": false,
          "internalType": "uint256",
          "name": "proposalId",
          "type": "uint256"
        }
      ],
      "name": "ProposalCanceled",
      "type": "event"
    },
    {
      "anonymous": false,
      "inputs": [
        {
          "indexed": false,
          "internalType": "uint256",
          "name": "proposalId",
          "type": "uint256"
        },
        {
          "indexed": false,
          "internalType": "address",
          "name": "proposer",
          "type": "address"
        },
        {
          "indexed": false,
          "internalType": "address[]",
          "name": "targets",
          "type": "address[]"
        },
        {
          "indexed": false,
          "internalType": "uint256[]",
          "name": "values",
          "type": "uint256[]"
        },
        {
          "indexed": false,
          "internalType": "string[]",
          "name": "signatures",
          "type": "string[]"
        },
        {
          "indexed": false,
          "internalType": "bytes[]",
          "name": "calldatas",
          "type": "bytes[]"
        },
        {
          "indexed": false,
          "internalType": "uint256",
          "name": "startBlock",
          "type": "uint256"
        },
        {
          "indexed": false,
          "internalType": "uint256",
          "name": "endBlock",
          "type": "uint256"
        },
        {
          "indexed": false,
          "internalType": "string",
          "name": "description",
          "type": "string"
        }
      ],
      "name": "ProposalCreated",
      "type": "event"
    },
    {
      "anonymous": false,
      "inputs": [
        {
          "indexed": false,
          "internalType": "uint256",
          "name": "proposalId",
          "type": "uint256"
        }
      ],
      "name": "ProposalExecuted",
      "type": "event"
    },
    {
      "anonymous": false,
      "inputs": [
        {
          "indexed": true,
          "internalType": "address",
          "name": "voter",
          "type": "address"
        },
        {
          "indexed": false,
          "internalType": "uint256",
          "name": "proposalId",
          "type": "uint256"
        },
        {
          "indexed": false,
          "internalType": "uint8",
          "name": "support",
          "type": "uint8"
        },
        {
          "indexed": false,
          "internalType": "uint256",
          "name": "weight",
          "type": "uint256"
        },
        {
          "indexed": false,
          "internalType": "string",
          "name": "reason",
          "type": "string"
        }
      ],
      "name": "VoteCast",
      "type": "event"
    },
    {
      "inputs": [],
      "name": "BALLOT_TYPEHASH",
      "outputs": [
        {
          "internalType": "bytes32",
          "name": "",
          "type": "bytes32"
        }
      ],
      "stateMutability": "view",
      "type": "function"
    },
    {
      "inputs": [],
      "name": "COUNTING_MODE",
      "outputs": [
        {
          "internalType": "string",
          "name": "",
          "type": "string"
        }
      ],
      "stateMutability": "pure",
      "type": "function"
    },
    {
      "inputs": [
        {
          "internalType": "uint256",
          "name": "proposalId",
          "type": "uint256"
        },
        {
          "internalType": "uint8",
          "name": "support",
          "type": "uint8"
        }
      ],
      "name": "castVote",
      "outputs": [
        {
          "internalType": "uint256",
          "name": "",
          "type": "uint256"
        }
      ],
      "stateMutability": "nonpayable",
      "type": "function"
    },
    {
      "inputs": [
        {
          "internalType": "uint256",
          "name": "proposalId",
          "type": "uint256"
        },
        {
          "internalType": "uint8",
          "name": "support",
          "type": "uint8"
        },
        {
          "internalType": "uint8",
          "name": "v",
          "type": "uint8"
        },
        {
          "internalType": "bytes32",
          "name": "r",
          "type": "bytes32"
        },
        {
          "internalType": "bytes32",
          "name": "s",
          "type": "bytes32"
        }
      ],
      "name": "castVoteBySig",
      "outputs": [
        {
          "internalType": "uint256",
          "name": "",
          "type": "uint256"
        }
      ],
      "stateMutability": "nonpayable",
      "type": "function"
    },
    {
      "inputs": [
        {
          "internalType": "uint256",
          "name": "proposalId",
          "type": "uint256"
        },
        {
          "internalType": "uint8",
          "name": "support",
          "type": "uint8"
        },
        {
          "internalType": "string",
          "name": "reason",
          "type": "string"
        }
      ],
      "name": "castVoteWithReason",
      "outputs": [
        {
          "internalType": "uint256",
          "name": "",
          "type": "uint256"
        }
      ],
      "stateMutability": "nonpayable",
      "type": "function"
    },
    {
      "inputs": [
        {
          "internalType": "address[]",
          "name": "targets",
          "type": "address[]"
        },
        {
          "internalType": "uint256[]",
          "name": "values",
          "type": "uint256[]"
        },
        {
          "internalType": "bytes[]",
          "name": "calldatas",
          "type": "bytes[]"
        },
        {
          "internalType": "bytes32",
          "name": "descriptionHash",
          "type": "bytes32"
        }
      ],
      "name": "execute",
      "outputs": [
        {
          "internalType": "uint256",
          "name": "",
          "type": "uint256"
        }
      ],
      "stateMutability": "payable",
      "type": "function"
    },
    {
      "inputs": [
        {
          "internalType": "uint256",
          "name": "proposalId",
          "type": "uint256"
        },
        {
          "internalType": "address",
          "name": "account",
          "type": "address"
        }
      ],
      "name": "hasVoted",
      "outputs": [
        {
          "internalType": "bool",
          "name": "",
          "type": "bool"
        }
      ],
      "stateMutability": "view",
      "type": "function"
    },
    {
      "inputs": [
        {
          "internalType": "address[]",
          "name": "targets",
          "type": "address[]"
        },
        {
          "internalType": "uint256[]",
          "name": "values",
          "type": "uint256[]"
        },
        {
          "internalType": "bytes[]",
          "name": "calldatas",
          "type": "bytes[]"
        },
        {
          "internalType": "bytes32",
          "name": "descriptionHash",
          "type": "bytes32"
        }
      ],
      "name": "hashProposal",
      "outputs": [
        {
          "internalType": "uint256",
          "name": "",
          "type": "uint256"
        }
      ],
      "stateMutability": "pure",
      "type": "function"
    },
    {
      "inputs": [],
      "name": "name",
      "outputs": [
        {
          "internalType": "string",
          "name": "",
          "type": "string"
        }
      ],
      "stateMutability": "view",
      "type": "function"
    },
    {
      "inputs": [
        {
          "internalType": "uint256",
          "name": "proposalId",
          "type": "uint256"
        }
      ],
      "name": "proposalDeadline",
      "outputs": [
        {
          "internalType": "uint256",
          "name": "",
          "type": "uint256"
        }
      ],
      "stateMutability": "view",
      "type": "function"
    },
    {
      "inputs": [
        {
          "internalType": "uint256",
          "name": "proposalId",
          "type": "uint256"
        }
      ],
      "name": "proposalSnapshot",
      "outputs": [
        {
          "internalType": "uint256",
          "name": "",
          "type": "uint256"
        }
      ],
      "stateMutability": "view",
      "type": "function"
    },
    {
      "inputs": [
        {
          "internalType": "uint256",
          "name": "proposalId",
          "type": "uint256"
        }
      ],
      "name": "proposalVotes",
      "outputs": [
        {
          "internalType": "uint256",
          "name": "againstVotes",
          "type": "uint256"
        },
        {
          "internalType": "uint256",
          "name": "forVotes",
          "type": "uint256"
        },
        {
          "internalType": "uint256",
          "name": "abstainVotes",
          "type": "uint256"
        }
      ],
      "stateMutability": "view",
      "type": "function"
    },
    {
      "inputs": [
        {
          "internalType": "address[]",
          "name": "targets",
          "type": "address[]"
        },
        {
          "internalType": "uint256[]",
          "name": "values",
          "type": "uint256[]"
        },
        {
          "internalType": "bytes[]",
          "name": "calldatas",
          "type": "bytes[]"
        },
        {
          "internalType": "string",
          "name": "description",
          "type": "string"
        }
      ],
      "name": "propose",
      "outputs": [
        {
          "internalType": "uint256",
          "name": "",
          "type": "uint256"
        }
      ],
      "stateMutability": "nonpayable",
      "type": "function"
    },
    {
      "inputs": [
        {
          "internalType": "uint256",
          "name": "proposalId",
          "type": "uint256"
        }
      ],
      "name": "state",
      "outputs": [
        {
          "internalType": "enum IGovernor.ProposalState",
          "name": "",
          "type": "uint8"
        }
      ],
      "stateMutability": "view",
      "type": "function"
    },
    {
      "inputs": [
        {
          "internalType": "bytes4",
          "name": "interfaceId",
          "type": "bytes4"
        }
      ],
      "name": "supportsInterface",
      "outputs": [
        {
          "internalType": "bool",
          "name": "",
          "type": "bool"
        }
      ],
      "stateMutability": "view",
      "type": "function"
    },
    {
      "inputs": [],
      "name": "token",
      "outputs": [
        {
          "internalType": "contract ERC20VotesComp",
          "name": "",
          "type": "address"
        }
      ],
      "stateMutability": "view",
      "type": "function"
    },
    {
      "inputs": [],
      "name": "version",
      "outputs": [
        {
          "internalType": "string",
          "name": "",
          "type": "string"
        }
      ],
      "stateMutability": "view",
      "type": "function"
    },
    {
      "stateMutability": "payable",
      "type": "receive"
    },
    {
      "inputs": [],
      "name": "votingDelay",
      "outputs": [
        {
          "internalType": "uint256",
          "name": "",
          "type": "uint256"
        }
      ],
      "stateMutability": "view",
      "type": "function"
    },
    {
      "inputs": [],
      "name": "votingPeriod",
      "outputs": [
        {
          "internalType": "uint256",
          "name": "",
          "type": "uint256"
        }
      ],
      "stateMutability": "view",
      "type": "function"
    },
    {
      "inputs": [
        {
          "internalType": "uint256",
          "name": "",
          "type": "uint256"
        }
      ],
      "name": "quorum",
      "outputs": [
        {
          "internalType": "uint256",
          "name": "",
          "type": "uint256"
        }
      ],
      "stateMutability": "pure",
      "type": "function"
    },
    {
      "inputs": [
        {
          "internalType": "address[]",
          "name": "targets",
          "type": "address[]"
        },
        {
          "internalType": "uint256[]",
          "name": "values",
          "type": "uint256[]"
        },
        {
          "internalType": "bytes[]",
          "name": "calldatas",
          "type": "bytes[]"
        },
        {
          "internalType": "bytes32",
          "name": "salt",
          "type": "bytes32"
        }
      ],
      "name": "cancel",
      "outputs": [
        {
          "internalType": "uint256",
          "name": "proposalId",
          "type": "uint256"
        }
      ],
      "stateMutability": "nonpayable",
      "type": "function"
    },
    {
      "inputs": [
        {
          "internalType": "address",
          "name": "account",
          "type": "address"
        },
        {
          "internalType": "uint256",
          "name": "blockNumber",
          "type": "uint256"
        }
      ],
      "name": "getVotes",
      "outputs": [
        {
          "internalType": "uint256",
          "name": "",
          "type": "uint256"
        }
      ],
      "stateMutability": "view",
      "type": "function"
    }
  ],
  "bytecode": "0x6101806040523480156200001257600080fd5b506040516200454738038062004547833981810160405281019062000038919062000300565b8284806200004b6200013760201b60201c565b60008280519060200120905060008280519060200120905060007f8b73c3c69bb8fe3d512ecc4cf759cc79239f7b179b0ffacaa9a75d522b39400f90508260c081815250508160e081815250504660a08181525050620000b38184846200017460201b60201c565b6080818152505080610100818152505050505050508060009080519060200190620000e0929190620001b0565b50508073ffffffffffffffffffffffffffffffffffffffff166101208173ffffffffffffffffffffffffffffffffffffffff1660601b81525050508161014081815250508061016081815250505050505062000615565b60606040518060400160405280600181526020017f3100000000000000000000000000000000000000000000000000000000000000815250905090565b6000838383463060405160200162000191959493929190620003b8565b6040516020818303038152906040528051906020012090509392505050565b828054620001be9062000506565b90600052602060002090601f016020900481019282620001e257600085556200022e565b82601f10620001fd57805160ff19168380011785556200022e565b828001600101855582156200022e579182015b828111156200022d57825182559160200191906001019062000210565b5b5090506200023d919062000241565b5090565b5b808211156200025c57600081600090555060010162000242565b5090565b60006200027762000271846200043e565b62000415565b9050828152602081018484840111156200029057600080fd5b6200029d848285620004d0565b509392505050565b600081519050620002b681620005e1565b92915050565b600082601f830112620002ce57600080fd5b8151620002e084826020860162000260565b91505092915050565b600081519050620002fa81620005fb565b92915050565b600080600080608085870312156200031757600080fd5b600085015167ffffffffffffffff8111156200033257600080fd5b6200034087828801620002bc565b94505060206200035387828801620002a5565b93505060406200036687828801620002e9565b92505060606200037987828801620002e9565b91505092959194509250565b620003908162000474565b82525050565b620003a18162000488565b82525050565b620003b281620004c6565b82525050565b600060a082019050620003cf600083018862000396565b620003de602083018762000396565b620003ed604083018662000396565b620003fc6060830185620003a7565b6200040b608083018462000385565b9695505050505050565b60006200042162000434565b90506200042f82826200053c565b919050565b6000604051905090565b600067ffffffffffffffff8211156200045c576200045b620005a1565b5b6200046782620005d0565b9050602081019050919050565b60006200048182620004a6565b9050919050565b6000819050919050565b60006200049f8262000474565b9050919050565b600073ffffffffffffffffffffffffffffffffffffffff82169050919050565b6000819050919050565b60005b83811015620004f0578082015181840152602081019050620004d3565b8381111562000500576000848401525b50505050565b600060028204905060018216806200051f57607f821691505b6020821081141562000536576200053562000572565b5b50919050565b6200054782620005d0565b810181811067ffffffffffffffff82111715620005695762000568620005a1565b5b80604052505050565b7f4e487b7100000000000000000000000000000000000000000000000000000000600052602260045260246000fd5b7f4e487b7100000000000000000000000000000000000000000000000000000000600052604160045260246000fd5b6000601f19601f8301169050919050565b620005ec8162000492565b8114620005f857600080fd5b50565b6200060681620004c6565b81146200061257600080fd5b50565b60805160a05160c05160e051610100516101205160601c6101405161016051613ec26200068560003960006106bf015260006109b20152600081816111a6015261194701526000611ac401526000611b0601526000611ae501526000611a7101526000611a990152613ec26000f3fe6080604052600436106101395760003560e01c806354fd4d50116100ab578063c59057e41161006f578063c59057e414610501578063dd4e2ba51461053e578063deaaa7cc14610569578063eb9019d414610594578063f8ce560a146105d1578063fc0c546a1461060e5761017f565b806354fd4d50146103e2578063567813881461040d5780637b3c71d31461044a5780637d5e81e214610487578063c01f9e37146104c45761017f565b80633932abb1116100fd5780633932abb1146102845780633bccf4fd146102af5780633e4f49e6146102ec5780634385963214610329578063452115d614610366578063544ffc9c146103a35761017f565b806301ffc9a71461018457806302a251a3146101c157806306fdde03146101ec5780632656227d146102175780632d63f693146102475761017f565b3661017f573073ffffffffffffffffffffffffffffffffffffffff1661015d610639565b73ffffffffffffffffffffffffffffffffffffffff161461017d57600080fd5b005b600080fd5b34801561019057600080fd5b506101ab60048036038101906101a691906127ab565b610641565b6040516101b89190612fe6565b60405180910390f35b3480156101cd57600080fd5b506101d66106bb565b6040516101e39190613303565b60405180910390f35b3480156101f857600080fd5b506102016106e3565b60405161020e9190613121565b60405180910390f35b610231600480360381019061022c919061263d565b610775565b60405161023e9190613303565b60405180910390f35b34801561025357600080fd5b5061026e600480360381019061026991906127d4565b610940565b60405161027b9190613303565b60405180910390f35b34801561029057600080fd5b506102996109ae565b6040516102a69190613303565b60405180910390f35b3480156102bb57600080fd5b506102d660048036038101906102d191906128e1565b6109d6565b6040516102e39190613303565b60405180910390f35b3480156102f857600080fd5b50610313600480360381019061030e91906127d4565b610a60565b6040516103209190613106565b60405180910390f35b34801561033557600080fd5b50610350600480360381019061034b91906127fd565b610c27565b60405161035d9190612fe6565b60405180910390f35b34801561037257600080fd5b5061038d6004803603810190610388919061263d565b610c92565b60405161039a9190613303565b60405180910390f35b3480156103af57600080fd5b506103ca60048036038101906103c591906127d4565b610caa565b6040516103d9939291906133ce565b60405180910390f35b3480156103ee57600080fd5b506103f7610ce2565b6040516104049190613121565b60405180910390f35b34801561041957600080fd5b50610434600480360381019061042f9190612839565b610d1f565b6040516104419190613303565b60405180910390f35b34801561045657600080fd5b50610471600480360381019061046c9190612875565b610d50565b60405161047e9190613303565b60405180910390f35b34801561049357600080fd5b506104ae60048036038101906104a991906126e8565b610db8565b6040516104bb9190613303565b60405180910390f35b3480156104d057600080fd5b506104eb60048036038101906104e691906127d4565b61107e565b6040516104f89190613303565b60405180910390f35b34801561050d57600080fd5b506105286004803603810190610523919061263d565b6110ec565b6040516105359190613303565b60405180910390f35b34801561054a57600080fd5b50610553611128565b6040516105609190613121565b60405180910390f35b34801561057557600080fd5b5061057e611165565b60405161058b9190613001565b60405180910390f35b3480156105a057600080fd5b506105bb60048036038101906105b69190612601565b611189565b6040516105c89190613303565b60405180910390f35b3480156105dd57600080fd5b506105f860048036038101906105f391906127d4565b61119d565b6040516106059190613303565b60405180910390f35b34801561061a57600080fd5b506106236111a4565b60405161063091906130eb565b60405180910390f35b600030905090565b60007fbf26d897000000000000000000000000000000000000000000000000000000007bffffffffffffffffffffffffffffffffffffffffffffffffffffffff1916827bffffffffffffffffffffffffffffffffffffffffffffffffffffffff191614806106b457506106b3826111c8565b5b9050919050565b60007f0000000000000000000000000000000000000000000000000000000000000000905090565b6060600080546106f290613887565b80601f016020809104026020016040519081016040528092919081815260200182805461071e90613887565b801561076b5780601f106107405761010080835404028352916020019161076b565b820191906000526020600020905b81548152906001019060200180831161074e57829003601f168201915b5050505050905090565b600080610784868686866110ec565b9050600061079182610a60565b9050600460078111156107cd577f4e487b7100000000000000000000000000000000000000000000000000000000600052602160045260246000fd5b816007811115610806577f4e487b7100000000000000000000000000000000000000000000000000000000600052602160045260246000fd5b1480610882575060056007811115610847577f4e487b7100000000000000000000000000000000000000000000000000000000600052602160045260246000fd5b816007811115610880577f4e487b7100000000000000000000000000000000000000000000000000000000600052602160045260246000fd5b145b6108c1576040517f08c379a00000000000000000000000000000000000000000000000000000000081526004016108b890613283565b60405180910390fd5b600180600084815260200190815260200160002060020160006101000a81548160ff0219169083151502179055507f712ae1383f79ac853f8d882153778e0260ef8f03b504e2866e0593e04d2b291f8260405161091e9190613303565b60405180910390a16109338288888888611232565b8192505050949350505050565b600061099d600160008481526020019081526020016000206000016040518060200160405290816000820160009054906101000a900467ffffffffffffffff1667ffffffffffffffff1667ffffffffffffffff16815250506113b3565b67ffffffffffffffff169050919050565b60007f0000000000000000000000000000000000000000000000000000000000000000905090565b600080610a37610a2f7f150214d74d59b7d1e90c73fc22ef3d991dd0a76b046543d4d80ab92d2a50328f8989604051602001610a149392919061306f565b604051602081830303815290604052805190602001206113c1565b8686866113db565b9050610a5487828860405180602001604052806000815250611406565b91505095945050505050565b60008060016000848152602001908152602001600020604051806080016040529081600082016040518060200160405290816000820160009054906101000a900467ffffffffffffffff1667ffffffffffffffff1667ffffffffffffffff16815250508152602001600182016040518060200160405290816000820160009054906101000a900467ffffffffffffffff1667ffffffffffffffff1667ffffffffffffffff168152505081526020016002820160009054906101000a900460ff161515151581526020016002820160019054906101000a900460ff1615151515815250509050806040015115610b59576007915050610c22565b806060015115610b6d576002915050610c22565b610b7a81600001516115a6565b15610b89576000915050610c22565b610b9681602001516115a6565b15610ba5576001915050610c22565b610bb281602001516115c0565b15610be757610bc0836115ec565b8015610bd15750610bd083611633565b5b610bdc576003610bdf565b60045b915050610c22565b6040517f08c379a0000000000000000000000000000000000000000000000000000000008152600401610c19906132a3565b60405180910390fd5b919050565b60006002600084815260200190815260200160002060030160008373ffffffffffffffffffffffffffffffffffffffff1673ffffffffffffffffffffffffffffffffffffffff16815260200190815260200160002060009054906101000a900460ff16905092915050565b6000610ca08585858561165e565b9050949350505050565b600080600080600260008681526020019081526020016000209050806000015481600101548260020154935093509350509193909250565b60606040518060400160405280600181526020017f3100000000000000000000000000000000000000000000000000000000000000815250905090565b600080610d2a61189b565b9050610d4784828560405180602001604052806000815250611406565b91505092915050565b600080610d5b61189b565b9050610dad86828787878080601f016020809104026020016040519081016040528093929190818152602001838380828437600081840152601f19601f82011690508083019250505050505050611406565b915050949350505050565b600080610dce86868686805190602001206110ec565b90508451865114610e14576040517f08c379a0000000000000000000000000000000000000000000000000000000008152600401610e0b90613183565b60405180910390fd5b8351865114610e58576040517f08c379a0000000000000000000000000000000000000000000000000000000008152600401610e4f90613183565b60405180910390fd5b6000865111610e9c576040517f08c379a0000000000000000000000000000000000000000000000000000000008152600401610e9390613203565b60405180910390fd5b6000600160008381526020019081526020016000209050610efc816000016040518060200160405290816000820160009054906101000a900467ffffffffffffffff1667ffffffffffffffff1667ffffffffffffffff16815250506118a3565b610f3b576040517f08c379a0000000000000000000000000000000000000000000000000000000008152600401610f32906132e3565b60405180910390fd5b6000610f4d610f486109ae565b6118bd565b610f56436118bd565b610f6091906136f5565b90506000610f74610f6f6106bb565b6118bd565b82610f7f91906136f5565b9050610f97828460000161191490919063ffffffff16565b610fad818460010161191490919063ffffffff16565b7f7d84a6263ae0d98d3329bd7b46bb4e8d6f98cd35a7adb45c274c8b7fd5ebd5e084610fd761189b565b8b8b8d5167ffffffffffffffff81111561101a577f4e487b7100000000000000000000000000000000000000000000000000000000600052604160045260246000fd5b60405190808252806020026020018201604052801561104d57816020015b60608152602001906001900390816110385790505b508c88888e6040516110679998979695949392919061331e565b60405180910390a183945050505050949350505050565b60006110db600160008481526020019081526020016000206001016040518060200160405290816000820160009054906101000a900467ffffffffffffffff1667ffffffffffffffff1667ffffffffffffffff16815250506113b3565b67ffffffffffffffff169050919050565b6000848484846040516020016111059493929190612f8c565b6040516020818303038152906040528051906020012060001c9050949350505050565b60606040518060400160405280602081526020017f737570706f72743d627261766f2671756f72756d3d666f722c6162737461696e815250905090565b7f150214d74d59b7d1e90c73fc22ef3d991dd0a76b046543d4d80ab92d2a50328f81565b60006111958383611943565b905092915050565b6000919050565b7f000000000000000000000000000000000000000000000000000000000000000081565b60007f01ffc9a7000000000000000000000000000000000000000000000000000000007bffffffffffffffffffffffffffffffffffffffffffffffffffffffff1916827bffffffffffffffffffffffffffffffffffffffffffffffffffffffff1916149050919050565b6000604051806060016040528060278152602001613e6660279139905060005b85518110156113aa57600080878381518110611297577f4e487b7100000000000000000000000000000000000000000000000000000000600052603260045260246000fd5b602002602001015173ffffffffffffffffffffffffffffffffffffffff168784815181106112ee577f4e487b7100000000000000000000000000000000000000000000000000000000600052603260045260246000fd5b602002602001015187858151811061132f577f4e487b7100000000000000000000000000000000000000000000000000000000600052603260045260246000fd5b60200260200101516040516113449190612f15565b60006040518083038185875af1925050503d8060008114611381576040519150601f19603f3d011682016040523d82523d6000602084013e611386565b606091505b5091509150611396828286611a06565b505050806113a3906138ea565b9050611252565b50505050505050565b600081600001519050919050565b60006113d46113ce611a6d565b83611b30565b9050919050565b60008060006113ec87878787611b63565b915091506113f981611c70565b8192505050949350505050565b60008060016000878152602001908152602001600020905060016007811115611458577f4e487b7100000000000000000000000000000000000000000000000000000000600052602160045260246000fd5b61146187610a60565b6007811115611499577f4e487b7100000000000000000000000000000000000000000000000000000000600052602160045260246000fd5b146114d9576040517f08c379a00000000000000000000000000000000000000000000000000000000081526004016114d0906131e3565b60405180910390fd5b600061153786611528846000016040518060200160405290816000820160009054906101000a900467ffffffffffffffff1667ffffffffffffffff1667ffffffffffffffff16815250506113b3565b67ffffffffffffffff16611189565b905061154587878784611fc1565b8573ffffffffffffffffffffffffffffffffffffffff167fb8e138887d0aa13bab447e82de9d5c1777041ecd21ca36ba824ff1e6c07ddda4888784886040516115919493929190613405565b60405180910390a28092505050949350505050565b600043826000015167ffffffffffffffff16119050919050565b60006115cb82612239565b80156115e5575043826000015167ffffffffffffffff1611155b9050919050565b60008060026000848152602001908152602001600020905080600201548160010154611618919061369f565b61162961162485610940565b61119d565b1115915050919050565b6000806002600084815260200190815260200160002090508060000154816001015411915050919050565b60008061166d868686866110ec565b9050600061167a82610a60565b9050600260078111156116b6577f4e487b7100000000000000000000000000000000000000000000000000000000600052602160045260246000fd5b8160078111156116ef577f4e487b7100000000000000000000000000000000000000000000000000000000600052602160045260246000fd5b1415801561176e575060066007811115611732577f4e487b7100000000000000000000000000000000000000000000000000000000600052602160045260246000fd5b81600781111561176b577f4e487b7100000000000000000000000000000000000000000000000000000000600052602160045260246000fd5b14155b80156117ea57506007808111156117ae577f4e487b7100000000000000000000000000000000000000000000000000000000600052602160045260246000fd5b8160078111156117e7577f4e487b7100000000000000000000000000000000000000000000000000000000600052602160045260246000fd5b14155b611829576040517f08c379a000000000000000000000000000000000000000000000000000000000815260040161182090613263565b60405180910390fd5b600180600084815260200190815260200160002060020160016101000a81548160ff0219169083151502179055507f789cf55be980739dad1d0699b93b58e806b51c9d96619bfa8fe0a28abaa7b30c826040516118869190613303565b60405180910390a18192505050949350505050565b600033905090565b600080826000015167ffffffffffffffff16149050919050565b600067ffffffffffffffff801682111561190c576040517f08c379a000000000000000000000000000000000000000000000000000000000815260040161190390613243565b60405180910390fd5b819050919050565b808260000160006101000a81548167ffffffffffffffff021916908367ffffffffffffffff1602179055505050565b60007f000000000000000000000000000000000000000000000000000000000000000073ffffffffffffffffffffffffffffffffffffffff1663782d6fe184846040518363ffffffff1660e01b81526004016119a0929190612f63565b60206040518083038186803b1580156119b857600080fd5b505afa1580156119cc573d6000803e3d6000fd5b505050506040513d601f19601f820116820180604052508101906119f09190612958565b6bffffffffffffffffffffffff16905092915050565b60608315611a1657829050611a66565b600083511115611a295782518084602001fd5b816040517f08c379a0000000000000000000000000000000000000000000000000000000008152600401611a5d9190613121565b60405180910390fd5b9392505050565b60007f0000000000000000000000000000000000000000000000000000000000000000461415611abf577f00000000000000000000000000000000000000000000000000000000000000009050611b2d565b611b2a7f00000000000000000000000000000000000000000000000000000000000000007f00000000000000000000000000000000000000000000000000000000000000007f0000000000000000000000000000000000000000000000000000000000000000612253565b90505b90565b60008282604051602001611b45929190612f2c565b60405160208183030381529060405280519060200120905092915050565b6000807f7fffffffffffffffffffffffffffffff5d576e7357a4501ddfe92f46681b20a08360001c1115611b9e576000600391509150611c67565b601b8560ff1614158015611bb65750601c8560ff1614155b15611bc8576000600491509150611c67565b600060018787878760405160008152602001604052604051611bed94939291906130a6565b6020604051602081039080840390855afa158015611c0f573d6000803e3d6000fd5b505050602060405103519050600073ffffffffffffffffffffffffffffffffffffffff168173ffffffffffffffffffffffffffffffffffffffff161415611c5e57600060019250925050611c67565b80600092509250505b94509492505050565b60006004811115611caa577f4e487b7100000000000000000000000000000000000000000000000000000000600052602160045260246000fd5b816004811115611ce3577f4e487b7100000000000000000000000000000000000000000000000000000000600052602160045260246000fd5b1415611cee57611fbe565b60016004811115611d28577f4e487b7100000000000000000000000000000000000000000000000000000000600052602160045260246000fd5b816004811115611d61577f4e487b7100000000000000000000000000000000000000000000000000000000600052602160045260246000fd5b1415611da2576040517f08c379a0000000000000000000000000000000000000000000000000000000008152600401611d9990613143565b60405180910390fd5b60026004811115611ddc577f4e487b7100000000000000000000000000000000000000000000000000000000600052602160045260246000fd5b816004811115611e15577f4e487b7100000000000000000000000000000000000000000000000000000000600052602160045260246000fd5b1415611e56576040517f08c379a0000000000000000000000000000000000000000000000000000000008152600401611e4d90613163565b60405180910390fd5b60036004811115611e90577f4e487b7100000000000000000000000000000000000000000000000000000000600052602160045260246000fd5b816004811115611ec9577f4e487b7100000000000000000000000000000000000000000000000000000000600052602160045260246000fd5b1415611f0a576040517f08c379a0000000000000000000000000000000000000000000000000000000008152600401611f01906131a3565b60405180910390fd5b600480811115611f43577f4e487b7100000000000000000000000000000000000000000000000000000000600052602160045260246000fd5b816004811115611f7c577f4e487b7100000000000000000000000000000000000000000000000000000000600052602160045260246000fd5b1415611fbd576040517f08c379a0000000000000000000000000000000000000000000000000000000008152600401611fb490613223565b60405180910390fd5b5b50565b60006002600086815260200190815260200160002090508060030160008573ffffffffffffffffffffffffffffffffffffffff1673ffffffffffffffffffffffffffffffffffffffff16815260200190815260200160002060009054906101000a900460ff1615612067576040517f08c379a000000000000000000000000000000000000000000000000000000000815260040161205e906131c3565b60405180910390fd5b60018160030160008673ffffffffffffffffffffffffffffffffffffffff1673ffffffffffffffffffffffffffffffffffffffff16815260200190815260200160002060006101000a81548160ff021916908315150217905550600060028111156120fb577f4e487b7100000000000000000000000000000000000000000000000000000000600052602160045260246000fd5b60ff168360ff161415612128578181600001600082825461211c919061369f565b92505081905550612232565b60016002811115612162577f4e487b7100000000000000000000000000000000000000000000000000000000600052602160045260246000fd5b60ff168360ff16141561218f5781816001016000828254612183919061369f565b92505081905550612231565b6002808111156121c8577f4e487b7100000000000000000000000000000000000000000000000000000000600052602160045260246000fd5b60ff168360ff1614156121f557818160020160008282546121e9919061369f565b92505081905550612230565b6040517f08c379a0000000000000000000000000000000000000000000000000000000008152600401612227906132c3565b60405180910390fd5b5b5b5050505050565b600080826000015167ffffffffffffffff16119050919050565b6000838383463060405160200161226e95949392919061301c565b6040516020818303038152906040528051906020012090509392505050565b60006122a061229b84613476565b613451565b905080838252602082019050828560208602820111156122bf57600080fd5b60005b858110156122ef57816122d58882612467565b8452602084019350602083019250506001810190506122c2565b5050509392505050565b600061230c612307846134a2565b613451565b9050808382526020820190508285602086028201111561232b57600080fd5b60005b8581101561237557813567ffffffffffffffff81111561234d57600080fd5b80860161235a8982612524565b8552602085019450602084019350505060018101905061232e565b5050509392505050565b600061239261238d846134ce565b613451565b905080838252602082019050828560208602820111156123b157600080fd5b60005b858110156123e157816123c788826125c2565b8452602084019350602083019250506001810190506123b4565b5050509392505050565b60006123fe6123f9846134fa565b613451565b90508281526020810184848401111561241657600080fd5b612421848285613845565b509392505050565b600061243c6124378461352b565b613451565b90508281526020810184848401111561245457600080fd5b61245f848285613845565b509392505050565b60008135905061247681613ddb565b92915050565b600082601f83011261248d57600080fd5b813561249d84826020860161228d565b91505092915050565b600082601f8301126124b757600080fd5b81356124c78482602086016122f9565b91505092915050565b600082601f8301126124e157600080fd5b81356124f184826020860161237f565b91505092915050565b60008135905061250981613df2565b92915050565b60008135905061251e81613e09565b92915050565b600082601f83011261253557600080fd5b81356125458482602086016123eb565b91505092915050565b60008083601f84011261256057600080fd5b8235905067ffffffffffffffff81111561257957600080fd5b60208301915083600182028301111561259157600080fd5b9250929050565b600082601f8301126125a957600080fd5b81356125b9848260208601612429565b91505092915050565b6000813590506125d181613e20565b92915050565b6000813590506125e681613e37565b92915050565b6000815190506125fb81613e4e565b92915050565b6000806040838503121561261457600080fd5b600061262285828601612467565b9250506020612633858286016125c2565b9150509250929050565b6000806000806080858703121561265357600080fd5b600085013567ffffffffffffffff81111561266d57600080fd5b6126798782880161247c565b945050602085013567ffffffffffffffff81111561269657600080fd5b6126a2878288016124d0565b935050604085013567ffffffffffffffff8111156126bf57600080fd5b6126cb878288016124a6565b92505060606126dc878288016124fa565b91505092959194509250565b600080600080608085870312156126fe57600080fd5b600085013567ffffffffffffffff81111561271857600080fd5b6127248782880161247c565b945050602085013567ffffffffffffffff81111561274157600080fd5b61274d878288016124d0565b935050604085013567ffffffffffffffff81111561276a57600080fd5b612776878288016124a6565b925050606085013567ffffffffffffffff81111561279357600080fd5b61279f87828801612598565b91505092959194509250565b6000602082840312156127bd57600080fd5b60006127cb8482850161250f565b91505092915050565b6000602082840312156127e657600080fd5b60006127f4848285016125c2565b91505092915050565b6000806040838503121561281057600080fd5b600061281e858286016125c2565b925050602061282f85828601612467565b9150509250929050565b6000806040838503121561284c57600080fd5b600061285a858286016125c2565b925050602061286b858286016125d7565b9150509250929050565b6000806000806060858703121561288b57600080fd5b6000612899878288016125c2565b94505060206128aa878288016125d7565b935050604085013567ffffffffffffffff8111156128c757600080fd5b6128d38782880161254e565b925092505092959194509250565b600080600080600060a086880312156128f957600080fd5b6000612907888289016125c2565b9550506020612918888289016125d7565b9450506040612929888289016125d7565b935050606061293a888289016124fa565b925050608061294b888289016124fa565b9150509295509295909350565b60006020828403121561296a57600080fd5b6000612978848285016125ec565b91505092915050565b600061298d83836129d9565b60208301905092915050565b60006129a58383612bd2565b905092915050565b60006129b98383612c5a565b905092915050565b60006129cd8383612ed9565b60208301905092915050565b6129e281613733565b82525050565b6129f181613733565b82525050565b6000612a028261359c565b612a0c8185613612565b9350612a178361355c565b8060005b83811015612a48578151612a2f8882612981565b9750612a3a836135de565b925050600181019050612a1b565b5085935050505092915050565b6000612a60826135a7565b612a6a8185613623565b935083602082028501612a7c8561356c565b8060005b85811015612ab85784840389528151612a998582612999565b9450612aa4836135eb565b925060208a01995050600181019050612a80565b50829750879550505050505092915050565b6000612ad5826135b2565b612adf8185613634565b935083602082028501612af18561357c565b8060005b85811015612b2d5784840389528151612b0e85826129ad565b9450612b19836135f8565b925060208a01995050600181019050612af5565b50829750879550505050505092915050565b6000612b4a826135bd565b612b548185613645565b9350612b5f8361358c565b8060005b83811015612b90578151612b7788826129c1565b9750612b8283613605565b925050600181019050612b63565b5085935050505092915050565b612ba681613745565b82525050565b612bb581613751565b82525050565b612bcc612bc782613751565b613933565b82525050565b6000612bdd826135c8565b612be78185613656565b9350612bf7818560208601613854565b612c00816139f9565b840191505092915050565b6000612c16826135c8565b612c208185613667565b9350612c30818560208601613854565b80840191505092915050565b612c45816137fd565b82525050565b612c5481613821565b82525050565b6000612c65826135d3565b612c6f8185613672565b9350612c7f818560208601613854565b612c88816139f9565b840191505092915050565b6000612c9e826135d3565b612ca88185613683565b9350612cb8818560208601613854565b612cc1816139f9565b840191505092915050565b6000612cd9601883613683565b9150612ce482613a0a565b602082019050919050565b6000612cfc601f83613683565b9150612d0782613a33565b602082019050919050565b6000612d1f600283613694565b9150612d2a82613a5c565b600282019050919050565b6000612d42602183613683565b9150612d4d82613a85565b604082019050919050565b6000612d65602283613683565b9150612d7082613ad4565b604082019050919050565b6000612d88602783613683565b9150612d9382613b23565b604082019050919050565b6000612dab602383613683565b9150612db682613b72565b604082019050919050565b6000612dce601883613683565b9150612dd982613bc1565b602082019050919050565b6000612df1602283613683565b9150612dfc82613bea565b604082019050919050565b6000612e14602683613683565b9150612e1f82613c39565b604082019050919050565b6000612e37601d83613683565b9150612e4282613c88565b602082019050919050565b6000612e5a602183613683565b9150612e6582613cb1565b604082019050919050565b6000612e7d601d83613683565b9150612e8882613d00565b602082019050919050565b6000612ea0603583613683565b9150612eab82613d29565b604082019050919050565b6000612ec3602183613683565b9150612ece82613d78565b604082019050919050565b612ee2816137ba565b82525050565b612ef1816137ba565b82525050565b612f0081613833565b82525050565b612f0f816137d8565b82525050565b6000612f218284612c0b565b915081905092915050565b6000612f3782612d12565b9150612f438285612bbb565b602082019150612f538284612bbb565b6020820191508190509392505050565b6000604082019050612f7860008301856129e8565b612f856020830184612ee8565b9392505050565b60006080820190508181036000830152612fa681876129f7565b90508181036020830152612fba8186612b3f565b90508181036040830152612fce8185612a55565b9050612fdd6060830184612bac565b95945050505050565b6000602082019050612ffb6000830184612b9d565b92915050565b60006020820190506130166000830184612bac565b92915050565b600060a0820190506130316000830188612bac565b61303e6020830187612bac565b61304b6040830186612bac565b6130586060830185612ee8565b61306560808301846129e8565b9695505050505050565b60006060820190506130846000830186612bac565b6130916020830185612ee8565b61309e6040830184612f06565b949350505050565b60006080820190506130bb6000830187612bac565b6130c86020830186612f06565b6130d56040830185612bac565b6130e26060830184612bac565b95945050505050565b60006020820190506131006000830184612c3c565b92915050565b600060208201905061311b6000830184612c4b565b92915050565b6000602082019050818103600083015261313b8184612c93565b905092915050565b6000602082019050818103600083015261315c81612ccc565b9050919050565b6000602082019050818103600083015261317c81612cef565b9050919050565b6000602082019050818103600083015261319c81612d35565b9050919050565b600060208201905081810360008301526131bc81612d58565b9050919050565b600060208201905081810360008301526131dc81612d7b565b9050919050565b600060208201905081810360008301526131fc81612d9e565b9050919050565b6000602082019050818103600083015261321c81612dc1565b9050919050565b6000602082019050818103600083015261323c81612de4565b9050919050565b6000602082019050818103600083015261325c81612e07565b9050919050565b6000602082019050818103600083015261327c81612e2a565b9050919050565b6000602082019050818103600083015261329c81612e4d565b9050919050565b600060208201905081810360008301526132bc81612e70565b9050919050565b600060208201905081810360008301526132dc81612e93565b9050919050565b600060208201905081810360008301526132fc81612eb6565b9050919050565b60006020820190506133186000830184612ee8565b92915050565b600061012082019050613334600083018c612ee8565b613341602083018b6129e8565b8181036040830152613353818a6129f7565b905081810360608301526133678189612b3f565b9050818103608083015261337b8188612aca565b905081810360a083015261338f8187612a55565b905061339e60c0830186612ef7565b6133ab60e0830185612ef7565b8181036101008301526133be8184612c93565b90509a9950505050505050505050565b60006060820190506133e36000830186612ee8565b6133f06020830185612ee8565b6133fd6040830184612ee8565b949350505050565b600060808201905061341a6000830187612ee8565b6134276020830186612f06565b6134346040830185612ee8565b81810360608301526134468184612c93565b905095945050505050565b600061345b61346c565b905061346782826138b9565b919050565b6000604051905090565b600067ffffffffffffffff821115613491576134906139ca565b5b602082029050602081019050919050565b600067ffffffffffffffff8211156134bd576134bc6139ca565b5b602082029050602081019050919050565b600067ffffffffffffffff8211156134e9576134e86139ca565b5b602082029050602081019050919050565b600067ffffffffffffffff821115613515576135146139ca565b5b61351e826139f9565b9050602081019050919050565b600067ffffffffffffffff821115613546576135456139ca565b5b61354f826139f9565b9050602081019050919050565b6000819050602082019050919050565b6000819050602082019050919050565b6000819050602082019050919050565b6000819050602082019050919050565b600081519050919050565b600081519050919050565b600081519050919050565b600081519050919050565b600081519050919050565b600081519050919050565b6000602082019050919050565b6000602082019050919050565b6000602082019050919050565b6000602082019050919050565b600082825260208201905092915050565b600082825260208201905092915050565b600082825260208201905092915050565b600082825260208201905092915050565b600082825260208201905092915050565b600081905092915050565b600082825260208201905092915050565b600082825260208201905092915050565b600081905092915050565b60006136aa826137ba565b91506136b5836137ba565b9250827fffffffffffffffffffffffffffffffffffffffffffffffffffffffffffffffff038211156136ea576136e961393d565b5b828201905092915050565b6000613700826137c4565b915061370b836137c4565b92508267ffffffffffffffff038211156137285761372761393d565b5b828201905092915050565b600061373e8261379a565b9050919050565b60008115159050919050565b6000819050919050565b60007fffffffff0000000000000000000000000000000000000000000000000000000082169050919050565b600081905061379582613dc7565b919050565b600073ffffffffffffffffffffffffffffffffffffffff82169050919050565b6000819050919050565b600067ffffffffffffffff82169050919050565b600060ff82169050919050565b60006bffffffffffffffffffffffff82169050919050565b60006138088261380f565b9050919050565b600061381a8261379a565b9050919050565b600061382c82613787565b9050919050565b600061383e826137c4565b9050919050565b82818337600083830152505050565b60005b83811015613872578082015181840152602081019050613857565b83811115613881576000848401525b50505050565b6000600282049050600182168061389f57607f821691505b602082108114156138b3576138b261399b565b5b50919050565b6138c2826139f9565b810181811067ffffffffffffffff821117156138e1576138e06139ca565b5b80604052505050565b60006138f5826137ba565b91507fffffffffffffffffffffffffffffffffffffffffffffffffffffffffffffffff8214156139285761392761393d565b5b600182019050919050565b6000819050919050565b7f4e487b7100000000000000000000000000000000000000000000000000000000600052601160045260246000fd5b7f4e487b7100000000000000000000000000000000000000000000000000000000600052602160045260246000fd5b7f4e487b7100000000000000000000000000000000000000000000000000000000600052602260045260246000fd5b7f4e487b7100000000000000000000000000000000000000000000000000000000600052604160045260246000fd5b6000601f19601f8301169050919050565b7f45434453413a20696e76616c6964207369676e61747572650000000000000000600082015250565b7f45434453413a20696e76616c6964207369676e6174757265206c656e67746800600082015250565b7f1901000000000000000000000000000000000000000000000000000000000000600082015250565b7f476f7665726e6f723a20696e76616c69642070726f706f73616c206c656e677460008201527f6800000000000000000000000000000000000000000000000000000000000000602082015250565b7f45434453413a20696e76616c6964207369676e6174757265202773272076616c60008201527f7565000000000000000000000000000000000000000000000000000000000000602082015250565b7f476f7665726e6f72566f74696e6753696d706c653a20766f746520616c72656160008201527f6479206361737400000000000000000000000000000000000000000000000000602082015250565b7f476f7665726e6f723a20766f7465206e6f742063757272656e746c792061637460008201527f6976650000000000000000000000000000000000000000000000000000000000602082015250565b7f476f7665726e6f723a20656d7074792070726f706f73616c0000000000000000600082015250565b7f45434453413a20696e76616c6964207369676e6174757265202776272076616c60008201527f7565000000000000000000000000000000000000000000000000000000000000602082015250565b7f53616665436173743a2076616c756520646f65736e27742066697420696e203660008201527f3420626974730000000000000000000000000000000000000000000000000000602082015250565b7f476f7665726e6f723a2070726f706f73616c206e6f7420616374697665000000600082015250565b7f476f7665726e6f723a2070726f706f73616c206e6f742073756363657373667560008201527f6c00000000000000000000000000000000000000000000000000000000000000602082015250565b7f476f7665726e6f723a20756e6b6e6f776e2070726f706f73616c206964000000600082015250565b7f476f7665726e6f72566f74696e6753696d706c653a20696e76616c696420766160008201527f6c756520666f7220656e756d20566f7465547970650000000000000000000000602082015250565b7f476f7665726e6f723a2070726f706f73616c20616c726561647920657869737460008201527f7300000000000000000000000000000000000000000000000000000000000000602082015250565b60088110613dd857613dd761396c565b5b50565b613de481613733565b8114613def57600080fd5b50565b613dfb81613751565b8114613e0657600080fd5b50565b613e128161375b565b8114613e1d57600080fd5b50565b613e29816137ba565b8114613e3457600080fd5b50565b613e40816137d8565b8114613e4b57600080fd5b50565b613e57816137e5565b8114613e6257600080fd5b5056fe476f7665726e6f723a2063616c6c20726576657274656420776974686f7574206d657373616765a26469706673582212201e3602fc4745582fe665e7a7b711dfaa4f673a9921f3546fdd1ed069ac23793c64736f6c63430008040033",
  "immutableReferences": {
    "5060": [
      {
        "length": 32,
        "start": 4518
      },
      {
        "length": 32,
        "start": 6471
      }
    ],
    "9729": [
      {
        "length": 32,
        "start": 2482
      }
    ],
    "9731": [
      {
        "length": 32,
        "start": 1727
      }
    ],
    "24269": [
      {
        "length": 32,
        "start": 6809
      }
    ],
    "24271": [
      {
        "length": 32,
        "start": 6769
      }
    ],
    "24273": [
      {
        "length": 32,
        "start": 6885
      }
    ],
    "24275": [
      {
        "length": 32,
        "start": 6918
      }
    ],
    "24277": [
      {
        "length": 32,
        "start": 6852
      }
    ]
  },
  "source": "// SPDX-License-Identifier: MIT\n\npragma solidity ^0.8.0;\n\nimport \"../governance/Governor.sol\";\nimport \"../governance/extensions/GovernorCountingSimple.sol\";\nimport \"../governance/extensions/GovernorVotesComp.sol\";\n\ncontract GovernorCompMock is Governor, GovernorVotesComp, GovernorCountingSimple {\n    uint256 immutable _votingDelay;\n    uint256 immutable _votingPeriod;\n\n    constructor(\n        string memory name_,\n        ERC20VotesComp token_,\n        uint256 votingDelay_,\n        uint256 votingPeriod_\n    ) Governor(name_) GovernorVotesComp(token_) {\n        _votingDelay = votingDelay_;\n        _votingPeriod = votingPeriod_;\n    }\n\n    function votingDelay() public view override returns (uint256) {\n        return _votingDelay;\n    }\n\n    function votingPeriod() public view override returns (uint256) {\n        return _votingPeriod;\n    }\n\n    function quorum(uint256) public pure override returns (uint256) {\n        return 0;\n    }\n\n    function cancel(\n        address[] memory targets,\n        uint256[] memory values,\n        bytes[] memory calldatas,\n        bytes32 salt\n    ) public returns (uint256 proposalId) {\n        return _cancel(targets, values, calldatas, salt);\n    }\n\n    function getVotes(address account, uint256 blockNumber)\n        public\n        view\n        virtual\n        override(IGovernor, GovernorVotesComp)\n        returns (uint256)\n    {\n        return super.getVotes(account, blockNumber);\n    }\n}\n",
  "sourcePath": "/Users/alexanderpetrovskiy/work/neon/neon-uat/openzeppelin-contracts/contracts/mocks/GovernorCompMock.sol",
  "compiler": {
    "name": "solc",
    "version": "0.8.4+commit.c7e474f2.Emscripten.clang"
  },
  "schemaVersion": "3.4.3",
  "updatedAt": "2021-10-12T15:22:38.898Z",
  "devdoc": {
    "kind": "dev",
    "methods": {
      "COUNTING_MODE()": {
        "details": "See {IGovernor-COUNTING_MODE}."
      },
      "castVote(uint256,uint8)": {
        "details": "See {IGovernor-castVote}."
      },
      "castVoteBySig(uint256,uint8,uint8,bytes32,bytes32)": {
        "details": "See {IGovernor-castVoteBySig}."
      },
      "castVoteWithReason(uint256,uint8,string)": {
        "details": "See {IGovernor-castVoteWithReason}."
      },
      "execute(address[],uint256[],bytes[],bytes32)": {
        "details": "See {IGovernor-execute}."
      },
      "hasVoted(uint256,address)": {
        "details": "See {IGovernor-hasVoted}."
      },
      "hashProposal(address[],uint256[],bytes[],bytes32)": {
        "details": "See {IGovernor-hashProposal}. The proposal id is produced by hashing the RLC encoded `targets` array, the `values` array, the `calldatas` array and the descriptionHash (bytes32 which itself is the keccak256 hash of the description string). This proposal id can be produced from the proposal data which is part of the {ProposalCreated} event. It can even be computed in advance, before the proposal is submitted. Note that the chainId and the governor address are not part of the proposal id computation. Consequently, the same proposal (with same operation and same description) will have the same id if submitted on multiple governors accross multiple networks. This also means that in order to execute the same operation twice (on the same governor) the proposer will have to change the description in order to avoid proposal id conflicts."
      },
      "name()": {
        "details": "See {IGovernor-name}."
      },
      "proposalDeadline(uint256)": {
        "details": "See {IGovernor-proposalDeadline}."
      },
      "proposalSnapshot(uint256)": {
        "details": "See {IGovernor-proposalSnapshot}."
      },
      "proposalVotes(uint256)": {
        "details": "Accessor to the internal vote counts."
      },
      "propose(address[],uint256[],bytes[],string)": {
        "details": "See {IGovernor-propose}."
      },
      "state(uint256)": {
        "details": "See {IGovernor-state}."
      },
      "supportsInterface(bytes4)": {
        "details": "See {IERC165-supportsInterface}."
      },
      "version()": {
        "details": "See {IGovernor-version}."
      },
      "votingDelay()": {
        "details": "delay, in number of block, between the proposal is created and the vote starts. This can be increassed to leave time for users to buy voting power, of delegate it, before the voting of a proposal starts."
      },
      "votingPeriod()": {
        "details": "delay, in number of blocks, between the vote start and vote ends. Note: the {votingDelay} can delay the start of the vote. This must be considered when setting the voting duration compared to the voting delay."
      }
    },
    "version": 1
  },
  "userdoc": {
    "kind": "user",
    "methods": {
      "votingDelay()": {
        "notice": "module:user-config"
      },
      "votingPeriod()": {
        "notice": "module:user-config"
      }
    },
    "version": 1
  }
}