{
  "contractName": "GovernorMock",
  "abi": [
    {
      "inputs": [
        {
          "internalType": "string",
          "name": "name_",
          "type": "string"
        },
        {
          "internalType": "contract ERC20Votes",
          "name": "token_",
          "type": "address"
        },
        {
          "internalType": "uint256",
          "name": "votingDelay_",
          "type": "uint256"
        },
        {
          "internalType": "uint256",
          "name": "votingPeriod_",
          "type": "uint256"
        },
        {
          "internalType": "uint256",
          "name": "quorumNumerator_",
          "type": "uint256"
        }
      ],
      "stateMutability": "nonpayable",
      "type": "constructor"
    },
    {
      "anonymous": false,
      "inputs": [
        {
          "indexed": false,
          "internalType": "uint256",
          "name": "proposalId",
          "type": "uint256"
        }
      ],
      "name": "ProposalCanceled",
      "type": "event"
    },
    {
      "anonymous": false,
      "inputs": [
        {
          "indexed": false,
          "internalType": "uint256",
          "name": "proposalId",
          "type": "uint256"
        },
        {
          "indexed": false,
          "internalType": "address",
          "name": "proposer",
          "type": "address"
        },
        {
          "indexed": false,
          "internalType": "address[]",
          "name": "targets",
          "type": "address[]"
        },
        {
          "indexed": false,
          "internalType": "uint256[]",
          "name": "values",
          "type": "uint256[]"
        },
        {
          "indexed": false,
          "internalType": "string[]",
          "name": "signatures",
          "type": "string[]"
        },
        {
          "indexed": false,
          "internalType": "bytes[]",
          "name": "calldatas",
          "type": "bytes[]"
        },
        {
          "indexed": false,
          "internalType": "uint256",
          "name": "startBlock",
          "type": "uint256"
        },
        {
          "indexed": false,
          "internalType": "uint256",
          "name": "endBlock",
          "type": "uint256"
        },
        {
          "indexed": false,
          "internalType": "string",
          "name": "description",
          "type": "string"
        }
      ],
      "name": "ProposalCreated",
      "type": "event"
    },
    {
      "anonymous": false,
      "inputs": [
        {
          "indexed": false,
          "internalType": "uint256",
          "name": "proposalId",
          "type": "uint256"
        }
      ],
      "name": "ProposalExecuted",
      "type": "event"
    },
    {
      "anonymous": false,
      "inputs": [
        {
          "indexed": false,
          "internalType": "uint256",
          "name": "oldQuorumNumerator",
          "type": "uint256"
        },
        {
          "indexed": false,
          "internalType": "uint256",
          "name": "newQuorumNumerator",
          "type": "uint256"
        }
      ],
      "name": "QuorumNumeratorUpdated",
      "type": "event"
    },
    {
      "anonymous": false,
      "inputs": [
        {
          "indexed": true,
          "internalType": "address",
          "name": "voter",
          "type": "address"
        },
        {
          "indexed": false,
          "internalType": "uint256",
          "name": "proposalId",
          "type": "uint256"
        },
        {
          "indexed": false,
          "internalType": "uint8",
          "name": "support",
          "type": "uint8"
        },
        {
          "indexed": false,
          "internalType": "uint256",
          "name": "weight",
          "type": "uint256"
        },
        {
          "indexed": false,
          "internalType": "string",
          "name": "reason",
          "type": "string"
        }
      ],
      "name": "VoteCast",
      "type": "event"
    },
    {
      "inputs": [],
      "name": "BALLOT_TYPEHASH",
      "outputs": [
        {
          "internalType": "bytes32",
          "name": "",
          "type": "bytes32"
        }
      ],
      "stateMutability": "view",
      "type": "function"
    },
    {
      "inputs": [],
      "name": "COUNTING_MODE",
      "outputs": [
        {
          "internalType": "string",
          "name": "",
          "type": "string"
        }
      ],
      "stateMutability": "pure",
      "type": "function"
    },
    {
      "inputs": [
        {
          "internalType": "uint256",
          "name": "proposalId",
          "type": "uint256"
        },
        {
          "internalType": "uint8",
          "name": "support",
          "type": "uint8"
        }
      ],
      "name": "castVote",
      "outputs": [
        {
          "internalType": "uint256",
          "name": "",
          "type": "uint256"
        }
      ],
      "stateMutability": "nonpayable",
      "type": "function"
    },
    {
      "inputs": [
        {
          "internalType": "uint256",
          "name": "proposalId",
          "type": "uint256"
        },
        {
          "internalType": "uint8",
          "name": "support",
          "type": "uint8"
        },
        {
          "internalType": "uint8",
          "name": "v",
          "type": "uint8"
        },
        {
          "internalType": "bytes32",
          "name": "r",
          "type": "bytes32"
        },
        {
          "internalType": "bytes32",
          "name": "s",
          "type": "bytes32"
        }
      ],
      "name": "castVoteBySig",
      "outputs": [
        {
          "internalType": "uint256",
          "name": "",
          "type": "uint256"
        }
      ],
      "stateMutability": "nonpayable",
      "type": "function"
    },
    {
      "inputs": [
        {
          "internalType": "uint256",
          "name": "proposalId",
          "type": "uint256"
        },
        {
          "internalType": "uint8",
          "name": "support",
          "type": "uint8"
        },
        {
          "internalType": "string",
          "name": "reason",
          "type": "string"
        }
      ],
      "name": "castVoteWithReason",
      "outputs": [
        {
          "internalType": "uint256",
          "name": "",
          "type": "uint256"
        }
      ],
      "stateMutability": "nonpayable",
      "type": "function"
    },
    {
      "inputs": [
        {
          "internalType": "address[]",
          "name": "targets",
          "type": "address[]"
        },
        {
          "internalType": "uint256[]",
          "name": "values",
          "type": "uint256[]"
        },
        {
          "internalType": "bytes[]",
          "name": "calldatas",
          "type": "bytes[]"
        },
        {
          "internalType": "bytes32",
          "name": "descriptionHash",
          "type": "bytes32"
        }
      ],
      "name": "execute",
      "outputs": [
        {
          "internalType": "uint256",
          "name": "",
          "type": "uint256"
        }
      ],
      "stateMutability": "payable",
      "type": "function"
    },
    {
      "inputs": [
        {
          "internalType": "uint256",
          "name": "proposalId",
          "type": "uint256"
        },
        {
          "internalType": "address",
          "name": "account",
          "type": "address"
        }
      ],
      "name": "hasVoted",
      "outputs": [
        {
          "internalType": "bool",
          "name": "",
          "type": "bool"
        }
      ],
      "stateMutability": "view",
      "type": "function"
    },
    {
      "inputs": [
        {
          "internalType": "address[]",
          "name": "targets",
          "type": "address[]"
        },
        {
          "internalType": "uint256[]",
          "name": "values",
          "type": "uint256[]"
        },
        {
          "internalType": "bytes[]",
          "name": "calldatas",
          "type": "bytes[]"
        },
        {
          "internalType": "bytes32",
          "name": "descriptionHash",
          "type": "bytes32"
        }
      ],
      "name": "hashProposal",
      "outputs": [
        {
          "internalType": "uint256",
          "name": "",
          "type": "uint256"
        }
      ],
      "stateMutability": "pure",
      "type": "function"
    },
    {
      "inputs": [],
      "name": "name",
      "outputs": [
        {
          "internalType": "string",
          "name": "",
          "type": "string"
        }
      ],
      "stateMutability": "view",
      "type": "function"
    },
    {
      "inputs": [
        {
          "internalType": "uint256",
          "name": "proposalId",
          "type": "uint256"
        }
      ],
      "name": "proposalDeadline",
      "outputs": [
        {
          "internalType": "uint256",
          "name": "",
          "type": "uint256"
        }
      ],
      "stateMutability": "view",
      "type": "function"
    },
    {
      "inputs": [
        {
          "internalType": "uint256",
          "name": "proposalId",
          "type": "uint256"
        }
      ],
      "name": "proposalSnapshot",
      "outputs": [
        {
          "internalType": "uint256",
          "name": "",
          "type": "uint256"
        }
      ],
      "stateMutability": "view",
      "type": "function"
    },
    {
      "inputs": [
        {
          "internalType": "uint256",
          "name": "proposalId",
          "type": "uint256"
        }
      ],
      "name": "proposalVotes",
      "outputs": [
        {
          "internalType": "uint256",
          "name": "againstVotes",
          "type": "uint256"
        },
        {
          "internalType": "uint256",
          "name": "forVotes",
          "type": "uint256"
        },
        {
          "internalType": "uint256",
          "name": "abstainVotes",
          "type": "uint256"
        }
      ],
      "stateMutability": "view",
      "type": "function"
    },
    {
      "inputs": [
        {
          "internalType": "address[]",
          "name": "targets",
          "type": "address[]"
        },
        {
          "internalType": "uint256[]",
          "name": "values",
          "type": "uint256[]"
        },
        {
          "internalType": "bytes[]",
          "name": "calldatas",
          "type": "bytes[]"
        },
        {
          "internalType": "string",
          "name": "description",
          "type": "string"
        }
      ],
      "name": "propose",
      "outputs": [
        {
          "internalType": "uint256",
          "name": "",
          "type": "uint256"
        }
      ],
      "stateMutability": "nonpayable",
      "type": "function"
    },
    {
      "inputs": [
        {
          "internalType": "uint256",
          "name": "blockNumber",
          "type": "uint256"
        }
      ],
      "name": "quorum",
      "outputs": [
        {
          "internalType": "uint256",
          "name": "",
          "type": "uint256"
        }
      ],
      "stateMutability": "view",
      "type": "function"
    },
    {
      "inputs": [],
      "name": "quorumDenominator",
      "outputs": [
        {
          "internalType": "uint256",
          "name": "",
          "type": "uint256"
        }
      ],
      "stateMutability": "view",
      "type": "function"
    },
    {
      "inputs": [],
      "name": "quorumNumerator",
      "outputs": [
        {
          "internalType": "uint256",
          "name": "",
          "type": "uint256"
        }
      ],
      "stateMutability": "view",
      "type": "function"
    },
    {
      "inputs": [
        {
          "internalType": "uint256",
          "name": "proposalId",
          "type": "uint256"
        }
      ],
      "name": "state",
      "outputs": [
        {
          "internalType": "enum IGovernor.ProposalState",
          "name": "",
          "type": "uint8"
        }
      ],
      "stateMutability": "view",
      "type": "function"
    },
    {
      "inputs": [
        {
          "internalType": "bytes4",
          "name": "interfaceId",
          "type": "bytes4"
        }
      ],
      "name": "supportsInterface",
      "outputs": [
        {
          "internalType": "bool",
          "name": "",
          "type": "bool"
        }
      ],
      "stateMutability": "view",
      "type": "function"
    },
    {
      "inputs": [],
      "name": "token",
      "outputs": [
        {
          "internalType": "contract ERC20Votes",
          "name": "",
          "type": "address"
        }
      ],
      "stateMutability": "view",
      "type": "function"
    },
    {
      "inputs": [
        {
          "internalType": "uint256",
          "name": "newQuorumNumerator",
          "type": "uint256"
        }
      ],
      "name": "updateQuorumNumerator",
      "outputs": [],
      "stateMutability": "nonpayable",
      "type": "function"
    },
    {
      "inputs": [],
      "name": "version",
      "outputs": [
        {
          "internalType": "string",
          "name": "",
          "type": "string"
        }
      ],
      "stateMutability": "view",
      "type": "function"
    },
    {
      "stateMutability": "payable",
      "type": "receive"
    },
    {
      "inputs": [],
      "name": "votingDelay",
      "outputs": [
        {
          "internalType": "uint256",
          "name": "",
          "type": "uint256"
        }
      ],
      "stateMutability": "view",
      "type": "function"
    },
    {
      "inputs": [],
      "name": "votingPeriod",
      "outputs": [
        {
          "internalType": "uint256",
          "name": "",
          "type": "uint256"
        }
      ],
      "stateMutability": "view",
      "type": "function"
    },
    {
      "inputs": [
        {
          "internalType": "address[]",
          "name": "targets",
          "type": "address[]"
        },
        {
          "internalType": "uint256[]",
          "name": "values",
          "type": "uint256[]"
        },
        {
          "internalType": "bytes[]",
          "name": "calldatas",
          "type": "bytes[]"
        },
        {
          "internalType": "bytes32",
          "name": "salt",
          "type": "bytes32"
        }
      ],
      "name": "cancel",
      "outputs": [
        {
          "internalType": "uint256",
          "name": "proposalId",
          "type": "uint256"
        }
      ],
      "stateMutability": "nonpayable",
      "type": "function"
    },
    {
      "inputs": [
        {
          "internalType": "address",
          "name": "account",
          "type": "address"
        },
        {
          "internalType": "uint256",
          "name": "blockNumber",
          "type": "uint256"
        }
      ],
      "name": "getVotes",
      "outputs": [
        {
          "internalType": "uint256",
          "name": "",
          "type": "uint256"
        }
      ],
      "stateMutability": "view",
      "type": "function"
    }
  ],
  "bytecode": "0x6101806040523480156200001257600080fd5b5060405162004b9838038062004b988339818101604052810190620000389190620003bf565b808486806200004c6200014b60201b60201c565b60008280519060200120905060008280519060200120905060007f8b73c3c69bb8fe3d512ecc4cf759cc79239f7b179b0ffacaa9a75d522b39400f90508260c081815250508160e081815250504660a08181525050620000b48184846200018860201b60201c565b6080818152505080610100818152505050505050508060009080519060200190620000e19291906200026f565b50508073ffffffffffffffffffffffffffffffffffffffff166101208173ffffffffffffffffffffffffffffffffffffffff1660601b81525050506200012d81620001c460201b60201c565b508261014081815250508161016081815250505050505050620007e6565b60606040518060400160405280600181526020017f3100000000000000000000000000000000000000000000000000000000000000815250905090565b60008383834630604051602001620001a5959493929190620004b4565b6040516020818303038152906040528051906020012090509392505050565b620001d46200026660201b60201c565b81111562000219576040517f08c379a0000000000000000000000000000000000000000000000000000000008152600401620002109062000511565b60405180910390fd5b60006002549050816002819055507f0553476bf02ef2726e8ce5ced78d63e26e602e4a2257b1f559418e24b463399781836040516200025a92919062000533565b60405180910390a15050565b60006064905090565b8280546200027d9062000662565b90600052602060002090601f016020900481019282620002a15760008555620002ed565b82601f10620002bc57805160ff1916838001178555620002ed565b82800160010185558215620002ed579182015b82811115620002ec578251825591602001919060010190620002cf565b5b509050620002fc919062000300565b5090565b5b808211156200031b57600081600090555060010162000301565b5090565b600062000336620003308462000589565b62000560565b9050828152602081018484840111156200034f57600080fd5b6200035c8482856200062c565b509392505050565b6000815190506200037581620007b2565b92915050565b600082601f8301126200038d57600080fd5b81516200039f8482602086016200031f565b91505092915050565b600081519050620003b981620007cc565b92915050565b600080600080600060a08688031215620003d857600080fd5b600086015167ffffffffffffffff811115620003f357600080fd5b62000401888289016200037b565b9550506020620004148882890162000364565b94505060406200042788828901620003a8565b93505060606200043a88828901620003a8565b92505060806200044d88828901620003a8565b9150509295509295909350565b6200046581620005d0565b82525050565b6200047681620005e4565b82525050565b60006200048b604383620005bf565b915062000498826200073d565b606082019050919050565b620004ae8162000622565b82525050565b600060a082019050620004cb60008301886200046b565b620004da60208301876200046b565b620004e960408301866200046b565b620004f86060830185620004a3565b6200050760808301846200045a565b9695505050505050565b600060208201905081810360008301526200052c816200047c565b9050919050565b60006040820190506200054a6000830185620004a3565b620005596020830184620004a3565b9392505050565b60006200056c6200057f565b90506200057a828262000698565b919050565b6000604051905090565b600067ffffffffffffffff821115620005a757620005a6620006fd565b5b620005b2826200072c565b9050602081019050919050565b600082825260208201905092915050565b6000620005dd8262000602565b9050919050565b6000819050919050565b6000620005fb82620005d0565b9050919050565b600073ffffffffffffffffffffffffffffffffffffffff82169050919050565b6000819050919050565b60005b838110156200064c5780820151818401526020810190506200062f565b838111156200065c576000848401525b50505050565b600060028204905060018216806200067b57607f821691505b60208210811415620006925762000691620006ce565b5b50919050565b620006a3826200072c565b810181811067ffffffffffffffff82111715620006c557620006c4620006fd565b5b80604052505050565b7f4e487b7100000000000000000000000000000000000000000000000000000000600052602260045260246000fd5b7f4e487b7100000000000000000000000000000000000000000000000000000000600052604160045260246000fd5b6000601f19601f8301169050919050565b7f476f7665726e6f72566f74657351756f72756d4672616374696f6e3a2071756f60008201527f72756d4e756d657261746f72206f7665722071756f72756d44656e6f6d696e6160208201527f746f720000000000000000000000000000000000000000000000000000000000604082015250565b620007bd81620005ee565b8114620007c957600080fd5b50565b620007d78162000622565b8114620007e357600080fd5b50565b60805160a05160c05160e051610100516101205160601c610140516101605161433b6200085d600039600061076f01526000610aea0152600081816112fc015281816113c00152611bf601526000611d6501526000611da701526000611d8601526000611d1201526000611d3a015261433b6000f3fe60806040526004361061016a5760003560e01c806354fd4d50116100d1578063c01f9e371161008a578063deaaa7cc11610064578063deaaa7cc14610619578063eb9019d414610644578063f8ce560a14610681578063fc0c546a146106be576101b0565b8063c01f9e3714610574578063c59057e4146105b1578063dd4e2ba5146105ee576101b0565b806354fd4d501461043c57806356781388146104675780637b3c71d3146104a45780637d5e81e2146104e157806397c3d3341461051e578063a7713a7014610549576101b0565b80633932abb1116101235780633932abb1146102de5780633bccf4fd146103095780633e4f49e6146103465780634385963214610383578063452115d6146103c0578063544ffc9c146103fd576101b0565b806301ffc9a7146101b557806302a251a3146101f257806306f3f9e61461021d57806306fdde03146102465780632656227d146102715780632d63f693146102a1576101b0565b366101b0573073ffffffffffffffffffffffffffffffffffffffff1661018e6106e9565b73ffffffffffffffffffffffffffffffffffffffff16146101ae57600080fd5b005b600080fd5b3480156101c157600080fd5b506101dc60048036038101906101d79190612a4c565b6106f1565b6040516101e991906132cd565b60405180910390f35b3480156101fe57600080fd5b5061020761076b565b604051610214919061362a565b60405180910390f35b34801561022957600080fd5b50610244600480360381019061023f9190612a75565b610793565b005b34801561025257600080fd5b5061025b61081b565b6040516102689190613408565b60405180910390f35b61028b600480360381019061028691906128de565b6108ad565b604051610298919061362a565b60405180910390f35b3480156102ad57600080fd5b506102c860048036038101906102c39190612a75565b610a78565b6040516102d5919061362a565b60405180910390f35b3480156102ea57600080fd5b506102f3610ae6565b604051610300919061362a565b60405180910390f35b34801561031557600080fd5b50610330600480360381019061032b9190612bab565b610b0e565b60405161033d919061362a565b60405180910390f35b34801561035257600080fd5b5061036d60048036038101906103689190612a75565b610b98565b60405161037a91906133ed565b60405180910390f35b34801561038f57600080fd5b506103aa60048036038101906103a59190612ac7565b610d5f565b6040516103b791906132cd565b60405180910390f35b3480156103cc57600080fd5b506103e760048036038101906103e291906128de565b610dca565b6040516103f4919061362a565b60405180910390f35b34801561040957600080fd5b50610424600480360381019061041f9190612a75565b610de2565b6040516104339392919061371e565b60405180910390f35b34801561044857600080fd5b50610451610e1a565b60405161045e9190613408565b60405180910390f35b34801561047357600080fd5b5061048e60048036038101906104899190612b03565b610e57565b60405161049b919061362a565b60405180910390f35b3480156104b057600080fd5b506104cb60048036038101906104c69190612b3f565b610e88565b6040516104d8919061362a565b60405180910390f35b3480156104ed57600080fd5b5061050860048036038101906105039190612989565b610ef0565b604051610515919061362a565b60405180910390f35b34801561052a57600080fd5b506105336111b6565b604051610540919061362a565b60405180910390f35b34801561055557600080fd5b5061055e6111bf565b60405161056b919061362a565b60405180910390f35b34801561058057600080fd5b5061059b60048036038101906105969190612a75565b6111c9565b6040516105a8919061362a565b60405180910390f35b3480156105bd57600080fd5b506105d860048036038101906105d391906128de565b611237565b6040516105e5919061362a565b60405180910390f35b3480156105fa57600080fd5b50610603611273565b6040516106109190613408565b60405180910390f35b34801561062557600080fd5b5061062e6112b0565b60405161063b91906132e8565b60405180910390f35b34801561065057600080fd5b5061066b600480360381019061066691906128a2565b6112d4565b604051610678919061362a565b60405180910390f35b34801561068d57600080fd5b506106a860048036038101906106a39190612a75565b6112e8565b6040516106b5919061362a565b60405180910390f35b3480156106ca57600080fd5b506106d36113be565b6040516106e091906133d2565b60405180910390f35b600030905090565b60007fbf26d897000000000000000000000000000000000000000000000000000000007bffffffffffffffffffffffffffffffffffffffffffffffffffffffff1916827bffffffffffffffffffffffffffffffffffffffffffffffffffffffff191614806107645750610763826113e2565b5b9050919050565b60007f0000000000000000000000000000000000000000000000000000000000000000905090565b61079b6106e9565b73ffffffffffffffffffffffffffffffffffffffff166107b961144c565b73ffffffffffffffffffffffffffffffffffffffff161461080f576040517f08c379a00000000000000000000000000000000000000000000000000000000081526004016108069061344a565b60405180910390fd5b61081881611454565b50565b60606000805461082a90613c4a565b80601f016020809104026020016040519081016040528092919081815260200182805461085690613c4a565b80156108a35780601f10610878576101008083540402835291602001916108a3565b820191906000526020600020905b81548152906001019060200180831161088657829003601f168201915b5050505050905090565b6000806108bc86868686611237565b905060006108c982610b98565b905060046007811115610905577f4e487b7100000000000000000000000000000000000000000000000000000000600052602160045260246000fd5b81600781111561093e577f4e487b7100000000000000000000000000000000000000000000000000000000600052602160045260246000fd5b14806109ba57506005600781111561097f577f4e487b7100000000000000000000000000000000000000000000000000000000600052602160045260246000fd5b8160078111156109b8577f4e487b7100000000000000000000000000000000000000000000000000000000600052602160045260246000fd5b145b6109f9576040517f08c379a00000000000000000000000000000000000000000000000000000000081526004016109f0906135aa565b60405180910390fd5b600180600084815260200190815260200160002060020160006101000a81548160ff0219169083151502179055507f712ae1383f79ac853f8d882153778e0260ef8f03b504e2866e0593e04d2b291f82604051610a56919061362a565b60405180910390a1610a6b82888888886114e9565b8192505050949350505050565b6000610ad5600160008481526020019081526020016000206000016040518060200160405290816000820160009054906101000a900467ffffffffffffffff1667ffffffffffffffff1667ffffffffffffffff168152505061166a565b67ffffffffffffffff169050919050565b60007f0000000000000000000000000000000000000000000000000000000000000000905090565b600080610b6f610b677f150214d74d59b7d1e90c73fc22ef3d991dd0a76b046543d4d80ab92d2a50328f8989604051602001610b4c93929190613356565b60405160208183030381529060405280519060200120611678565b868686611692565b9050610b8c878288604051806020016040528060008152506116bd565b91505095945050505050565b60008060016000848152602001908152602001600020604051806080016040529081600082016040518060200160405290816000820160009054906101000a900467ffffffffffffffff1667ffffffffffffffff1667ffffffffffffffff16815250508152602001600182016040518060200160405290816000820160009054906101000a900467ffffffffffffffff1667ffffffffffffffff1667ffffffffffffffff168152505081526020016002820160009054906101000a900460ff161515151581526020016002820160019054906101000a900460ff1615151515815250509050806040015115610c91576007915050610d5a565b806060015115610ca5576002915050610d5a565b610cb2816000015161185d565b15610cc1576000915050610d5a565b610cce816020015161185d565b15610cdd576001915050610d5a565b610cea8160200151611877565b15610d1f57610cf8836118a3565b8015610d095750610d08836118ea565b5b610d14576003610d17565b60045b915050610d5a565b6040517f08c379a0000000000000000000000000000000000000000000000000000000008152600401610d51906135ca565b60405180910390fd5b919050565b60006003600084815260200190815260200160002060030160008373ffffffffffffffffffffffffffffffffffffffff1673ffffffffffffffffffffffffffffffffffffffff16815260200190815260200160002060009054906101000a900460ff16905092915050565b6000610dd885858585611915565b9050949350505050565b600080600080600360008681526020019081526020016000209050806000015481600101548260020154935093509350509193909250565b60606040518060400160405280600181526020017f3100000000000000000000000000000000000000000000000000000000000000815250905090565b600080610e6261144c565b9050610e7f848285604051806020016040528060008152506116bd565b91505092915050565b600080610e9361144c565b9050610ee586828787878080601f016020809104026020016040519081016040528093929190818152602001838380828437600081840152601f19601f820116905080830192505050505050506116bd565b915050949350505050565b600080610f068686868680519060200120611237565b90508451865114610f4c576040517f08c379a0000000000000000000000000000000000000000000000000000000008152600401610f43906134aa565b60405180910390fd5b8351865114610f90576040517f08c379a0000000000000000000000000000000000000000000000000000000008152600401610f87906134aa565b60405180910390fd5b6000865111610fd4576040517f08c379a0000000000000000000000000000000000000000000000000000000008152600401610fcb9061352a565b60405180910390fd5b6000600160008381526020019081526020016000209050611034816000016040518060200160405290816000820160009054906101000a900467ffffffffffffffff1667ffffffffffffffff1667ffffffffffffffff1681525050611b52565b611073576040517f08c379a000000000000000000000000000000000000000000000000000000000815260040161106a9061360a565b60405180910390fd5b6000611085611080610ae6565b611b6c565b61108e43611b6c565b6110989190613a45565b905060006110ac6110a761076b565b611b6c565b826110b79190613a45565b90506110cf8284600001611bc390919063ffffffff16565b6110e58184600101611bc390919063ffffffff16565b7f7d84a6263ae0d98d3329bd7b46bb4e8d6f98cd35a7adb45c274c8b7fd5ebd5e08461110f61144c565b8b8b8d5167ffffffffffffffff811115611152577f4e487b7100000000000000000000000000000000000000000000000000000000600052604160045260246000fd5b60405190808252806020026020018201604052801561118557816020015b60608152602001906001900390816111705790505b508c88888e60405161119f99989796959493929190613645565b60405180910390a183945050505050949350505050565b60006064905090565b6000600254905090565b6000611226600160008481526020019081526020016000206001016040518060200160405290816000820160009054906101000a900467ffffffffffffffff1667ffffffffffffffff1667ffffffffffffffff168152505061166a565b67ffffffffffffffff169050919050565b6000848484846040516020016112509493929190613273565b6040516020818303038152906040528051906020012060001c9050949350505050565b60606040518060400160405280602081526020017f737570706f72743d627261766f2671756f72756d3d666f722c6162737461696e815250905090565b7f150214d74d59b7d1e90c73fc22ef3d991dd0a76b046543d4d80ab92d2a50328f81565b60006112e08383611bf2565b905092915050565b60006112f26111b6565b6112fa6111bf565b7f000000000000000000000000000000000000000000000000000000000000000073ffffffffffffffffffffffffffffffffffffffff16638e539e8c856040518263ffffffff1660e01b8152600401611353919061362a565b60206040518083038186803b15801561136b57600080fd5b505afa15801561137f573d6000803e3d6000fd5b505050506040513d601f19601f820116820180604052508101906113a39190612a9e565b6113ad9190613ab4565b6113b79190613a83565b9050919050565b7f000000000000000000000000000000000000000000000000000000000000000081565b60007f01ffc9a7000000000000000000000000000000000000000000000000000000007bffffffffffffffffffffffffffffffffffffffffffffffffffffffff1916827bffffffffffffffffffffffffffffffffffffffffffffffffffffffff1916149050919050565b600033905090565b61145c6111b6565b81111561149e576040517f08c379a00000000000000000000000000000000000000000000000000000000081526004016114959061346a565b60405180910390fd5b60006002549050816002819055507f0553476bf02ef2726e8ce5ced78d63e26e602e4a2257b1f559418e24b463399781836040516114dd9291906136f5565b60405180910390a15050565b60006040518060600160405280602781526020016142df60279139905060005b85518110156116615760008087838151811061154e577f4e487b7100000000000000000000000000000000000000000000000000000000600052603260045260246000fd5b602002602001015173ffffffffffffffffffffffffffffffffffffffff168784815181106115a5577f4e487b7100000000000000000000000000000000000000000000000000000000600052603260045260246000fd5b60200260200101518785815181106115e6577f4e487b7100000000000000000000000000000000000000000000000000000000600052603260045260246000fd5b60200260200101516040516115fb91906131fc565b60006040518083038185875af1925050503d8060008114611638576040519150601f19603f3d011682016040523d82523d6000602084013e61163d565b606091505b509150915061164d828286611ca7565b5050508061165a90613cad565b9050611509565b50505050505050565b600081600001519050919050565b600061168b611685611d0e565b83611dd1565b9050919050565b60008060006116a387878787611e04565b915091506116b081611f11565b8192505050949350505050565b6000806001600087815260200190815260200160002090506001600781111561170f577f4e487b7100000000000000000000000000000000000000000000000000000000600052602160045260246000fd5b61171887610b98565b6007811115611750577f4e487b7100000000000000000000000000000000000000000000000000000000600052602160045260246000fd5b14611790576040517f08c379a00000000000000000000000000000000000000000000000000000000081526004016117879061350a565b60405180910390fd5b60006117ee866117df846000016040518060200160405290816000820160009054906101000a900467ffffffffffffffff1667ffffffffffffffff1667ffffffffffffffff168152505061166a565b67ffffffffffffffff166112d4565b90506117fc87878784612262565b8573ffffffffffffffffffffffffffffffffffffffff167fb8e138887d0aa13bab447e82de9d5c1777041ecd21ca36ba824ff1e6c07ddda4888784886040516118489493929190613755565b60405180910390a28092505050949350505050565b600043826000015167ffffffffffffffff16119050919050565b6000611882826124da565b801561189c575043826000015167ffffffffffffffff1611155b9050919050565b600080600360008481526020019081526020016000209050806002015481600101546118cf91906139ef565b6118e06118db85610a78565b6112e8565b1115915050919050565b6000806003600084815260200190815260200160002090508060000154816001015411915050919050565b60008061192486868686611237565b9050600061193182610b98565b90506002600781111561196d577f4e487b7100000000000000000000000000000000000000000000000000000000600052602160045260246000fd5b8160078111156119a6577f4e487b7100000000000000000000000000000000000000000000000000000000600052602160045260246000fd5b14158015611a255750600660078111156119e9577f4e487b7100000000000000000000000000000000000000000000000000000000600052602160045260246000fd5b816007811115611a22577f4e487b7100000000000000000000000000000000000000000000000000000000600052602160045260246000fd5b14155b8015611aa15750600780811115611a65577f4e487b7100000000000000000000000000000000000000000000000000000000600052602160045260246000fd5b816007811115611a9e577f4e487b7100000000000000000000000000000000000000000000000000000000600052602160045260246000fd5b14155b611ae0576040517f08c379a0000000000000000000000000000000000000000000000000000000008152600401611ad79061358a565b60405180910390fd5b600180600084815260200190815260200160002060020160016101000a81548160ff0219169083151502179055507f789cf55be980739dad1d0699b93b58e806b51c9d96619bfa8fe0a28abaa7b30c82604051611b3d919061362a565b60405180910390a18192505050949350505050565b600080826000015167ffffffffffffffff16149050919050565b600067ffffffffffffffff8016821115611bbb576040517f08c379a0000000000000000000000000000000000000000000000000000000008152600401611bb29061356a565b60405180910390fd5b819050919050565b808260000160006101000a81548167ffffffffffffffff021916908367ffffffffffffffff1602179055505050565b60007f000000000000000000000000000000000000000000000000000000000000000073ffffffffffffffffffffffffffffffffffffffff16633a46b1a884846040518363ffffffff1660e01b8152600401611c4f92919061324a565b60206040518083038186803b158015611c6757600080fd5b505afa158015611c7b573d6000803e3d6000fd5b505050506040513d601f19601f82011682018060405250810190611c9f9190612a9e565b905092915050565b60608315611cb757829050611d07565b600083511115611cca5782518084602001fd5b816040517f08c379a0000000000000000000000000000000000000000000000000000000008152600401611cfe9190613408565b60405180910390fd5b9392505050565b60007f0000000000000000000000000000000000000000000000000000000000000000461415611d60577f00000000000000000000000000000000000000000000000000000000000000009050611dce565b611dcb7f00000000000000000000000000000000000000000000000000000000000000007f00000000000000000000000000000000000000000000000000000000000000007f00000000000000000000000000000000000000000000000000000000000000006124f4565b90505b90565b60008282604051602001611de6929190613213565b60405160208183030381529060405280519060200120905092915050565b6000807f7fffffffffffffffffffffffffffffff5d576e7357a4501ddfe92f46681b20a08360001c1115611e3f576000600391509150611f08565b601b8560ff1614158015611e575750601c8560ff1614155b15611e69576000600491509150611f08565b600060018787878760405160008152602001604052604051611e8e949392919061338d565b6020604051602081039080840390855afa158015611eb0573d6000803e3d6000fd5b505050602060405103519050600073ffffffffffffffffffffffffffffffffffffffff168173ffffffffffffffffffffffffffffffffffffffff161415611eff57600060019250925050611f08565b80600092509250505b94509492505050565b60006004811115611f4b577f4e487b7100000000000000000000000000000000000000000000000000000000600052602160045260246000fd5b816004811115611f84577f4e487b7100000000000000000000000000000000000000000000000000000000600052602160045260246000fd5b1415611f8f5761225f565b60016004811115611fc9577f4e487b7100000000000000000000000000000000000000000000000000000000600052602160045260246000fd5b816004811115612002577f4e487b7100000000000000000000000000000000000000000000000000000000600052602160045260246000fd5b1415612043576040517f08c379a000000000000000000000000000000000000000000000000000000000815260040161203a9061342a565b60405180910390fd5b6002600481111561207d577f4e487b7100000000000000000000000000000000000000000000000000000000600052602160045260246000fd5b8160048111156120b6577f4e487b7100000000000000000000000000000000000000000000000000000000600052602160045260246000fd5b14156120f7576040517f08c379a00000000000000000000000000000000000000000000000000000000081526004016120ee9061348a565b60405180910390fd5b60036004811115612131577f4e487b7100000000000000000000000000000000000000000000000000000000600052602160045260246000fd5b81600481111561216a577f4e487b7100000000000000000000000000000000000000000000000000000000600052602160045260246000fd5b14156121ab576040517f08c379a00000000000000000000000000000000000000000000000000000000081526004016121a2906134ca565b60405180910390fd5b6004808111156121e4577f4e487b7100000000000000000000000000000000000000000000000000000000600052602160045260246000fd5b81600481111561221d577f4e487b7100000000000000000000000000000000000000000000000000000000600052602160045260246000fd5b141561225e576040517f08c379a00000000000000000000000000000000000000000000000000000000081526004016122559061354a565b60405180910390fd5b5b50565b60006003600086815260200190815260200160002090508060030160008573ffffffffffffffffffffffffffffffffffffffff1673ffffffffffffffffffffffffffffffffffffffff16815260200190815260200160002060009054906101000a900460ff1615612308576040517f08c379a00000000000000000000000000000000000000000000000000000000081526004016122ff906134ea565b60405180910390fd5b60018160030160008673ffffffffffffffffffffffffffffffffffffffff1673ffffffffffffffffffffffffffffffffffffffff16815260200190815260200160002060006101000a81548160ff0219169083151502179055506000600281111561239c577f4e487b7100000000000000000000000000000000000000000000000000000000600052602160045260246000fd5b60ff168360ff1614156123c957818160000160008282546123bd91906139ef565b925050819055506124d3565b60016002811115612403577f4e487b7100000000000000000000000000000000000000000000000000000000600052602160045260246000fd5b60ff168360ff161415612430578181600101600082825461242491906139ef565b925050819055506124d2565b600280811115612469577f4e487b7100000000000000000000000000000000000000000000000000000000600052602160045260246000fd5b60ff168360ff161415612496578181600201600082825461248a91906139ef565b925050819055506124d1565b6040517f08c379a00000000000000000000000000000000000000000000000000000000081526004016124c8906135ea565b60405180910390fd5b5b5b5050505050565b600080826000015167ffffffffffffffff16119050919050565b6000838383463060405160200161250f959493929190613303565b6040516020818303038152906040528051906020012090509392505050565b600061254161253c846137c6565b6137a1565b9050808382526020820190508285602086028201111561256057600080fd5b60005b8581101561259057816125768882612708565b845260208401935060208301925050600181019050612563565b5050509392505050565b60006125ad6125a8846137f2565b6137a1565b905080838252602082019050828560208602820111156125cc57600080fd5b60005b8581101561261657813567ffffffffffffffff8111156125ee57600080fd5b8086016125fb89826127c5565b855260208501945060208401935050506001810190506125cf565b5050509392505050565b600061263361262e8461381e565b6137a1565b9050808382526020820190508285602086028201111561265257600080fd5b60005b8581101561268257816126688882612863565b845260208401935060208301925050600181019050612655565b5050509392505050565b600061269f61269a8461384a565b6137a1565b9050828152602081018484840111156126b757600080fd5b6126c2848285613c08565b509392505050565b60006126dd6126d88461387b565b6137a1565b9050828152602081018484840111156126f557600080fd5b612700848285613c08565b509392505050565b6000813590506127178161426b565b92915050565b600082601f83011261272e57600080fd5b813561273e84826020860161252e565b91505092915050565b600082601f83011261275857600080fd5b813561276884826020860161259a565b91505092915050565b600082601f83011261278257600080fd5b8135612792848260208601612620565b91505092915050565b6000813590506127aa81614282565b92915050565b6000813590506127bf81614299565b92915050565b600082601f8301126127d657600080fd5b81356127e684826020860161268c565b91505092915050565b60008083601f84011261280157600080fd5b8235905067ffffffffffffffff81111561281a57600080fd5b60208301915083600182028301111561283257600080fd5b9250929050565b600082601f83011261284a57600080fd5b813561285a8482602086016126ca565b91505092915050565b600081359050612872816142b0565b92915050565b600081519050612887816142b0565b92915050565b60008135905061289c816142c7565b92915050565b600080604083850312156128b557600080fd5b60006128c385828601612708565b92505060206128d485828601612863565b9150509250929050565b600080600080608085870312156128f457600080fd5b600085013567ffffffffffffffff81111561290e57600080fd5b61291a8782880161271d565b945050602085013567ffffffffffffffff81111561293757600080fd5b61294387828801612771565b935050604085013567ffffffffffffffff81111561296057600080fd5b61296c87828801612747565b925050606061297d8782880161279b565b91505092959194509250565b6000806000806080858703121561299f57600080fd5b600085013567ffffffffffffffff8111156129b957600080fd5b6129c58782880161271d565b945050602085013567ffffffffffffffff8111156129e257600080fd5b6129ee87828801612771565b935050604085013567ffffffffffffffff811115612a0b57600080fd5b612a1787828801612747565b925050606085013567ffffffffffffffff811115612a3457600080fd5b612a4087828801612839565b91505092959194509250565b600060208284031215612a5e57600080fd5b6000612a6c848285016127b0565b91505092915050565b600060208284031215612a8757600080fd5b6000612a9584828501612863565b91505092915050565b600060208284031215612ab057600080fd5b6000612abe84828501612878565b91505092915050565b60008060408385031215612ada57600080fd5b6000612ae885828601612863565b9250506020612af985828601612708565b9150509250929050565b60008060408385031215612b1657600080fd5b6000612b2485828601612863565b9250506020612b358582860161288d565b9150509250929050565b60008060008060608587031215612b5557600080fd5b6000612b6387828801612863565b9450506020612b748782880161288d565b935050604085013567ffffffffffffffff811115612b9157600080fd5b612b9d878288016127ef565b925092505092959194509250565b600080600080600060a08688031215612bc357600080fd5b6000612bd188828901612863565b9550506020612be28882890161288d565b9450506040612bf38882890161288d565b9350506060612c048882890161279b565b9250506080612c158882890161279b565b9150509295509295909350565b6000612c2e8383612c7a565b60208301905092915050565b6000612c468383612e73565b905092915050565b6000612c5a8383612efb565b905092915050565b6000612c6e83836131c0565b60208301905092915050565b612c8381613b0e565b82525050565b612c9281613b0e565b82525050565b6000612ca3826138ec565b612cad8185613962565b9350612cb8836138ac565b8060005b83811015612ce9578151612cd08882612c22565b9750612cdb8361392e565b925050600181019050612cbc565b5085935050505092915050565b6000612d01826138f7565b612d0b8185613973565b935083602082028501612d1d856138bc565b8060005b85811015612d595784840389528151612d3a8582612c3a565b9450612d458361393b565b925060208a01995050600181019050612d21565b50829750879550505050505092915050565b6000612d7682613902565b612d808185613984565b935083602082028501612d92856138cc565b8060005b85811015612dce5784840389528151612daf8582612c4e565b9450612dba83613948565b925060208a01995050600181019050612d96565b50829750879550505050505092915050565b6000612deb8261390d565b612df58185613995565b9350612e00836138dc565b8060005b83811015612e31578151612e188882612c62565b9750612e2383613955565b925050600181019050612e04565b5085935050505092915050565b612e4781613b20565b82525050565b612e5681613b2c565b82525050565b612e6d612e6882613b2c565b613cf6565b82525050565b6000612e7e82613918565b612e8881856139a6565b9350612e98818560208601613c17565b612ea181613deb565b840191505092915050565b6000612eb782613918565b612ec181856139b7565b9350612ed1818560208601613c17565b80840191505092915050565b612ee681613bc0565b82525050565b612ef581613be4565b82525050565b6000612f0682613923565b612f1081856139c2565b9350612f20818560208601613c17565b612f2981613deb565b840191505092915050565b6000612f3f82613923565b612f4981856139d3565b9350612f59818560208601613c17565b612f6281613deb565b840191505092915050565b6000612f7a6018836139d3565b9150612f8582613dfc565b602082019050919050565b6000612f9d6018836139d3565b9150612fa882613e25565b602082019050919050565b6000612fc06043836139d3565b9150612fcb82613e4e565b606082019050919050565b6000612fe3601f836139d3565b9150612fee82613ec3565b602082019050919050565b60006130066002836139e4565b915061301182613eec565b600282019050919050565b60006130296021836139d3565b915061303482613f15565b604082019050919050565b600061304c6022836139d3565b915061305782613f64565b604082019050919050565b600061306f6027836139d3565b915061307a82613fb3565b604082019050919050565b60006130926023836139d3565b915061309d82614002565b604082019050919050565b60006130b56018836139d3565b91506130c082614051565b602082019050919050565b60006130d86022836139d3565b91506130e38261407a565b604082019050919050565b60006130fb6026836139d3565b9150613106826140c9565b604082019050919050565b600061311e601d836139d3565b915061312982614118565b602082019050919050565b60006131416021836139d3565b915061314c82614141565b604082019050919050565b6000613164601d836139d3565b915061316f82614190565b602082019050919050565b60006131876035836139d3565b9150613192826141b9565b604082019050919050565b60006131aa6021836139d3565b91506131b582614208565b604082019050919050565b6131c981613b95565b82525050565b6131d881613b95565b82525050565b6131e781613bf6565b82525050565b6131f681613bb3565b82525050565b60006132088284612eac565b915081905092915050565b600061321e82612ff9565b915061322a8285612e5c565b60208201915061323a8284612e5c565b6020820191508190509392505050565b600060408201905061325f6000830185612c89565b61326c60208301846131cf565b9392505050565b6000608082019050818103600083015261328d8187612c98565b905081810360208301526132a18186612de0565b905081810360408301526132b58185612cf6565b90506132c46060830184612e4d565b95945050505050565b60006020820190506132e26000830184612e3e565b92915050565b60006020820190506132fd6000830184612e4d565b92915050565b600060a0820190506133186000830188612e4d565b6133256020830187612e4d565b6133326040830186612e4d565b61333f60608301856131cf565b61334c6080830184612c89565b9695505050505050565b600060608201905061336b6000830186612e4d565b61337860208301856131cf565b61338560408301846131ed565b949350505050565b60006080820190506133a26000830187612e4d565b6133af60208301866131ed565b6133bc6040830185612e4d565b6133c96060830184612e4d565b95945050505050565b60006020820190506133e76000830184612edd565b92915050565b60006020820190506134026000830184612eec565b92915050565b600060208201905081810360008301526134228184612f34565b905092915050565b6000602082019050818103600083015261344381612f6d565b9050919050565b6000602082019050818103600083015261346381612f90565b9050919050565b6000602082019050818103600083015261348381612fb3565b9050919050565b600060208201905081810360008301526134a381612fd6565b9050919050565b600060208201905081810360008301526134c38161301c565b9050919050565b600060208201905081810360008301526134e38161303f565b9050919050565b6000602082019050818103600083015261350381613062565b9050919050565b6000602082019050818103600083015261352381613085565b9050919050565b60006020820190508181036000830152613543816130a8565b9050919050565b60006020820190508181036000830152613563816130cb565b9050919050565b60006020820190508181036000830152613583816130ee565b9050919050565b600060208201905081810360008301526135a381613111565b9050919050565b600060208201905081810360008301526135c381613134565b9050919050565b600060208201905081810360008301526135e381613157565b9050919050565b600060208201905081810360008301526136038161317a565b9050919050565b600060208201905081810360008301526136238161319d565b9050919050565b600060208201905061363f60008301846131cf565b92915050565b60006101208201905061365b600083018c6131cf565b613668602083018b612c89565b818103604083015261367a818a612c98565b9050818103606083015261368e8189612de0565b905081810360808301526136a28188612d6b565b905081810360a08301526136b68187612cf6565b90506136c560c08301866131de565b6136d260e08301856131de565b8181036101008301526136e58184612f34565b90509a9950505050505050505050565b600060408201905061370a60008301856131cf565b61371760208301846131cf565b9392505050565b600060608201905061373360008301866131cf565b61374060208301856131cf565b61374d60408301846131cf565b949350505050565b600060808201905061376a60008301876131cf565b61377760208301866131ed565b61378460408301856131cf565b81810360608301526137968184612f34565b905095945050505050565b60006137ab6137bc565b90506137b78282613c7c565b919050565b6000604051905090565b600067ffffffffffffffff8211156137e1576137e0613dbc565b5b602082029050602081019050919050565b600067ffffffffffffffff82111561380d5761380c613dbc565b5b602082029050602081019050919050565b600067ffffffffffffffff82111561383957613838613dbc565b5b602082029050602081019050919050565b600067ffffffffffffffff82111561386557613864613dbc565b5b61386e82613deb565b9050602081019050919050565b600067ffffffffffffffff82111561389657613895613dbc565b5b61389f82613deb565b9050602081019050919050565b6000819050602082019050919050565b6000819050602082019050919050565b6000819050602082019050919050565b6000819050602082019050919050565b600081519050919050565b600081519050919050565b600081519050919050565b600081519050919050565b600081519050919050565b600081519050919050565b6000602082019050919050565b6000602082019050919050565b6000602082019050919050565b6000602082019050919050565b600082825260208201905092915050565b600082825260208201905092915050565b600082825260208201905092915050565b600082825260208201905092915050565b600082825260208201905092915050565b600081905092915050565b600082825260208201905092915050565b600082825260208201905092915050565b600081905092915050565b60006139fa82613b95565b9150613a0583613b95565b9250827fffffffffffffffffffffffffffffffffffffffffffffffffffffffffffffffff03821115613a3a57613a39613d00565b5b828201905092915050565b6000613a5082613b9f565b9150613a5b83613b9f565b92508267ffffffffffffffff03821115613a7857613a77613d00565b5b828201905092915050565b6000613a8e82613b95565b9150613a9983613b95565b925082613aa957613aa8613d2f565b5b828204905092915050565b6000613abf82613b95565b9150613aca83613b95565b9250817fffffffffffffffffffffffffffffffffffffffffffffffffffffffffffffffff0483118215151615613b0357613b02613d00565b5b828202905092915050565b6000613b1982613b75565b9050919050565b60008115159050919050565b6000819050919050565b60007fffffffff0000000000000000000000000000000000000000000000000000000082169050919050565b6000819050613b7082614257565b919050565b600073ffffffffffffffffffffffffffffffffffffffff82169050919050565b6000819050919050565b600067ffffffffffffffff82169050919050565b600060ff82169050919050565b6000613bcb82613bd2565b9050919050565b6000613bdd82613b75565b9050919050565b6000613bef82613b62565b9050919050565b6000613c0182613b9f565b9050919050565b82818337600083830152505050565b60005b83811015613c35578082015181840152602081019050613c1a565b83811115613c44576000848401525b50505050565b60006002820490506001821680613c6257607f821691505b60208210811415613c7657613c75613d8d565b5b50919050565b613c8582613deb565b810181811067ffffffffffffffff82111715613ca457613ca3613dbc565b5b80604052505050565b6000613cb882613b95565b91507fffffffffffffffffffffffffffffffffffffffffffffffffffffffffffffffff821415613ceb57613cea613d00565b5b600182019050919050565b6000819050919050565b7f4e487b7100000000000000000000000000000000000000000000000000000000600052601160045260246000fd5b7f4e487b7100000000000000000000000000000000000000000000000000000000600052601260045260246000fd5b7f4e487b7100000000000000000000000000000000000000000000000000000000600052602160045260246000fd5b7f4e487b7100000000000000000000000000000000000000000000000000000000600052602260045260246000fd5b7f4e487b7100000000000000000000000000000000000000000000000000000000600052604160045260246000fd5b6000601f19601f8301169050919050565b7f45434453413a20696e76616c6964207369676e61747572650000000000000000600082015250565b7f476f7665726e6f723a206f6e6c79476f7665726e616e63650000000000000000600082015250565b7f476f7665726e6f72566f74657351756f72756d4672616374696f6e3a2071756f60008201527f72756d4e756d657261746f72206f7665722071756f72756d44656e6f6d696e6160208201527f746f720000000000000000000000000000000000000000000000000000000000604082015250565b7f45434453413a20696e76616c6964207369676e6174757265206c656e67746800600082015250565b7f1901000000000000000000000000000000000000000000000000000000000000600082015250565b7f476f7665726e6f723a20696e76616c69642070726f706f73616c206c656e677460008201527f6800000000000000000000000000000000000000000000000000000000000000602082015250565b7f45434453413a20696e76616c6964207369676e6174757265202773272076616c60008201527f7565000000000000000000000000000000000000000000000000000000000000602082015250565b7f476f7665726e6f72566f74696e6753696d706c653a20766f746520616c72656160008201527f6479206361737400000000000000000000000000000000000000000000000000602082015250565b7f476f7665726e6f723a20766f7465206e6f742063757272656e746c792061637460008201527f6976650000000000000000000000000000000000000000000000000000000000602082015250565b7f476f7665726e6f723a20656d7074792070726f706f73616c0000000000000000600082015250565b7f45434453413a20696e76616c6964207369676e6174757265202776272076616c60008201527f7565000000000000000000000000000000000000000000000000000000000000602082015250565b7f53616665436173743a2076616c756520646f65736e27742066697420696e203660008201527f3420626974730000000000000000000000000000000000000000000000000000602082015250565b7f476f7665726e6f723a2070726f706f73616c206e6f7420616374697665000000600082015250565b7f476f7665726e6f723a2070726f706f73616c206e6f742073756363657373667560008201527f6c00000000000000000000000000000000000000000000000000000000000000602082015250565b7f476f7665726e6f723a20756e6b6e6f776e2070726f706f73616c206964000000600082015250565b7f476f7665726e6f72566f74696e6753696d706c653a20696e76616c696420766160008201527f6c756520666f7220656e756d20566f7465547970650000000000000000000000602082015250565b7f476f7665726e6f723a2070726f706f73616c20616c726561647920657869737460008201527f7300000000000000000000000000000000000000000000000000000000000000602082015250565b6008811061426857614267613d5e565b5b50565b61427481613b0e565b811461427f57600080fd5b50565b61428b81613b2c565b811461429657600080fd5b50565b6142a281613b36565b81146142ad57600080fd5b50565b6142b981613b95565b81146142c457600080fd5b50565b6142d081613bb3565b81146142db57600080fd5b5056fe476f7665726e6f723a2063616c6c20726576657274656420776974686f7574206d657373616765a264697066735822122029672b1dffbebf9f6bf833f8b6e6d2bb3c9e2784dfd9f36df4390b62f15d324c64736f6c63430008040033",
  "immutableReferences": {
    "5020": [
      {
        "length": 32,
        "start": 4860
      },
      {
        "length": 32,
        "start": 5056
      },
      {
        "length": 32,
        "start": 7158
      }
    ],
    "10190": [
      {
        "length": 32,
        "start": 2794
      }
    ],
    "10192": [
      {
        "length": 32,
        "start": 1903
      }
    ],
    "24269": [
      {
        "length": 32,
        "start": 7482
      }
    ],
    "24271": [
      {
        "length": 32,
        "start": 7442
      }
    ],
    "24273": [
      {
        "length": 32,
        "start": 7558
      }
    ],
    "24275": [
      {
        "length": 32,
        "start": 7591
      }
    ],
    "24277": [
      {
        "length": 32,
        "start": 7525
      }
    ]
  },
  "source": "// SPDX-License-Identifier: MIT\n\npragma solidity ^0.8.0;\n\nimport \"../governance/Governor.sol\";\nimport \"../governance/extensions/GovernorCountingSimple.sol\";\nimport \"../governance/extensions/GovernorVotesQuorumFraction.sol\";\n\ncontract GovernorMock is Governor, GovernorVotesQuorumFraction, GovernorCountingSimple {\n    uint256 immutable _votingDelay;\n    uint256 immutable _votingPeriod;\n\n    constructor(\n        string memory name_,\n        ERC20Votes token_,\n        uint256 votingDelay_,\n        uint256 votingPeriod_,\n        uint256 quorumNumerator_\n    ) Governor(name_) GovernorVotes(token_) GovernorVotesQuorumFraction(quorumNumerator_) {\n        _votingDelay = votingDelay_;\n        _votingPeriod = votingPeriod_;\n    }\n\n    function votingDelay() public view override returns (uint256) {\n        return _votingDelay;\n    }\n\n    function votingPeriod() public view override returns (uint256) {\n        return _votingPeriod;\n    }\n\n    function cancel(\n        address[] memory targets,\n        uint256[] memory values,\n        bytes[] memory calldatas,\n        bytes32 salt\n    ) public returns (uint256 proposalId) {\n        return _cancel(targets, values, calldatas, salt);\n    }\n\n    function getVotes(address account, uint256 blockNumber)\n        public\n        view\n        virtual\n        override(IGovernor, GovernorVotes)\n        returns (uint256)\n    {\n        return super.getVotes(account, blockNumber);\n    }\n}\n",
  "sourcePath": "/Users/alexanderpetrovskiy/work/neon/neon-uat/openzeppelin-contracts/contracts/mocks/GovernorMock.sol",
  "compiler": {
    "name": "solc",
    "version": "0.8.4+commit.c7e474f2.Emscripten.clang"
  },
  "schemaVersion": "3.4.3",
  "updatedAt": "2021-10-12T15:22:38.922Z",
  "devdoc": {
    "kind": "dev",
    "methods": {
      "COUNTING_MODE()": {
        "details": "See {IGovernor-COUNTING_MODE}."
      },
      "castVote(uint256,uint8)": {
        "details": "See {IGovernor-castVote}."
      },
      "castVoteBySig(uint256,uint8,uint8,bytes32,bytes32)": {
        "details": "See {IGovernor-castVoteBySig}."
      },
      "castVoteWithReason(uint256,uint8,string)": {
        "details": "See {IGovernor-castVoteWithReason}."
      },
      "execute(address[],uint256[],bytes[],bytes32)": {
        "details": "See {IGovernor-execute}."
      },
      "hasVoted(uint256,address)": {
        "details": "See {IGovernor-hasVoted}."
      },
      "hashProposal(address[],uint256[],bytes[],bytes32)": {
        "details": "See {IGovernor-hashProposal}. The proposal id is produced by hashing the RLC encoded `targets` array, the `values` array, the `calldatas` array and the descriptionHash (bytes32 which itself is the keccak256 hash of the description string). This proposal id can be produced from the proposal data which is part of the {ProposalCreated} event. It can even be computed in advance, before the proposal is submitted. Note that the chainId and the governor address are not part of the proposal id computation. Consequently, the same proposal (with same operation and same description) will have the same id if submitted on multiple governors accross multiple networks. This also means that in order to execute the same operation twice (on the same governor) the proposer will have to change the description in order to avoid proposal id conflicts."
      },
      "name()": {
        "details": "See {IGovernor-name}."
      },
      "proposalDeadline(uint256)": {
        "details": "See {IGovernor-proposalDeadline}."
      },
      "proposalSnapshot(uint256)": {
        "details": "See {IGovernor-proposalSnapshot}."
      },
      "proposalVotes(uint256)": {
        "details": "Accessor to the internal vote counts."
      },
      "propose(address[],uint256[],bytes[],string)": {
        "details": "See {IGovernor-propose}."
      },
      "quorum(uint256)": {
        "details": "Minimum number of cast voted required for a proposal to be successful. Note: The `blockNumber` parameter corresponds to the snaphot used for counting vote. This allows to scale the quroum depending on values such as the totalSupply of a token at this block (see {ERC20Votes})."
      },
      "state(uint256)": {
        "details": "See {IGovernor-state}."
      },
      "supportsInterface(bytes4)": {
        "details": "See {IERC165-supportsInterface}."
      },
      "version()": {
        "details": "See {IGovernor-version}."
      },
      "votingDelay()": {
        "details": "delay, in number of block, between the proposal is created and the vote starts. This can be increassed to leave time for users to buy voting power, of delegate it, before the voting of a proposal starts."
      },
      "votingPeriod()": {
        "details": "delay, in number of blocks, between the vote start and vote ends. Note: the {votingDelay} can delay the start of the vote. This must be considered when setting the voting duration compared to the voting delay."
      }
    },
    "version": 1
  },
  "userdoc": {
    "kind": "user",
    "methods": {
      "quorum(uint256)": {
        "notice": "module:user-config"
      },
      "votingDelay()": {
        "notice": "module:user-config"
      },
      "votingPeriod()": {
        "notice": "module:user-config"
      }
    },
    "version": 1
  }
}