{
  "contractName": "GovernorTimelockControlMock",
  "abi": [
    {
      "inputs": [
        {
          "internalType": "string",
          "name": "name_",
          "type": "string"
        },
        {
          "internalType": "contract ERC20Votes",
          "name": "token_",
          "type": "address"
        },
        {
          "internalType": "uint256",
          "name": "votingDelay_",
          "type": "uint256"
        },
        {
          "internalType": "uint256",
          "name": "votingPeriod_",
          "type": "uint256"
        },
        {
          "internalType": "contract TimelockController",
          "name": "timelock_",
          "type": "address"
        },
        {
          "internalType": "uint256",
          "name": "quorumNumerator_",
          "type": "uint256"
        }
      ],
      "stateMutability": "nonpayable",
      "type": "constructor"
    },
    {
      "anonymous": false,
      "inputs": [
        {
          "indexed": false,
          "internalType": "uint256",
          "name": "proposalId",
          "type": "uint256"
        }
      ],
      "name": "ProposalCanceled",
      "type": "event"
    },
    {
      "anonymous": false,
      "inputs": [
        {
          "indexed": false,
          "internalType": "uint256",
          "name": "proposalId",
          "type": "uint256"
        },
        {
          "indexed": false,
          "internalType": "address",
          "name": "proposer",
          "type": "address"
        },
        {
          "indexed": false,
          "internalType": "address[]",
          "name": "targets",
          "type": "address[]"
        },
        {
          "indexed": false,
          "internalType": "uint256[]",
          "name": "values",
          "type": "uint256[]"
        },
        {
          "indexed": false,
          "internalType": "string[]",
          "name": "signatures",
          "type": "string[]"
        },
        {
          "indexed": false,
          "internalType": "bytes[]",
          "name": "calldatas",
          "type": "bytes[]"
        },
        {
          "indexed": false,
          "internalType": "uint256",
          "name": "startBlock",
          "type": "uint256"
        },
        {
          "indexed": false,
          "internalType": "uint256",
          "name": "endBlock",
          "type": "uint256"
        },
        {
          "indexed": false,
          "internalType": "string",
          "name": "description",
          "type": "string"
        }
      ],
      "name": "ProposalCreated",
      "type": "event"
    },
    {
      "anonymous": false,
      "inputs": [
        {
          "indexed": false,
          "internalType": "uint256",
          "name": "proposalId",
          "type": "uint256"
        }
      ],
      "name": "ProposalExecuted",
      "type": "event"
    },
    {
      "anonymous": false,
      "inputs": [
        {
          "indexed": false,
          "internalType": "uint256",
          "name": "proposalId",
          "type": "uint256"
        },
        {
          "indexed": false,
          "internalType": "uint256",
          "name": "eta",
          "type": "uint256"
        }
      ],
      "name": "ProposalQueued",
      "type": "event"
    },
    {
      "anonymous": false,
      "inputs": [
        {
          "indexed": false,
          "internalType": "uint256",
          "name": "oldQuorumNumerator",
          "type": "uint256"
        },
        {
          "indexed": false,
          "internalType": "uint256",
          "name": "newQuorumNumerator",
          "type": "uint256"
        }
      ],
      "name": "QuorumNumeratorUpdated",
      "type": "event"
    },
    {
      "anonymous": false,
      "inputs": [
        {
          "indexed": false,
          "internalType": "address",
          "name": "oldTimelock",
          "type": "address"
        },
        {
          "indexed": false,
          "internalType": "address",
          "name": "newTimelock",
          "type": "address"
        }
      ],
      "name": "TimelockChange",
      "type": "event"
    },
    {
      "anonymous": false,
      "inputs": [
        {
          "indexed": true,
          "internalType": "address",
          "name": "voter",
          "type": "address"
        },
        {
          "indexed": false,
          "internalType": "uint256",
          "name": "proposalId",
          "type": "uint256"
        },
        {
          "indexed": false,
          "internalType": "uint8",
          "name": "support",
          "type": "uint8"
        },
        {
          "indexed": false,
          "internalType": "uint256",
          "name": "weight",
          "type": "uint256"
        },
        {
          "indexed": false,
          "internalType": "string",
          "name": "reason",
          "type": "string"
        }
      ],
      "name": "VoteCast",
      "type": "event"
    },
    {
      "inputs": [],
      "name": "BALLOT_TYPEHASH",
      "outputs": [
        {
          "internalType": "bytes32",
          "name": "",
          "type": "bytes32"
        }
      ],
      "stateMutability": "view",
      "type": "function"
    },
    {
      "inputs": [],
      "name": "COUNTING_MODE",
      "outputs": [
        {
          "internalType": "string",
          "name": "",
          "type": "string"
        }
      ],
      "stateMutability": "pure",
      "type": "function"
    },
    {
      "inputs": [
        {
          "internalType": "uint256",
          "name": "proposalId",
          "type": "uint256"
        },
        {
          "internalType": "uint8",
          "name": "support",
          "type": "uint8"
        }
      ],
      "name": "castVote",
      "outputs": [
        {
          "internalType": "uint256",
          "name": "",
          "type": "uint256"
        }
      ],
      "stateMutability": "nonpayable",
      "type": "function"
    },
    {
      "inputs": [
        {
          "internalType": "uint256",
          "name": "proposalId",
          "type": "uint256"
        },
        {
          "internalType": "uint8",
          "name": "support",
          "type": "uint8"
        },
        {
          "internalType": "uint8",
          "name": "v",
          "type": "uint8"
        },
        {
          "internalType": "bytes32",
          "name": "r",
          "type": "bytes32"
        },
        {
          "internalType": "bytes32",
          "name": "s",
          "type": "bytes32"
        }
      ],
      "name": "castVoteBySig",
      "outputs": [
        {
          "internalType": "uint256",
          "name": "",
          "type": "uint256"
        }
      ],
      "stateMutability": "nonpayable",
      "type": "function"
    },
    {
      "inputs": [
        {
          "internalType": "uint256",
          "name": "proposalId",
          "type": "uint256"
        },
        {
          "internalType": "uint8",
          "name": "support",
          "type": "uint8"
        },
        {
          "internalType": "string",
          "name": "reason",
          "type": "string"
        }
      ],
      "name": "castVoteWithReason",
      "outputs": [
        {
          "internalType": "uint256",
          "name": "",
          "type": "uint256"
        }
      ],
      "stateMutability": "nonpayable",
      "type": "function"
    },
    {
      "inputs": [
        {
          "internalType": "address[]",
          "name": "targets",
          "type": "address[]"
        },
        {
          "internalType": "uint256[]",
          "name": "values",
          "type": "uint256[]"
        },
        {
          "internalType": "bytes[]",
          "name": "calldatas",
          "type": "bytes[]"
        },
        {
          "internalType": "bytes32",
          "name": "descriptionHash",
          "type": "bytes32"
        }
      ],
      "name": "execute",
      "outputs": [
        {
          "internalType": "uint256",
          "name": "",
          "type": "uint256"
        }
      ],
      "stateMutability": "payable",
      "type": "function"
    },
    {
      "inputs": [
        {
          "internalType": "uint256",
          "name": "proposalId",
          "type": "uint256"
        },
        {
          "internalType": "address",
          "name": "account",
          "type": "address"
        }
      ],
      "name": "hasVoted",
      "outputs": [
        {
          "internalType": "bool",
          "name": "",
          "type": "bool"
        }
      ],
      "stateMutability": "view",
      "type": "function"
    },
    {
      "inputs": [
        {
          "internalType": "address[]",
          "name": "targets",
          "type": "address[]"
        },
        {
          "internalType": "uint256[]",
          "name": "values",
          "type": "uint256[]"
        },
        {
          "internalType": "bytes[]",
          "name": "calldatas",
          "type": "bytes[]"
        },
        {
          "internalType": "bytes32",
          "name": "descriptionHash",
          "type": "bytes32"
        }
      ],
      "name": "hashProposal",
      "outputs": [
        {
          "internalType": "uint256",
          "name": "",
          "type": "uint256"
        }
      ],
      "stateMutability": "pure",
      "type": "function"
    },
    {
      "inputs": [],
      "name": "name",
      "outputs": [
        {
          "internalType": "string",
          "name": "",
          "type": "string"
        }
      ],
      "stateMutability": "view",
      "type": "function"
    },
    {
      "inputs": [
        {
          "internalType": "uint256",
          "name": "proposalId",
          "type": "uint256"
        }
      ],
      "name": "proposalDeadline",
      "outputs": [
        {
          "internalType": "uint256",
          "name": "",
          "type": "uint256"
        }
      ],
      "stateMutability": "view",
      "type": "function"
    },
    {
      "inputs": [
        {
          "internalType": "uint256",
          "name": "proposalId",
          "type": "uint256"
        }
      ],
      "name": "proposalEta",
      "outputs": [
        {
          "internalType": "uint256",
          "name": "",
          "type": "uint256"
        }
      ],
      "stateMutability": "view",
      "type": "function"
    },
    {
      "inputs": [
        {
          "internalType": "uint256",
          "name": "proposalId",
          "type": "uint256"
        }
      ],
      "name": "proposalSnapshot",
      "outputs": [
        {
          "internalType": "uint256",
          "name": "",
          "type": "uint256"
        }
      ],
      "stateMutability": "view",
      "type": "function"
    },
    {
      "inputs": [
        {
          "internalType": "uint256",
          "name": "proposalId",
          "type": "uint256"
        }
      ],
      "name": "proposalVotes",
      "outputs": [
        {
          "internalType": "uint256",
          "name": "againstVotes",
          "type": "uint256"
        },
        {
          "internalType": "uint256",
          "name": "forVotes",
          "type": "uint256"
        },
        {
          "internalType": "uint256",
          "name": "abstainVotes",
          "type": "uint256"
        }
      ],
      "stateMutability": "view",
      "type": "function"
    },
    {
      "inputs": [
        {
          "internalType": "address[]",
          "name": "targets",
          "type": "address[]"
        },
        {
          "internalType": "uint256[]",
          "name": "values",
          "type": "uint256[]"
        },
        {
          "internalType": "bytes[]",
          "name": "calldatas",
          "type": "bytes[]"
        },
        {
          "internalType": "string",
          "name": "description",
          "type": "string"
        }
      ],
      "name": "propose",
      "outputs": [
        {
          "internalType": "uint256",
          "name": "",
          "type": "uint256"
        }
      ],
      "stateMutability": "nonpayable",
      "type": "function"
    },
    {
      "inputs": [
        {
          "internalType": "address[]",
          "name": "targets",
          "type": "address[]"
        },
        {
          "internalType": "uint256[]",
          "name": "values",
          "type": "uint256[]"
        },
        {
          "internalType": "bytes[]",
          "name": "calldatas",
          "type": "bytes[]"
        },
        {
          "internalType": "bytes32",
          "name": "descriptionHash",
          "type": "bytes32"
        }
      ],
      "name": "queue",
      "outputs": [
        {
          "internalType": "uint256",
          "name": "",
          "type": "uint256"
        }
      ],
      "stateMutability": "nonpayable",
      "type": "function"
    },
    {
      "inputs": [],
      "name": "quorumDenominator",
      "outputs": [
        {
          "internalType": "uint256",
          "name": "",
          "type": "uint256"
        }
      ],
      "stateMutability": "view",
      "type": "function"
    },
    {
      "inputs": [],
      "name": "quorumNumerator",
      "outputs": [
        {
          "internalType": "uint256",
          "name": "",
          "type": "uint256"
        }
      ],
      "stateMutability": "view",
      "type": "function"
    },
    {
      "inputs": [],
      "name": "timelock",
      "outputs": [
        {
          "internalType": "address",
          "name": "",
          "type": "address"
        }
      ],
      "stateMutability": "view",
      "type": "function"
    },
    {
      "inputs": [],
      "name": "token",
      "outputs": [
        {
          "internalType": "contract ERC20Votes",
          "name": "",
          "type": "address"
        }
      ],
      "stateMutability": "view",
      "type": "function"
    },
    {
      "inputs": [
        {
          "internalType": "uint256",
          "name": "newQuorumNumerator",
          "type": "uint256"
        }
      ],
      "name": "updateQuorumNumerator",
      "outputs": [],
      "stateMutability": "nonpayable",
      "type": "function"
    },
    {
      "inputs": [
        {
          "internalType": "contract TimelockController",
          "name": "newTimelock",
          "type": "address"
        }
      ],
      "name": "updateTimelock",
      "outputs": [],
      "stateMutability": "nonpayable",
      "type": "function"
    },
    {
      "inputs": [],
      "name": "version",
      "outputs": [
        {
          "internalType": "string",
          "name": "",
          "type": "string"
        }
      ],
      "stateMutability": "view",
      "type": "function"
    },
    {
      "stateMutability": "payable",
      "type": "receive"
    },
    {
      "inputs": [
        {
          "internalType": "bytes4",
          "name": "interfaceId",
          "type": "bytes4"
        }
      ],
      "name": "supportsInterface",
      "outputs": [
        {
          "internalType": "bool",
          "name": "",
          "type": "bool"
        }
      ],
      "stateMutability": "view",
      "type": "function"
    },
    {
      "inputs": [],
      "name": "votingDelay",
      "outputs": [
        {
          "internalType": "uint256",
          "name": "",
          "type": "uint256"
        }
      ],
      "stateMutability": "view",
      "type": "function"
    },
    {
      "inputs": [],
      "name": "votingPeriod",
      "outputs": [
        {
          "internalType": "uint256",
          "name": "",
          "type": "uint256"
        }
      ],
      "stateMutability": "view",
      "type": "function"
    },
    {
      "inputs": [
        {
          "internalType": "uint256",
          "name": "blockNumber",
          "type": "uint256"
        }
      ],
      "name": "quorum",
      "outputs": [
        {
          "internalType": "uint256",
          "name": "",
          "type": "uint256"
        }
      ],
      "stateMutability": "view",
      "type": "function"
    },
    {
      "inputs": [
        {
          "internalType": "address[]",
          "name": "targets",
          "type": "address[]"
        },
        {
          "internalType": "uint256[]",
          "name": "values",
          "type": "uint256[]"
        },
        {
          "internalType": "bytes[]",
          "name": "calldatas",
          "type": "bytes[]"
        },
        {
          "internalType": "bytes32",
          "name": "descriptionHash",
          "type": "bytes32"
        }
      ],
      "name": "cancel",
      "outputs": [
        {
          "internalType": "uint256",
          "name": "proposalId",
          "type": "uint256"
        }
      ],
      "stateMutability": "nonpayable",
      "type": "function"
    },
    {
      "inputs": [
        {
          "internalType": "uint256",
          "name": "proposalId",
          "type": "uint256"
        }
      ],
      "name": "state",
      "outputs": [
        {
          "internalType": "enum IGovernor.ProposalState",
          "name": "",
          "type": "uint8"
        }
      ],
      "stateMutability": "view",
      "type": "function"
    },
    {
      "inputs": [
        {
          "internalType": "address",
          "name": "account",
          "type": "address"
        },
        {
          "internalType": "uint256",
          "name": "blockNumber",
          "type": "uint256"
        }
      ],
      "name": "getVotes",
      "outputs": [
        {
          "internalType": "uint256",
          "name": "",
          "type": "uint256"
        }
      ],
      "stateMutability": "view",
      "type": "function"
    }
  ],
  "bytecode": "0x6101806040523480156200001257600080fd5b50604051620057453803806200574583398181016040528101906200003891906200048b565b80858388806200004d6200015f60201b60201c565b60008280519060200120905060008280519060200120905060007f8b73c3c69bb8fe3d512ecc4cf759cc79239f7b179b0ffacaa9a75d522b39400f90508260c081815250508160e081815250504660a08181525050620000b58184846200019c60201b60201c565b6080818152505080610100818152505050505050508060009080519060200190620000e292919062000324565b5050620000f581620001d860201b60201c565b508073ffffffffffffffffffffffffffffffffffffffff166101208173ffffffffffffffffffffffffffffffffffffffff1660601b815250505062000140816200027960201b60201c565b5083610140818152505082610160818152505050505050505062000935565b60606040518060400160405280600181526020017f3100000000000000000000000000000000000000000000000000000000000000815250905090565b60008383834630604051602001620001b9959493929190620005c1565b6040516020818303038152906040528051906020012090509392505050565b7f08f74ea46ef7894f65eabfb5e6e695de773a000b47c529ab559178069b226401600260009054906101000a900473ffffffffffffffffffffffffffffffffffffffff16826040516200022d92919062000594565b60405180910390a180600260006101000a81548173ffffffffffffffffffffffffffffffffffffffff021916908373ffffffffffffffffffffffffffffffffffffffff16021790555050565b620002896200031b60201b60201c565b811115620002ce576040517f08c379a0000000000000000000000000000000000000000000000000000000008152600401620002c5906200061e565b60405180910390fd5b60006004549050816004819055507f0553476bf02ef2726e8ce5ced78d63e26e602e4a2257b1f559418e24b463399781836040516200030f92919062000640565b60405180910390a15050565b60006064905090565b828054620003329062000797565b90600052602060002090601f016020900481019282620003565760008555620003a2565b82601f106200037157805160ff1916838001178555620003a2565b82800160010185558215620003a2579182015b82811115620003a157825182559160200191906001019062000384565b5b509050620003b19190620003b5565b5090565b5b80821115620003d0576000816000905550600101620003b6565b5090565b6000620003eb620003e58462000696565b6200066d565b9050828152602081018484840111156200040457600080fd5b6200041184828562000761565b509392505050565b6000815190506200042a81620008e7565b92915050565b600081519050620004418162000901565b92915050565b600082601f8301126200045957600080fd5b81516200046b848260208601620003d4565b91505092915050565b60008151905062000485816200091b565b92915050565b60008060008060008060c08789031215620004a557600080fd5b600087015167ffffffffffffffff811115620004c057600080fd5b620004ce89828a0162000447565b9650506020620004e189828a0162000419565b9550506040620004f489828a0162000474565b94505060606200050789828a0162000474565b93505060806200051a89828a0162000430565b92505060a06200052d89828a0162000474565b9150509295509295509295565b6200054581620006dd565b82525050565b620005568162000705565b82525050565b60006200056b604383620006cc565b9150620005788262000872565b606082019050919050565b6200058e8162000757565b82525050565b6000604082019050620005ab60008301856200053a565b620005ba60208301846200053a565b9392505050565b600060a082019050620005d860008301886200054b565b620005e760208301876200054b565b620005f660408301866200054b565b62000605606083018562000583565b6200061460808301846200053a565b9695505050505050565b6000602082019050818103600083015262000639816200055c565b9050919050565b600060408201905062000657600083018562000583565b62000666602083018462000583565b9392505050565b6000620006796200068c565b9050620006878282620007cd565b919050565b6000604051905090565b600067ffffffffffffffff821115620006b457620006b362000832565b5b620006bf8262000861565b9050602081019050919050565b600082825260208201905092915050565b6000620006ea8262000737565b9050919050565b6000620006fe8262000737565b9050919050565b6000819050919050565b60006200071c82620006dd565b9050919050565b60006200073082620006f1565b9050919050565b600073ffffffffffffffffffffffffffffffffffffffff82169050919050565b6000819050919050565b60005b838110156200078157808201518184015260208101905062000764565b8381111562000791576000848401525b50505050565b60006002820490506001821680620007b057607f821691505b60208210811415620007c757620007c662000803565b5b50919050565b620007d88262000861565b810181811067ffffffffffffffff82111715620007fa57620007f962000832565b5b80604052505050565b7f4e487b7100000000000000000000000000000000000000000000000000000000600052602260045260246000fd5b7f4e487b7100000000000000000000000000000000000000000000000000000000600052604160045260246000fd5b6000601f19601f8301169050919050565b7f476f7665726e6f72566f74657351756f72756d4672616374696f6e3a2071756f60008201527f72756d4e756d657261746f72206f7665722071756f72756d44656e6f6d696e6160208201527f746f720000000000000000000000000000000000000000000000000000000000604082015250565b620008f2816200070f565b8114620008fe57600080fd5b50565b6200090c8162000723565b81146200091857600080fd5b50565b620009268162000757565b81146200093257600080fd5b50565b60805160a05160c05160e051610100516101205160601c6101405161016051614d99620009ac600039600061083801526000610ed70152600081816116c201528181611d0a0152611dcf01526000612000015260006120420152600061202101526000611fad01526000611fd50152614d996000f3fe6080604052600436106101c65760003560e01c806356781388116100f7578063c01f9e3711610095578063deaaa7cc11610064578063deaaa7cc14610743578063eb9019d41461076e578063f8ce560a146107ab578063fc0c546a146107e85761020c565b8063c01f9e3714610673578063c59057e4146106b0578063d33219b4146106ed578063dd4e2ba5146107185761020c565b806397c3d334116100d157806397c3d334146105b7578063a7713a70146105e2578063a890c9101461060d578063ab58fb8e146106365761020c565b806356781388146105005780637b3c71d31461053d5780637d5e81e21461057a5761020c565b80633932abb111610164578063438596321161013e578063438596321461041c578063452115d614610459578063544ffc9c1461049657806354fd4d50146104d55761020c565b80633932abb1146103775780633bccf4fd146103a25780633e4f49e6146103df5761020c565b806306fdde03116101a057806306fdde03146102a2578063160cbed7146102cd5780632656227d1461030a5780632d63f6931461033a5761020c565b806301ffc9a71461021157806302a251a31461024e57806306f3f9e6146102795761020c565b3661020c573073ffffffffffffffffffffffffffffffffffffffff166101ea610813565b73ffffffffffffffffffffffffffffffffffffffff161461020a57600080fd5b005b600080fd5b34801561021d57600080fd5b5061023860048036038101906102339190613390565b610822565b6040516102459190613d23565b60405180910390f35b34801561025a57600080fd5b50610263610834565b6040516102709190614080565b60405180910390f35b34801561028557600080fd5b506102a0600480360381019061029b91906133e2565b61085c565b005b3480156102ae57600080fd5b506102b76108e4565b6040516102c49190613e5e565b60405180910390f35b3480156102d957600080fd5b506102f460048036038101906102ef91906131d0565b610976565b6040516103019190614080565b60405180910390f35b610324600480360381019061031f91906131d0565b610c9a565b6040516103319190614080565b60405180910390f35b34801561034657600080fd5b50610361600480360381019061035c91906133e2565b610e65565b60405161036e9190614080565b60405180910390f35b34801561038357600080fd5b5061038c610ed3565b6040516103999190614080565b60405180910390f35b3480156103ae57600080fd5b506103c960048036038101906103c49190613518565b610efb565b6040516103d69190614080565b60405180910390f35b3480156103eb57600080fd5b50610406600480360381019061040191906133e2565b610f85565b6040516104139190613e43565b60405180910390f35b34801561042857600080fd5b50610443600480360381019061043e9190613434565b610f97565b6040516104509190613d23565b60405180910390f35b34801561046557600080fd5b50610480600480360381019061047b91906131d0565b611002565b60405161048d9190614080565b60405180910390f35b3480156104a257600080fd5b506104bd60048036038101906104b891906133e2565b61101a565b6040516104cc93929190614174565b60405180910390f35b3480156104e157600080fd5b506104ea611052565b6040516104f79190613e5e565b60405180910390f35b34801561050c57600080fd5b5061052760048036038101906105229190613470565b61108f565b6040516105349190614080565b60405180910390f35b34801561054957600080fd5b50610564600480360381019061055f91906134ac565b6110c0565b6040516105719190614080565b60405180910390f35b34801561058657600080fd5b506105a1600480360381019061059c919061327b565b611128565b6040516105ae9190614080565b60405180910390f35b3480156105c357600080fd5b506105cc6113ee565b6040516105d99190614080565b60405180910390f35b3480156105ee57600080fd5b506105f76113f7565b6040516106049190614080565b60405180910390f35b34801561061957600080fd5b50610634600480360381019061062f91906133b9565b611401565b005b34801561064257600080fd5b5061065d600480360381019061065891906133e2565b611489565b60405161066a9190614080565b60405180910390f35b34801561067f57600080fd5b5061069a600480360381019061069591906133e2565b611565565b6040516106a79190614080565b60405180910390f35b3480156106bc57600080fd5b506106d760048036038101906106d291906131d0565b6115d3565b6040516106e49190614080565b60405180910390f35b3480156106f957600080fd5b5061070261160f565b60405161070f9190613b7e565b60405180910390f35b34801561072457600080fd5b5061072d611639565b60405161073a9190613e5e565b60405180910390f35b34801561074f57600080fd5b50610758611676565b6040516107659190613d3e565b60405180910390f35b34801561077a57600080fd5b5061079560048036038101906107909190613194565b61169a565b6040516107a29190614080565b60405180910390f35b3480156107b757600080fd5b506107d260048036038101906107cd91906133e2565b6116ae565b6040516107df9190614080565b60405180910390f35b3480156107f457600080fd5b506107fd6116c0565b60405161080a9190613e28565b60405180910390f35b600061081d6116e4565b905090565b600061082d8261170e565b9050919050565b60007f0000000000000000000000000000000000000000000000000000000000000000905090565b610864610813565b73ffffffffffffffffffffffffffffffffffffffff16610882611788565b73ffffffffffffffffffffffffffffffffffffffff16146108d8576040517f08c379a00000000000000000000000000000000000000000000000000000000081526004016108cf90613ea0565b60405180910390fd5b6108e181611790565b50565b6060600080546108f3906146dd565b80601f016020809104026020016040519081016040528092919081815260200182805461091f906146dd565b801561096c5780601f106109415761010080835404028352916020019161096c565b820191906000526020600020905b81548152906001019060200180831161094f57829003601f168201915b5050505050905090565b600080610985868686866115d3565b9050600460078111156109c1577f4e487b7100000000000000000000000000000000000000000000000000000000600052602160045260246000fd5b6109ca82610f85565b6007811115610a02577f4e487b7100000000000000000000000000000000000000000000000000000000600052602160045260246000fd5b14610a42576040517f08c379a0000000000000000000000000000000000000000000000000000000008152600401610a3990614000565b60405180910390fd5b6000600260009054906101000a900473ffffffffffffffffffffffffffffffffffffffff1673ffffffffffffffffffffffffffffffffffffffff1663f27a0c926040518163ffffffff1660e01b815260040160206040518083038186803b158015610aac57600080fd5b505afa158015610ac0573d6000803e3d6000fd5b505050506040513d601f19601f82011682018060405250810190610ae4919061340b565b9050600260009054906101000a900473ffffffffffffffffffffffffffffffffffffffff1673ffffffffffffffffffffffffffffffffffffffff1663b1c5f4278888886000896040518663ffffffff1660e01b8152600401610b4a959493929190613c45565b60206040518083038186803b158015610b6257600080fd5b505afa158015610b76573d6000803e3d6000fd5b505050506040513d601f19601f82011682018060405250810190610b9a9190613367565b6003600084815260200190815260200160002081905550600260009054906101000a900473ffffffffffffffffffffffffffffffffffffffff1673ffffffffffffffffffffffffffffffffffffffff16638f2a0bb0888888600089876040518763ffffffff1660e01b8152600401610c1796959493929190613cad565b600060405180830381600087803b158015610c3157600080fd5b505af1158015610c45573d6000803e3d6000fd5b505050507f9a2e42fd6722813d69113e7d0079d3d940171428df7373df9c7f7617cfda2892828242610c77919061443a565b604051610c8592919061414b565b60405180910390a18192505050949350505050565b600080610ca9868686866115d3565b90506000610cb682610f85565b905060046007811115610cf2577f4e487b7100000000000000000000000000000000000000000000000000000000600052602160045260246000fd5b816007811115610d2b577f4e487b7100000000000000000000000000000000000000000000000000000000600052602160045260246000fd5b1480610da7575060056007811115610d6c577f4e487b7100000000000000000000000000000000000000000000000000000000600052602160045260246000fd5b816007811115610da5577f4e487b7100000000000000000000000000000000000000000000000000000000600052602160045260246000fd5b145b610de6576040517f08c379a0000000000000000000000000000000000000000000000000000000008152600401610ddd90614000565b60405180910390fd5b600180600084815260200190815260200160002060020160006101000a81548160ff0219169083151502179055507f712ae1383f79ac853f8d882153778e0260ef8f03b504e2866e0593e04d2b291f82604051610e439190614080565b60405180910390a1610e588288888888611825565b8192505050949350505050565b6000610ec2600160008481526020019081526020016000206000016040518060200160405290816000820160009054906101000a900467ffffffffffffffff1667ffffffffffffffff1667ffffffffffffffff1681525050611839565b67ffffffffffffffff169050919050565b60007f0000000000000000000000000000000000000000000000000000000000000000905090565b600080610f5c610f547f150214d74d59b7d1e90c73fc22ef3d991dd0a76b046543d4d80ab92d2a50328f8989604051602001610f3993929190613dac565b60405160208183030381529060405280519060200120611847565b868686611861565b9050610f798782886040518060200160405280600081525061188c565b91505095945050505050565b6000610f9082611a2c565b9050919050565b60006005600084815260200190815260200160002060030160008373ffffffffffffffffffffffffffffffffffffffff1673ffffffffffffffffffffffffffffffffffffffff16815260200190815260200160002060009054906101000a900460ff16905092915050565b600061101085858585611baf565b9050949350505050565b600080600080600560008681526020019081526020016000209050806000015481600101548260020154935093509350509193909250565b60606040518060400160405280600181526020017f3100000000000000000000000000000000000000000000000000000000000000815250905090565b60008061109a611788565b90506110b78482856040518060200160405280600081525061188c565b91505092915050565b6000806110cb611788565b905061111d86828787878080601f016020809104026020016040519081016040528093929190818152602001838380828437600081840152601f19601f8201169050808301925050505050505061188c565b915050949350505050565b60008061113e86868686805190602001206115d3565b90508451865114611184576040517f08c379a000000000000000000000000000000000000000000000000000000000815260040161117b90613f00565b60405180910390fd5b83518651146111c8576040517f08c379a00000000000000000000000000000000000000000000000000000000081526004016111bf90613f00565b60405180910390fd5b600086511161120c576040517f08c379a000000000000000000000000000000000000000000000000000000000815260040161120390613f80565b60405180910390fd5b600060016000838152602001908152602001600020905061126c816000016040518060200160405290816000820160009054906101000a900467ffffffffffffffff1667ffffffffffffffff1667ffffffffffffffff1681525050611bc7565b6112ab576040517f08c379a00000000000000000000000000000000000000000000000000000000081526004016112a290614060565b60405180910390fd5b60006112bd6112b8610ed3565b611be1565b6112c643611be1565b6112d09190614490565b905060006112e46112df610834565b611be1565b826112ef9190614490565b90506113078284600001611c3890919063ffffffff16565b61131d8184600101611c3890919063ffffffff16565b7f7d84a6263ae0d98d3329bd7b46bb4e8d6f98cd35a7adb45c274c8b7fd5ebd5e084611347611788565b8b8b8d5167ffffffffffffffff81111561138a577f4e487b7100000000000000000000000000000000000000000000000000000000600052604160045260246000fd5b6040519080825280602002602001820160405280156113bd57816020015b60608152602001906001900390816113a85790505b508c88888e6040516113d79998979695949392919061409b565b60405180910390a183945050505050949350505050565b60006064905090565b6000600454905090565b611409610813565b73ffffffffffffffffffffffffffffffffffffffff16611427611788565b73ffffffffffffffffffffffffffffffffffffffff161461147d576040517f08c379a000000000000000000000000000000000000000000000000000000000815260040161147490613ea0565b60405180910390fd5b61148681611c67565b50565b600080600260009054906101000a900473ffffffffffffffffffffffffffffffffffffffff1673ffffffffffffffffffffffffffffffffffffffff1663d45c443560036000868152602001908152602001600020546040518263ffffffff1660e01b81526004016114fa9190613d3e565b60206040518083038186803b15801561151257600080fd5b505afa158015611526573d6000803e3d6000fd5b505050506040513d601f19601f8201168201806040525081019061154a919061340b565b90506001811461155a578061155d565b60005b915050919050565b60006115c2600160008481526020019081526020016000206001016040518060200160405290816000820160009054906101000a900467ffffffffffffffff1667ffffffffffffffff1667ffffffffffffffff1681525050611839565b67ffffffffffffffff169050919050565b6000848484846040516020016115ec9493929190613beb565b6040516020818303038152906040528051906020012060001c9050949350505050565b6000600260009054906101000a900473ffffffffffffffffffffffffffffffffffffffff16905090565b60606040518060400160405280602081526020017f737570706f72743d627261766f2671756f72756d3d666f722c6162737461696e815250905090565b7f150214d74d59b7d1e90c73fc22ef3d991dd0a76b046543d4d80ab92d2a50328f81565b60006116a68383611d06565b905092915050565b60006116b982611dbb565b9050919050565b7f000000000000000000000000000000000000000000000000000000000000000081565b6000600260009054906101000a900473ffffffffffffffffffffffffffffffffffffffff16905090565b60007f6e665ced000000000000000000000000000000000000000000000000000000007bffffffffffffffffffffffffffffffffffffffffffffffffffffffff1916827bffffffffffffffffffffffffffffffffffffffffffffffffffffffff19161480611781575061178082611e91565b5b9050919050565b600033905090565b6117986113ee565b8111156117da576040517f08c379a00000000000000000000000000000000000000000000000000000000081526004016117d190613ec0565b60405180910390fd5b60006004549050816004819055507f0553476bf02ef2726e8ce5ced78d63e26e602e4a2257b1f559418e24b4633997818360405161181992919061414b565b60405180910390a15050565b6118328585858585611f0b565b5050505050565b600081600001519050919050565b600061185a611854611fa9565b8361206c565b9050919050565b60008060006118728787878761209f565b9150915061187f816121ac565b8192505050949350505050565b600080600160008781526020019081526020016000209050600160078111156118de577f4e487b7100000000000000000000000000000000000000000000000000000000600052602160045260246000fd5b6118e787610f85565b600781111561191f577f4e487b7100000000000000000000000000000000000000000000000000000000600052602160045260246000fd5b1461195f576040517f08c379a000000000000000000000000000000000000000000000000000000000815260040161195690613f60565b60405180910390fd5b60006119bd866119ae846000016040518060200160405290816000820160009054906101000a900467ffffffffffffffff1667ffffffffffffffff1667ffffffffffffffff1681525050611839565b67ffffffffffffffff1661169a565b90506119cb878787846124fd565b8573ffffffffffffffffffffffffffffffffffffffff167fb8e138887d0aa13bab447e82de9d5c1777041ecd21ca36ba824ff1e6c07ddda488878488604051611a1794939291906141ab565b60405180910390a28092505050949350505050565b600080611a3883612775565b905060046007811115611a74577f4e487b7100000000000000000000000000000000000000000000000000000000600052602160045260246000fd5b816007811115611aad577f4e487b7100000000000000000000000000000000000000000000000000000000600052602160045260246000fd5b14611abb5780915050611baa565b6000600360008581526020019081526020016000205490506000801b811415611ae8578192505050611baa565b600260009054906101000a900473ffffffffffffffffffffffffffffffffffffffff1673ffffffffffffffffffffffffffffffffffffffff16632ab0f529826040518263ffffffff1660e01b8152600401611b439190613d3e565b60206040518083038186803b158015611b5b57600080fd5b505afa158015611b6f573d6000803e3d6000fd5b505050506040513d601f19601f82011682018060405250810190611b93919061333e565b15611ba357600792505050611baa565b6005925050505b919050565b6000611bbd8585858561293c565b9050949350505050565b600080826000015167ffffffffffffffff16149050919050565b600067ffffffffffffffff8016821115611c30576040517f08c379a0000000000000000000000000000000000000000000000000000000008152600401611c2790613fc0565b60405180910390fd5b819050919050565b808260000160006101000a81548167ffffffffffffffff021916908367ffffffffffffffff1602179055505050565b7f08f74ea46ef7894f65eabfb5e6e695de773a000b47c529ab559178069b226401600260009054906101000a900473ffffffffffffffffffffffffffffffffffffffff1682604051611cba929190613b99565b60405180910390a180600260006101000a81548173ffffffffffffffffffffffffffffffffffffffff021916908373ffffffffffffffffffffffffffffffffffffffff16021790555050565b60007f000000000000000000000000000000000000000000000000000000000000000073ffffffffffffffffffffffffffffffffffffffff16633a46b1a884846040518363ffffffff1660e01b8152600401611d63929190613bc2565b60206040518083038186803b158015611d7b57600080fd5b505afa158015611d8f573d6000803e3d6000fd5b505050506040513d601f19601f82011682018060405250810190611db3919061340b565b905092915050565b6000611dc56113ee565b611dcd6113f7565b7f000000000000000000000000000000000000000000000000000000000000000073ffffffffffffffffffffffffffffffffffffffff16638e539e8c856040518263ffffffff1660e01b8152600401611e269190614080565b60206040518083038186803b158015611e3e57600080fd5b505afa158015611e52573d6000803e3d6000fd5b505050506040513d601f19601f82011682018060405250810190611e76919061340b565b611e8091906144ff565b611e8a91906144ce565b9050919050565b60007fbf26d897000000000000000000000000000000000000000000000000000000007bffffffffffffffffffffffffffffffffffffffffffffffffffffffff1916827bffffffffffffffffffffffffffffffffffffffffffffffffffffffff19161480611f045750611f0382612a2e565b5b9050919050565b600260009054906101000a900473ffffffffffffffffffffffffffffffffffffffff1673ffffffffffffffffffffffffffffffffffffffff1663e38335e5348686866000876040518763ffffffff1660e01b8152600401611f70959493929190613c45565b6000604051808303818588803b158015611f8957600080fd5b505af1158015611f9d573d6000803e3d6000fd5b50505050505050505050565b60007f0000000000000000000000000000000000000000000000000000000000000000461415611ffb577f00000000000000000000000000000000000000000000000000000000000000009050612069565b6120667f00000000000000000000000000000000000000000000000000000000000000007f00000000000000000000000000000000000000000000000000000000000000007f0000000000000000000000000000000000000000000000000000000000000000612a98565b90505b90565b60008282604051602001612081929190613b47565b60405160208183030381529060405280519060200120905092915050565b6000807f7fffffffffffffffffffffffffffffff5d576e7357a4501ddfe92f46681b20a08360001c11156120da5760006003915091506121a3565b601b8560ff16141580156120f25750601c8560ff1614155b156121045760006004915091506121a3565b6000600187878787604051600081526020016040526040516121299493929190613de3565b6020604051602081039080840390855afa15801561214b573d6000803e3d6000fd5b505050602060405103519050600073ffffffffffffffffffffffffffffffffffffffff168173ffffffffffffffffffffffffffffffffffffffff16141561219a576000600192509250506121a3565b80600092509250505b94509492505050565b600060048111156121e6577f4e487b7100000000000000000000000000000000000000000000000000000000600052602160045260246000fd5b81600481111561221f577f4e487b7100000000000000000000000000000000000000000000000000000000600052602160045260246000fd5b141561222a576124fa565b60016004811115612264577f4e487b7100000000000000000000000000000000000000000000000000000000600052602160045260246000fd5b81600481111561229d577f4e487b7100000000000000000000000000000000000000000000000000000000600052602160045260246000fd5b14156122de576040517f08c379a00000000000000000000000000000000000000000000000000000000081526004016122d590613e80565b60405180910390fd5b60026004811115612318577f4e487b7100000000000000000000000000000000000000000000000000000000600052602160045260246000fd5b816004811115612351577f4e487b7100000000000000000000000000000000000000000000000000000000600052602160045260246000fd5b1415612392576040517f08c379a000000000000000000000000000000000000000000000000000000000815260040161238990613ee0565b60405180910390fd5b600360048111156123cc577f4e487b7100000000000000000000000000000000000000000000000000000000600052602160045260246000fd5b816004811115612405577f4e487b7100000000000000000000000000000000000000000000000000000000600052602160045260246000fd5b1415612446576040517f08c379a000000000000000000000000000000000000000000000000000000000815260040161243d90613f20565b60405180910390fd5b60048081111561247f577f4e487b7100000000000000000000000000000000000000000000000000000000600052602160045260246000fd5b8160048111156124b8577f4e487b7100000000000000000000000000000000000000000000000000000000600052602160045260246000fd5b14156124f9576040517f08c379a00000000000000000000000000000000000000000000000000000000081526004016124f090613fa0565b60405180910390fd5b5b50565b60006005600086815260200190815260200160002090508060030160008573ffffffffffffffffffffffffffffffffffffffff1673ffffffffffffffffffffffffffffffffffffffff16815260200190815260200160002060009054906101000a900460ff16156125a3576040517f08c379a000000000000000000000000000000000000000000000000000000000815260040161259a90613f40565b60405180910390fd5b60018160030160008673ffffffffffffffffffffffffffffffffffffffff1673ffffffffffffffffffffffffffffffffffffffff16815260200190815260200160002060006101000a81548160ff02191690831515021790555060006002811115612637577f4e487b7100000000000000000000000000000000000000000000000000000000600052602160045260246000fd5b60ff168360ff1614156126645781816000016000828254612658919061443a565b9250508190555061276e565b6001600281111561269e577f4e487b7100000000000000000000000000000000000000000000000000000000600052602160045260246000fd5b60ff168360ff1614156126cb57818160010160008282546126bf919061443a565b9250508190555061276d565b600280811115612704577f4e487b7100000000000000000000000000000000000000000000000000000000600052602160045260246000fd5b60ff168360ff1614156127315781816002016000828254612725919061443a565b9250508190555061276c565b6040517f08c379a000000000000000000000000000000000000000000000000000000000815260040161276390614040565b60405180910390fd5b5b5b5050505050565b60008060016000848152602001908152602001600020604051806080016040529081600082016040518060200160405290816000820160009054906101000a900467ffffffffffffffff1667ffffffffffffffff1667ffffffffffffffff16815250508152602001600182016040518060200160405290816000820160009054906101000a900467ffffffffffffffff1667ffffffffffffffff1667ffffffffffffffff168152505081526020016002820160009054906101000a900460ff161515151581526020016002820160019054906101000a900460ff161515151581525050905080604001511561286e576007915050612937565b806060015115612882576002915050612937565b61288f8160000151612ad2565b1561289e576000915050612937565b6128ab8160200151612ad2565b156128ba576001915050612937565b6128c78160200151612aec565b156128fc576128d583612b18565b80156128e657506128e583612b5f565b5b6128f15760036128f4565b60045b915050612937565b6040517f08c379a000000000000000000000000000000000000000000000000000000000815260040161292e90614020565b60405180910390fd5b919050565b60008061294b86868686612b8a565b90506000801b600360008381526020019081526020016000205414612a2257600260009054906101000a900473ffffffffffffffffffffffffffffffffffffffff1673ffffffffffffffffffffffffffffffffffffffff1663c4d252f560036000848152602001908152602001600020546040518263ffffffff1660e01b81526004016129d89190613d3e565b600060405180830381600087803b1580156129f257600080fd5b505af1158015612a06573d6000803e3d6000fd5b5050505060036000828152602001908152602001600020600090555b80915050949350505050565b60007f01ffc9a7000000000000000000000000000000000000000000000000000000007bffffffffffffffffffffffffffffffffffffffffffffffffffffffff1916827bffffffffffffffffffffffffffffffffffffffffffffffffffffffff1916149050919050565b60008383834630604051602001612ab3959493929190613d59565b6040516020818303038152906040528051906020012090509392505050565b600043826000015167ffffffffffffffff16119050919050565b6000612af782612dc7565b8015612b11575043826000015167ffffffffffffffff1611155b9050919050565b60008060056000848152602001908152602001600020905080600201548160010154612b44919061443a565b612b55612b5085610e65565b6116ae565b1115915050919050565b6000806005600084815260200190815260200160002090508060000154816001015411915050919050565b600080612b99868686866115d3565b90506000612ba682610f85565b905060026007811115612be2577f4e487b7100000000000000000000000000000000000000000000000000000000600052602160045260246000fd5b816007811115612c1b577f4e487b7100000000000000000000000000000000000000000000000000000000600052602160045260246000fd5b14158015612c9a575060066007811115612c5e577f4e487b7100000000000000000000000000000000000000000000000000000000600052602160045260246000fd5b816007811115612c97577f4e487b7100000000000000000000000000000000000000000000000000000000600052602160045260246000fd5b14155b8015612d165750600780811115612cda577f4e487b7100000000000000000000000000000000000000000000000000000000600052602160045260246000fd5b816007811115612d13577f4e487b7100000000000000000000000000000000000000000000000000000000600052602160045260246000fd5b14155b612d55576040517f08c379a0000000000000000000000000000000000000000000000000000000008152600401612d4c90613fe0565b60405180910390fd5b600180600084815260200190815260200160002060020160016101000a81548160ff0219169083151502179055507f789cf55be980739dad1d0699b93b58e806b51c9d96619bfa8fe0a28abaa7b30c82604051612db29190614080565b60405180910390a18192505050949350505050565b600080826000015167ffffffffffffffff16119050919050565b6000612df4612def8461421c565b6141f7565b90508083825260208201905082856020860282011115612e1357600080fd5b60005b85811015612e435781612e298882612fbb565b845260208401935060208301925050600181019050612e16565b5050509392505050565b6000612e60612e5b84614248565b6141f7565b90508083825260208201905082856020860282011115612e7f57600080fd5b60005b85811015612ec957813567ffffffffffffffff811115612ea157600080fd5b808601612eae89826130a2565b85526020850194506020840193505050600181019050612e82565b5050509392505050565b6000612ee6612ee184614274565b6141f7565b90508083825260208201905082856020860282011115612f0557600080fd5b60005b85811015612f355781612f1b8882613155565b845260208401935060208301925050600181019050612f08565b5050509392505050565b6000612f52612f4d846142a0565b6141f7565b905082815260208101848484011115612f6a57600080fd5b612f7584828561469b565b509392505050565b6000612f90612f8b846142d1565b6141f7565b905082815260208101848484011115612fa857600080fd5b612fb384828561469b565b509392505050565b600081359050612fca81614cc2565b92915050565b600082601f830112612fe157600080fd5b8135612ff1848260208601612de1565b91505092915050565b600082601f83011261300b57600080fd5b813561301b848260208601612e4d565b91505092915050565b600082601f83011261303557600080fd5b8135613045848260208601612ed3565b91505092915050565b60008151905061305d81614cd9565b92915050565b60008135905061307281614cf0565b92915050565b60008151905061308781614cf0565b92915050565b60008135905061309c81614d07565b92915050565b600082601f8301126130b357600080fd5b81356130c3848260208601612f3f565b91505092915050565b6000813590506130db81614d1e565b92915050565b60008083601f8401126130f357600080fd5b8235905067ffffffffffffffff81111561310c57600080fd5b60208301915083600182028301111561312457600080fd5b9250929050565b600082601f83011261313c57600080fd5b813561314c848260208601612f7d565b91505092915050565b60008135905061316481614d35565b92915050565b60008151905061317981614d35565b92915050565b60008135905061318e81614d4c565b92915050565b600080604083850312156131a757600080fd5b60006131b585828601612fbb565b92505060206131c685828601613155565b9150509250929050565b600080600080608085870312156131e657600080fd5b600085013567ffffffffffffffff81111561320057600080fd5b61320c87828801612fd0565b945050602085013567ffffffffffffffff81111561322957600080fd5b61323587828801613024565b935050604085013567ffffffffffffffff81111561325257600080fd5b61325e87828801612ffa565b925050606061326f87828801613063565b91505092959194509250565b6000806000806080858703121561329157600080fd5b600085013567ffffffffffffffff8111156132ab57600080fd5b6132b787828801612fd0565b945050602085013567ffffffffffffffff8111156132d457600080fd5b6132e087828801613024565b935050604085013567ffffffffffffffff8111156132fd57600080fd5b61330987828801612ffa565b925050606085013567ffffffffffffffff81111561332657600080fd5b6133328782880161312b565b91505092959194509250565b60006020828403121561335057600080fd5b600061335e8482850161304e565b91505092915050565b60006020828403121561337957600080fd5b600061338784828501613078565b91505092915050565b6000602082840312156133a257600080fd5b60006133b08482850161308d565b91505092915050565b6000602082840312156133cb57600080fd5b60006133d9848285016130cc565b91505092915050565b6000602082840312156133f457600080fd5b600061340284828501613155565b91505092915050565b60006020828403121561341d57600080fd5b600061342b8482850161316a565b91505092915050565b6000806040838503121561344757600080fd5b600061345585828601613155565b925050602061346685828601612fbb565b9150509250929050565b6000806040838503121561348357600080fd5b600061349185828601613155565b92505060206134a28582860161317f565b9150509250929050565b600080600080606085870312156134c257600080fd5b60006134d087828801613155565b94505060206134e18782880161317f565b935050604085013567ffffffffffffffff8111156134fe57600080fd5b61350a878288016130e1565b925092505092959194509250565b600080600080600060a0868803121561353057600080fd5b600061353e88828901613155565b955050602061354f8882890161317f565b94505060406135608882890161317f565b935050606061357188828901613063565b925050608061358288828901613063565b9150509295509295909350565b600061359b83836135e7565b60208301905092915050565b60006135b383836137e0565b905092915050565b60006135c78383613846565b905092915050565b60006135db8383613b0b565b60208301905092915050565b6135f081614559565b82525050565b6135ff81614559565b82525050565b600061361082614342565b61361a81856143b8565b935061362583614302565b8060005b8381101561365657815161363d888261358f565b975061364883614384565b925050600181019050613629565b5085935050505092915050565b600061366e8261434d565b61367881856143c9565b93508360208202850161368a85614312565b8060005b858110156136c657848403895281516136a785826135a7565b94506136b283614391565b925060208a0199505060018101905061368e565b50829750879550505050505092915050565b60006136e382614358565b6136ed81856143da565b9350836020820285016136ff85614322565b8060005b8581101561373b578484038952815161371c85826135bb565b94506137278361439e565b925060208a01995050600181019050613703565b50829750879550505050505092915050565b600061375882614363565b61376281856143eb565b935061376d83614332565b8060005b8381101561379e57815161378588826135cf565b9750613790836143ab565b925050600181019050613771565b5085935050505092915050565b6137b48161457d565b82525050565b6137c381614589565b82525050565b6137da6137d582614589565b614740565b82525050565b60006137eb8261436e565b6137f581856143fc565b93506138058185602086016146aa565b61380e81614835565b840191505092915050565b61382281614639565b82525050565b6138318161465d565b82525050565b6138408161466f565b82525050565b600061385182614379565b61385b818561440d565b935061386b8185602086016146aa565b61387481614835565b840191505092915050565b600061388a82614379565b613894818561441e565b93506138a48185602086016146aa565b6138ad81614835565b840191505092915050565b60006138c560188361441e565b91506138d082614853565b602082019050919050565b60006138e860188361441e565b91506138f38261487c565b602082019050919050565b600061390b60438361441e565b9150613916826148a5565b606082019050919050565b600061392e601f8361441e565b91506139398261491a565b602082019050919050565b600061395160028361442f565b915061395c82614943565b600282019050919050565b600061397460218361441e565b915061397f8261496c565b604082019050919050565b600061399760228361441e565b91506139a2826149bb565b604082019050919050565b60006139ba60278361441e565b91506139c582614a0a565b604082019050919050565b60006139dd60238361441e565b91506139e882614a59565b604082019050919050565b6000613a0060188361441e565b9150613a0b82614aa8565b602082019050919050565b6000613a2360228361441e565b9150613a2e82614ad1565b604082019050919050565b6000613a4660268361441e565b9150613a5182614b20565b604082019050919050565b6000613a69601d8361441e565b9150613a7482614b6f565b602082019050919050565b6000613a8c60218361441e565b9150613a9782614b98565b604082019050919050565b6000613aaf601d8361441e565b9150613aba82614be7565b602082019050919050565b6000613ad260358361441e565b9150613add82614c10565b604082019050919050565b6000613af560218361441e565b9150613b0082614c5f565b604082019050919050565b613b148161460e565b82525050565b613b238161460e565b82525050565b613b3281614689565b82525050565b613b418161462c565b82525050565b6000613b5282613944565b9150613b5e82856137c9565b602082019150613b6e82846137c9565b6020820191508190509392505050565b6000602082019050613b9360008301846135f6565b92915050565b6000604082019050613bae60008301856135f6565b613bbb60208301846135f6565b9392505050565b6000604082019050613bd760008301856135f6565b613be46020830184613b1a565b9392505050565b60006080820190508181036000830152613c058187613605565b90508181036020830152613c19818661374d565b90508181036040830152613c2d8185613663565b9050613c3c60608301846137ba565b95945050505050565b600060a0820190508181036000830152613c5f8188613605565b90508181036020830152613c73818761374d565b90508181036040830152613c878186613663565b9050613c966060830185613837565b613ca360808301846137ba565b9695505050505050565b600060c0820190508181036000830152613cc78189613605565b90508181036020830152613cdb818861374d565b90508181036040830152613cef8187613663565b9050613cfe6060830186613837565b613d0b60808301856137ba565b613d1860a0830184613b1a565b979650505050505050565b6000602082019050613d3860008301846137ab565b92915050565b6000602082019050613d5360008301846137ba565b92915050565b600060a082019050613d6e60008301886137ba565b613d7b60208301876137ba565b613d8860408301866137ba565b613d956060830185613b1a565b613da260808301846135f6565b9695505050505050565b6000606082019050613dc160008301866137ba565b613dce6020830185613b1a565b613ddb6040830184613b38565b949350505050565b6000608082019050613df860008301876137ba565b613e056020830186613b38565b613e1260408301856137ba565b613e1f60608301846137ba565b95945050505050565b6000602082019050613e3d6000830184613819565b92915050565b6000602082019050613e586000830184613828565b92915050565b60006020820190508181036000830152613e78818461387f565b905092915050565b60006020820190508181036000830152613e99816138b8565b9050919050565b60006020820190508181036000830152613eb9816138db565b9050919050565b60006020820190508181036000830152613ed9816138fe565b9050919050565b60006020820190508181036000830152613ef981613921565b9050919050565b60006020820190508181036000830152613f1981613967565b9050919050565b60006020820190508181036000830152613f398161398a565b9050919050565b60006020820190508181036000830152613f59816139ad565b9050919050565b60006020820190508181036000830152613f79816139d0565b9050919050565b60006020820190508181036000830152613f99816139f3565b9050919050565b60006020820190508181036000830152613fb981613a16565b9050919050565b60006020820190508181036000830152613fd981613a39565b9050919050565b60006020820190508181036000830152613ff981613a5c565b9050919050565b6000602082019050818103600083015261401981613a7f565b9050919050565b6000602082019050818103600083015261403981613aa2565b9050919050565b6000602082019050818103600083015261405981613ac5565b9050919050565b6000602082019050818103600083015261407981613ae8565b9050919050565b60006020820190506140956000830184613b1a565b92915050565b6000610120820190506140b1600083018c613b1a565b6140be602083018b6135f6565b81810360408301526140d0818a613605565b905081810360608301526140e4818961374d565b905081810360808301526140f881886136d8565b905081810360a083015261410c8187613663565b905061411b60c0830186613b29565b61412860e0830185613b29565b81810361010083015261413b818461387f565b90509a9950505050505050505050565b60006040820190506141606000830185613b1a565b61416d6020830184613b1a565b9392505050565b60006060820190506141896000830186613b1a565b6141966020830185613b1a565b6141a36040830184613b1a565b949350505050565b60006080820190506141c06000830187613b1a565b6141cd6020830186613b38565b6141da6040830185613b1a565b81810360608301526141ec818461387f565b905095945050505050565b6000614201614212565b905061420d828261470f565b919050565b6000604051905090565b600067ffffffffffffffff82111561423757614236614806565b5b602082029050602081019050919050565b600067ffffffffffffffff82111561426357614262614806565b5b602082029050602081019050919050565b600067ffffffffffffffff82111561428f5761428e614806565b5b602082029050602081019050919050565b600067ffffffffffffffff8211156142bb576142ba614806565b5b6142c482614835565b9050602081019050919050565b600067ffffffffffffffff8211156142ec576142eb614806565b5b6142f582614835565b9050602081019050919050565b6000819050602082019050919050565b6000819050602082019050919050565b6000819050602082019050919050565b6000819050602082019050919050565b600081519050919050565b600081519050919050565b600081519050919050565b600081519050919050565b600081519050919050565b600081519050919050565b6000602082019050919050565b6000602082019050919050565b6000602082019050919050565b6000602082019050919050565b600082825260208201905092915050565b600082825260208201905092915050565b600082825260208201905092915050565b600082825260208201905092915050565b600082825260208201905092915050565b600082825260208201905092915050565b600082825260208201905092915050565b600081905092915050565b60006144458261460e565b91506144508361460e565b9250827fffffffffffffffffffffffffffffffffffffffffffffffffffffffffffffffff038211156144855761448461474a565b5b828201905092915050565b600061449b82614618565b91506144a683614618565b92508267ffffffffffffffff038211156144c3576144c261474a565b5b828201905092915050565b60006144d98261460e565b91506144e48361460e565b9250826144f4576144f3614779565b5b828204905092915050565b600061450a8261460e565b91506145158361460e565b9250817fffffffffffffffffffffffffffffffffffffffffffffffffffffffffffffffff048311821515161561454e5761454d61474a565b5b828202905092915050565b6000614564826145ee565b9050919050565b6000614576826145ee565b9050919050565b60008115159050919050565b6000819050919050565b60007fffffffff0000000000000000000000000000000000000000000000000000000082169050919050565b60006145ca8261456b565b9050919050565b60008190506145df82614cae565b919050565b6000819050919050565b600073ffffffffffffffffffffffffffffffffffffffff82169050919050565b6000819050919050565b600067ffffffffffffffff82169050919050565b600060ff82169050919050565b60006146448261464b565b9050919050565b6000614656826145ee565b9050919050565b6000614668826145d1565b9050919050565b600061468261467d836145e4565b614846565b9050919050565b600061469482614618565b9050919050565b82818337600083830152505050565b60005b838110156146c85780820151818401526020810190506146ad565b838111156146d7576000848401525b50505050565b600060028204905060018216806146f557607f821691505b60208210811415614709576147086147d7565b5b50919050565b61471882614835565b810181811067ffffffffffffffff8211171561473757614736614806565b5b80604052505050565b6000819050919050565b7f4e487b7100000000000000000000000000000000000000000000000000000000600052601160045260246000fd5b7f4e487b7100000000000000000000000000000000000000000000000000000000600052601260045260246000fd5b7f4e487b7100000000000000000000000000000000000000000000000000000000600052602160045260246000fd5b7f4e487b7100000000000000000000000000000000000000000000000000000000600052602260045260246000fd5b7f4e487b7100000000000000000000000000000000000000000000000000000000600052604160045260246000fd5b6000601f19601f8301169050919050565b60008160001b9050919050565b7f45434453413a20696e76616c6964207369676e61747572650000000000000000600082015250565b7f476f7665726e6f723a206f6e6c79476f7665726e616e63650000000000000000600082015250565b7f476f7665726e6f72566f74657351756f72756d4672616374696f6e3a2071756f60008201527f72756d4e756d657261746f72206f7665722071756f72756d44656e6f6d696e6160208201527f746f720000000000000000000000000000000000000000000000000000000000604082015250565b7f45434453413a20696e76616c6964207369676e6174757265206c656e67746800600082015250565b7f1901000000000000000000000000000000000000000000000000000000000000600082015250565b7f476f7665726e6f723a20696e76616c69642070726f706f73616c206c656e677460008201527f6800000000000000000000000000000000000000000000000000000000000000602082015250565b7f45434453413a20696e76616c6964207369676e6174757265202773272076616c60008201527f7565000000000000000000000000000000000000000000000000000000000000602082015250565b7f476f7665726e6f72566f74696e6753696d706c653a20766f746520616c72656160008201527f6479206361737400000000000000000000000000000000000000000000000000602082015250565b7f476f7665726e6f723a20766f7465206e6f742063757272656e746c792061637460008201527f6976650000000000000000000000000000000000000000000000000000000000602082015250565b7f476f7665726e6f723a20656d7074792070726f706f73616c0000000000000000600082015250565b7f45434453413a20696e76616c6964207369676e6174757265202776272076616c60008201527f7565000000000000000000000000000000000000000000000000000000000000602082015250565b7f53616665436173743a2076616c756520646f65736e27742066697420696e203660008201527f3420626974730000000000000000000000000000000000000000000000000000602082015250565b7f476f7665726e6f723a2070726f706f73616c206e6f7420616374697665000000600082015250565b7f476f7665726e6f723a2070726f706f73616c206e6f742073756363657373667560008201527f6c00000000000000000000000000000000000000000000000000000000000000602082015250565b7f476f7665726e6f723a20756e6b6e6f776e2070726f706f73616c206964000000600082015250565b7f476f7665726e6f72566f74696e6753696d706c653a20696e76616c696420766160008201527f6c756520666f7220656e756d20566f7465547970650000000000000000000000602082015250565b7f476f7665726e6f723a2070726f706f73616c20616c726561647920657869737460008201527f7300000000000000000000000000000000000000000000000000000000000000602082015250565b60088110614cbf57614cbe6147a8565b5b50565b614ccb81614559565b8114614cd657600080fd5b50565b614ce28161457d565b8114614ced57600080fd5b50565b614cf981614589565b8114614d0457600080fd5b50565b614d1081614593565b8114614d1b57600080fd5b50565b614d27816145bf565b8114614d3257600080fd5b50565b614d3e8161460e565b8114614d4957600080fd5b50565b614d558161462c565b8114614d6057600080fd5b5056fea26469706673582212202db49034c194958f15a8ddfb0dbfdcbf8422434ce83d9626958f36bb90fc773364736f6c63430008040033",
  "immutableReferences": {
    "5020": [
      {
        "length": 32,
        "start": 5826
      },
      {
        "length": 32,
        "start": 7434
      },
      {
        "length": 32,
        "start": 7631
      }
    ],
    "10535": [
      {
        "length": 32,
        "start": 3799
      }
    ],
    "10537": [
      {
        "length": 32,
        "start": 2104
      }
    ],
    "24269": [
      {
        "length": 32,
        "start": 8149
      }
    ],
    "24271": [
      {
        "length": 32,
        "start": 8109
      }
    ],
    "24273": [
      {
        "length": 32,
        "start": 8225
      }
    ],
    "24275": [
      {
        "length": 32,
        "start": 8258
      }
    ],
    "24277": [
      {
        "length": 32,
        "start": 8192
      }
    ]
  },
  "source": "// SPDX-License-Identifier: MIT\n\npragma solidity ^0.8.0;\n\nimport \"../governance/extensions/GovernorTimelockControl.sol\";\nimport \"../governance/extensions/GovernorCountingSimple.sol\";\nimport \"../governance/extensions/GovernorVotesQuorumFraction.sol\";\n\ncontract GovernorTimelockControlMock is GovernorTimelockControl, GovernorVotesQuorumFraction, GovernorCountingSimple {\n    uint256 immutable _votingDelay;\n    uint256 immutable _votingPeriod;\n\n    constructor(\n        string memory name_,\n        ERC20Votes token_,\n        uint256 votingDelay_,\n        uint256 votingPeriod_,\n        TimelockController timelock_,\n        uint256 quorumNumerator_\n    )\n        Governor(name_)\n        GovernorTimelockControl(timelock_)\n        GovernorVotes(token_)\n        GovernorVotesQuorumFraction(quorumNumerator_)\n    {\n        _votingDelay = votingDelay_;\n        _votingPeriod = votingPeriod_;\n    }\n\n    function supportsInterface(bytes4 interfaceId)\n        public\n        view\n        virtual\n        override(Governor, GovernorTimelockControl)\n        returns (bool)\n    {\n        return super.supportsInterface(interfaceId);\n    }\n\n    function votingDelay() public view override returns (uint256) {\n        return _votingDelay;\n    }\n\n    function votingPeriod() public view override returns (uint256) {\n        return _votingPeriod;\n    }\n\n    function quorum(uint256 blockNumber)\n        public\n        view\n        override(IGovernor, GovernorVotesQuorumFraction)\n        returns (uint256)\n    {\n        return super.quorum(blockNumber);\n    }\n\n    function cancel(\n        address[] memory targets,\n        uint256[] memory values,\n        bytes[] memory calldatas,\n        bytes32 descriptionHash\n    ) public returns (uint256 proposalId) {\n        return _cancel(targets, values, calldatas, descriptionHash);\n    }\n\n    /**\n     * Overriding nightmare\n     */\n    function state(uint256 proposalId)\n        public\n        view\n        virtual\n        override(Governor, GovernorTimelockControl)\n        returns (ProposalState)\n    {\n        return super.state(proposalId);\n    }\n\n    function _execute(\n        uint256 proposalId,\n        address[] memory targets,\n        uint256[] memory values,\n        bytes[] memory calldatas,\n        bytes32 descriptionHash\n    ) internal virtual override(Governor, GovernorTimelockControl) {\n        super._execute(proposalId, targets, values, calldatas, descriptionHash);\n    }\n\n    function _cancel(\n        address[] memory targets,\n        uint256[] memory values,\n        bytes[] memory calldatas,\n        bytes32 descriptionHash\n    ) internal virtual override(Governor, GovernorTimelockControl) returns (uint256 proposalId) {\n        return super._cancel(targets, values, calldatas, descriptionHash);\n    }\n\n    function getVotes(address account, uint256 blockNumber)\n        public\n        view\n        virtual\n        override(IGovernor, GovernorVotes)\n        returns (uint256)\n    {\n        return super.getVotes(account, blockNumber);\n    }\n\n    function _executor() internal view virtual override(Governor, GovernorTimelockControl) returns (address) {\n        return super._executor();\n    }\n}\n",
  "sourcePath": "/Users/alexanderpetrovskiy/work/neon/neon-uat/openzeppelin-contracts/contracts/mocks/GovernorTimelockControlMock.sol",
  "compiler": {
    "name": "solc",
    "version": "0.8.4+commit.c7e474f2.Emscripten.clang"
  },
  "schemaVersion": "3.4.3",
  "updatedAt": "2021-10-12T15:22:38.944Z",
  "devdoc": {
    "kind": "dev",
    "methods": {
      "COUNTING_MODE()": {
        "details": "See {IGovernor-COUNTING_MODE}."
      },
      "castVote(uint256,uint8)": {
        "details": "See {IGovernor-castVote}."
      },
      "castVoteBySig(uint256,uint8,uint8,bytes32,bytes32)": {
        "details": "See {IGovernor-castVoteBySig}."
      },
      "castVoteWithReason(uint256,uint8,string)": {
        "details": "See {IGovernor-castVoteWithReason}."
      },
      "execute(address[],uint256[],bytes[],bytes32)": {
        "details": "See {IGovernor-execute}."
      },
      "hasVoted(uint256,address)": {
        "details": "See {IGovernor-hasVoted}."
      },
      "hashProposal(address[],uint256[],bytes[],bytes32)": {
        "details": "See {IGovernor-hashProposal}. The proposal id is produced by hashing the RLC encoded `targets` array, the `values` array, the `calldatas` array and the descriptionHash (bytes32 which itself is the keccak256 hash of the description string). This proposal id can be produced from the proposal data which is part of the {ProposalCreated} event. It can even be computed in advance, before the proposal is submitted. Note that the chainId and the governor address are not part of the proposal id computation. Consequently, the same proposal (with same operation and same description) will have the same id if submitted on multiple governors accross multiple networks. This also means that in order to execute the same operation twice (on the same governor) the proposer will have to change the description in order to avoid proposal id conflicts."
      },
      "name()": {
        "details": "See {IGovernor-name}."
      },
      "proposalDeadline(uint256)": {
        "details": "See {IGovernor-proposalDeadline}."
      },
      "proposalEta(uint256)": {
        "details": "Public accessor to check the eta of a queued proposal"
      },
      "proposalSnapshot(uint256)": {
        "details": "See {IGovernor-proposalSnapshot}."
      },
      "proposalVotes(uint256)": {
        "details": "Accessor to the internal vote counts."
      },
      "propose(address[],uint256[],bytes[],string)": {
        "details": "See {IGovernor-propose}."
      },
      "queue(address[],uint256[],bytes[],bytes32)": {
        "details": "Function to queue a proposal to the timelock."
      },
      "timelock()": {
        "details": "Public accessor to check the address of the timelock"
      },
      "updateTimelock(address)": {
        "details": "Public endpoint to update the underlying timelock instance. Restricted to the timelock itself, so updates must be proposed, scheduled and executed using the {Governor} workflow."
      },
      "version()": {
        "details": "See {IGovernor-version}."
      },
      "votingDelay()": {
        "details": "delay, in number of block, between the proposal is created and the vote starts. This can be increassed to leave time for users to buy voting power, of delegate it, before the voting of a proposal starts."
      },
      "votingPeriod()": {
        "details": "delay, in number of blocks, between the vote start and vote ends. Note: the {votingDelay} can delay the start of the vote. This must be considered when setting the voting duration compared to the voting delay."
      }
    },
    "version": 1
  },
  "userdoc": {
    "kind": "user",
    "methods": {
      "state(uint256)": {
        "notice": "Overriding nightmare"
      },
      "votingDelay()": {
        "notice": "module:user-config"
      },
      "votingPeriod()": {
        "notice": "module:user-config"
      }
    },
    "version": 1
  }
}