{
  "contractName": "MulticallTest",
  "abi": [
    {
      "inputs": [
        {
          "internalType": "contract MulticallTokenMock",
          "name": "multicallToken",
          "type": "address"
        },
        {
          "internalType": "address[]",
          "name": "recipients",
          "type": "address[]"
        },
        {
          "internalType": "uint256[]",
          "name": "amounts",
          "type": "uint256[]"
        }
      ],
      "name": "testReturnValues",
      "outputs": [],
      "stateMutability": "nonpayable",
      "type": "function"
    }
  ],
  "bytecode": "0x608060405234801561001057600080fd5b50610a5d806100206000396000f3fe608060405234801561001057600080fd5b506004361061002b5760003560e01c8063bc548f7614610030575b600080fd5b61004a600480360381019061004591906105e1565b61004c565b005b60008484905067ffffffffffffffff811115610091577f4e487b7100000000000000000000000000000000000000000000000000000000600052604160045260246000fd5b6040519080825280602002602001820160405280156100c457816020015b60608152602001906001900390816100af5790505b50905060005b858590508110156102485785858281811061010e577f4e487b7100000000000000000000000000000000000000000000000000000000600052603260045260246000fd5b9050602002016020810190610123919061054e565b84848381811061015c577f4e487b7100000000000000000000000000000000000000000000000000000000600052603260045260246000fd5b9050602002013560405160240161017492919061074a565b6040516020818303038152906040527fa9059cbb000000000000000000000000000000000000000000000000000000007bffffffffffffffffffffffffffffffffffffffffffffffffffffffff19166020820180517bffffffffffffffffffffffffffffffffffffffffffffffffffffffff838183161783525050505082828151811061022a577f4e487b7100000000000000000000000000000000000000000000000000000000600052603260045260246000fd5b602002602001018190525080806102409061092a565b9150506100ca565b5060008673ffffffffffffffffffffffffffffffffffffffff1663ac9650d8836040518263ffffffff1660e01b81526004016102849190610773565b600060405180830381600087803b15801561029e57600080fd5b505af11580156102b2573d6000803e3d6000fd5b505050506040513d6000823e3d601f19601f820116820180604052508101906102db9190610577565b905060005b815181101561035957818181518110610322577f4e487b7100000000000000000000000000000000000000000000000000000000600052603260045260246000fd5b602002602001015180602001905181019061033d91906105b8565b61034657600080fd5b80806103519061092a565b9150506102e0565b5050505050505050565b6000610376610371846107ba565b610795565b9050808382526020820190508285602086028201111561039557600080fd5b60005b858110156103df57815167ffffffffffffffff8111156103b757600080fd5b8086016103c4898261050f565b85526020850194506020840193505050600181019050610398565b5050509392505050565b60006103fc6103f7846107e6565b610795565b90508281526020810184848401111561041457600080fd5b61041f8482856108c6565b509392505050565b600081359050610436816109e2565b92915050565b60008083601f84011261044e57600080fd5b8235905067ffffffffffffffff81111561046757600080fd5b60208301915083602082028301111561047f57600080fd5b9250929050565b600082601f83011261049757600080fd5b81516104a7848260208601610363565b91505092915050565b60008083601f8401126104c257600080fd5b8235905067ffffffffffffffff8111156104db57600080fd5b6020830191508360208202830111156104f357600080fd5b9250929050565b600081519050610509816109f9565b92915050565b600082601f83011261052057600080fd5b81516105308482602086016103e9565b91505092915050565b60008135905061054881610a10565b92915050565b60006020828403121561056057600080fd5b600061056e84828501610427565b91505092915050565b60006020828403121561058957600080fd5b600082015167ffffffffffffffff8111156105a357600080fd5b6105af84828501610486565b91505092915050565b6000602082840312156105ca57600080fd5b60006105d8848285016104fa565b91505092915050565b6000806000806000606086880312156105f957600080fd5b600061060788828901610539565b955050602086013567ffffffffffffffff81111561062457600080fd5b6106308882890161043c565b9450945050604086013567ffffffffffffffff81111561064f57600080fd5b61065b888289016104b0565b92509250509295509295909350565b60006106768383610702565b905092915050565b6106878161086c565b82525050565b600061069882610827565b6106a2818561084a565b9350836020820285016106b485610817565b8060005b858110156106f057848403895281516106d1858261066a565b94506106dc8361083d565b925060208a019950506001810190506106b8565b50829750879550505050505092915050565b600061070d82610832565b610717818561085b565b93506107278185602086016108c6565b610730816109d1565b840191505092915050565b610744816108bc565b82525050565b600060408201905061075f600083018561067e565b61076c602083018461073b565b9392505050565b6000602082019050818103600083015261078d818461068d565b905092915050565b600061079f6107b0565b90506107ab82826108f9565b919050565b6000604051905090565b600067ffffffffffffffff8211156107d5576107d46109a2565b5b602082029050602081019050919050565b600067ffffffffffffffff821115610801576108006109a2565b5b61080a826109d1565b9050602081019050919050565b6000819050602082019050919050565b600081519050919050565b600081519050919050565b6000602082019050919050565b600082825260208201905092915050565b600082825260208201905092915050565b60006108778261089c565b9050919050565b60008115159050919050565b60006108958261086c565b9050919050565b600073ffffffffffffffffffffffffffffffffffffffff82169050919050565b6000819050919050565b60005b838110156108e45780820151818401526020810190506108c9565b838111156108f3576000848401525b50505050565b610902826109d1565b810181811067ffffffffffffffff82111715610921576109206109a2565b5b80604052505050565b6000610935826108bc565b91507fffffffffffffffffffffffffffffffffffffffffffffffffffffffffffffffff82141561096857610967610973565b5b600182019050919050565b7f4e487b7100000000000000000000000000000000000000000000000000000000600052601160045260246000fd5b7f4e487b7100000000000000000000000000000000000000000000000000000000600052604160045260246000fd5b6000601f19601f8301169050919050565b6109eb8161086c565b81146109f657600080fd5b50565b610a028161087e565b8114610a0d57600080fd5b50565b610a198161088a565b8114610a2457600080fd5b5056fea2646970667358221220fa91f406492e509c4ea4b68ad1007285a99b0dd1374b40fab7008e6c84ac016c64736f6c63430008040033",
  "immutableReferences": {},
  "source": "// SPDX-License-Identifier: MIT\n\npragma solidity ^0.8.0;\n\nimport \"./MulticallTokenMock.sol\";\n\ncontract MulticallTest {\n    function testReturnValues(\n        MulticallTokenMock multicallToken,\n        address[] calldata recipients,\n        uint256[] calldata amounts\n    ) external {\n        bytes[] memory calls = new bytes[](recipients.length);\n        for (uint256 i = 0; i < recipients.length; i++) {\n            calls[i] = abi.encodeWithSignature(\"transfer(address,uint256)\", recipients[i], amounts[i]);\n        }\n\n        bytes[] memory results = multicallToken.multicall(calls);\n        for (uint256 i = 0; i < results.length; i++) {\n            require(abi.decode(results[i], (bool)));\n        }\n    }\n}\n",
  "sourcePath": "/Users/alexanderpetrovskiy/work/neon/neon-uat/openzeppelin-contracts/contracts/mocks/MulticallTest.sol",
  "compiler": {
    "name": "solc",
    "version": "0.8.4+commit.c7e474f2.Emscripten.clang"
  },
  "schemaVersion": "3.4.3",
  "updatedAt": "2021-10-12T07:13:47.580Z",
  "devdoc": {
    "kind": "dev",
    "methods": {},
    "version": 1
  },
  "userdoc": {
    "kind": "user",
    "methods": {},
    "version": 1
  }
}