{
  "contractName": "MulticallTokenMock",
  "abi": [
    {
      "inputs": [
        {
          "internalType": "uint256",
          "name": "initialBalance",
          "type": "uint256"
        }
      ],
      "stateMutability": "nonpayable",
      "type": "constructor"
    },
    {
      "anonymous": false,
      "inputs": [
        {
          "indexed": true,
          "internalType": "address",
          "name": "owner",
          "type": "address"
        },
        {
          "indexed": true,
          "internalType": "address",
          "name": "spender",
          "type": "address"
        },
        {
          "indexed": false,
          "internalType": "uint256",
          "name": "value",
          "type": "uint256"
        }
      ],
      "name": "Approval",
      "type": "event"
    },
    {
      "anonymous": false,
      "inputs": [
        {
          "indexed": true,
          "internalType": "address",
          "name": "from",
          "type": "address"
        },
        {
          "indexed": true,
          "internalType": "address",
          "name": "to",
          "type": "address"
        },
        {
          "indexed": false,
          "internalType": "uint256",
          "name": "value",
          "type": "uint256"
        }
      ],
      "name": "Transfer",
      "type": "event"
    },
    {
      "inputs": [
        {
          "internalType": "address",
          "name": "owner",
          "type": "address"
        },
        {
          "internalType": "address",
          "name": "spender",
          "type": "address"
        }
      ],
      "name": "allowance",
      "outputs": [
        {
          "internalType": "uint256",
          "name": "",
          "type": "uint256"
        }
      ],
      "stateMutability": "view",
      "type": "function"
    },
    {
      "inputs": [
        {
          "internalType": "address",
          "name": "spender",
          "type": "address"
        },
        {
          "internalType": "uint256",
          "name": "amount",
          "type": "uint256"
        }
      ],
      "name": "approve",
      "outputs": [
        {
          "internalType": "bool",
          "name": "",
          "type": "bool"
        }
      ],
      "stateMutability": "nonpayable",
      "type": "function"
    },
    {
      "inputs": [
        {
          "internalType": "address",
          "name": "owner",
          "type": "address"
        },
        {
          "internalType": "address",
          "name": "spender",
          "type": "address"
        },
        {
          "internalType": "uint256",
          "name": "value",
          "type": "uint256"
        }
      ],
      "name": "approveInternal",
      "outputs": [],
      "stateMutability": "nonpayable",
      "type": "function"
    },
    {
      "inputs": [
        {
          "internalType": "address",
          "name": "account",
          "type": "address"
        }
      ],
      "name": "balanceOf",
      "outputs": [
        {
          "internalType": "uint256",
          "name": "",
          "type": "uint256"
        }
      ],
      "stateMutability": "view",
      "type": "function"
    },
    {
      "inputs": [
        {
          "internalType": "address",
          "name": "account",
          "type": "address"
        },
        {
          "internalType": "uint256",
          "name": "amount",
          "type": "uint256"
        }
      ],
      "name": "burn",
      "outputs": [],
      "stateMutability": "nonpayable",
      "type": "function"
    },
    {
      "inputs": [],
      "name": "decimals",
      "outputs": [
        {
          "internalType": "uint8",
          "name": "",
          "type": "uint8"
        }
      ],
      "stateMutability": "view",
      "type": "function"
    },
    {
      "inputs": [
        {
          "internalType": "address",
          "name": "spender",
          "type": "address"
        },
        {
          "internalType": "uint256",
          "name": "subtractedValue",
          "type": "uint256"
        }
      ],
      "name": "decreaseAllowance",
      "outputs": [
        {
          "internalType": "bool",
          "name": "",
          "type": "bool"
        }
      ],
      "stateMutability": "nonpayable",
      "type": "function"
    },
    {
      "inputs": [
        {
          "internalType": "address",
          "name": "spender",
          "type": "address"
        },
        {
          "internalType": "uint256",
          "name": "addedValue",
          "type": "uint256"
        }
      ],
      "name": "increaseAllowance",
      "outputs": [
        {
          "internalType": "bool",
          "name": "",
          "type": "bool"
        }
      ],
      "stateMutability": "nonpayable",
      "type": "function"
    },
    {
      "inputs": [
        {
          "internalType": "address",
          "name": "account",
          "type": "address"
        },
        {
          "internalType": "uint256",
          "name": "amount",
          "type": "uint256"
        }
      ],
      "name": "mint",
      "outputs": [],
      "stateMutability": "nonpayable",
      "type": "function"
    },
    {
      "inputs": [
        {
          "internalType": "bytes[]",
          "name": "data",
          "type": "bytes[]"
        }
      ],
      "name": "multicall",
      "outputs": [
        {
          "internalType": "bytes[]",
          "name": "results",
          "type": "bytes[]"
        }
      ],
      "stateMutability": "nonpayable",
      "type": "function"
    },
    {
      "inputs": [],
      "name": "name",
      "outputs": [
        {
          "internalType": "string",
          "name": "",
          "type": "string"
        }
      ],
      "stateMutability": "view",
      "type": "function"
    },
    {
      "inputs": [],
      "name": "symbol",
      "outputs": [
        {
          "internalType": "string",
          "name": "",
          "type": "string"
        }
      ],
      "stateMutability": "view",
      "type": "function"
    },
    {
      "inputs": [],
      "name": "totalSupply",
      "outputs": [
        {
          "internalType": "uint256",
          "name": "",
          "type": "uint256"
        }
      ],
      "stateMutability": "view",
      "type": "function"
    },
    {
      "inputs": [
        {
          "internalType": "address",
          "name": "recipient",
          "type": "address"
        },
        {
          "internalType": "uint256",
          "name": "amount",
          "type": "uint256"
        }
      ],
      "name": "transfer",
      "outputs": [
        {
          "internalType": "bool",
          "name": "",
          "type": "bool"
        }
      ],
      "stateMutability": "nonpayable",
      "type": "function"
    },
    {
      "inputs": [
        {
          "internalType": "address",
          "name": "sender",
          "type": "address"
        },
        {
          "internalType": "address",
          "name": "recipient",
          "type": "address"
        },
        {
          "internalType": "uint256",
          "name": "amount",
          "type": "uint256"
        }
      ],
      "name": "transferFrom",
      "outputs": [
        {
          "internalType": "bool",
          "name": "",
          "type": "bool"
        }
      ],
      "stateMutability": "nonpayable",
      "type": "function"
    },
    {
      "inputs": [
        {
          "internalType": "address",
          "name": "from",
          "type": "address"
        },
        {
          "internalType": "address",
          "name": "to",
          "type": "address"
        },
        {
          "internalType": "uint256",
          "name": "value",
          "type": "uint256"
        }
      ],
      "name": "transferInternal",
      "outputs": [],
      "stateMutability": "nonpayable",
      "type": "function"
    }
  ],
  "bytecode": "0x60806040523480156200001157600080fd5b506040516200256d3803806200256d833981810160405281019062000037919062000342565b6040518060400160405280600e81526020017f4d756c746963616c6c546f6b656e0000000000000000000000000000000000008152506040518060400160405280600381526020017f4243540000000000000000000000000000000000000000000000000000000000815250338383838160039080519060200190620000bf9291906200027b565b508060049080519060200190620000d89291906200027b565b505050620000ed8282620000f860201b60201c565b505050505062000534565b600073ffffffffffffffffffffffffffffffffffffffff168273ffffffffffffffffffffffffffffffffffffffff1614156200016b576040517f08c379a00000000000000000000000000000000000000000000000000000000081526004016200016290620003a6565b60405180910390fd5b6200017f600083836200027160201b60201c565b8060026000828254620001939190620003f6565b92505081905550806000808473ffffffffffffffffffffffffffffffffffffffff1673ffffffffffffffffffffffffffffffffffffffff1681526020019081526020016000206000828254620001ea9190620003f6565b925050819055508173ffffffffffffffffffffffffffffffffffffffff16600073ffffffffffffffffffffffffffffffffffffffff167fddf252ad1be2c89b69c2b068fc378daa952ba7f163c4a11628f55a4df523b3ef83604051620002519190620003c8565b60405180910390a36200026d600083836200027660201b60201c565b5050565b505050565b505050565b82805462000289906200045d565b90600052602060002090601f016020900481019282620002ad5760008555620002f9565b82601f10620002c857805160ff1916838001178555620002f9565b82800160010185558215620002f9579182015b82811115620002f8578251825591602001919060010190620002db565b5b5090506200030891906200030c565b5090565b5b80821115620003275760008160009055506001016200030d565b5090565b6000815190506200033c816200051a565b92915050565b6000602082840312156200035557600080fd5b600062000365848285016200032b565b91505092915050565b60006200037d601f83620003e5565b91506200038a82620004f1565b602082019050919050565b620003a08162000453565b82525050565b60006020820190508181036000830152620003c1816200036e565b9050919050565b6000602082019050620003df600083018462000395565b92915050565b600082825260208201905092915050565b6000620004038262000453565b9150620004108362000453565b9250827fffffffffffffffffffffffffffffffffffffffffffffffffffffffffffffffff0382111562000448576200044762000493565b5b828201905092915050565b6000819050919050565b600060028204905060018216806200047657607f821691505b602082108114156200048d576200048c620004c2565b5b50919050565b7f4e487b7100000000000000000000000000000000000000000000000000000000600052601160045260246000fd5b7f4e487b7100000000000000000000000000000000000000000000000000000000600052602260045260246000fd5b7f45524332303a206d696e7420746f20746865207a65726f206164647265737300600082015250565b620005258162000453565b81146200053157600080fd5b50565b61202980620005446000396000f3fe608060405234801561001057600080fd5b50600436106101005760003560e01c806356189cb411610097578063a457c2d711610066578063a457c2d7146102ad578063a9059cbb146102dd578063ac9650d81461030d578063dd62ed3e1461033d57610100565b806356189cb41461022757806370a082311461024357806395d89b41146102735780639dc29fac1461029157610100565b806323b872dd116100d357806323b872dd1461018d578063313ce567146101bd57806339509351146101db57806340c10f191461020b57610100565b806306fdde0314610105578063095ea7b31461012357806318160ddd14610153578063222f5be014610171575b600080fd5b61010d61036d565b60405161011a91906117d8565b60405180910390f35b61013d60048036038101906101389190611429565b6103ff565b60405161014a91906117bd565b60405180910390f35b61015b61041d565b604051610168919061195a565b60405180910390f35b61018b600480360381019061018691906113da565b610427565b005b6101a760048036038101906101a291906113da565b610437565b6040516101b491906117bd565b60405180910390f35b6101c561052f565b6040516101d29190611975565b60405180910390f35b6101f560048036038101906101f09190611429565b610538565b60405161020291906117bd565b60405180910390f35b61022560048036038101906102209190611429565b6105e4565b005b610241600480360381019061023c91906113da565b6105f2565b005b61025d60048036038101906102589190611375565b610602565b60405161026a919061195a565b60405180910390f35b61027b61064a565b60405161028891906117d8565b60405180910390f35b6102ab60048036038101906102a69190611429565b6106dc565b005b6102c760048036038101906102c29190611429565b6106ea565b6040516102d491906117bd565b60405180910390f35b6102f760048036038101906102f29190611429565b6107d5565b60405161030491906117bd565b60405180910390f35b61032760048036038101906103229190611465565b6107f3565b604051610334919061179b565b60405180910390f35b6103576004803603810190610352919061139e565b610971565b604051610364919061195a565b60405180910390f35b60606003805461037c90611b75565b80601f01602080910402602001604051908101604052809291908181526020018280546103a890611b75565b80156103f55780601f106103ca576101008083540402835291602001916103f5565b820191906000526020600020905b8154815290600101906020018083116103d857829003601f168201915b5050505050905090565b600061041361040c6109f8565b8484610a00565b6001905092915050565b6000600254905090565b610432838383610bcb565b505050565b6000610444848484610bcb565b6000600160008673ffffffffffffffffffffffffffffffffffffffff1673ffffffffffffffffffffffffffffffffffffffff168152602001908152602001600020600061048f6109f8565b73ffffffffffffffffffffffffffffffffffffffff1673ffffffffffffffffffffffffffffffffffffffff1681526020019081526020016000205490508281101561050f576040517f08c379a00000000000000000000000000000000000000000000000000000000081526004016105069061187a565b60405180910390fd5b6105238561051b6109f8565b858403610a00565b60019150509392505050565b60006012905090565b60006105da6105456109f8565b8484600160006105536109f8565b73ffffffffffffffffffffffffffffffffffffffff1673ffffffffffffffffffffffffffffffffffffffff16815260200190815260200160002060008873ffffffffffffffffffffffffffffffffffffffff1673ffffffffffffffffffffffffffffffffffffffff168152602001908152602001600020546105d59190611a63565b610a00565b6001905092915050565b6105ee8282610e4c565b5050565b6105fd838383610a00565b505050565b60008060008373ffffffffffffffffffffffffffffffffffffffff1673ffffffffffffffffffffffffffffffffffffffff168152602001908152602001600020549050919050565b60606004805461065990611b75565b80601f016020809104026020016040519081016040528092919081815260200182805461068590611b75565b80156106d25780601f106106a7576101008083540402835291602001916106d2565b820191906000526020600020905b8154815290600101906020018083116106b557829003601f168201915b5050505050905090565b6106e68282610fac565b5050565b600080600160006106f96109f8565b73ffffffffffffffffffffffffffffffffffffffff1673ffffffffffffffffffffffffffffffffffffffff16815260200190815260200160002060008573ffffffffffffffffffffffffffffffffffffffff1673ffffffffffffffffffffffffffffffffffffffff168152602001908152602001600020549050828110156107b6576040517f08c379a00000000000000000000000000000000000000000000000000000000081526004016107ad9061191a565b60405180910390fd5b6107ca6107c16109f8565b85858403610a00565b600191505092915050565b60006107e96107e26109f8565b8484610bcb565b6001905092915050565b60608282905067ffffffffffffffff811115610838577f4e487b7100000000000000000000000000000000000000000000000000000000600052604160045260246000fd5b60405190808252806020026020018201604052801561086b57816020015b60608152602001906001900390816108565790505b50905060005b8383905081101561096a57610913308585848181106108b9577f4e487b7100000000000000000000000000000000000000000000000000000000600052603260045260246000fd5b90506020028101906108cb9190611990565b8080601f016020809104026020016040519081016040528093929190818152602001838380828437600081840152601f19601f82011690508083019250505050505050611183565b82828151811061094c577f4e487b7100000000000000000000000000000000000000000000000000000000600052603260045260246000fd5b6020026020010181905250808061096290611ba7565b915050610871565b5092915050565b6000600160008473ffffffffffffffffffffffffffffffffffffffff1673ffffffffffffffffffffffffffffffffffffffff16815260200190815260200160002060008373ffffffffffffffffffffffffffffffffffffffff1673ffffffffffffffffffffffffffffffffffffffff16815260200190815260200160002054905092915050565b600033905090565b600073ffffffffffffffffffffffffffffffffffffffff168373ffffffffffffffffffffffffffffffffffffffff161415610a70576040517f08c379a0000000000000000000000000000000000000000000000000000000008152600401610a67906118fa565b60405180910390fd5b600073ffffffffffffffffffffffffffffffffffffffff168273ffffffffffffffffffffffffffffffffffffffff161415610ae0576040517f08c379a0000000000000000000000000000000000000000000000000000000008152600401610ad79061183a565b60405180910390fd5b80600160008573ffffffffffffffffffffffffffffffffffffffff1673ffffffffffffffffffffffffffffffffffffffff16815260200190815260200160002060008473ffffffffffffffffffffffffffffffffffffffff1673ffffffffffffffffffffffffffffffffffffffff168152602001908152602001600020819055508173ffffffffffffffffffffffffffffffffffffffff168373ffffffffffffffffffffffffffffffffffffffff167f8c5be1e5ebec7d5bd14f71427d1e84f3dd0314c0f7b2291e5b200ac8c7c3b92583604051610bbe919061195a565b60405180910390a3505050565b600073ffffffffffffffffffffffffffffffffffffffff168373ffffffffffffffffffffffffffffffffffffffff161415610c3b576040517f08c379a0000000000000000000000000000000000000000000000000000000008152600401610c32906118da565b60405180910390fd5b600073ffffffffffffffffffffffffffffffffffffffff168273ffffffffffffffffffffffffffffffffffffffff161415610cab576040517f08c379a0000000000000000000000000000000000000000000000000000000008152600401610ca2906117fa565b60405180910390fd5b610cb68383836111b0565b60008060008573ffffffffffffffffffffffffffffffffffffffff1673ffffffffffffffffffffffffffffffffffffffff16815260200190815260200160002054905081811015610d3c576040517f08c379a0000000000000000000000000000000000000000000000000000000008152600401610d339061185a565b60405180910390fd5b8181036000808673ffffffffffffffffffffffffffffffffffffffff1673ffffffffffffffffffffffffffffffffffffffff16815260200190815260200160002081905550816000808573ffffffffffffffffffffffffffffffffffffffff1673ffffffffffffffffffffffffffffffffffffffff1681526020019081526020016000206000828254610dcf9190611a63565b925050819055508273ffffffffffffffffffffffffffffffffffffffff168473ffffffffffffffffffffffffffffffffffffffff167fddf252ad1be2c89b69c2b068fc378daa952ba7f163c4a11628f55a4df523b3ef84604051610e33919061195a565b60405180910390a3610e468484846111b5565b50505050565b600073ffffffffffffffffffffffffffffffffffffffff168273ffffffffffffffffffffffffffffffffffffffff161415610ebc576040517f08c379a0000000000000000000000000000000000000000000000000000000008152600401610eb39061193a565b60405180910390fd5b610ec8600083836111b0565b8060026000828254610eda9190611a63565b92505081905550806000808473ffffffffffffffffffffffffffffffffffffffff1673ffffffffffffffffffffffffffffffffffffffff1681526020019081526020016000206000828254610f2f9190611a63565b925050819055508173ffffffffffffffffffffffffffffffffffffffff16600073ffffffffffffffffffffffffffffffffffffffff167fddf252ad1be2c89b69c2b068fc378daa952ba7f163c4a11628f55a4df523b3ef83604051610f94919061195a565b60405180910390a3610fa8600083836111b5565b5050565b600073ffffffffffffffffffffffffffffffffffffffff168273ffffffffffffffffffffffffffffffffffffffff16141561101c576040517f08c379a00000000000000000000000000000000000000000000000000000000081526004016110139061189a565b60405180910390fd5b611028826000836111b0565b60008060008473ffffffffffffffffffffffffffffffffffffffff1673ffffffffffffffffffffffffffffffffffffffff168152602001908152602001600020549050818110156110ae576040517f08c379a00000000000000000000000000000000000000000000000000000000081526004016110a59061181a565b60405180910390fd5b8181036000808573ffffffffffffffffffffffffffffffffffffffff1673ffffffffffffffffffffffffffffffffffffffff1681526020019081526020016000208190555081600260008282546111059190611ab9565b92505081905550600073ffffffffffffffffffffffffffffffffffffffff168373ffffffffffffffffffffffffffffffffffffffff167fddf252ad1be2c89b69c2b068fc378daa952ba7f163c4a11628f55a4df523b3ef8460405161116a919061195a565b60405180910390a361117e836000846111b5565b505050565b60606111a88383604051806060016040528060278152602001611fcd602791396111ba565b905092915050565b505050565b505050565b60606111c584611287565b611204576040517f08c379a00000000000000000000000000000000000000000000000000000000081526004016111fb906118ba565b60405180910390fd5b6000808573ffffffffffffffffffffffffffffffffffffffff168560405161122c9190611784565b600060405180830381855af49150503d8060008114611267576040519150601f19603f3d011682016040523d82523d6000602084013e61126c565b606091505b509150915061127c82828661129a565b925050509392505050565b600080823b905060008111915050919050565b606083156112aa578290506112fa565b6000835111156112bd5782518084602001fd5b816040517f08c379a00000000000000000000000000000000000000000000000000000000081526004016112f191906117d8565b60405180910390fd5b9392505050565b60008135905061131081611f9e565b92915050565b60008083601f84011261132857600080fd5b8235905067ffffffffffffffff81111561134157600080fd5b60208301915083602082028301111561135957600080fd5b9250929050565b60008135905061136f81611fb5565b92915050565b60006020828403121561138757600080fd5b600061139584828501611301565b91505092915050565b600080604083850312156113b157600080fd5b60006113bf85828601611301565b92505060206113d085828601611301565b9150509250929050565b6000806000606084860312156113ef57600080fd5b60006113fd86828701611301565b935050602061140e86828701611301565b925050604061141f86828701611360565b9150509250925092565b6000806040838503121561143c57600080fd5b600061144a85828601611301565b925050602061145b85828601611360565b9150509250929050565b6000806020838503121561147857600080fd5b600083013567ffffffffffffffff81111561149257600080fd5b61149e85828601611316565b92509250509250929050565b60006114b68383611542565b905092915050565b60006114c9826119f7565b6114d38185611a25565b9350836020820285016114e5856119e7565b8060005b85811015611521578484038952815161150285826114aa565b945061150d83611a18565b925060208a019950506001810190506114e9565b50829750879550505050505092915050565b61153c81611aff565b82525050565b600061154d82611a02565b6115578185611a36565b9350611567818560208601611b42565b61157081611c4e565b840191505092915050565b600061158682611a02565b6115908185611a47565b93506115a0818560208601611b42565b80840191505092915050565b60006115b782611a0d565b6115c18185611a52565b93506115d1818560208601611b42565b6115da81611c4e565b840191505092915050565b60006115f2602383611a52565b91506115fd82611c5f565b604082019050919050565b6000611615602283611a52565b915061162082611cae565b604082019050919050565b6000611638602283611a52565b915061164382611cfd565b604082019050919050565b600061165b602683611a52565b915061166682611d4c565b604082019050919050565b600061167e602883611a52565b915061168982611d9b565b604082019050919050565b60006116a1602183611a52565b91506116ac82611dea565b604082019050919050565b60006116c4602683611a52565b91506116cf82611e39565b604082019050919050565b60006116e7602583611a52565b91506116f282611e88565b604082019050919050565b600061170a602483611a52565b915061171582611ed7565b604082019050919050565b600061172d602583611a52565b915061173882611f26565b604082019050919050565b6000611750601f83611a52565b915061175b82611f75565b602082019050919050565b61176f81611b2b565b82525050565b61177e81611b35565b82525050565b6000611790828461157b565b915081905092915050565b600060208201905081810360008301526117b581846114be565b905092915050565b60006020820190506117d26000830184611533565b92915050565b600060208201905081810360008301526117f281846115ac565b905092915050565b60006020820190508181036000830152611813816115e5565b9050919050565b6000602082019050818103600083015261183381611608565b9050919050565b600060208201905081810360008301526118538161162b565b9050919050565b600060208201905081810360008301526118738161164e565b9050919050565b6000602082019050818103600083015261189381611671565b9050919050565b600060208201905081810360008301526118b381611694565b9050919050565b600060208201905081810360008301526118d3816116b7565b9050919050565b600060208201905081810360008301526118f3816116da565b9050919050565b60006020820190508181036000830152611913816116fd565b9050919050565b6000602082019050818103600083015261193381611720565b9050919050565b6000602082019050818103600083015261195381611743565b9050919050565b600060208201905061196f6000830184611766565b92915050565b600060208201905061198a6000830184611775565b92915050565b600080833560016020038436030381126119a957600080fd5b80840192508235915067ffffffffffffffff8211156119c757600080fd5b6020830192506001820236038313156119df57600080fd5b509250929050565b6000819050602082019050919050565b600081519050919050565b600081519050919050565b600081519050919050565b6000602082019050919050565b600082825260208201905092915050565b600082825260208201905092915050565b600081905092915050565b600082825260208201905092915050565b6000611a6e82611b2b565b9150611a7983611b2b565b9250827fffffffffffffffffffffffffffffffffffffffffffffffffffffffffffffffff03821115611aae57611aad611bf0565b5b828201905092915050565b6000611ac482611b2b565b9150611acf83611b2b565b925082821015611ae257611ae1611bf0565b5b828203905092915050565b6000611af882611b0b565b9050919050565b60008115159050919050565b600073ffffffffffffffffffffffffffffffffffffffff82169050919050565b6000819050919050565b600060ff82169050919050565b60005b83811015611b60578082015181840152602081019050611b45565b83811115611b6f576000848401525b50505050565b60006002820490506001821680611b8d57607f821691505b60208210811415611ba157611ba0611c1f565b5b50919050565b6000611bb282611b2b565b91507fffffffffffffffffffffffffffffffffffffffffffffffffffffffffffffffff821415611be557611be4611bf0565b5b600182019050919050565b7f4e487b7100000000000000000000000000000000000000000000000000000000600052601160045260246000fd5b7f4e487b7100000000000000000000000000000000000000000000000000000000600052602260045260246000fd5b6000601f19601f8301169050919050565b7f45524332303a207472616e7366657220746f20746865207a65726f206164647260008201527f6573730000000000000000000000000000000000000000000000000000000000602082015250565b7f45524332303a206275726e20616d6f756e7420657863656564732062616c616e60008201527f6365000000000000000000000000000000000000000000000000000000000000602082015250565b7f45524332303a20617070726f766520746f20746865207a65726f20616464726560008201527f7373000000000000000000000000000000000000000000000000000000000000602082015250565b7f45524332303a207472616e7366657220616d6f756e742065786365656473206260008201527f616c616e63650000000000000000000000000000000000000000000000000000602082015250565b7f45524332303a207472616e7366657220616d6f756e742065786365656473206160008201527f6c6c6f77616e6365000000000000000000000000000000000000000000000000602082015250565b7f45524332303a206275726e2066726f6d20746865207a65726f2061646472657360008201527f7300000000000000000000000000000000000000000000000000000000000000602082015250565b7f416464726573733a2064656c65676174652063616c6c20746f206e6f6e2d636f60008201527f6e74726163740000000000000000000000000000000000000000000000000000602082015250565b7f45524332303a207472616e736665722066726f6d20746865207a65726f20616460008201527f6472657373000000000000000000000000000000000000000000000000000000602082015250565b7f45524332303a20617070726f76652066726f6d20746865207a65726f2061646460008201527f7265737300000000000000000000000000000000000000000000000000000000602082015250565b7f45524332303a2064656372656173656420616c6c6f77616e63652062656c6f7760008201527f207a65726f000000000000000000000000000000000000000000000000000000602082015250565b7f45524332303a206d696e7420746f20746865207a65726f206164647265737300600082015250565b611fa781611aed565b8114611fb257600080fd5b50565b611fbe81611b2b565b8114611fc957600080fd5b5056fe416464726573733a206c6f772d6c6576656c2064656c65676174652063616c6c206661696c6564a2646970667358221220712ecd38106a9e5218b3cc70a4fb45183e705a34502468662d3186f748f32b3464736f6c63430008040033",
  "immutableReferences": {},
  "source": "// SPDX-License-Identifier: MIT\n\npragma solidity ^0.8.0;\n\nimport \"../utils/Multicall.sol\";\nimport \"./ERC20Mock.sol\";\n\ncontract MulticallTokenMock is ERC20Mock, Multicall {\n    constructor(uint256 initialBalance) ERC20Mock(\"MulticallToken\", \"BCT\", msg.sender, initialBalance) {}\n}\n",
  "sourcePath": "/Users/alexanderpetrovskiy/work/neon/neon-uat/openzeppelin-contracts/contracts/mocks/MulticallTokenMock.sol",
  "compiler": {
    "name": "solc",
    "version": "0.8.4+commit.c7e474f2.Emscripten.clang"
  },
  "schemaVersion": "3.4.3",
  "updatedAt": "2023-10-14T11:18:38.576Z",
  "devdoc": {
    "kind": "dev",
    "methods": {
      "allowance(address,address)": {
        "details": "See {IERC20-allowance}."
      },
      "approve(address,uint256)": {
        "details": "See {IERC20-approve}. Requirements: - `spender` cannot be the zero address."
      },
      "balanceOf(address)": {
        "details": "See {IERC20-balanceOf}."
      },
      "decimals()": {
        "details": "Returns the number of decimals used to get its user representation. For example, if `decimals` equals `2`, a balance of `505` tokens should be displayed to a user as `5.05` (`505 / 10 ** 2`). Tokens usually opt for a value of 18, imitating the relationship between Ether and Wei. This is the value {ERC20} uses, unless this function is overridden; NOTE: This information is only used for _display_ purposes: it in no way affects any of the arithmetic of the contract, including {IERC20-balanceOf} and {IERC20-transfer}."
      },
      "decreaseAllowance(address,uint256)": {
        "details": "Atomically decreases the allowance granted to `spender` by the caller. This is an alternative to {approve} that can be used as a mitigation for problems described in {IERC20-approve}. Emits an {Approval} event indicating the updated allowance. Requirements: - `spender` cannot be the zero address. - `spender` must have allowance for the caller of at least `subtractedValue`."
      },
      "increaseAllowance(address,uint256)": {
        "details": "Atomically increases the allowance granted to `spender` by the caller. This is an alternative to {approve} that can be used as a mitigation for problems described in {IERC20-approve}. Emits an {Approval} event indicating the updated allowance. Requirements: - `spender` cannot be the zero address."
      },
      "multicall(bytes[])": {
        "details": "Receives and executes a batch of function calls on this contract."
      },
      "name()": {
        "details": "Returns the name of the token."
      },
      "symbol()": {
        "details": "Returns the symbol of the token, usually a shorter version of the name."
      },
      "totalSupply()": {
        "details": "See {IERC20-totalSupply}."
      },
      "transfer(address,uint256)": {
        "details": "See {IERC20-transfer}. Requirements: - `recipient` cannot be the zero address. - the caller must have a balance of at least `amount`."
      },
      "transferFrom(address,address,uint256)": {
        "details": "See {IERC20-transferFrom}. Emits an {Approval} event indicating the updated allowance. This is not required by the EIP. See the note at the beginning of {ERC20}. Requirements: - `sender` and `recipient` cannot be the zero address. - `sender` must have a balance of at least `amount`. - the caller must have allowance for ``sender``'s tokens of at least `amount`."
      }
    },
    "version": 1
  },
  "userdoc": {
    "kind": "user",
    "methods": {},
    "version": 1
  }
}