{
  "contractName": "ReentrancyMock",
  "abi": [
    {
      "inputs": [],
      "stateMutability": "nonpayable",
      "type": "constructor"
    },
    {
      "inputs": [],
      "name": "counter",
      "outputs": [
        {
          "internalType": "uint256",
          "name": "",
          "type": "uint256"
        }
      ],
      "stateMutability": "view",
      "type": "function"
    },
    {
      "inputs": [],
      "name": "callback",
      "outputs": [],
      "stateMutability": "nonpayable",
      "type": "function"
    },
    {
      "inputs": [
        {
          "internalType": "uint256",
          "name": "n",
          "type": "uint256"
        }
      ],
      "name": "countLocalRecursive",
      "outputs": [],
      "stateMutability": "nonpayable",
      "type": "function"
    },
    {
      "inputs": [
        {
          "internalType": "uint256",
          "name": "n",
          "type": "uint256"
        }
      ],
      "name": "countThisRecursive",
      "outputs": [],
      "stateMutability": "nonpayable",
      "type": "function"
    },
    {
      "inputs": [
        {
          "internalType": "contract ReentrancyAttack",
          "name": "attacker",
          "type": "address"
        }
      ],
      "name": "countAndCall",
      "outputs": [],
      "stateMutability": "nonpayable",
      "type": "function"
    }
  ],
  "bytecode": "0x608060405234801561001057600080fd5b506001600081905550600060018190555061085e806100306000396000f3fe608060405234801561001057600080fd5b50600436106100575760003560e01c8063083b27321461005c57806361bc221a146100665780638c5344fa1461008457806396ffa690146100a0578063b672ad8b146100bc575b600080fd5b6100646100d8565b005b61006e610138565b60405161007b9190610600565b60405180910390f35b61009e600480360381019061009991906104d0565b61013e565b005b6100ba60048036038101906100b591906104d0565b6102f0565b005b6100d660048036038101906100d191906104a7565b610370565b005b6002600054141561011e576040517f08c379a0000000000000000000000000000000000000000000000000000000008152600401610115906105e0565b60405180910390fd5b600260008190555061012e610462565b6001600081905550565b60015481565b60026000541415610184576040517f08c379a000000000000000000000000000000000000000000000000000000000815260040161017b906105e0565b60405180910390fd5b600260008190555060008111156102e55761019d610462565b60003073ffffffffffffffffffffffffffffffffffffffff166001836101c39190610698565b6040516024016101d39190610600565b6040516020818303038152906040527f8c5344fa000000000000000000000000000000000000000000000000000000007bffffffffffffffffffffffffffffffffffffffffffffffffffffffff19166020820180517bffffffffffffffffffffffffffffffffffffffffffffffffffffffff838183161783525050505060405161025d919061058e565b6000604051808303816000865af19150503d806000811461029a576040519150601f19603f3d011682016040523d82523d6000602084013e61029f565b606091505b50509050806102e3576040517f08c379a00000000000000000000000000000000000000000000000000000000081526004016102da906105c0565b60405180910390fd5b505b600160008190555050565b60026000541415610336576040517f08c379a000000000000000000000000000000000000000000000000000000000815260040161032d906105e0565b60405180910390fd5b600260008190555060008111156103655761034f610462565b61036460018261035f9190610698565b6102f0565b5b600160008190555050565b600260005414156103b6576040517f08c379a00000000000000000000000000000000000000000000000000000000081526004016103ad906105e0565b60405180910390fd5b60026000819055506103c6610462565b60007f083b2732f78169bfaad6b407fa338cc97d697ed69d3915a18239cc111d51a40290508173ffffffffffffffffffffffffffffffffffffffff16630a2df1ed826040518263ffffffff1660e01b815260040161042491906105a5565b600060405180830381600087803b15801561043e57600080fd5b505af1158015610452573d6000803e3d6000fd5b5050505050600160008190555050565b60018060008282546104749190610642565b92505081905550565b60008135905061048c816107fa565b92915050565b6000813590506104a181610811565b92915050565b6000602082840312156104b957600080fd5b60006104c78482850161047d565b91505092915050565b6000602082840312156104e257600080fd5b60006104f084828501610492565b91505092915050565b610502816106de565b82525050565b60006105138261061b565b61051d8185610626565b935061052d818560208601610746565b80840191505092915050565b6000610546601b83610631565b9150610551826107a8565b602082019050919050565b6000610569601f83610631565b9150610574826107d1565b602082019050919050565b6105888161073c565b82525050565b600061059a8284610508565b915081905092915050565b60006020820190506105ba60008301846104f9565b92915050565b600060208201905081810360008301526105d981610539565b9050919050565b600060208201905081810360008301526105f98161055c565b9050919050565b6000602082019050610615600083018461057f565b92915050565b600081519050919050565b600081905092915050565b600082825260208201905092915050565b600061064d8261073c565b91506106588361073c565b9250827fffffffffffffffffffffffffffffffffffffffffffffffffffffffffffffffff0382111561068d5761068c610779565b5b828201905092915050565b60006106a38261073c565b91506106ae8361073c565b9250828210156106c1576106c0610779565b5b828203905092915050565b60006106d78261071c565b9050919050565b60007fffffffff0000000000000000000000000000000000000000000000000000000082169050919050565b6000610715826106cc565b9050919050565b600073ffffffffffffffffffffffffffffffffffffffff82169050919050565b6000819050919050565b60005b83811015610764578082015181840152602081019050610749565b83811115610773576000848401525b50505050565b7f4e487b7100000000000000000000000000000000000000000000000000000000600052601160045260246000fd5b7f5265656e7472616e63794d6f636b3a206661696c65642063616c6c0000000000600082015250565b7f5265656e7472616e637947756172643a207265656e7472616e742063616c6c00600082015250565b6108038161070a565b811461080e57600080fd5b50565b61081a8161073c565b811461082557600080fd5b5056fea264697066735822122051b7b2dc45a74b365076ff30a3468a331ba0c931961ccd52399303f847140e4964736f6c63430008040033",
  "immutableReferences": {},
  "source": "// SPDX-License-Identifier: MIT\n\npragma solidity ^0.8.0;\n\nimport \"../security/ReentrancyGuard.sol\";\nimport \"./ReentrancyAttack.sol\";\n\ncontract ReentrancyMock is ReentrancyGuard {\n    uint256 public counter;\n\n    constructor() {\n        counter = 0;\n    }\n\n    function callback() external nonReentrant {\n        _count();\n    }\n\n    function countLocalRecursive(uint256 n) public nonReentrant {\n        if (n > 0) {\n            _count();\n            countLocalRecursive(n - 1);\n        }\n    }\n\n    function countThisRecursive(uint256 n) public nonReentrant {\n        if (n > 0) {\n            _count();\n            (bool success, ) = address(this).call(abi.encodeWithSignature(\"countThisRecursive(uint256)\", n - 1));\n            require(success, \"ReentrancyMock: failed call\");\n        }\n    }\n\n    function countAndCall(ReentrancyAttack attacker) public nonReentrant {\n        _count();\n        bytes4 func = bytes4(keccak256(\"callback()\"));\n        attacker.callSender(func);\n    }\n\n    function _count() private {\n        counter += 1;\n    }\n}\n",
  "sourcePath": "/Users/alexanderpetrovskiy/work/neon/neon-uat/openzeppelin-contracts/contracts/mocks/ReentrancyMock.sol",
  "compiler": {
    "name": "solc",
    "version": "0.8.4+commit.c7e474f2.Emscripten.clang"
  },
  "schemaVersion": "3.4.3",
  "updatedAt": "2021-10-12T15:22:38.981Z",
  "devdoc": {
    "kind": "dev",
    "methods": {},
    "version": 1
  },
  "userdoc": {
    "kind": "user",
    "methods": {},
    "version": 1
  }
}