{
  "contractName": "SignatureCheckerMock",
  "abi": [
    {
      "inputs": [
        {
          "internalType": "address",
          "name": "signer",
          "type": "address"
        },
        {
          "internalType": "bytes32",
          "name": "hash",
          "type": "bytes32"
        },
        {
          "internalType": "bytes",
          "name": "signature",
          "type": "bytes"
        }
      ],
      "name": "isValidSignatureNow",
      "outputs": [
        {
          "internalType": "bool",
          "name": "",
          "type": "bool"
        }
      ],
      "stateMutability": "view",
      "type": "function"
    }
  ],
  "bytecode": "0x608060405234801561001057600080fd5b50610946806100206000396000f3fe608060405234801561001057600080fd5b506004361061002b5760003560e01c80636ccea65214610030575b600080fd5b61004a6004803603810190610045919061054c565b610060565b604051610057919061068a565b60405180910390f35b600061008d83838673ffffffffffffffffffffffffffffffffffffffff166100969092919063ffffffff16565b90509392505050565b60008060006100a585856102c7565b91509150600060048111156100e3577f4e487b7100000000000000000000000000000000000000000000000000000000600052602160045260246000fd5b81600481111561011c577f4e487b7100000000000000000000000000000000000000000000000000000000600052602160045260246000fd5b14801561015457508573ffffffffffffffffffffffffffffffffffffffff168273ffffffffffffffffffffffffffffffffffffffff16145b15610164576001925050506102c0565b6000808773ffffffffffffffffffffffffffffffffffffffff16631626ba7e60e01b88886040516024016101999291906106a5565b604051602081830303815290604052907bffffffffffffffffffffffffffffffffffffffffffffffffffffffff19166020820180517bffffffffffffffffffffffffffffffffffffffffffffffffffffffff83818316178352505050506040516102039190610673565b600060405180830381855afa9150503d806000811461023e576040519150601f19603f3d011682016040523d82523d6000602084013e610243565b606091505b5091509150818015610256575060208151145b80156102b95750631626ba7e60e01b7bffffffffffffffffffffffffffffffffffffffffffffffffffffffff19168180602001905181019061029891906105b3565b7bffffffffffffffffffffffffffffffffffffffffffffffffffffffff1916145b9450505050505b9392505050565b6000806041835114156103095760008060006020860151925060408601519150606086015160001a90506102fd8782858561034a565b94509450505050610343565b60408351141561033a57600080602085015191506040850151905061032f868383610457565b935093505050610343565b60006002915091505b9250929050565b6000807f7fffffffffffffffffffffffffffffff5d576e7357a4501ddfe92f46681b20a08360001c111561038557600060039150915061044e565b601b8560ff161415801561039d5750601c8560ff1614155b156103af57600060049150915061044e565b6000600187878787604051600081526020016040526040516103d494939291906106d5565b6020604051602081039080840390855afa1580156103f6573d6000803e3d6000fd5b505050602060405103519050600073ffffffffffffffffffffffffffffffffffffffff168173ffffffffffffffffffffffffffffffffffffffff1614156104455760006001925092505061044e565b80600092509250505b94509492505050565b6000806000807f7fffffffffffffffffffffffffffffffffffffffffffffffffffffffffffffff85169150601b8560ff1c0190506104978782888561034a565b935093505050935093915050565b60006104b86104b38461073f565b61071a565b9050828152602081018484840111156104d057600080fd5b6104db848285610818565b509392505050565b6000813590506104f2816108cb565b92915050565b600081359050610507816108e2565b92915050565b60008151905061051c816108f9565b92915050565b600082601f83011261053357600080fd5b81356105438482602086016104a5565b91505092915050565b60008060006060848603121561056157600080fd5b600061056f868287016104e3565b9350506020610580868287016104f8565b925050604084013567ffffffffffffffff81111561059d57600080fd5b6105a986828701610522565b9150509250925092565b6000602082840312156105c557600080fd5b60006105d38482850161050d565b91505092915050565b6105e5816107a9565b82525050565b6105f4816107b5565b82525050565b600061060582610770565b61060f818561077b565b935061061f818560208601610827565b610628816108ba565b840191505092915050565b600061063e82610770565b610648818561078c565b9350610658818560208601610827565b80840191505092915050565b61066d8161080b565b82525050565b600061067f8284610633565b915081905092915050565b600060208201905061069f60008301846105dc565b92915050565b60006040820190506106ba60008301856105eb565b81810360208301526106cc81846105fa565b90509392505050565b60006080820190506106ea60008301876105eb565b6106f76020830186610664565b61070460408301856105eb565b61071160608301846105eb565b95945050505050565b6000610724610735565b9050610730828261085a565b919050565b6000604051905090565b600067ffffffffffffffff82111561075a5761075961088b565b5b610763826108ba565b9050602081019050919050565b600081519050919050565b600082825260208201905092915050565b600081905092915050565b60006107a2826107eb565b9050919050565b60008115159050919050565b6000819050919050565b60007fffffffff0000000000000000000000000000000000000000000000000000000082169050919050565b600073ffffffffffffffffffffffffffffffffffffffff82169050919050565b600060ff82169050919050565b82818337600083830152505050565b60005b8381101561084557808201518184015260208101905061082a565b83811115610854576000848401525b50505050565b610863826108ba565b810181811067ffffffffffffffff821117156108825761088161088b565b5b80604052505050565b7f4e487b7100000000000000000000000000000000000000000000000000000000600052604160045260246000fd5b6000601f19601f8301169050919050565b6108d481610797565b81146108df57600080fd5b50565b6108eb816107b5565b81146108f657600080fd5b50565b610902816107bf565b811461090d57600080fd5b5056fea264697066735822122025ffbf5785bb685ac920ac564f6e1fae42f59e29ff7b9dbc7c7639c35e9455ea64736f6c63430008040033",
  "immutableReferences": {},
  "source": "// SPDX-License-Identifier: MIT\n\npragma solidity ^0.8.0;\n\nimport \"../utils/cryptography/SignatureChecker.sol\";\n\ncontract SignatureCheckerMock {\n    using SignatureChecker for address;\n\n    function isValidSignatureNow(\n        address signer,\n        bytes32 hash,\n        bytes memory signature\n    ) public view returns (bool) {\n        return signer.isValidSignatureNow(hash, signature);\n    }\n}\n",
  "sourcePath": "/Users/alexanderpetrovskiy/work/neon/neon-uat/openzeppelin-contracts/contracts/mocks/SignatureCheckerMock.sol",
  "compiler": {
    "name": "solc",
    "version": "0.8.4+commit.c7e474f2.Emscripten.clang"
  },
  "schemaVersion": "3.4.3",
  "updatedAt": "2021-10-12T07:13:47.627Z",
  "devdoc": {
    "kind": "dev",
    "methods": {},
    "version": 1
  },
  "userdoc": {
    "kind": "user",
    "methods": {},
    "version": 1
  }
}