{
  "contractName": "StringsMock",
  "abi": [
    {
      "inputs": [
        {
          "internalType": "uint256",
          "name": "value",
          "type": "uint256"
        }
      ],
      "name": "fromUint256",
      "outputs": [
        {
          "internalType": "string",
          "name": "",
          "type": "string"
        }
      ],
      "stateMutability": "pure",
      "type": "function"
    },
    {
      "inputs": [
        {
          "internalType": "uint256",
          "name": "value",
          "type": "uint256"
        }
      ],
      "name": "fromUint256Hex",
      "outputs": [
        {
          "internalType": "string",
          "name": "",
          "type": "string"
        }
      ],
      "stateMutability": "pure",
      "type": "function"
    },
    {
      "inputs": [
        {
          "internalType": "uint256",
          "name": "value",
          "type": "uint256"
        },
        {
          "internalType": "uint256",
          "name": "length",
          "type": "uint256"
        }
      ],
      "name": "fromUint256HexFixed",
      "outputs": [
        {
          "internalType": "string",
          "name": "",
          "type": "string"
        }
      ],
      "stateMutability": "pure",
      "type": "function"
    }
  ],
  "bytecode": "0x608060405234801561001057600080fd5b50610a4a806100206000396000f3fe608060405234801561001057600080fd5b50600436106100415760003560e01c806302c5b75f1461004657806392b0ed1a14610076578063a2bd3644146100a6575b600080fd5b610060600480360381019061005b9190610650565b6100d6565b60405161006d9190610711565b60405180910390f35b610090600480360381019061008b9190610679565b6100e8565b60405161009d9190610711565b60405180910390f35b6100c060048036038101906100bb9190610650565b6100fc565b6040516100cd9190610711565b60405180910390f35b60606100e18261010e565b9050919050565b60606100f48383610194565b905092915050565b60606101078261048e565b9050919050565b60606000821415610156576040518060400160405280600481526020017f3078303000000000000000000000000000000000000000000000000000000000815250905061018f565b600082905060005b60008214610180578080610171906108eb565b915050600882901c915061015e565b61018a8482610194565b925050505b919050565b6060600060028360026101a791906107f6565b6101b1919061076f565b67ffffffffffffffff8111156101f0577f4e487b7100000000000000000000000000000000000000000000000000000000600052604160045260246000fd5b6040519080825280601f01601f1916602001820160405280156102225781602001600182028036833780820191505090505b5090507f300000000000000000000000000000000000000000000000000000000000000081600081518110610280577f4e487b7100000000000000000000000000000000000000000000000000000000600052603260045260246000fd5b60200101907effffffffffffffffffffffffffffffffffffffffffffffffffffffffffffff1916908160001a9053507f78000000000000000000000000000000000000000000000000000000000000008160018151811061030a577f4e487b7100000000000000000000000000000000000000000000000000000000600052603260045260246000fd5b60200101907effffffffffffffffffffffffffffffffffffffffffffffffffffffffffffff1916908160001a9053506000600184600261034a91906107f6565b610354919061076f565b90505b6001811115610440577f3031323334353637383961626364656600000000000000000000000000000000600f8616601081106103bc577f4e487b7100000000000000000000000000000000000000000000000000000000600052603260045260246000fd5b1a60f81b8282815181106103f9577f4e487b7100000000000000000000000000000000000000000000000000000000600052603260045260246000fd5b60200101907effffffffffffffffffffffffffffffffffffffffffffffffffffffffffffff1916908160001a905350600485901c945080610439906108c1565b9050610357565b5060008414610484576040517f08c379a000000000000000000000000000000000000000000000000000000000815260040161047b90610733565b60405180910390fd5b8091505092915050565b606060008214156104d6576040518060400160405280600181526020017f30000000000000000000000000000000000000000000000000000000000000008152509050610636565b600082905060005b600082146105085780806104f1906108eb565b915050600a8261050191906107c5565b91506104de565b60008167ffffffffffffffff81111561054a577f4e487b7100000000000000000000000000000000000000000000000000000000600052604160045260246000fd5b6040519080825280601f01601f19166020018201604052801561057c5781602001600182028036833780820191505090505b5090505b6000851461062f576001826105959190610850565b9150600a856105a49190610934565b60306105b0919061076f565b60f81b8183815181106105ec577f4e487b7100000000000000000000000000000000000000000000000000000000600052603260045260246000fd5b60200101907effffffffffffffffffffffffffffffffffffffffffffffffffffffffffffff1916908160001a905350600a8561062891906107c5565b9450610580565b8093505050505b919050565b60008135905061064a816109fd565b92915050565b60006020828403121561066257600080fd5b60006106708482850161063b565b91505092915050565b6000806040838503121561068c57600080fd5b600061069a8582860161063b565b92505060206106ab8582860161063b565b9150509250929050565b60006106c082610753565b6106ca818561075e565b93506106da81856020860161088e565b6106e3816109c3565b840191505092915050565b60006106fb60208361075e565b9150610706826109d4565b602082019050919050565b6000602082019050818103600083015261072b81846106b5565b905092915050565b6000602082019050818103600083015261074c816106ee565b9050919050565b600081519050919050565b600082825260208201905092915050565b600061077a82610884565b915061078583610884565b9250827fffffffffffffffffffffffffffffffffffffffffffffffffffffffffffffffff038211156107ba576107b9610965565b5b828201905092915050565b60006107d082610884565b91506107db83610884565b9250826107eb576107ea610994565b5b828204905092915050565b600061080182610884565b915061080c83610884565b9250817fffffffffffffffffffffffffffffffffffffffffffffffffffffffffffffffff048311821515161561084557610844610965565b5b828202905092915050565b600061085b82610884565b915061086683610884565b92508282101561087957610878610965565b5b828203905092915050565b6000819050919050565b60005b838110156108ac578082015181840152602081019050610891565b838111156108bb576000848401525b50505050565b60006108cc82610884565b915060008214156108e0576108df610965565b5b600182039050919050565b60006108f682610884565b91507fffffffffffffffffffffffffffffffffffffffffffffffffffffffffffffffff82141561092957610928610965565b5b600182019050919050565b600061093f82610884565b915061094a83610884565b92508261095a57610959610994565b5b828206905092915050565b7f4e487b7100000000000000000000000000000000000000000000000000000000600052601160045260246000fd5b7f4e487b7100000000000000000000000000000000000000000000000000000000600052601260045260246000fd5b6000601f19601f8301169050919050565b7f537472696e67733a20686578206c656e67746820696e73756666696369656e74600082015250565b610a0681610884565b8114610a1157600080fd5b5056fea264697066735822122052c32f52845509886f0058188a3658fee83c20ca4f3330f1bc3f16201d199a4464736f6c63430008040033",
  "immutableReferences": {},
  "source": "// SPDX-License-Identifier: MIT\n\npragma solidity ^0.8.0;\n\nimport \"../utils/Strings.sol\";\n\ncontract StringsMock {\n    function fromUint256(uint256 value) public pure returns (string memory) {\n        return Strings.toString(value);\n    }\n\n    function fromUint256Hex(uint256 value) public pure returns (string memory) {\n        return Strings.toHexString(value);\n    }\n\n    function fromUint256HexFixed(uint256 value, uint256 length) public pure returns (string memory) {\n        return Strings.toHexString(value, length);\n    }\n}\n",
  "sourcePath": "/Users/alexanderpetrovskiy/work/neon/neon-uat/openzeppelin-contracts/contracts/mocks/StringsMock.sol",
  "compiler": {
    "name": "solc",
    "version": "0.8.4+commit.c7e474f2.Emscripten.clang"
  },
  "schemaVersion": "3.4.3",
  "updatedAt": "2021-10-12T15:22:39.013Z",
  "devdoc": {
    "kind": "dev",
    "methods": {},
    "version": 1
  },
  "userdoc": {
    "kind": "user",
    "methods": {},
    "version": 1
  }
}