{
  "contractName": "UUPSUpgradeableUnsafeMock",
  "abi": [
    {
      "anonymous": false,
      "inputs": [
        {
          "indexed": false,
          "internalType": "address",
          "name": "previousAdmin",
          "type": "address"
        },
        {
          "indexed": false,
          "internalType": "address",
          "name": "newAdmin",
          "type": "address"
        }
      ],
      "name": "AdminChanged",
      "type": "event"
    },
    {
      "anonymous": false,
      "inputs": [
        {
          "indexed": true,
          "internalType": "address",
          "name": "beacon",
          "type": "address"
        }
      ],
      "name": "BeaconUpgraded",
      "type": "event"
    },
    {
      "anonymous": false,
      "inputs": [
        {
          "indexed": true,
          "internalType": "address",
          "name": "implementation",
          "type": "address"
        }
      ],
      "name": "Upgraded",
      "type": "event"
    },
    {
      "inputs": [],
      "name": "current",
      "outputs": [
        {
          "internalType": "uint256",
          "name": "",
          "type": "uint256"
        }
      ],
      "stateMutability": "view",
      "type": "function"
    },
    {
      "inputs": [],
      "name": "decrement",
      "outputs": [],
      "stateMutability": "nonpayable",
      "type": "function"
    },
    {
      "inputs": [],
      "name": "increment",
      "outputs": [],
      "stateMutability": "nonpayable",
      "type": "function"
    },
    {
      "inputs": [],
      "name": "reset",
      "outputs": [],
      "stateMutability": "nonpayable",
      "type": "function"
    },
    {
      "inputs": [
        {
          "internalType": "address",
          "name": "newImplementation",
          "type": "address"
        }
      ],
      "name": "upgradeTo",
      "outputs": [],
      "stateMutability": "nonpayable",
      "type": "function"
    },
    {
      "inputs": [
        {
          "internalType": "address",
          "name": "newImplementation",
          "type": "address"
        },
        {
          "internalType": "bytes",
          "name": "data",
          "type": "bytes"
        }
      ],
      "name": "upgradeToAndCall",
      "outputs": [],
      "stateMutability": "payable",
      "type": "function"
    }
  ],
  "bytecode": "0x60a06040523073ffffffffffffffffffffffffffffffffffffffff1660809073ffffffffffffffffffffffffffffffffffffffff1660601b81525034801561004657600080fd5b5060805160601c6109f3610062600039600050506109f36000f3fe6080604052600436106100555760003560e01c80632baeceb71461005a5780633659cfe6146100715780634f1ef2861461009a5780639fa6a6e3146100b6578063d09de08a146100e1578063d826f88f146100f8575b600080fd5b34801561006657600080fd5b5061006f61010f565b005b34801561007d57600080fd5b506100986004803603810190610093919061052e565b61011b565b005b6100b460048036038101906100af9190610557565b610139565b005b3480156100c257600080fd5b506100cb610149565b6040516100d89190610726565b60405180910390f35b3480156100ed57600080fd5b506100f661015a565b005b34801561010457600080fd5b5061010d610166565b005b6101196000610172565b565b610136816040518060200160405280600081525060006101ce565b50565b610145828260006101ce565b5050565b600061015560006101fa565b905090565b6101646000610208565b565b610170600061021e565b565b600081600001549050600081116101be576040517f08c379a00000000000000000000000000000000000000000000000000000000081526004016101b5906106c6565b60405180910390fd5b6001810382600001819055505050565b6101d78361022b565b6000825111806101e45750805b156101f5576101f3838361027a565b505b505050565b600081600001549050919050565b6001816000016000828254019250508190555050565b6000816000018190555050565b610234816102a7565b8073ffffffffffffffffffffffffffffffffffffffff167fbc7cd75a20ee27fd9adebab32041f755214dbc6bffa90cc0225b39da2e5c2d3b60405160405180910390a250565b606061029f838360405180606001604052806027815260200161099760279139610360565b905092915050565b6102b08161042d565b6102ef576040517f08c379a00000000000000000000000000000000000000000000000000000000081526004016102e6906106e6565b60405180910390fd5b8061031c7f360894a13ba1a3210667c828492db98dca3e2076cc3735a920a3ca505d382bbc60001b610440565b60000160006101000a81548173ffffffffffffffffffffffffffffffffffffffff021916908373ffffffffffffffffffffffffffffffffffffffff16021790555050565b606061036b8461042d565b6103aa576040517f08c379a00000000000000000000000000000000000000000000000000000000081526004016103a190610706565b60405180910390fd5b6000808573ffffffffffffffffffffffffffffffffffffffff16856040516103d2919061068d565b600060405180830381855af49150503d806000811461040d576040519150601f19603f3d011682016040523d82523d6000602084013e610412565b606091505b509150915061042282828661044a565b925050509392505050565b600080823b905060008111915050919050565b6000819050919050565b6060831561045a578290506104aa565b60008351111561046d5782518084602001fd5b816040517f08c379a00000000000000000000000000000000000000000000000000000000081526004016104a191906106a4565b60405180910390fd5b9392505050565b60006104c46104bf84610766565b610741565b9050828152602081018484840111156104dc57600080fd5b6104e7848285610805565b509392505050565b6000813590506104fe8161097f565b92915050565b600082601f83011261051557600080fd5b81356105258482602086016104b1565b91505092915050565b60006020828403121561054057600080fd5b600061054e848285016104ef565b91505092915050565b6000806040838503121561056a57600080fd5b6000610578858286016104ef565b925050602083013567ffffffffffffffff81111561059557600080fd5b6105a185828601610504565b9150509250929050565b60006105b682610797565b6105c081856107ad565b93506105d0818560208601610814565b80840191505092915050565b60006105e7826107a2565b6105f181856107b8565b9350610601818560208601610814565b61060a816108a7565b840191505092915050565b6000610622601b836107b8565b915061062d826108b8565b602082019050919050565b6000610645602d836107b8565b9150610650826108e1565b604082019050919050565b60006106686026836107b8565b915061067382610930565b604082019050919050565b610687816107fb565b82525050565b600061069982846105ab565b915081905092915050565b600060208201905081810360008301526106be81846105dc565b905092915050565b600060208201905081810360008301526106df81610615565b9050919050565b600060208201905081810360008301526106ff81610638565b9050919050565b6000602082019050818103600083015261071f8161065b565b9050919050565b600060208201905061073b600083018461067e565b92915050565b600061074b61075c565b90506107578282610847565b919050565b6000604051905090565b600067ffffffffffffffff82111561078157610780610878565b5b61078a826108a7565b9050602081019050919050565b600081519050919050565b600081519050919050565b600081905092915050565b600082825260208201905092915050565b60006107d4826107db565b9050919050565b600073ffffffffffffffffffffffffffffffffffffffff82169050919050565b6000819050919050565b82818337600083830152505050565b60005b83811015610832578082015181840152602081019050610817565b83811115610841576000848401525b50505050565b610850826108a7565b810181811067ffffffffffffffff8211171561086f5761086e610878565b5b80604052505050565b7f4e487b7100000000000000000000000000000000000000000000000000000000600052604160045260246000fd5b6000601f19601f8301169050919050565b7f436f756e7465723a2064656372656d656e74206f766572666c6f770000000000600082015250565b7f455243313936373a206e657720696d706c656d656e746174696f6e206973206e60008201527f6f74206120636f6e747261637400000000000000000000000000000000000000602082015250565b7f416464726573733a2064656c65676174652063616c6c20746f206e6f6e2d636f60008201527f6e74726163740000000000000000000000000000000000000000000000000000602082015250565b610988816107c9565b811461099357600080fd5b5056fe416464726573733a206c6f772d6c6576656c2064656c65676174652063616c6c206661696c6564a26469706673582212205221ee83801882e3af1358fd1ba31ae058f1bc16a101d80f95f68aad4f73d1d264736f6c63430008040033",
  "immutableReferences": {},
  "source": "// SPDX-License-Identifier: MIT\n\npragma solidity ^0.8.0;\n\nimport \"../CountersImpl.sol\";\nimport \"../../proxy/utils/UUPSUpgradeable.sol\";\n\ncontract UUPSUpgradeableMock is CountersImpl, UUPSUpgradeable {\n    // Not having any checks in this function is dangerous! Do not do this outside tests!\n    function _authorizeUpgrade(address) internal virtual override {}\n}\n\ncontract UUPSUpgradeableUnsafeMock is UUPSUpgradeableMock {\n    function upgradeTo(address newImplementation) external virtual override {\n        ERC1967Upgrade._upgradeToAndCall(newImplementation, bytes(\"\"), false);\n    }\n\n    function upgradeToAndCall(address newImplementation, bytes memory data) external payable virtual override {\n        ERC1967Upgrade._upgradeToAndCall(newImplementation, data, false);\n    }\n}\n\ncontract UUPSUpgradeableBrokenMock is UUPSUpgradeableMock {\n    function upgradeTo(address) external virtual override {\n        // pass\n    }\n\n    function upgradeToAndCall(address, bytes memory) external payable virtual override {\n        // pass\n    }\n}\n",
  "sourcePath": "/Users/alexanderpetrovskiy/work/neon/neon-uat/openzeppelin-contracts/contracts/mocks/UUPS/TestInProd.sol",
  "compiler": {
    "name": "solc",
    "version": "0.8.4+commit.c7e474f2.Emscripten.clang"
  },
  "schemaVersion": "3.4.3",
  "updatedAt": "2021-10-12T07:13:47.640Z",
  "devdoc": {
    "kind": "dev",
    "methods": {
      "upgradeTo(address)": {
        "details": "Upgrade the implementation of the proxy to `newImplementation`. Calls {_authorizeUpgrade}. Emits an {Upgraded} event."
      },
      "upgradeToAndCall(address,bytes)": {
        "details": "Upgrade the implementation of the proxy to `newImplementation`, and subsequently execute the function call encoded in `data`. Calls {_authorizeUpgrade}. Emits an {Upgraded} event."
      }
    },
    "version": 1
  },
  "userdoc": {
    "kind": "user",
    "methods": {},
    "version": 1
  }
}